:040000004CEF00F0D1
:100008005C82D9CF01F0DACF02F09EAA0EEF00F0A1
:1000180010EF00F025EF00F0AECF03F0C80E5B60E4
:1000280018EF00F01AEF00F023EF00F0200E5B2429
:10003800D96EDA6A010EDA2203C0DFFF5B2A1EECF2
:1000480013F0F2A42AEF00F02CEF00F030EF00F0EC
:10005800D59EF294010E5A6E9DA035EF00F037EF51
:1000680000F046EF00F09EA03CEF00F03EEF00F0FD
:1000780046EF00F0630ECF6EC00ECE6E9E90010E5E
:100088000001CE6F02C0DAFF01C0D9FF5C921100F7
:100098001DEF12F051C008F052C009F0490E0A6E67
:1000A8007F0E0B6E36EC09F009BE5DEF00F05FEFD6
:1000B80000F01CEF03F051C008F052C009F0EA0E3E
:1000C8000A6E7F0E0B6E36EC09F009BE6EEF00F07B
:1000D80070EF00F01CEF03F051C008F052C009F0B7
:1000E800F30E0A6E7F0E0B6E36EC09F008C0F8F0BE
:1000F80009C0F9F00001F9BF84EF00F086EF00F0C5
:1001080004EF01F051C008F052C009F0FA0E0A6E6F
:100118007F0E0B6E36EC09F008C0E5F009C0E6F07A
:10012800000E0001EA6F000EE96FF16BF26BF8C088
:10013800EBF0F9C0ECF0EEEF00F0EB515124D96E82
:10014800EC515220DA6EDF50F56F2C0EF519D8A459
:10015800B0EF00F0B2EF00F0B3EF00F0F22B2F0E8B
:10016800F565B9EF00F0BBEF00F0ECEF00F03A0EE8
:10017800F561C1EF00F0C3EF00F0ECEF00F0F251D1
:10018800D8A4C9EF00F0CBEF00F0D1EF00F0F151A7
:100198000A0DF350F525D00FF16FF205D8A4D7EF6B
:1001A80000F0D9EF00F0ECEF00F00A0EE903F3CF0E
:1001B800E3F0F4CFE4F0EA03F350E427F551E32742
:1001C800000EE423D00EE325E96FFF0EE421EA6F69
:1001D800EB4BEC2BE551EB5DEC51800AE36FE651FC
:1001E800800AE359D8A0FBEF00F0FDEF00F0A1EF83
:1001F80000F0E9C035F0EAC036F0F15185EC0BF0BB
:1002080051C008F052C009F0EF0E0A6E7F0E0B6E57
:1002180036EC09F008C0F8F009C0F9F00001F9BFA0
:1002280018EF01F01AEF01F014EF02F051C008F0D6
:1002380052C009F0FA0E0A6E7F0E0B6E36EC09F00A
:1002480008C0E7F009C0E8F0000E0001EE6F000EEC
:10025800ED6FF46BF36BF8C0EFF0F9C0F0F082EFDC
:1002680001F0EF515124D96EF0515220DA6EDF506F
:10027800F66F2C0EF619D8A444EF01F046EF01F002
:1002880047EF01F0F32B2F0EF6654DEF01F04FEF1E
:1002980001F080EF01F03A0EF66155EF01F057EFEB
:1002A80001F080EF01F0F351D8A45DEF01F05FEFAA
:1002B80001F065EF01F0F4510A0DF350F625D00F67
:1002C800F46FF305D8A46BEF01F06DEF01F080EF48
:1002D80001F00A0EED03F3CFE3F0F4CFE4F0EE0300
:1002E800F350E427F651E327000EE423D00EE3256C
:1002F800ED6FFF0EE421EE6FEF4BF02BE751EF5D52
:10030800F051800AE36FE851800AE359D8A08FEFD3
:1003180001F091EF01F035EF01F0F76BED51EE11BF
:10032800D8A499EF01F09BEF01F09FEF01F0010EC7
:10033800F76FA0EF01F0F76BF407E9EF01F0F7B101
:1003480002D08A9A01D08A8A14EF02F0F7B102D05B
:100358008A9801D08A8814EF02F0F7B102D08A9601
:1003680001D08A8614EF02F0F7B102D08A9401D046
:100378008A8414EF02F0F7B102D08A9201D08A82FF
:1003880014EF02F0F7B102D08A9001D08A8014EFFE
:1003980002F0F7B102D08C9E01D08C8E14EF02F0DF
:1003A800F7B102D08C9C01D08C8C14EF02F0F7B11D
:1003B80002D08C9A01D08C8A14EF02F0F7B102D0E7
:1003C8008C9801D08C8814EF02F0F451000AD8B44C
:1003D800A3EF01F0010AD8B4AAEF01F0030AD8B4D8
:1003E800B1EF01F0010AD8B4B8EF01F0070AD8B4A8
:1003F800BFEF01F0010AD8B4C6EF01F0030AD8B480
:10040800CDEF01F0010AD8B4D4EF01F00F0AD8B447
:10041800DBEF01F0010AD8B4E2EF01F014EF02F0CB
:1004280051C008F052C009F0E30E0A6E7F0E0B6E41
:1004380036EC09F008C0F8F009C0F9F00001F9BF7E
:1004480028EF02F02AEF02F02CEF02F071EC07F02F
:1004580051C008F052C009F0BA0E0A6E7F0E0B6E3A
:1004680036EC09F008C0F8F009C0F9F00001F9BF4E
:1004780040EF02F042EF02F044EF02F072EC0EF0AF
:1004880051C008F052C009F0DB0E0A6E7F0E0B6EE9
:1004980036EC09F008C0F8F009C0F9F00001F9BF1E
:1004A80058EF02F05AEF02F05CEF02F0C8EC0EF0E1
:1004B80051C008F052C009F0AE0E0A6E7F0E0B6EE6
:1004C80036EC09F008C0F8F009C0F9F00001F9BFEE
:1004D80070EF02F072EF02F074EF02F0A9EC12F084
:1004E80051C008F052C009F0A10E0A6E7F0E0B6EC3
:1004F80036EC09F008C0F8F009C0F9F00001F9BFBE
:1005080088EF02F08AEF02F08CEF02F0F2EC10F0C4
:1005180051C008F052C009F0930E0A6E7F0E0B6EA0
:1005280036EC09F008C0F8F009C0F9F00001F9BF8D
:10053800A0EF02F0A2EF02F0A4EF02F0E9EC12F053
:1005480051C008F052C009F0670E0A6E7F0E0B6E9C
:1005580036EC09F008C0F8F009C0F9F00001F9BF5D
:10056800B8EF02F0BAEF02F0BCEF02F0F5EC12F0CF
:1005780051C008F052C009F0850E0A6E7F0E0B6E4E
:1005880036EC09F008C0F8F009C0F9F00001F9BF2D
:10059800D0EF02F0D2EF02F0D4EF02F0D1EC12F07B
:1005A80051C008F052C009F0580E0A6E7F0E0B6E4B
:1005B80036EC09F008C0F8F009C0F9F00001F9BFFD
:1005C800E8EF02F0EAEF02F0ECEF02F0DDEC12F0F7
:1005D80051C008F052C009F0C60E0A6E7F0E0B6EAD
:1005E80036EC09F008C0F8F009C0F9F00001F9BFCD
:1005F80000EF03F002EF03F004EF03F09AEC12F0BF
:1006080051C008F052C009F0D10E0A6E7F0E0B6E71
:1006180036EC09F008C0F8F009C0F9F00001F9BF9C
:1006280018EF03F01AEF03F01CEF03F0010EC46F8C
:1006380012001550800B1E6E15501524246E14AE32
:1006480028EF03F02AEF03F02BEF03F02480245067
:10065800D8B431EF03F033EF03F046EF03F024286A
:10066800D8A439EF03F03BEF03F043EF03F0000E9B
:10067800126E000E136E000E146E000E156E148EA0
:100688004EEF03F0000E126E000E136E000E146E85
:10069800000E156E1950800B1E1A195019241F6E62
:1006A80018AE59EF03F05BEF03F05CEF03F01F8027
:1006B8001F50D8B462EF03F064EF03F077EF03F054
:1006C8001F28D8A46AEF03F06CEF03F074EF03F06F
:1006D800000E166E000E176E000E186E000E196EC4
:1006E800188E7FEF03F0000E166E000E176E000EC8
:1006F800186E000E196E1F50D8B485EF03F087EFFF
:1007080003F08FEF03F02450D8A48DEF03F08FEFA0
:1007180003F099EF03F0000E126E000E136E000E38
:10072800146E000E156E2FEF05F018501202F3CF5D
:1007380029F0F4CF2AF02950206E216A226A236A10
:100748002A50256E266A276A286A17501302F3CFA3
:1007580029F0F4CF2AF029502026000E2122222247
:1007680023222A502526000E262227222822165028
:100778001402F3CF29F0F4CF2AF029502026000ED6
:100788002122222223222A502526000E2622272231
:10079800282222C023F021C022F020C021F0206AA4
:1007A80016501302F3CF29F0F4CF2AF0295020264F
:1007B8002A502122000E2222000E23221750120254
:1007C800F3CF29F0F4CF2AF0295020262A502122ED
:1007D800000E2222000E232222C023F021C022F084
:1007E80020C021F0206A16501202F3CF29F0F4CF6E
:1007F8002AF0295020262A502122000E2222000EFB
:10080800232218501302F3CF29F0F4CF2AF02950ED
:1008180025262A502622000E2722000E28221750AD
:100828001402F3CF29F0F4CF2AF0295025262A50B4
:100838002622000E2722000E282218501402F3CF79
:1008480029F0F4CF2AF029501A6E2A501B6E1C6A20
:100858001D6A1CC01DF01BC01CF01AC01BF01A6AD0
:100868001A5025261B5026221C5027221D502822AC
:1008780020C01AF021C01BF022C01CF023C01DF0BC
:10088800190E4CEF04F0D8901D321C321B321A326C
:10089800E82E47EF04F01A5025261B5026221C503C
:1008A80027221D50282222C023F021C022F020C078
:1008B80021F0206A1F5024C01AF01B6A1A26000E65
:1008C8001B22820E1A24296EFF0E1B202A6E82EF2D
:1008D80004F0D890253626362736283623AE77EF0B
:1008E80004F079EF04F07AEF04F02580D8902036F0
:1008F8002136223623362906D8A02A0627AE87EFC6
:1009080004F089EF04F06DEF04F01F6A23AE8FEF57
:1009180004F091EF04F0B5EF04F0FF0E20141A6E06
:10092800FF0E21141B6EFF0E22141C6E7F0E231463
:100938001D6E1A501B101C101D10D8B4A6EF04F021
:10094800A8EF04F0ACEF04F0010E1F6EB5EF04F051
:1009580025A0B1EF04F0B3EF04F0B5EF04F0A8EF71
:1009680004F01F50D8B4BBEF04F0BDEF04F0E1EF82
:1009780004F0010E2526000E26222722282228A070
:10098800C8EF04F0CAEF04F0E1EF04F025C01AF054
:1009980026C01BF027C01CF028C01DF01D341D32D6
:1009A8001C321B321A321AC025F01BC026F01CC09C
:1009B80027F01DC028F0294A2A2A2ABEECEF04F0A5
:1009C8002A5008E12928D8A0ECEF04F0EEEF04F053
:1009D800F8EF04F0000E256E000E266E800E276ECE
:1009E8007F0E286E25EF05F02ABE05EF05F02A5088
:1009F80006E12904D8B003EF05F005EF05F010EF84
:100A080005F0000E256E000E266E000E276E000EF5
:100A1800286E1E6A25EF05F029C024F0FF0E251662
:100A2800FF0E26167F0E2716000E281624A01FEF8D
:100A380005F021EF05F022EF05F0278ED89024303D
:100A4800286E1E50281225C012F026C013F027C0A9
:100A580014F028C015F01200200E125C3F0E135837
:100A6800D8A039EF05F03BEF05F041EF05F0D80EBF
:100A7800136EFA0E126E7FEF06F0410E125C010E35
:100A88001358D8B04AEF05F04CEF05F052EF05F0D7
:100A9800270E136E060E126E7FEF06F0B50EF66E79
:100AA8007D0EF76E12500900F55C13500900F558D9
:100AB800D8B061EF05F063EF05F069EF05F0D90EE6
:100AC800136E040E126E7FEF06F0050EF66E7E0EA4
:100AD800F76E0900F550125C0900F5501358D8B0AC
:100AE80078EF05F07AEF05F080EF05F0260E136E2B
:100AF800FC0E126E7FEF06F0010E2C6E85EF05F0EE
:100B08002C2A2C50020DB50EF324F66E7D0EF4201F
:100B1800F76E0900F550125C0900F5501358D8A07B
:100B280098EF05F09AEF05F084EF05F02C50146E5D
:100B3800156AD89014361536FE0E1424166EFF0E5C
:100B48001520176E070E1624F66E7E0E1720F76E08
:100B58000900F5CF18F00900F5CF19F02C50020D57
:100B6800070EF324F66E7E0EF420F76E1850090077
:100B7800F55C1A6E19500900F5581B6E1AC01CF066
:100B88001BC01DF0000E1DBEFF0E1E6E1F6E2C50EA
:100B9800020DB50EF324F66E7D0EF420F76E0900F3
:100BA800F5CF14F00900F5CF15F02C50166E176A22
:100BB800D89016361736FE0E1624186EFF0E17201C
:100BC800196EB50E1824F66E7D0E1920F76E090001
:100BD800F5CF1AF00900F5CF1BF014501A5C286EF7
:100BE80015501B58296E2A6AD8A02A062A502B6E3F
:100BF8002C50146E156AD89014361536FE0E14242F
:100C0800166EFF0E1520176EB50E1624F66E7D0EA5
:100C18001720F76E0900F5CF18F00900F5CF19F085
:100C28001250185C046E13501958056E066AD8A045
:100C380006060650076E1CC008F01DC009F01EC04D
:100C48000AF01FC00BF0BDEC10F004C020F005C086
:100C580021F006C022F007C023F0020E086E000E35
:100C6800096E000E0A6E000E0B6E28C004F029C033
:100C780005F02AC006F02BC007F07BEC0AF02050E4
:100C88000424246E21500520256E22500620266E4D
:100C980023500720276E2C50146E156AD8901436EE
:100CA8001536FE0E1424166EFF0E1520176E070E4D
:100CB8001624F66E7E0E1720F76E0900F5CF18F091
:100CC8000900F5CF19F024C004F025C005F026C0AE
:100CD80006F027C007F028C008F029C009F02AC08C
:100CE8000AF02BC00BF07BEC0AF018500424126EAB
:100CF80019500520136E12000F50D96EDA6ADECF34
:100D0800F6FFDDCFF7FF0800F550250AD8A48FEFCE
:100D180006F091EF06F05FEF07F00F50D96EDA6A30
:100D2800DE2A000EDD22000E0001A76F000EA66F5E
:100D3800A6C0C0F0A869A9690F50D96EDA6ADECFDB
:100D480014F0DDCF15F014C0F6FF15C0F7FF08004A
:100D5800F550640AD8B4B3EF06F0B5EF06F0C3EF68
:100D680006F014C0F6FF15C0F7FF0800F550690A31
:100D7800D8A4C1EF06F0C3EF06F057EF07F0105004
:100D8800D96EDA6A020EDF26DF5CD96EDA6ADECF48
:100D980016F0DECF17F0010E1424116E000E152088
:100DA800126E0F50D96EDA6A11C0DEFF12C0DDFF75
:100DB800200E1A6E17BEE3EF06F0E6EF06F0010EFE
:100DC800E7EF06F0000E136E1A06000E1A24D96E0D
:100DD800DA6A010EDA2216C004F017C005F0000E18
:100DE800076E0A0E066E1BEC0EF004C00AF005C072
:100DF8000BF003EC12F00A50300FDF6E16C004F04F
:100E080017C005F0000E076E0A0E066E01EC0DF015
:100E180004C016F005C017F016501710D8B417EF15
:100E280007F019EF07F021EF07F01A50D8A41FEFC9
:100E380007F021EF07F0E8EF06F01A50D8B427EFD3
:100E480007F029EF07F04CEF07F01350D8B42FEF55
:100E580007F031EF07F04CEF07F01A06000E1A24DE
:100E6800D96EDA6A010EDA222D0EDF6E4CEF07F02A
:100E7800000E1A24D96EDA6A010EDA22DF50116EDA
:100E88001150046E056A0EC006F073EC0FF01A2AB2
:100E9800200E1A18D8A453EF07F055EF07F03CEFCF
:100EA80007F070EF07F00F50D96EDA6ADE2A000EED
:100EB800DD2270EF07F00F50D96EDA6ADECFF6FF49
:100EC800DDCFF7FF0800F550046E056A0EC006F086
:100ED80073EC0FF057EF07F01200000E8ABA010EFC
:100EE800456E000E8AB8010E466E000E8AB6010ED7
:100EF800476E000E8AB4010E486E000E8AB2010ECB
:100F0800496E000E8AB0010E4A6E000E8CBE010EAC
:100F18004B6E000E8CBC010E4C6E000E8CBA010E8E
:100F28004D6E000E8CB8010E4E6E8A8C1A0E446EF1
:100F3800F80EE82EFED7442EFCD700D0850E056E9D
:100F48007E0E066E25EC11F0000E506E000E4F6EF0
:100F5800CF0E216E820E226E7F0E236E4F50920F9F
:100F6800D96EDA6ADF50446E4450246E256AE7EC85
:100F780011F0CF0E056E066A25EC11F004004F4AF9
:100F8800502A50BED1EF07F0505009E10A0E4F5CCD
:100F9800D8A0D1EF07F0D3EF07F0ACEF07F0FC0EC5
:100FA800056E7F0E066E25EC11F0CF0E216EBE0E7B
:100FB800226E7E0E236E45C024F0256A46C026F0B8
:100FC800276A47C028F0296A48C02AF02B6A49C016
:100FD8002CF02D6A4AC02EF02F6A4BC030F0316ACF
:100FE8004CC032F0336A4DC034F0356A4EC036F02A
:100FF800376AE7EC11F0CF0E056E066A25EC11F0A2
:10100800FC0E056E7F0E066E25EC11F0CF0E216EDC
:10101800760E226E7F0E236EBEC024F0BFC025F070
:10102800000E276E000E266EBAC028F0BBC029F04D
:10103800B8C02AF0B9C02BF0000E2D6E000E2C6E31
:10104800E7EC11F0CF0E056E066A25EC11F0FC0EE8
:10105800056E7F0E066E25EC11F0CF0E216E760E12
:10106800226E7F0E236E57C024F0256AAAC026F090
:10107800ABC027F055C028F056C029F053C02AF05D
:1010880054C02BF0C4C02CF02D6AE7EC11F0F70E19
:10109800056E7F0E066E25EC11F004001A0E446EE4
:1010A800F80EE82EFED7442EFCD700D08A9C1200FA
:1010B8000C6E0C50D8B463EF08F065EF08F087EFBA
:1010C80008F007BE6CEF08F06AEF08F087EF08F049
:1010D80004C008F005C009F006C00AF007C00BF00C
:1010E800081E091E0A1E0B1E082A000E09220A22C3
:1010F8000B2208C00EF009C00FF00AC010F00BC098
:1011080011F08FEF08F004C00EF005C00FF006C014
:1011180010F007C011F00450051006100710D8A4ED
:1011280098EF08F09AEF08F0A4EF08F0000E046EAC
:10113800000E056E000E066E000E076E35EF09F004
:10114800960E0D6EAEEF08F00D2AD89011321032BF
:101158000F320E32000E0E14086E000E0F14096EB8
:10116800000E10140A6EFE0E11140B6E08500910B2
:101178000A100B10D8A4C3EF08F0C5EF08F0A8EFC9
:1011880008F0D3EF08F00D2A010E0E26000E0F22EC
:1011980010221122D890113210320F320E32000E66
:1011A8000E14086E000E0F14096E000E10140A6E4D
:1011B800FF0E11140B6E085009100A100B10D8A45A
:1011C800E8EF08F0EAEF08F0C7EF08F0F2EF08F0F0
:1011D8000D06D8900E360F361036113610BEF7EFC2
:1011E80008F0F9EF08F001EF09F0020E0D60FFEFCB
:1011F80008F001EF09F0ECEF08F00DB006EF09F088
:1012080008EF09F009EF09F0109ED8900D320DC0D3
:1012180008F0096A0A6A0B6A08C00BF00A6A096AC8
:10122800086A08500E1209500F120A5010120B507B
:1012380011120C50D8B423EF09F025EF09F02DEF67
:1012480009F007BE2CEF09F02AEF09F02DEF09F09D
:10125800118E0EC004F00FC005F010C006F011C0CA
:1012680007F0120008C004F009C005F054EC11F0B2
:1012780004C013F005C014F00AC004F00BC005F058
:1012880054EC11F004C015F005C016F01550135CAD
:101298001450800A0C6E1650800A0C58D8A057EFCC
:1012A80009F059EF09F0DCEF09F0000E1A6E000E94
:1012B800196EC7EF09F019500824D96E1A50092081
:1012C800DA6EDF500C6E0AC0F6FF0BC0F7FF08009D
:1012D800F5500C18D8A473EF09F075EF09F0C5EFB5
:1012E80009F0000E126E010E116E000E186E000E3F
:1012F800176EA7EF09F0175008240C6E1850092034
:101308000D6E19500C24D96E1A500D20DA6EDF506C
:101318000E6E17500A240F6E18500B20106E0FC057
:10132800F6FF10C0F7FF0800F5500E18D8B49FEF6D
:1013380009F0A1EF09F0A5EF09F0000E126E000EFA
:10134800116E174A182A1550175C1850800A0C6E2F
:101358001650800A0C58D8A0B4EF09F0B6EF09F07F
:101368007FEF09F011041210D8A4BDEF09F0BFEF08
:1013780009F0C5EF09F019C008F01AC009F0DEEF4E
:1013880009F0194A1A2A1550135C0C6E1650145895
:101398000D6E19500C5C0D50800A0E6E1A50800AA2
:1013A8000E58D8B0DAEF09F0DCEF09F05FEF09F07A
:1013B800086809681200000E096E000E086E0850D1
:1013C8009C0FD96EDA6ADE04D8A4EDEF09F0EFEFCE
:1013D80009F06AEF0AF00850020DF350600FD96E59
:1013E800DA6ADE2A000EDD220850020DF350740F6F
:1013F800D96EDA6A0850020DF350600FE16EE26AA6
:10140800DE50E65CDE50E658D8A00DEF0AF00FEF8C
:101418000AF06AEF0AF02FEF0AF08A8A65EF0AF0FD
:101428008A8865EF0AF08A8665EF0AF08A8465EF94
:101438000AF08A8265EF0AF08A8065EF0AF08C8EDE
:1014480065EF0AF08C8C65EF0AF08C8A65EF0AF07C
:101458008C8865EF0AF008C004F009C005F0055053
:10146800000AD8B43AEF0AF065EF0AF00450000A0F
:10147800D8B411EF0AF0010AD8B414EF0AF0030A3D
:10148800D8B417EF0AF0010AD8B41AEF0AF0070A1D
:10149800D8B41DEF0AF0010AD8B420EF0AF0030A05
:1014A800D8B423EF0AF0010AD8B426EF0AF00F0ADD
:1014B800D8B429EF0AF0010AD8B42CEF0AF065EF86
:1014C8000AF008509C0FD96EDA6ADF6A084A092ABE
:1014D80009BE78EF0AF0095009E10A0E085CD8A0A5
:1014E80078EF0AF07AEF0AF0E3EF09F012000D6ADC
:1014F8000BBE83EF0AF081EF0AF08DEF0AF00B1EA6
:101508000A1E091E086C000E09220A220B22010E6F
:101518000D6E07BE94EF0AF092EF0AF09EEF0AF004
:10152800071E061E051E046C000E05220622072251
:10153800010E0D1A000E0E6E000E0F6E000E106ECC
:10154800000E116E085009100A100B10D8B4AFEF36
:101558000AF0B1EF0AF0E7EF0AF0010E0C6EBBEFEC
:101568000AF0D890083609360A360B360C2A0BAE24
:10157800C0EF0AF0C2EF0AF0B5EF0AF0D8900E36C5
:101588000F36103611360850045C095005580A50B9
:1015980006580B500758D8A0D4EF0AF0D6EF0AF037
:1015A800DFEF0AF00850045E0950055A0A50065A3F
:1015B8000B50075A0E80D8900B320A320932083283
:1015C8000C2EC2EF0AF00D50D8B4EDEF0AF0EFEF91
:1015D8000AF0F7EF0AF0111E101E0F1E0E6C000E17
:1015E8000F22102211220EC004F00FC005F010C007
:1015F80006F011C007F01200000E166E000E176EEE
:10160800C00E186E3F0E196EAAC004F0ABC005F0EC
:10161800066A076A000E5CEC08F004C012F005C008
:1016280013F006C014F007C015F01DEC03F012C04B
:101638002BF013C02CF014C02DF015C02EF009ECBF
:101648000CF02BC035F02CC036F0050E85EC0BF0F5
:10165800000E166E000E176EC00E186E3F0E196E35
:1016680053C004F054C005F0066A076A000E5CEC2B
:1016780008F004C012F005C013F006C014F007C04B
:1016880015F01DEC03F012C02BF013C02CF014C0A1
:101698002DF015C02EF009EC0CF02BC035F02CC045
:1016A80036F0060E85EC0BF0000E166E000E176E67
:1016B800C00E186E3F0E196E55C004F056C005F0E6
:1016C800066A076A000E5CEC08F004C012F005C058
:1016D80013F006C014F007C015F01DEC03F012C09B
:1016E8002BF013C02CF014C02DF015C02EF009EC0F
:1016F8000CF02BC035F02CC036F0080E85EC0BF042
:101708001200376E35C004F036C005F0000E076EC3
:101718000A0E066E18EC10F004C035F005C036F05D
:101728003750D8B49AEF0BF09CEF0BF008EF0CF0A1
:101738000B0E3760A2EF0BF0A4EF0BF008EF0CF0E4
:1017480037063750020DF350600FD96EDA6ADE6A39
:10175800DD6A3750020DF350740FD96EDA6A35C05E
:10176800DEFF36C0DDFF37509C0FD96EDA6A010EF6
:10177800DF6EDDEF0BF08A9A08EF0CF08A9808EF1D
:101788000CF08A9608EF0CF08A9408EF0CF08A9215
:1017980008EF0CF08A9008EF0CF08C9E08EF0CF024
:1017A8008C9C08EF0CF08C9A08EF0CF08C9808EFE2
:1017B8000CF03750000AD8B4BFEF0BF0010AD8B4C8
:1017C800C2EF0BF0030AD8B4C5EF0BF0010AD8B486
:1017D800C8EF0BF0070AD8B4CBEF0BF0010AD8B466
:1017E800CEEF0BF0030AD8B4D1EF0BF0010AD8B44E
:1017F800D4EF0BF00F0AD8B4D7EF0BF0010AD8B426
:10180800DAEF0BF008EF0CF012002D342E34346EA2
:101818003450D8A412EF0CF014EF0CF01EEF0CF0BB
:10182800000E2B6E000E2C6E000E2D6E000E2E6E0E
:101838008BEF0CF02BC02FF02CC030F02DC031F006
:101848002EC032F0200E2EEF0CF0D890323231320A
:1018580030322F32E82E29EF0CF02F50336E2D8EB8
:10186800FF0E2B16FF0E2C16FF0E2D16000E2E1631
:10187800960E345E34BE45EF0CF043EF0CF05BEF90
:101888000CF03450800A970FD8B04DEF0CF04FEFA2
:101898000CF051EF0CF014EF0CF0D8902E322D32E2
:1018A8002C322B32343E51EF0CF073EF0CF01F0E3C
:1018B800346461EF0CF063EF0CF06BEF0CF014EF95
:1018C8000CF0D8902B362C362D362E363406345064
:1018D800D8A471EF0CF073EF0CF065EF0CF03350F7
:1018E800D8B479EF0CF07BEF0CF083EF0CF02E1EE0
:1018F8002D1E2C1E2B6C000E2C222D222E222BC0CE
:101908002BF02CC02CF02DC02DF02EC02EF0120084
:10191800056ED5EF0CF004B002D08A9A01D08A8AFD
:1019280000EF0DF004B002D08A9801D08A8800EF49
:101938000DF004B002D08A9601D08A8600EF0DF02F
:1019480004B002D08A9401D08A8400EF0DF004B06C
:1019580002D08A9201D08A8200EF0DF004B002D042
:101968008A9001D08A8000EF0DF004B002D08C9EDE
:1019780001D08C8E00EF0DF004B002D08C9C01D009
:101988008C8C00EF0DF004B002D08C9A01D08C8AB8
:1019980000EF0DF004B002D08C9801D08C8800EFD5
:1019A8000DF00550000AD8B48FEF0CF0010AD8B436
:1019B80096EF0CF0030AD8B49DEF0CF0010AD8B4E6
:1019C800A4EF0CF0070AD8B4ABEF0CF0010AD8B4B6
:1019D800B2EF0CF0030AD8B4B9EF0CF0010AD8B48E
:1019E800C0EF0CF00F0AD8B4C7EF0CF0010AD8B456
:1019F800CEEF0CF000EF0DF01200096A07BE09EFF8
:101A08000DF007EF0DF00FEF0DF0066C071ED8B0C4
:101A1800072A010E096E05BE16EF0DF014EF0DF042
:101A28001CEF0DF0046C051ED8B0052A010E091A2A
:101A3800000E0B6E000E0A6E06500710D8B427EF82
:101A48000DF029EF0DF051EF0DF0010E086E31EF9A
:101A58000DF0D89006360736082A07AE36EF0DF097
:101A680038EF0DF02DEF0DF0D8900A360B360650F2
:101A7800045C07500558D8A044EF0DF046EF0DF070
:101A88004BEF0DF00650045E0750055A0A80D890B7
:101A980007320632082E38EF0DF00950D8B457EF48
:101AA8000DF059EF0DF05DEF0DF00A6C0B1ED8B07C
:101AB8000B2A0AC004F00BC005F01200C5EC12F0A6
:101AC80064EC12F079EC12F00CEC13F001EC13F06A
:101AD800D09EF28CF28EBFEC0DF0010E586E000E07
:101AE80015EC13F0750E0001AB6F300EAA6F070EE0
:101AF800546ED00E536E040E566EB00E556E5A507C
:101B0800D8B489EF0DF08BEF0DF0A5EF0DF0200E96
:101B1800516E010E526E4EEC00F00001FA6B200E71
:101B2800FA25D96EDA6A010EDA22DF6AFA2BC70EB5
:101B3800FA65A1EF0DF0A3EF0DF093EF0DF05B6ADE
:101B48005A6A0001CE51D8B4ACEF0DF0AEEF0DF0EB
:101B5800BAEF0DF0BFEC0DF01EEC0FF0DFEC09F062
:101B680036EC12F0C8EC0FF00001CE6B040083EFE6
:101B78000DF04CEF00F0000E84B0010E0001926FE2
:101B8800000E84B2010E936F000E84B4010E946FA0
:101B9800000E82B0010E956F000E82B2010E966F94
:101BA800000E82B4010E976F000E83B0010E986F7D
:101BB800000E83B2010E996F000E83B4010E9A6F66
:101BC800000E83B6010E9B6F000E076E000E066EA8
:101BD8000650880FD96EDA6A0650920FE16EE26AF3
:101BE800DE50E618D8B4FBEF0DF0FDEF0DF00AEF6C
:101BF8000EF00650920FD96EDA6A0650880FE16E21
:101C0800E26ADFCFE7FF010E0001CD6F064A072A1F
:101C180007BE18EF0EF0075009E10A0E065CD8A0BF
:101C280018EF0EF01AEF0EF0ECEF0DF01200096A43
:101C380005BE23EF0EF021EF0EF029EF0EF0046C35
:101C4800051ED8B0052A010E096E07BE30EF0EF04A
:101C58002EEF0EF034EF0EF0066C071ED8B0072AF0
:101C680006500710D8B43BEF0EF03DEF0EF061EFD1
:101C78000EF0010E086E45EF0EF0D89006360736C6
:101C8800082A07AE4AEF0EF04CEF0EF041EF0EF0C7
:101C98000650045C07500558D8A055EF0EF057EFD2
:101CA8000EF05BEF0EF00650045E0750055AD89010
:101CB80007320632082E4CEF0EF00950D8B467EF01
:101CC8000EF069EF0EF06DEF0EF0046C051ED8B043
:101CD800052A04C004F005C005F0120055C035F00F
:101CE80056C036F00A0E85EC0BF0000E3A6E000E68
:101CF800396E8AEF0EF0060E386E300EE82EFED7DB
:101D0800382EFCD700D00400394A3A2A5550395C9D
:101D180056503A58D8A093EF0EF095EF0EF07FEF9B
:101D28000EF0000E166E000E176EC00E186E3F0EE7
:101D3800196E55C004F056C005F0066A076A000E11
:101D48005CEC08F004C012F005C013F006C014F0F3
:101D580007C015F01DEC03F012C02BF013C02CF0D7
:101D680014C02DF015C02EF009EC0CF02BC035F086
:101D78002CC036F0080E85EC0BF0A90E076E7E0E0F
:101D8800086EA1EC11F0120053C035F054C036F0C3
:101D9800070E85EC0BF0000E3A6E000E396EE0EF80
:101DA8000EF0060E386E300EE82EFED7382EFCD711
:101DB80000D00400394A3A2A5350395C54503A58F2
:101DC800D8A0E9EF0EF0EBEF0EF0D5EF0EF0000E15
:101DD800166E000E176EC00E186E3F0E196E53C0A9
:101DE80004F054C005F0066A076A000E5CEC08F0BF
:101DF80004C012F005C013F006C014F007C015F0B7
:101E08001DEC03F012C02BF013C02CF014C02DF001
:101E180015C02EF009EC0CF02BC035F02CC036F0B4
:101E2800070E85EC0BF0190E076E7F0E086EA1ECFD
:101E380011F012000001CB2B050ECB6526EF0FF039
:101E480028EF0FF072EF0FF05950D8A42EEF0FF0D3
:101E580030EF0FF037EF0FF0000E7CEC11F004C0FC
:101E6800BEF005C0BFF05904D8A43DEF0FF03FEF16
:101E78000FF046EF0FF0010E7CEC11F004C0BEF03D
:101E880005C0BFF0020E5918D8A44DEF0FF04FEF60
:101E98000FF056EF0FF0020E88EC10F02DC0BAF0DC
:101EA8002EC0BBF0030E5918D8A45DEF0FF05FEFFA
:101EB8000FF066EF0FF0030E88EC10F02DC0B8F0AD
:101EC8002EC0B9F0592A030E59646DEF0FF06FEF69
:101ED8000FF070EF0FF0596A0001CB6B120006503B
:101EE800D8B479EF0FF07BEF0FF083EF0FF00650C7
:101EF800D8A481EF0FF083EF0FF088EF0FF00450B4
:101F080026EC13F0C7EF0FF00650D96EDA6A090E07
:101F1800D926DE50DE10D8B494EF0FF096EF0FF00C
:101F2800AFEF0FF00650D96EDA6A090ED9260650BF
:101F3800E16EE26A020EE126DE50E65CE650800AB7
:101F48000B6EDE50800A0B58D8B0ADEF0FF0AFEF34
:101F58000FF0C7EF0FF00650D96EDA6A020ED926D5
:101F6800DF50076E0650D96EDA6ADF500724D96E43
:101F7800DA6A04C0DFFF0650D96EDA6A020ED92683
:101F8800DE2A000EDD2212005804D8A4CEEF0FF08E
:101F9800D0EF0FF017EF10F00001C12BC70EC1658D
:101FA800D8EF0FF0DAEF0FF017EF10F0BBBFE6EF46
:101FB8000FF0BB5109E10B0EBA5DD8A0E6EF0FF0A8
:101FC800E8EF0FF0F2EF0FF0010E046E020E8CEC4A
:101FD8000CF0010E046E030E8CEC0CF00001BBAF8C
:101FE800FFEF0FF0F60EBA5DFF0EBB59D8B0FFEF4A
:101FF8000FF001EF10F015EF10F05750D8A407EFCD
:1020080010F009EF10F010EF10F0000E046E020E41
:102018008CEC0CF015EF10F0000E046E030E8CEC37
:102028000CF00001C16B1200000E0A6E000E096E62
:1020380006500710D8B423EF10F025EF10F04DEF3D
:1020480010F0010E086E2DEF10F0D8900636073606
:10205800082A07AE32EF10F034EF10F029EF10F035
:10206800D89009360A360650045C07500558D8A09F
:1020780040EF10F042EF10F047EF10F00650045E0A
:102088000750055A0980D89007320632082E34EFD7
:1020980010F009C004F00AC005F01200076E0750DE
:1020A8008BEC12F00518D8A45CEF10F05EEF10F07E
:1020B80060EF10F087EF10F007C0A9FF05C0A8FF78
:1020C800A69EA69CA696A684000EF2BE010E066EDB
:1020D800F29E550EA76EAA0EA76EA6820650D8B419
:1020E80078EF10F07AEF10F07EEF10F0F28E7EEFBE
:1020F80010F00400A6B283EF10F085EF10F07DEF2A
:1021080010F0A694A19812002F6E000E316E000EEA
:10211800306E346A2F507CEC11F004C032F005C0E8
:1021280033F0322806E13328D8A49DEF10F09FEF52
:1021380010F0A5EF10F0D80E2E6EFA0E2D6EBCEF33
:1021480010F03250302633503122342A0F0E3464C6
:10215800B0EF10F0B2EF10F08EEF10F030C012F0C8
:1021680031C013F030EC05F012C02DF013C02EF082
:102178001200000E0C6E000E0D6E000E0E6E000E9C
:102188000F6E04A0CAEF10F0CCEF10F0D4EF10F0EF
:1021980008500C2609500D220A500E220B500F220F
:1021A800D890083609360A360B36D89007320632E8
:1021B800053204320450051006100710D8A4E7EFC2
:1021C80010F0E9EF10F0C5EF10F00CC004F00DC0EE
:1021D80005F00EC006F00FC007F01200000E166ED4
:1021E800000E176EC00E186E3F0E196EAAC004F0CE
:1021F800ABC005F0066A076A000E5CEC08F004C084
:1022080012F005C013F006C014F007C015F01DEC5D
:1022180003F012C02BF013C02CF014C02DF015C021
:102228002EF009EC0CF02BC035F02CC036F0050E62
:1022380085EC0BF02A0E076E7F0E086EA1EC11F0EC
:1022480012003BEF11F005C0F6FF06C0F7FFF86A71
:10225800070EF76403D00800F55005D0F6CFE9FF64
:10226800F7CFEAFFEF50B7EC12F0054A062A05C08F
:10227800F6FF06C0F7FFF86A070EF76403D00800F8
:10228800F55005D0F6CFE9FFF7CFEAFFEF50000988
:10229800D8A451EF11F053EF11F027EF11F012000D
:1022A800000E076E000E066E5FEF11F00400064A7E
:1022B800072A044A052A04C0F6FF05C0F7FFF86A92
:1022C800070EF76403D00800F55005D0F6CFE9FFF4
:1022D800F7CFEAFFEF500009D8A475EF11F077EFB8
:1022E80011F05AEF11F006C004F007C005F0120013
:1022F800086E050E086483EF11F085EF11F089EF81
:1023080011F004680568A0EF11F008C006F0064651
:102318000646C2500618830B0618C26EC282C2B2A5
:1023280098EF11F09AEF11F093EF11F0C450066E88
:10233800C350046E06C005F012008A8C1A0E096E8E
:10234800F80EE82EFED7092EFCD700D05E0E056EDB
:102358007E0E066E25EC11F007C005F008C006F0E9
:1023680025EC11F0F70E056E7F0E066E25EC11F0C8
:102378001A0E096EF80EE82EFED7092EFCD700D0EB
:102388008A9C12001CC01FF01DC020F0D4EF11F071
:102398001BC00EF01F0E0F6E1EC010F080EC06F072
:1023A8001FC0F6FF20C0F7FF0800F5500009D8A4A9
:1023B800E0EF11F0E2EF11F0CCEF11F0000E1C6E1F
:1023C800000E1B6E1200240E386E21C039F0000E6C
:1023D8003C6E000E3B6E000E436E000E426E390ED0
:1023E8001B6E22C01CF023C01DF0380E1E6EC6ECFA
:1023F80011F021503B24D96EDA6ADF6A12000BBE55
:1024080008EF12F00AEF12F010EF12F00AC00AF00B
:102418000BC00BF01CEF12F00AC00CF00BC00DF053
:102428000C1E0D1E0C4A0D2A0CC00AF00DC00BF034
:10243800120001EE00F0E80EEE6AE806FDE100EE9B
:1024480060F0830EEE6AE806FDE100EE53F0090E37
:10245800EE6AE806FDE15C905C92000EF86E000101
:1024680062EF0DF05850D8A43CEF12F03EEF12F096
:102478004CEF12F00001C52BC70EC56546EF12F0F0
:1024880048EF12F04CEF12F000EC0BF0010E586E12
:1024980012009280928292849286928A96800F018C
:1024A8005B815B835B855B875B8B5F81C16A950E14
:1024B800C06EC26AC2800D0EE82EFED70000120060
:1024C8000F015B6B5C6B5D6B5E6B5F6B800E936E7D
:1024D8000F0E966E0F0E956E94688A688D688C68DC
:1024E800939C8A9C4DEC12F012000F015D9D5D9F3C
:1024F800949C948EB886AC84AC98010EB06EA00EF5
:10250800AF6EAB8EAB88AC8A9E9A9D8A1200046E21
:10251800A6B291EF12F093EF12F08CEF12F004C014
:10252800A9FFA69EA69CA680A850120000EC0BF05E
:10253800010E046E000E8CEC0CF0010E046E010E00
:102548008CEC0CF00001C46B1200AAC035F0ABC0D3
:1025580036F0040E85EC0BF03A0E076E7F0E086E0F
:10256800A1EC11F01200046EBBEF12F00400ACA253
:10257800C0EF12F0C2EF12F0BAEF12F004C0ADFFD4
:102588001200700ED312FC0ED316D3A4CEEF12F0A5
:10259800D0EF12F0C9EF12F01200000E046E010E17
:1025A8008CEC0CF0F70E076E7E0E086EA1EC11F0A5
:1025B8001200010E046E010E8CEC0CF0D30E076EA7
:1025C8007E0E086EA1EC11F01200000E046E000ED3
:1025D8008CEC0CF0080E076E7F0E086EA1EC11F063
:1025E8001200010E046E000E8CEC0CF0E50E076E66
:1025F8007E0E086EA1EC11F01200CC6A020ECD6EB0
:10260800630ECF6EC00ECE6E9E909D80CD80120060
:10261800010ED56E3C0ED76EB00ED66EF294F28ACD
:102628001200086E08C005F0100E52EC10F008C039
:1026380057F01200D59E3C0ED76EB00ED66EF294AF
:06264800D58E1200120005
:107DB40000123D333C1E3BCE393E386236233540FB
:107DC400345133583254314630302F112EE92CBC03
:107DD4002B4A2A50291528D626952555241423D60E
:107DE4002197205C1F271EF81CCE1BA81A89197521
:107DF4001865175E165F15E214961280109F0EF236
:107E04000C740B70FEA2FED4FE06FF38FF6AFF88D6
:107E1400FF9CFFB0FFC4FFD8FFECFF000014002854
:107E2400003C005000640078008C00A000B400C83E
:107E340000DC00F000040118012C01400154016829
:107E4400017C019001A401B801C201F40126025889
:107E5400028A02BC0201200039C07B2269223A2234
:107E64004147524F4C4154494E415F473031222CD7
:107E7400227273223A225265737075657374613A83
:107E8400007B2269223A224147524F4C4154494EC9
:107E9400415F473031222C227273223A22535441DB
:107EA4005455533A00494E59454343494F4E5F4C4C
:107EB40049515549444F5F4F4B002564256425645F
:107EC4002564256425642564256425642564005699
:107ED400454E54494C41444F525F4F46465F4F4BC9
:107EE40000455641504F5241444F525F4F46465F02
:107EF4004F4B0056454E54494C41444F525F4F4EF0
:107F04005F4F4B00455641504F5241444F525F4FD3
:107F14004E5F4F4B00494E59454343494F4E5F47CF
:107F240041535F4F4B0044414D5045525F434C4FCA
:107F340053455F4F4B0044414D5045525F4F5045B0
:107F44004E5F4F4B004147524F4C4154494E415FA5
:107F54004730310056454E54494C41444F525F4FCF
:107F6400464600455641504F5241444F525F4F469A
:107F7400460025642C25642C25642C25642C25645A
:107F84000056454E54494C41444F525F4F4E0045B4
:107F94005641504F5241444F525F4F4E0044414D61
:107FA4005045525F434C4F53450044414D50455258
:107FB4005F4F50454E00494E595F4C495155494415
:107FC4004F0053544F505F504C414E540052554E45
:107FD4005F504C414E5400494E595F474153005342
:107FE40054415455530043423031005250280052FA
:0B7FF400542800227D0029002C000012
:020000040030CA
:0E00000001284E1FFFD185FF0FC00FE00F40FB
:00000001FF
