:040000004BEF00F0D2
:100008005C82D9CF01F0DACF02F09EAA0EEF00F0A1
:1000180010EF00F025EF00F0AECF03F0960E5A6017
:1000280018EF00F01AEF00F023EF00F0200E5A242A
:10003800D96EDA6A010EDA2203C0DFFF5A2AAFEC62
:1000480013F0F2A42AEF00F02CEF00F030EF00F0EC
:10005800D59EF294010E596E9DA035EF00F037EF52
:1000680000F045EF00F09EA03CEF00F03EEF00F0FE
:1000780045EF00F0630ECF6EC00ECE6E9E90010E5F
:100088005B6E02C0DAFF01C0D9FF5C92110059EF24
:1000980012F0E2C008F0E3C009F0490E0A6E7F0EC4
:1000A8000B6E33EC09F009BE5CEF00F05EEF00F078
:1000B8001BEF03F0E2C008F0E3C009F0EA0E0A6E95
:1000C8007F0E0B6E33EC09F009BE6DEF00F06FEF99
:1000D80000F01BEF03F0E2C008F0E3C009F0F30EF4
:1000E8000A6E7F0E0B6E33EC09F008C0F9F009C0F8
:1000F800FAF00001FABF83EF00F085EF00F003EF9C
:1001080001F0E2C008F0E3C009F0FA0E0A6E7F0EB3
:100118000B6E33EC09F008C0E6F009C0E7F0000EFA
:100128000001EB6F000EEA6FF26BF36BF9C0ECF0B5
:10013800FAC0EDF0EDEF00F0EC51E225D96EED518B
:10014800E321DA6EDF50F66F2C0EF619D8A4AFEF64
:1001580000F0B1EF00F0B2EF00F0F32B2F0EF665D0
:10016800B8EF00F0BAEF00F0EBEF00F03A0EF661EE
:10017800C0EF00F0C2EF00F0EBEF00F0F351D8A4AD
:10018800C8EF00F0CAEF00F0D0EF00F0F2510A0D0E
:10019800F350F625D00FF26FF305D8A4D6EF00F090
:1001A800D8EF00F0EBEF00F00A0EEA03F3CFE4F02B
:1001B800F4CFE5F0EB03F350E527F651E427000E02
:1001C800E523D00EE425EA6FFF0EE521EB6FEC4B3B
:1001D800ED2BE651EC5DED51800AE46FE751800AA2
:1001E800E459D8A0FAEF00F0FCEF00F0A0EF00F01F
:1001F800EAC035F0EBC036F0F25182EC0BF0E2C009
:1002080008F0E3C009F0EF0E0A6E7F0E0B6E33ECB8
:1002180009F008C0F9F009C0FAF00001FABF17EFB9
:1002280001F019EF01F013EF02F0E2C008F0E3C0AB
:1002380009F0FA0E0A6E7F0E0B6E33EC09F008C057
:10024800E8F009C0E9F0000E0001EF6F000EEE6F54
:10025800F56BF46BF9C0F0F0FAC0F1F081EF01F042
:10026800F051E225D96EF151E321DA6EDF50F76FD4
:100278002C0EF719D8A443EF01F045EF01F046EF33
:1002880001F0F42B2F0EF7654CEF01F04EEF01F063
:100298007FEF01F03A0EF76154EF01F056EF01F0ED
:1002A8007FEF01F0F451D8A45CEF01F05EEF01F0AC
:1002B80064EF01F0F5510A0DF350F725D00FF56FF3
:1002C800F405D8A46AEF01F06CEF01F07FEF01F0BC
:1002D8000A0EEE03F3CFE4F0F4CFE5F0EF03F350AA
:1002E800E527F751E427000EE523D00EE425EE6F4D
:1002F800FF0EE521EF6FF04BF12BE851F05DF15166
:10030800800AE46FE951800AE459D8A08EEF01F021
:1003180090EF01F034EF01F0F86BEE51EF11D8A433
:1003280098EF01F09AEF01F09EEF01F0010EF86FDF
:100338009FEF01F0F86BF507E8EF01F0F8B102D094
:100348008A9A01D08A8A13EF02F0F8B102D08A980B
:1003580001D08A8813EF02F0F8B102D08A9601D052
:100368008A8613EF02F0F8B102D08A9401D08A8409
:1003780013EF02F0F8B102D08A9201D08A8213EF0B
:1003880002F0F8B102D08A9001D08A8013EF02F00F
:10039800F8B102D08C9E01D08C8E13EF02F0F8B128
:1003A80002D08C9C01D08C8C13EF02F0F8B102D0F3
:1003B8008C9A01D08C8A13EF02F0F8B102D08C9895
:1003C80001D08C8813EF02F0F551000AD8B4A2EFDF
:1003D80001F0010AD8B4A9EF01F0030AD8B4B0EFCC
:1003E80001F0010AD8B4B7EF01F0070AD8B4BEEF9C
:1003F80001F0010AD8B4C5EF01F0030AD8B4CCEF74
:1004080001F0010AD8B4D3EF01F00F0AD8B4DAEF3B
:1004180001F0010AD8B4E1EF01F013EF02F0E2C0F5
:1004280008F0E3C009F0E30E0A6E7F0E0B6E33ECA2
:1004380009F008C0F9F009C0FAF00001FABF27EF87
:1004480002F029EF02F02BEF02F070EC07F0E2C0A7
:1004580008F0E3C009F0BA0E0A6E7F0E0B6E33EC9B
:1004680009F008C0F9F009C0FAF00001FABF3FEF3F
:1004780002F041EF02F043EF02F012EC0EF0E2C09E
:1004880008F0E3C009F0DB0E0A6E7F0E0B6E33EC4A
:1004980009F008C0F9F009C0FAF00001FABF57EFF7
:1004A80002F059EF02F05BEF02F068EC0EF0E2C0E8
:1004B80008F0E3C009F0AE0E0A6E7F0E0B6E33EC47
:1004C80009F008C0F9F009C0FAF00001FABF6FEFAF
:1004D80002F071EF02F073EF02F03DEC13F0E2C0AE
:1004E80008F0E3C009F0A10E0A6E7F0E0B6E33EC24
:1004F80009F008C0F9F009C0FAF00001FABF87EF67
:1005080002F089EF02F08BEF02F02EEC11F0E2C05E
:1005180008F0E3C009F0930E0A6E7F0E0B6E33EC01
:1005280009F008C0F9F009C0FAF00001FABF9FEF1E
:1005380002F0A1EF02F0A3EF02F06FEC13F0E2C0BB
:1005480008F0E3C009F0670E0A6E7F0E0B6E33ECFD
:1005580009F008C0F9F009C0FAF00001FABFB7EFD6
:1005680002F0B9EF02F0BBEF02F07BEC13F0E2C04F
:1005780008F0E3C009F0850E0A6E7F0E0B6E33ECAF
:1005880009F008C0F9F009C0FAF00001FABFCFEF8E
:1005980002F0D1EF02F0D3EF02F057EC13F0E2C013
:1005A80008F0E3C009F0580E0A6E7F0E0B6E33ECAC
:1005B80009F008C0F9F009C0FAF00001FABFE7EF46
:1005C80002F0E9EF02F0EBEF02F063EC13F0E2C0A7
:1005D80008F0E3C009F0C60E0A6E7F0E0B6E33EC0E
:1005E80009F008C0F9F009C0FAF00001FABFFFEFFE
:1005F80002F001EF03F003EF03F02EEC13F0E2C07A
:1006080008F0E3C009F0D10E0A6E7F0E0B6E33ECD2
:1006180009F008C0F9F009C0FAF00001FABF17EFB5
:1006280003F019EF03F01BEF03F0010EC46F120083
:100638001550800B1E6E15501524246E14AE27EF2E
:1006480003F029EF03F02AEF03F024802450D8B4F4
:1006580030EF03F032EF03F045EF03F02428D8A47D
:1006680038EF03F03AEF03F042EF03F0000E126E9A
:10067800000E136E000E146E000E156E148E4DEFE4
:1006880003F0000E126E000E136E000E146E000EB4
:10069800156E1950800B1E1A19501924236E18AEA6
:1006A80058EF03F05AEF03F05BEF03F02380235079
:1006B800D8B461EF03F063EF03F076EF03F023287B
:1006C800D8A469EF03F06BEF03F073EF03F0000EAB
:1006D800166E000E176E000E186E000E196E188E2C
:1006E8007EEF03F0000E166E000E176E000E186EE9
:1006F800000E196E2350D8B484EF03F086EF03F090
:100708008EEF03F02450D8A48CEF03F08EEF03F0A3
:1007180098EF03F0000E126E000E136E000E146EAA
:10072800000E156E2EEF05F018501202F3CF29F0C7
:10073800F4CF2AF029501F6E206A216A226A2A50B3
:10074800256E266A276A286A17501302F3CF29F004
:10075800F4CF2AF029501F26000E2022212222221F
:100768002A502526000E2622272228221650140257
:10077800F3CF29F0F4CF2AF029501F26000E2022AB
:10078800212222222A502526000E2622272228222C
:1007980021C022F020C021F01FC020F01F6A16508F
:1007A8001302F3CF29F0F4CF2AF029501F262A503C
:1007B8002022000E2122000E222217501202F3CF0F
:1007C80029F0F4CF2AF029501F262A502022000EA3
:1007D8002122000E222221C022F020C021F01FC0B9
:1007E80020F01F6A16501202F3CF29F0F4CF2AF036
:1007F80029501F262A502022000E2122000E2222D4
:1008080018501302F3CF29F0F4CF2AF029502526E7
:100818002A502622000E2722000E282217501402E2
:10082800F3CF29F0F4CF2AF0295025262A50262282
:10083800000E2722000E282218501402F3CF29F0A8
:10084800F4CF2AF029501A6E2A501B6E1C6A1D6AB2
:100858001CC01DF01BC01CF01AC01BF01A6A1A50ED
:1008680025261B5026221C5027221D5028221FC037
:100878001AF020C01BF021C01CF022C01DF0190E78
:100888004BEF04F0D8901D321C321B321A32E82E7E
:1008980046EF04F01A5025261B5026221C5027220A
:1008A8001D50282221C022F020C021F01FC020F0B6
:1008B8001F6A235024C01AF01B6A1A26000E1B2236
:1008C800820E1A24296EFF0E1B202A6E81EF04F077
:1008D800D890253626362736283622AE76EF04F00D
:1008E80078EF04F079EF04F02580D8901F36203691
:1008F800213622362906D8A02A0627AE86EF04F02C
:1009080088EF04F06CEF04F0236A22AE8EEF04F057
:1009180090EF04F0B4EF04F0FF0E1F141A6EFF0EF0
:1009280020141B6EFF0E21141C6E7F0E22141D6EE8
:100938001A501B101C101D10D8B4A5EF04F0A7EF17
:1009480004F0ABEF04F0010E236EB4EF04F025A021
:10095800B0EF04F0B2EF04F0B4EF04F0A7EF04F046
:100968002350D8B4BAEF04F0BCEF04F0E0EF04F081
:10097800010E2526000E26222722282228A0C7EFAE
:1009880004F0C9EF04F0E0EF04F025C01AF026C027
:100998001BF027C01CF028C01DF01D341D321C326E
:1009A8001B321A321AC025F01BC026F01CC027F0D3
:1009B8001DC028F0294A2A2A2ABEEBEF04F02A5043
:1009C80008E12928D8A0EBEF04F0EDEF04F0F7EFE9
:1009D80004F0000E256E000E266E800E276E7F0E28
:1009E800286E24EF05F02ABE04EF05F02A5006E130
:1009F8002904D8B002EF05F004EF05F00FEF05F079
:100A0800000E256E000E266E000E276E000E286E54
:100A18001E6A24EF05F029C024F0FF0E2516FF0EEC
:100A280026167F0E2716000E281624A01EEF05F0A6
:100A380020EF05F021EF05F0278ED8902430286E9E
:100A48001E50281225C012F026C013F027C014F03B
:100A580028C015F01200200E125C3F0E1358D8A0C3
:100A680038EF05F03AEF05F040EF05F0D80E136EB9
:100A7800FA0E126E7EEF06F0410E125C010E13584C
:100A8800D8B049EF05F04BEF05F051EF05F0270E10
:100A9800136E060E126E7EEF06F0B50EF66E7D0E24
:100AA800F76E12500900F55C13500900F558D8B0DC
:100AB80060EF05F062EF05F068EF05F0D90E136EF0
:100AC800040E126E7EEF06F0050EF66E7E0EF76EC1
:100AD8000900F550125C0900F5501358D8B077EFAB
:100AE80005F079EF05F07FEF05F0260E136EFC0E8A
:100AF800126E7EEF06F0010E2C6E84EF05F02C2AA4
:100B08002C50020DB50EF324F66E7D0EF420F76E10
:100B18000900F550125C0900F5501358D8A097EF5A
:100B280005F099EF05F083EF05F02C50146E156A67
:100B3800D89014361536FE0E1424166EFF0E1520A6
:100B4800176E070E1624F66E7E0E1720F76E090034
:100B5800F5CF18F00900F5CF19F02C50020D070E4B
:100B6800F324F66E7E0EF420F76E18500900F55C3B
:100B78001A6E19500900F5581B6E1AC01CF01BC0DC
:100B88001DF0000E1DBEFF0E1E6E1F6E2C50020DB6
:100B9800B50EF324F66E7D0EF420F76E0900F5CF3E
:100BA80014F00900F5CF15F02C50166E176AD8907E
:100BB80016361736FE0E1624186EFF0E1720196EFD
:100BC800B50E1824F66E7D0E1920F76E0900F5CFC4
:100BD8001AF00900F5CF1BF014501A5C286E155056
:100BE8001B58296E2A6AD8A02A062A502B6E2C5028
:100BF800146E156AD89014361536FE0E1424166E27
:100C0800FF0E1520176EB50E1624F66E7D0E1720F2
:100C1800F76E0900F5CF18F00900F5CF19F012505A
:100C2800185C046E13501958056E066AD8A006069B
:100C38000650076E1CC008F01DC009F01EC00AF05F
:100C48001FC00BF0F9EC10F004C020F005C021F033
:100C580006C022F007C023F0020E086E000E096ECF
:100C6800000E0A6E000E0B6E28C004F029C005F0B5
:100C78002AC006F02BC007F078EC0AF020500424B4
:100C8800246E21500520256E22500620266E235002
:100C98000720276E2C50146E156AD8901436153616
:100CA800FE0E1424166EFF0E1520176E070E16245E
:100CB800F66E7E0E1720F76E0900F5CF18F00900C2
:100CC800F5CF19F024C004F025C005F026C006F0C1
:100CD80027C007F028C008F029C009F02AC00AF088
:100CE8002BC00BF078EC0AF018500424126E19503F
:100CF8000520136E12000F50D96EDA6ADECFF6FFA8
:100D0800DDCFF7FF0800F550250AD8A48EEF06F0CE
:100D180090EF06F05EEF07F00F50D96EDA6ADE2A20
:100D2800000EDD22000E0001A76F000EA66FA6C000
:100D3800C0F0A869A9690F50D96EDA6ADECF14F03D
:100D4800DDCF15F014C0F6FF15C0F7FF0800F55009
:100D5800640AD8B4B2EF06F0B4EF06F0C2EF06F0BA
:100D680014C0F6FF15C0F7FF0800F550690AD8A4AB
:100D7800C0EF06F0C2EF06F056EF07F01050D96E3C
:100D8800DA6A020EDF26DF5CD96EDA6ADECF16F089
:100D9800DECF17F0010E1424116E000E1520126E0E
:100DA8000F50D96EDA6A11C0DEFF12C0DDFF200EC7
:100DB8001A6E17BEE2EF06F0E5EF06F0010EE6EF59
:100DC80006F0000E136E1A06000E1A24D96EDA6A9F
:100DD800010EDA2216C004F017C005F0000E076EE7
:100DE8000A0E066EBBEC0DF004C00AF005C00BF04D
:100DF8003FEC12F00A50300FDF6E16C004F017C037
:100E080005F0000E076E0A0E066EFEEC0CF004C02C
:100E180016F005C017F016501710D8B416EF07F0E3
:100E280018EF07F020EF07F01A50D8A41EEF07F0CC
:100E380020EF07F0E7EF06F01A50D8B426EF07F0D6
:100E480028EF07F04BEF07F01350D8B42EEF07F058
:100E580030EF07F04BEF07F01A06000E1A24D96E90
:100E6800DA6A010EDA222D0EDF6E4BEF07F0000E64
:100E78001A24D96EDA6A010EDA22DF50116E115087
:100E8800046E056A0EC006F013EC0FF01A2A200E45
:100E98001A18D8A452EF07F054EF07F03BEF07F009
:100EA8006FEF07F00F50D96EDA6ADE2A000EDD22E6
:100EB8006FEF07F00F50D96EDA6ADECFF6FFDDCF9D
:100EC800F7FF0800F550046E056A0EC006F013EC33
:100ED8000FF056EF07F01200000E8ABA010E456EA9
:100EE800000E8AB8010E466E000E8AB6010E476ED5
:100EF800000E8AB4010E486E000E8AB2010E496EC9
:100F0800000E8AB0010E4A6E000E8CBE010E4B6EAA
:100F1800000E8CBC010E4C6E000E8CBA010E4D6E8C
:100F2800000E8CB8010E4E6E8A8C1A0E446EF80EA6
:100F3800E82EFED7442EFCD700D0850E056E7E0E17
:100F4800066E61EC11F0000E506E000E4F6ECE0E64
:100F5800216E820E226E7F0E236E4F50920FD96E35
:100F6800DA6ADF50446E4450246E256A23EC12F08E
:100F7800CE0E056E066A61EC11F04F4A502A50BE3B
:100F8800CFEF07F0505009E10A0E4F5CD8A0CFEF21
:100F980007F0D1EF07F0ABEF07F0FC0E056E7F0E00
:100FA800066E61EC11F0CE0E216EBE0E226E7E0E24
:100FB800236E45C024F0256A46C026F0276A47C03C
:100FC80028F0296A48C02AF02B6A49C02CF02D6AFB
:100FD8004AC02EF02F6A4BC030F0316A4CC032F054
:100FE800336A4DC034F0356A4EC036F0376A23ECA8
:100FF80012F0CE0E056E066A61EC11F0FC0E056E5D
:101008007F0E066E61EC11F0CE0E216E760E226E0A
:101018007F0E236EBEC024F0BFC025F0000E276EE1
:10102800000E266EBAC028F0BBC029F0B8C02AF05E
:10103800B9C02BF0000E2D6E000E2C6E23EC12F0B2
:10104800CE0E056E066A61EC11F0FC0E056E7F0E81
:10105800066E61EC11F0CE0E216E760E226E7F0EBA
:10106800236E56C024F0256AAAC026F0ABC027F02C
:1010780054C028F055C029F052C02AF053C02BF0B4
:10108800C4C02CF02D6A23EC12F0F70E056E7F0E0B
:10109800066E61EC11F01A0E446EF80EE82EFED7BB
:1010A800442EFCD700D08A9C12000C6E0C50D8B489
:1010B80060EF08F062EF08F084EF08F007BE69EF10
:1010C80008F067EF08F084EF08F004C008F005C0E6
:1010D80009F006C00AF007C00BF0081E091E0A1E18
:1010E8000B1E082A000E09220A220B2208C00EF045
:1010F80009C00FF00AC010F00BC011F08CEF08F017
:1011080004C00EF005C00FF006C010F007C011F0C3
:101118000450051006100710D8A495EF08F097EFB3
:1011280008F0A1EF08F0000E046E000E056E000E28
:10113800066E000E076E32EF09F0960E0D6EABEFDD
:1011480008F00D2AD890113210320F320E32000EEC
:101158000E14086E000E0F14096E000E10140A6E9D
:10116800FE0E11140B6E085009100A100B10D8A4AB
:10117800C0EF08F0C2EF08F0A5EF08F0D0EF08F0D4
:101188000D2A010E0E26000E0F2210221122D890D1
:10119800113210320F320E32000E0E14086E000E8D
:1011A8000F14096E000E10140A6EFF0E11140B6E48
:1011B800085009100A100B10D8A4E5EF08F0E7EF63
:1011C80008F0C4EF08F0EFEF08F00D06D8900E36DF
:1011D8000F361036113610BEF4EF08F0F6EF08F0AF
:1011E800FEEF08F0020E0D60FCEF08F0FEEF08F0CD
:1011F800E9EF08F00DB003EF09F005EF09F006EF8D
:1012080009F0109ED8900D320DC008F0096A0A6ADC
:101218000B6A08C00BF00A6A096A086A08500E12BD
:1012280009500F120A5010120B5011120C50D8B45A
:1012380020EF09F022EF09F02AEF09F007BE29EFA5
:1012480009F027EF09F02AEF09F0118E0EC004F01B
:101258000FC005F010C006F011C007F0120008C05A
:1012680004F009C005F090EC11F004C013F005C0BB
:1012780014F00AC004F00BC005F090EC11F004C0A3
:1012880015F005C016F01550135C1450800A0C6E4A
:101298001650800A0C58D8A054EF09F056EF09F000
:1012A800D9EF09F0000E1A6E000E196EC4EF09F09E
:1012B80019500824D96E1A500920DA6EDF500C6EC6
:1012C8000AC0F6FF0BC0F7FF0800F5500C18D8A4A9
:1012D80070EF09F072EF09F0C2EF09F0000E126E1C
:1012E800010E116E000E186E000E176EA4EF09F0B5
:1012F800175008240C6E185009200D6E19500C2434
:10130800D96E1A500D20DA6EDF500E6E17500A246F
:101318000F6E18500B20106E0FC0F6FF10C0F7FFAD
:101328000800F5500E18D8B49CEF09F09EEF09F0AC
:10133800A2EF09F0000E126E000E116E174A182A5D
:101348001550175C1850800A0C6E1650800A0C58FD
:10135800D8A0B1EF09F0B3EF09F07CEF09F0110460
:101368001210D8A4BAEF09F0BCEF09F0C2EF09F0E7
:1013780019C008F01AC009F0DBEF09F0194A1A2A57
:101388001550135C0C6E165014580D6E19500C5CE9
:101398000D50800A0E6E1A50800A0E58D8B0D7EF3A
:1013A80009F0D9EF09F05CEF09F008680968120044
:1013B800000E096E000E086E08509C0FD96EDA6A8E
:1013C800DE04D8A4EAEF09F0ECEF09F067EF0AF0C1
:1013D8000850020DF350600FD96EDA6ADE2A000E4B
:1013E800DD220850020DF350740FD96EDA6A0850E6
:1013F800020DF350600FE16EE26ADE50E65CDE50EB
:10140800E658D8A00AEF0AF00CEF0AF067EF0AF0E6
:101418002CEF0AF08A8A62EF0AF08A8862EF0AF0F3
:101428008A8662EF0AF08A8462EF0AF08A8262EFA3
:101438000AF08A8062EF0AF08C8E62EF0AF08C8CD8
:1014480062EF0AF08C8A62EF0AF08C8862EF0AF089
:1014580008C004F009C005F00550000AD8B437EFF9
:101468000AF062EF0AF00450000AD8B40EEF0AF04E
:10147800010AD8B411EF0AF0030AD8B414EF0AF03D
:10148800010AD8B417EF0AF0070AD8B41AEF0AF01D
:10149800010AD8B41DEF0AF0030AD8B420EF0AF005
:1014A800010AD8B423EF0AF00F0AD8B426EF0AF0DD
:1014B800010AD8B429EF0AF062EF0AF008509C0F2D
:1014C800D96EDA6ADF6A084A092A09BE75EF0AF096
:1014D800095009E10A0E085CD8A075EF0AF077EF09
:1014E8000AF0E0EF09F012000D6A0BBE80EF0AF077
:1014F8007EEF0AF08AEF0AF00B1E0A1E091E086C1E
:10150800000E09220A220B22010E0D6E07BE91EF72
:101518000AF08FEF0AF09BEF0AF0071E061E051E61
:10152800046C000E052206220722010E0D1A000E79
:101538000E6E000E0F6E000E106E000E116E08502B
:1015480009100A100B10D8B4ACEF0AF0AEEF0AF08D
:10155800E4EF0AF0010E0C6EB8EF0AF0D8900836E6
:1015680009360A360B360C2A0BAEBDEF0AF0BFEF70
:101578000AF0B2EF0AF0D8900E360F361036113650
:101588000850045C095005580A5006580B50075873
:10159800D8A0D1EF0AF0D3EF0AF0DCEF0AF0085038
:1015A800045E0950055A0A50065A0B50075A0E8015
:1015B800D8900B320A32093208320C2EBFEF0AF0EB
:1015C8000D50D8B4EAEF0AF0ECEF0AF0F4EF0AF0A5
:1015D800111E101E0F1E0E6C000E0F22102211225B
:1015E8000EC004F00FC005F010C006F011C007F0DF
:1015F8001200000E166E000E176EC00E186E3F0E0B
:10160800196EAAC004F0ABC005F0066A076A000E9E
:1016180059EC08F004C012F005C013F006C014F02D
:1016280007C015F01CEC03F012C02BF013C02CF00F
:1016380014C02DF015C02EF006EC0CF02BC035F0C0
:101648002CC036F0050E82EC0BF0000E166E000E64
:10165800176EC00E186E3F0E196E52C004F053C0BC
:1016680005F0066A076A000E59EC08F004C012F08B
:1016780005C013F006C014F007C015F01CEC03F009
:1016880012C02BF013C02CF014C02DF015C02EF092
:1016980006EC0CF02BC035F02CC036F0060E82ECB0
:1016A8000BF0000E166E000E176EC00E186E3F0E71
:1016B800196E54C004F055C005F0066A076A000E9A
:1016C80059EC08F004C012F005C013F006C014F07D
:1016D80007C015F01CEC03F012C02BF013C02CF05F
:1016E80014C02DF015C02EF006EC0CF02BC035F010
:1016F8002CC036F0080E82EC0BF01200376E35C0A5
:1017080004F036C005F0000E076E0A0E066E54ECA3
:1017180010F004C035F005C036F03750D8B497EF54
:101728000BF099EF0BF005EF0CF00B0E37609FEF05
:101738000BF0A1EF0BF005EF0CF037063750020D58
:10174800F350600FD96EDA6ADE6ADD6A3750020D2F
:10175800F350740FD96EDA6A35C0DEFF36C0DDFF8C
:1017680037509C0FD96EDA6A010EDF6EDAEF0BF094
:101778008A9A05EF0CF08A9805EF0CF08A9605EF27
:101788000CF08A9405EF0CF08A9205EF0CF08A9021
:1017980005EF0CF08C9E05EF0CF08C9C05EF0CF01F
:1017A8008C9A05EF0CF08C9805EF0CF03750000A76
:1017B800D8B4BCEF0BF0010AD8B4BFEF0BF0030AA2
:1017C800D8B4C2EF0BF0010AD8B4C5EF0BF0070A82
:1017D800D8B4C8EF0BF0010AD8B4CBEF0BF0030A6A
:1017E800D8B4CEEF0BF0010AD8B4D1EF0BF00F0A42
:1017F800D8B4D4EF0BF0010AD8B4D7EF0BF005EF4B
:101808000CF012002D342E34346E3450D8A40FEF5F
:101818000CF011EF0CF01BEF0CF0000E2B6E000E0D
:101828002C6E000E2D6E000E2E6E88EF0CF02BC065
:101838002FF02CC030F02DC031F02EC032F0200E29
:101848002BEF0CF0D8903232313230322F32E82E72
:1018580026EF0CF02F50336E2D8EFF0E2B16FF0E39
:101868002C16FF0E2D16000E2E16960E345E34BE64
:1018780042EF0CF040EF0CF058EF0CF03450800AB7
:10188800970FD8B04AEF0CF04CEF0CF04EEF0CF07D
:1018980011EF0CF0D8902E322D322C322B32343EF0
:1018A8004EEF0CF070EF0CF01F0E34645EEF0CF08E
:1018B80060EF0CF068EF0CF011EF0CF0D8902B36BD
:1018C8002C362D362E3634063450D8A46EEF0CF054
:1018D80070EF0CF062EF0CF03350D8B476EF0CF0E8
:1018E80078EF0CF080EF0CF02E1E2D1E2C1E2B6CAA
:1018F800000E2C222D222E222BC02BF02CC02CF0D7
:101908002DC02DF02EC02EF01200056ED2EF0CF077
:1019180004B002D08A9A01D08A8AFDEF0CF004B094
:1019280002D08A9801D08A88FDEF0CF004B002D06A
:101938008A9601D08A86FDEF0CF004B002D08A9412
:1019480001D08A84FDEF0CF004B002D08A9201D055
:101958008A82FDEF0CF004B002D08A9001D08A8010
:10196800FDEF0CF004B002D08C9E01D08C8EFDEF00
:101978000CF004B002D08C9C01D08C8CFDEF0CF0E4
:1019880004B002D08C9A01D08C8AFDEF0CF004B020
:1019980002D08C9801D08C88FDEF0CF00550000A1D
:1019A800D8B48CEF0CF0010AD8B493EF0CF0030A0A
:1019B800D8B49AEF0CF0010AD8B4A1EF0CF0070ADA
:1019C800D8B4A8EF0CF0010AD8B4AFEF0CF0030AB2
:1019D800D8B4B6EF0CF0010AD8B4BDEF0CF00F0A7A
:1019E800D8B4C4EF0CF0010AD8B4CBEF0CF0FDEF7B
:1019F8000CF01200096A07BE06EF0DF004EF0DF0B7
:101A08000CEF0DF0066C071ED8B0072A010E096E00
:101A180005BE13EF0DF011EF0DF019EF0DF0046C8A
:101A2800051ED8B0052A010E091A000E0B6E000E0D
:101A38000A6E06500710D8B424EF0DF026EF0DF00B
:101A48004EEF0DF0010E086E2EEF0DF0D890063611
:101A58000736082A07AE33EF0DF035EF0DF02AEF01
:101A68000DF0D8900A360B360650045C075005581E
:101A7800D8A041EF0DF043EF0DF048EF0DF0065000
:101A8800045E0750055A0A80D89007320632082E9D
:101A980035EF0DF00950D8B454EF0DF056EF0DF0B6
:101AA8005AEF0DF00A6C0B1ED8B00B2A0AC004F0CE
:101AB8000BC005F01200000E84B0010E0001926FF9
:101AC800000E84B2010E936F000E84B4010E946F61
:101AD800000E82B0010E956F000E82B2010E966F55
:101AE800000E82B4010E976F000E83B0010E986F3E
:101AF800000E83B2010E996F000E83B4010E9A6F27
:101B0800000E83B6010E9B6F000E076E000E066E68
:101B18000650880FD96EDA6A0650920FE16EE26AB3
:101B2800DE50E618D8B49BEF0DF09DEF0DF0AAEF4C
:101B38000DF00650920FD96EDA6A0650880FE16EE2
:101B4800E26ADFCFE7FF010E0001CD6F064A072AE0
:101B580007BEB8EF0DF0075009E10A0E065CD8A0E1
:101B6800B8EF0DF0BAEF0DF08CEF0DF01200096A26
:101B780005BEC3EF0DF0C1EF0DF0C9EF0DF0046C19
:101B8800051ED8B0052A010E096E07BED0EF0DF06C
:101B9800CEEF0DF0D4EF0DF0066C071ED8B0072A73
:101BA80006500710D8B4DBEF0DF0DDEF0DF001EFB4
:101BB8000EF0010E086EE5EF0DF0D89006360736E8
:101BC800082A07AEEAEF0DF0ECEF0DF0E1EF0DF0AB
:101BD8000650045C07500558D8A0F5EF0DF0F7EF54
:101BE8000DF0FBEF0DF00650045E0750055AD89033
:101BF80007320632082EECEF0DF00950D8B407EF83
:101C08000EF009EF0EF00DEF0EF0046C051ED8B0C3
:101C1800052A04C004F005C005F0120054C035F0D0
:101C280055C036F00A0E82EC0BF0000E3A6E000E2C
:101C3800396E2AEF0EF0060E386E300EE82EFED7FB
:101C4800382EFCD700D00400394A3A2A5450395C5F
:101C580055503A58D8A033EF0EF035EF0EF01FEF7D
:101C68000EF0000E166E000E176EC00E186E3F0EA8
:101C7800196E54C004F055C005F0066A076A000ED4
:101C880059EC08F004C012F005C013F006C014F0B7
:101C980007C015F01CEC03F012C02BF013C02CF099
:101CA80014C02DF015C02EF006EC0CF02BC035F04A
:101CB8002CC036F0080E82EC0BF0A90E076E7E0ED3
:101CC800086EDDEC11F0120052C035F053C036F04A
:101CD800070E82EC0BF0000E3A6E000E396E80EFA4
:101CE8000EF0060E386E300EE82EFED7382EFCD7D2
:101CF80000D00400394A3A2A5250395C53503A58B5
:101D0800D8A089EF0EF08BEF0EF075EF0EF0000EF5
:101D1800166E000E176EC00E186E3F0E196E52C06A
:101D280004F053C005F0066A076A000E59EC08F083
:101D380004C012F005C013F006C014F007C015F077
:101D48001CEC03F012C02BF013C02CF014C02DF0C3
:101D580015C02EF006EC0CF02BC035F02CC036F078
:101D6800070E82EC0BF0190E076E7F0E086EDDEC85
:101D780011F012000001CB2B050ECB65C6EF0EF05B
:101D8800C8EF0EF012EF0FF05850D8A4CEEF0EF0B7
:101D9800D0EF0EF0D7EF0EF0000EB8EC11F004C043
:101DA800BEF005C0BFF05804D8A4DDEF0EF0DFEF99
:101DB8000EF0E6EF0EF0010EB8EC11F004C0BEF024
:101DC80005C0BFF0020E5818D8A4EDEF0EF0EFEFE3
:101DD8000EF0F6EF0EF0020EC4EC10F02DC0BAF0C3
:101DE8002EC0BBF0030E5818D8A4FDEF0EF0FFEF7D
:101DF8000EF006EF0FF0030EC4EC10F02DC0B8F093
:101E08002EC0B9F0582A030E58640DEF0FF00FEFEB
:101E18000FF010EF0FF0586A0001CB6B120006505C
:101E2800D8B419EF0FF01BEF0FF023EF0FF00650A7
:101E3800D8A421EF0FF023EF0FF028EF0FF0045094
:101E4800BDEC13F067EF0FF00650D96EDA6A090E91
:101E5800D926DE50DE10D8B434EF0FF036EF0FF08D
:101E68004FEF0FF00650D96EDA6A090ED9260650E0
:101E7800E16EE26A020EE126DE50E65CE650800A78
:101E88000B6EDE50800A0B58D8B04DEF0FF04FEFB5
:101E98000FF067EF0FF00650D96EDA6A020ED926F6
:101EA800DF50076E0650D96EDA6ADF500724D96E04
:101EB800DA6A04C0DFFF0650D96EDA6A020ED92644
:101EC800DE2A000EDD2212005750D8A46EEF0FF064
:101ED80070EF0FF0BAEF0FF00001C52BC70EC56504
:101EE80078EF0FF07AEF0FF0BAEF0FF0010E1FEC5A
:101EF80013F0100AD8A483EF0FF085EF0FF09CEFD2
:101F08000FF0000EA6EC13F0750E096E300E086E79
:101F180010EC13F0070E096ED00E086E01EC13F0EA
:101F2800040E096EB00E086EF2EC12F0B6EF0FF068
:101F3800B7EC13F0566EB5EC12F005C0AAF006C067
:101F4800ABF089EC12F005C054F006C055F09FECD8
:101F580012F005C052F006C053F0100E056E010EC7
:101F68008EEC10F0FDEC0AF0010E576E12005704CB
:101F7800D8A4C1EF0FF0C3EF0FF00AEF10F0000183
:101F8800C12BC70EC165CBEF0FF0CDEF0FF00AEFF5
:101F980010F0BBBFD9EF0FF0BB5109E10B0EBA5DD2
:101FA800D8A0D9EF0FF0DBEF0FF0E5EF0FF0010E3F
:101FB800046E020E89EC0CF0010E046E030E89EC1F
:101FC8000CF00001BBAFF2EF0FF0F60EBA5DFF0E9A
:101FD800BB59D8B0F2EF0FF0F4EF0FF008EF10F0A4
:101FE8005650D8A4FAEF0FF0FCEF0FF003EF10F003
:101FF800000E046E020E89EC0CF008EF10F0000ED3
:10200800046E030E89EC0CF00001C16B12004BEC5E
:1020180013F0CBEC12F0E0EC12F09DEC13F087EC2F
:1020280013F0D09EF28CF28E5FEC0DF05950D8B4BC
:1020380020EF10F022EF10F03CEF10F0200E00011E
:10204800E26F010EE36F4DEC00F0516A200E51244F
:10205800D96EDA6A010EDA22DF6A512A950E5164C6
:1020680038EF10F03AEF10F02AEF10F05A6A596A78
:102078005B50D8B442EF10F044EF10F04FEF10F07F
:102088005FEC0DF0BEEC0EF0DCEC09F068EC0FF044
:10209800BBEC0FF05B6A04001AEF10F04BEF00F096
:1020A800000E096E000E086E06500710D8B45FEFD8
:1020B80010F061EF10F089EF10F0010E0A6E69EF71
:1020C80010F0D890063607360A2A07AE6EEF10F0E1
:1020D80070EF10F065EF10F0D8900836093606500A
:1020E800045C07500558D8A07CEF10F07EEF10F084
:1020F80083EF10F00650045E0750055A0880D89008
:10210800073206320A2E70EF10F008C004F009C03A
:1021180005F01200076E07501FEC13F00518D8A43D
:1021280098EF10F09AEF10F09CEF10F0C3EF10F05A
:1021380007C0A9FF05C0A8FFA69EA69CA696A684D0
:10214800000EF2BE010E066EF29E550EA76EAA0E86
:10215800A76EA6820650D8B4B4EF10F0B6EF10F010
:10216800BAEF10F0F28EBAEF10F00400A6B2BFEF8B
:1021780010F0C1EF10F0B9EF10F0A694A19812007A
:102188002F6E000E316E000E306E346A2F50B8EC90
:1021980011F004C032F005C033F0322806E13328CC
:1021A800D8A4D9EF10F0DBEF10F0E1EF10F0D80E63
:1021B8002E6EFA0E2D6EF8EF10F032503026335096
:1021C8003122342A0F0E3464ECEF10F0EEEF10F0E9
:1021D800CAEF10F030C012F031C013F02FEC05F048
:1021E80012C02DF013C02EF01200000E0C6E000E5F
:1021F8000D6E000E0E6E000E0F6E04A006EF11F0AD
:1022080008EF11F010EF11F008500C2609500D22BC
:102218000A500E220B500F22D890083609360A367B
:102228000B36D890073206320532043204500510B6
:1022380006100710D8A423EF11F025EF11F001EFD5
:1022480011F00CC004F00DC005F00EC006F00FC070
:1022580007F01200000E166E000E176EC00E186EF4
:102268003F0E196EAAC004F0ABC005F0066A076AF3
:10227800000E59EC08F004C012F005C013F006C0B7
:1022880014F007C015F01CEC03F012C02BF013C0BB
:102298002CF014C02DF015C02EF006EC0CF02BC05D
:1022A80035F02CC036F0050E82EC0BF02A0E076EC6
:1022B8007F0E086EDDEC11F0120077EF11F005C00B
:1022C800F6FF06C0F7FFF86A070EF76403D00800A8
:1022D800F55005D0F6CFE9FFF7CFEAFFEF5092ECC3
:1022E80013F0054A062A05C0F6FF06C0F7FFF86A8C
:1022F800070EF76403D00800F55005D0F6CFE9FFC4
:10230800F7CFEAFFEF500009D8A48DEF11F08FEF57
:1023180011F063EF11F01200000E076E000E066E4A
:102328009BEF11F00400064A072A044A052A04C054
:10233800F6FF05C0F7FFF86A070EF76403D0080038
:10234800F55005D0F6CFE9FFF7CFEAFFEF500009C7
:10235800D8A4B1EF11F0B3EF11F096EF11F006C069
:1023680004F007C005F01200086E050E0864BFEF00
:1023780011F0C1EF11F0C5EF11F004680568DCEF4A
:1023880011F008C006F006460646C2500618830B30
:102398000618C26EC282C2B2D4EF11F0D6EF11F0A5
:1023A800CFEF11F0C450066EC350046E06C005F09E
:1023B80012008A8C1A0E096EF80EE82EFED7092E26
:1023C800FCD700D05E0E056E7E0E066E61EC11F035
:1023D80007C005F008C006F061EC11F0F70E056EB5
:1023E8007F0E066E61EC11F01A0E096EF80EE82EDB
:1023F800FED7092EFCD700D08A9C12001CC01FF003
:102408001DC020F010EF12F01BC00EF01F0E0F6E53
:102418001EC010F07FEC06F01FC0F6FF20C0F7FFCB
:102428000800F5500009D8A41CEF12F01EEF12F0B6
:1024380008EF12F0000E1C6E000E1B6E1200240E28
:10244800386E21C039F0000E3C6E000E3B6E000E57
:10245800436E000E426E390E1B6E22C01CF023C064
:102468001DF0380E1E6E02EC12F021503B24D96E7E
:10247800DA6ADF6A12000BBE44EF12F046EF12F080
:102488004CEF12F00AC00AF00BC00BF058EF12F034
:102498000AC00CF00BC00DF00C1E0D1E0C4A0D2AC4
:1024A8000CC00AF00DC00BF0120001EE00F0B60EE1
:1024B800EE6AE806FDE100EE60F0820EEE6AE806DC
:1024C800FDE100EE52F00A0EEE6AE806FDE15C90CE
:1024D8005C92000EF86E00010BEF10F09280928271
:1024E80092849286928A96800F015B815B835B85DA
:1024F8005B875B8B5F81C16A950EC06EC26AC280C2
:102508000D0EE82EFED700001200130E1FEC13F07C
:10251800076E07500A6E0B6A140E1FEC13F0076E55
:102528000A50086E07500A6E08C00BF00AC005F082
:102538000BC006F01200150E1FEC13F0076E0750C3
:102548000A6E0B6A160E1FEC13F0076E0A50086E1F
:1025580007500A6E08C00BF00AC005F00BC006F061
:102568001200110E1FEC13F0076E07500A6E0B6A6B
:10257800120E1FEC13F0076E0A50086E07500A6E11
:1025880008C00BF00AC005F00BC006F012000F01DE
:102598005B6B5C6B5D6B5E6B5F6B800E936E0F0E9F
:1025A800966E0F0E956E94688A688D688C68939CF9
:1025B8008A9C72EC12F012000F015D9D5D9F948C55
:1025C800948EB886AC84AC98010EB06EA00EAF6E37
:1025D800AB8EAB88AC8A9E9A9D8A12000950056E14
:1025E800130E8EEC10F008C005F0140E8EEC10F0EF
:1025F80008C054F009C055F012000950056E150EB8
:102608008EEC10F008C005F0160E8EEC10F008C025
:1026180052F009C053F012000950056E110E8EECED
:1026280010F008C005F0120E8EEC10F008C0AAF0E9
:1026380009C0ABF01200046EA6B225EF13F027EF25
:1026480013F020EF13F004C0A9FFA69EA69CA68055
:10265800A8501200FDEC0AF0010E046E000E89EC81
:102668000CF0010E046E010E89EC0CF00001C46B35
:102678001200AAC035F0ABC036F0040E82EC0BF0A5
:102688003A0E076E7F0E086EDDEC11F01200700E28
:10269800D312FC0ED316D3A454EF13F056EF13F055
:1026A8004FEF13F01200000E046E010E89EC0CF0CF
:1026B800F70E076E7E0E086EDDEC11F01200010EAB
:1026C800046E010E89EC0CF0D30E076E7E0E086EB8
:1026D800DDEC11F01200000E046E000E89EC0CF017
:1026E800080E076E7F0E086EDDEC11F01200010E69
:1026F800046E000E89EC0CF0E50E076E7E0E086E77
:10270800DDEC11F01200CC6A020ECD6E630ECF6EB6
:10271800C00ECE6E9E909D80CD801200046EACA23D
:1027280098EF13F09AEF13F093EF13F004C0ADFF96
:102738001200010ED56E3C0ED76EB00ED66EF29416
:10274800F28A1200086E08C005F0100E8EEC10F028
:1027580008C056F01200D59E3C0ED76EB00ED66E4D
:10276800F294D58E1200100E1FEC13F0056E055072
:042778001200120039
:107DB40000123D333C1E3BCE393E386236233540FB
:107DC400345133583254314630302F112EE92CBC03
:107DD4002B4A2A50291528D626952555241423D60E
:107DE4002197205C1F271EF81CCE1BA81A89197521
:107DF4001865175E165F15E214961280109F0EF236
:107E04000C740B70FEA2FED4FE06FF38FF6AFF88D6
:107E1400FF9CFFB0FFC4FFD8FFECFF000014002854
:107E2400003C005000640078008C00A000B400C83E
:107E340000DC00F000040118012C01400154016829
:107E4400017C019001A401B801C201F40126025889
:107E5400028A02BC0201200039C07B2269223A2234
:107E64004147524F4C4154494E415F473031222CD7
:107E7400227273223A225265737075657374613A83
:107E8400007B2269223A224147524F4C4154494EC9
:107E9400415F473031222C227273223A22535441DB
:107EA4005455533A00494E59454343494F4E5F4C4C
:107EB40049515549444F5F4F4B002564256425645F
:107EC4002564256425642564256425642564005699
:107ED400454E54494C41444F525F4F46465F4F4BC9
:107EE40000455641504F5241444F525F4F46465F02
:107EF4004F4B0056454E54494C41444F525F4F4EF0
:107F04005F4F4B00455641504F5241444F525F4FD3
:107F14004E5F4F4B00494E59454343494F4E5F47CF
:107F240041535F4F4B0044414D5045525F434C4FCA
:107F340053455F4F4B0044414D5045525F4F5045B0
:107F44004E5F4F4B004147524F4C4154494E415FA5
:107F54004730310056454E54494C41444F525F4FCF
:107F6400464600455641504F5241444F525F4F469A
:107F7400460025642C25642C25642C25642C25645A
:107F84000056454E54494C41444F525F4F4E0045B4
:107F94005641504F5241444F525F4F4E0044414D61
:107FA4005045525F434C4F53450044414D50455258
:107FB4005F4F50454E00494E595F4C495155494415
:107FC4004F0053544F505F504C414E540052554E45
:107FD4005F504C414E5400494E595F474153005342
:107FE40054415455530043423031005250280052FA
:0B7FF400542800227D0029002C000012
:020000040030CA
:0E00000001284E1FFFD185FF0FC00FE00F40FB
:00000001FF
