:040000004BEF00F0D2
:100008005C82D9CF01F0DACF02F09EAA0EEF00F0A1
:1000180010EF00F025EF00F0AECF03F0C80E5A60E5
:1000280018EF00F01AEF00F023EF00F0200E5A242A
:10003800D96EDA6A010EDA2203C0DFFF5A2A88EC89
:1000480012F0F2A42AEF00F02CEF00F030EF00F0ED
:10005800D59EF294010E596E9DA035EF00F037EF52
:1000680000F045EF00F09EA03CEF00F03EEF00F0FE
:1000780045EF00F0630ECF6EC00ECE6E9E90010E5F
:100088005B6E02C0DAFF01C0D9FF5C92110079EF04
:1000980011F051C008F052C009F0490E0A6E7F0EE7
:1000A8000B6E35EC09F009BE5CEF00F05EEF00F076
:1000B8001BEF03F051C008F052C009F0EA0E0A6EB7
:1000C8007F0E0B6E35EC09F009BE6DEF00F06FEF97
:1000D80000F01BEF03F051C008F052C009F0F30E16
:1000E8000A6E7F0E0B6E35EC09F008C0F8F009C0F7
:1000F800F9F00001F9BF83EF00F085EF00F003EF9E
:1001080001F051C008F052C009F0FA0E0A6E7F0ED5
:100118000B6E35EC09F008C0E5F009C0E6F0000EFA
:100128000001EA6F000EE96FF16BF26BF8C0EBF0BB
:10013800F9C0ECF0EDEF00F0EB515124D96EEC5121
:100148005220DA6EDF50F56F2C0EF519D8A4AFEFF8
:1001580000F0B1EF00F0B2EF00F0F22B2F0EF565D2
:10016800B8EF00F0BAEF00F0EBEF00F03A0EF561EF
:10017800C0EF00F0C2EF00F0EBEF00F0F251D8A4AE
:10018800C8EF00F0CAEF00F0D0EF00F0F1510A0D0F
:10019800F350F525D00FF16FF205D8A4D6EF00F093
:1001A800D8EF00F0EBEF00F00A0EE903F3CFE3F02D
:1001B800F4CFE4F0EA03F350E427F551E327000E07
:1001C800E423D00EE325E96FFF0EE421EA6FEB4B41
:1001D800EC2BE551EB5DEC51800AE36FE651800AA8
:1001E800E359D8A0FAEF00F0FCEF00F0A0EF00F020
:1001F800E9C035F0EAC036F0F15107EC0CF051C017
:1002080008F052C009F0EF0E0A6E7F0E0B6E35EC47
:1002180009F008C0F8F009C0F9F00001F9BF17EFBC
:1002280001F019EF01F013EF02F051C008F052C0CD
:1002380009F0FA0E0A6E7F0E0B6E35EC09F008C055
:10024800E7F009C0E8F0000E0001EE6F000EED6F58
:10025800F46BF36BF8C0EFF0F9C0F0F081EF01F048
:10026800EF515124D96EF0515220DA6EDF50F66FFB
:100278002C0EF619D8A443EF01F045EF01F046EF34
:1002880001F0F32B2F0EF6654CEF01F04EEF01F065
:100298007FEF01F03A0EF66154EF01F056EF01F0EE
:1002A8007FEF01F0F351D8A45CEF01F05EEF01F0AD
:1002B80064EF01F0F4510A0DF350F625D00FF46FF6
:1002C800F305D8A46AEF01F06CEF01F07FEF01F0BD
:1002D8000A0EED03F3CFE3F0F4CFE4F0EE03F350AE
:1002E800E427F651E327000EE423D00EE325ED6F53
:1002F800FF0EE421EE6FEF4BF02BE751EF5DF0516D
:10030800800AE36FE851800AE359D8A08EEF01F024
:1003180090EF01F034EF01F0F76BED51EE11D8A436
:1003280098EF01F09AEF01F09EEF01F0010EF76FE0
:100338009FEF01F0F76BF407E8EF01F0F7B102D097
:100348008A9A01D08A8A13EF02F0F7B102D08A980C
:1003580001D08A8813EF02F0F7B102D08A9601D053
:100368008A8613EF02F0F7B102D08A9401D08A840A
:1003780013EF02F0F7B102D08A9201D08A8213EF0C
:1003880002F0F7B102D08A9001D08A8013EF02F010
:10039800F7B102D08C9E01D08C8E13EF02F0F7B12A
:1003A80002D08C9C01D08C8C13EF02F0F7B102D0F4
:1003B8008C9A01D08C8A13EF02F0F7B102D08C9896
:1003C80001D08C8813EF02F0F451000AD8B4A2EFE0
:1003D80001F0010AD8B4A9EF01F0030AD8B4B0EFCC
:1003E80001F0010AD8B4B7EF01F0070AD8B4BEEF9C
:1003F80001F0010AD8B4C5EF01F0030AD8B4CCEF74
:1004080001F0010AD8B4D3EF01F00F0AD8B4DAEF3B
:1004180001F0010AD8B4E1EF01F013EF02F051C086
:1004280008F052C009F0E30E0A6E7F0E0B6E35EC31
:1004380009F008C0F8F009C0F9F00001F9BF27EF8A
:1004480002F029EF02F02BEF02F070EC07F051C038
:1004580008F052C009F0BA0E0A6E7F0E0B6E35EC2A
:1004680009F008C0F8F009C0F9F00001F9BF3FEF42
:1004780002F041EF02F043EF02F070EC0EF051C0D1
:1004880008F052C009F0DB0E0A6E7F0E0B6E35ECD9
:1004980009F008C0F8F009C0F9F00001F9BF57EFFA
:1004A80002F059EF02F05BEF02F0A8EC0FF051C038
:1004B80008F052C009F0AE0E0A6E7F0E0B6E35ECD6
:1004C80009F008C0F8F009C0F9F00001F9BF6FEFB2
:1004D80002F071EF02F073EF02F013EC12F051C06A
:1004E80008F052C009F0A10E0A6E7F0E0B6E35ECB3
:1004F80009F008C0F8F009C0F9F00001F9BF87EF6A
:1005080002F089EF02F08BEF02F005EC12F051C017
:1005180008F052C009F0930E0A6E7F0E0B6E35EC90
:1005280009F008C0F8F009C0F9F00001F9BF9FEF21
:1005380002F0A1EF02F0A3EF02F053EC12F051C069
:1005480008F052C009F0670E0A6E7F0E0B6E35EC8C
:1005580009F008C0F8F009C0F9F00001F9BFB7EFD9
:1005680002F0B9EF02F0BBEF02F05FEC12F051C0FD
:1005780008F052C009F0850E0A6E7F0E0B6E35EC3E
:1005880009F008C0F8F009C0F9F00001F9BFCFEF91
:1005980002F0D1EF02F0D3EF02F03BEC12F051C0C1
:1005A80008F052C009F0580E0A6E7F0E0B6E35EC3B
:1005B80009F008C0F8F009C0F9F00001F9BFE7EF49
:1005C80002F0E9EF02F0EBEF02F047EC12F051C055
:1005D80008F052C009F0C60E0A6E7F0E0B6E35EC9D
:1005E80009F008C0F8F009C0F9F00001F9BFFFEF01
:1005F80002F001EF03F003EF03F0F6EC11F051C045
:1006080008F052C009F0D10E0A6E7F0E0B6E35EC61
:1006180009F008C0F8F009C0F9F00001F9BF17EFB8
:1006280003F019EF03F01BEF03F0010EC66F120081
:100638001550800B1E6E15501524246E14AE27EF2E
:1006480003F029EF03F02AEF03F024802450D8B4F4
:1006580030EF03F032EF03F045EF03F02428D8A47D
:1006680038EF03F03AEF03F042EF03F0000E126E9A
:10067800000E136E000E146E000E156E148E4DEFE4
:1006880003F0000E126E000E136E000E146E000EB4
:10069800156E1950800B1E1A195019241F6E18AEAA
:1006A80058EF03F05AEF03F05BEF03F01F801F5081
:1006B800D8B461EF03F063EF03F076EF03F01F287F
:1006C800D8A469EF03F06BEF03F073EF03F0000EAB
:1006D800166E000E176E000E186E000E196E188E2C
:1006E8007EEF03F0000E166E000E176E000E186EE9
:1006F800000E196E1F50D8B484EF03F086EF03F094
:100708008EEF03F02450D8A48CEF03F08EEF03F0A3
:1007180098EF03F0000E126E000E136E000E146EAA
:10072800000E156E2EEF05F018501202F3CF29F0C7
:10073800F4CF2AF02950206E216A226A236A2A50AF
:10074800256E266A276A286A17501302F3CF29F004
:10075800F4CF2AF029502026000E2122222223221B
:100768002A502526000E2622272228221650140257
:10077800F3CF29F0F4CF2AF029502026000E2122A9
:10078800222223222A502526000E2622272228222A
:1007980022C023F021C022F020C021F0206A165088
:1007A8001302F3CF29F0F4CF2AF0295020262A503B
:1007B8002122000E2222000E232217501202F3CF0C
:1007C80029F0F4CF2AF0295020262A502122000EA1
:1007D8002222000E232222C023F021C022F020C0B2
:1007E80021F0206A16501202F3CF29F0F4CF2AF034
:1007F800295020262A502122000E2222000E2322D0
:1008080018501302F3CF29F0F4CF2AF029502526E7
:100818002A502622000E2722000E282217501402E2
:10082800F3CF29F0F4CF2AF0295025262A50262282
:10083800000E2722000E282218501402F3CF29F0A8
:10084800F4CF2AF029501A6E2A501B6E1C6A1D6AB2
:100858001CC01DF01BC01CF01AC01BF01A6A1A50ED
:1008680025261B5026221C5027221D50282220C036
:100878001AF021C01BF022C01CF023C01DF0190E75
:100888004BEF04F0D8901D321C321B321A32E82E7E
:1008980046EF04F01A5025261B5026221C5027220A
:1008A8001D50282222C023F021C022F020C021F0B0
:1008B800206A1F5024C01AF01B6A1A26000E1B2239
:1008C800820E1A24296EFF0E1B202A6E81EF04F077
:1008D800D890253626362736283623AE76EF04F00C
:1008E80078EF04F079EF04F02580D890203621368F
:1008F800223623362906D8A02A0627AE86EF04F02A
:1009080088EF04F06CEF04F01F6A23AE8EEF04F05A
:1009180090EF04F0B4EF04F0FF0E20141A6EFF0EEF
:1009280021141B6EFF0E22141C6E7F0E23141D6EE5
:100938001A501B101C101D10D8B4A5EF04F0A7EF17
:1009480004F0ABEF04F0010E1F6EB4EF04F025A025
:10095800B0EF04F0B2EF04F0B4EF04F0A7EF04F046
:100968001F50D8B4BAEF04F0BCEF04F0E0EF04F085
:10097800010E2526000E26222722282228A0C7EFAE
:1009880004F0C9EF04F0E0EF04F025C01AF026C027
:100998001BF027C01CF028C01DF01D341D321C326E
:1009A8001B321A321AC025F01BC026F01CC027F0D3
:1009B8001DC028F0294A2A2A2ABEEBEF04F02A5043
:1009C80008E12928D8A0EBEF04F0EDEF04F0F7EFE9
:1009D80004F0000E256E000E266E800E276E7F0E28
:1009E800286E24EF05F02ABE04EF05F02A5006E130
:1009F8002904D8B002EF05F004EF05F00FEF05F079
:100A0800000E256E000E266E000E276E000E286E54
:100A18001E6A24EF05F029C024F0FF0E2516FF0EEC
:100A280026167F0E2716000E281624A01EEF05F0A6
:100A380020EF05F021EF05F0278ED8902430286E9E
:100A48001E50281225C012F026C013F027C014F03B
:100A580028C015F01200200E125C3F0E1358D8A0C3
:100A680038EF05F03AEF05F040EF05F0D80E136EB9
:100A7800FA0E126E7EEF06F0410E125C010E13584C
:100A8800D8B049EF05F04BEF05F051EF05F0270E10
:100A9800136E060E126E7EEF06F0B50EF66E7D0E24
:100AA800F76E12500900F55C13500900F558D8B0DC
:100AB80060EF05F062EF05F068EF05F0D90E136EF0
:100AC800040E126E7EEF06F0050EF66E7E0EF76EC1
:100AD8000900F550125C0900F5501358D8B077EFAB
:100AE80005F079EF05F07FEF05F0260E136EFC0E8A
:100AF800126E7EEF06F0010E2C6E84EF05F02C2AA4
:100B08002C50020DB50EF324F66E7D0EF420F76E10
:100B18000900F550125C0900F5501358D8A097EF5A
:100B280005F099EF05F083EF05F02C50146E156A67
:100B3800D89014361536FE0E1424166EFF0E1520A6
:100B4800176E070E1624F66E7E0E1720F76E090034
:100B5800F5CF18F00900F5CF19F02C50020D070E4B
:100B6800F324F66E7E0EF420F76E18500900F55C3B
:100B78001A6E19500900F5581B6E1AC01CF01BC0DC
:100B88001DF0000E1DBEFF0E1E6E1F6E2C50020DB6
:100B9800B50EF324F66E7D0EF420F76E0900F5CF3E
:100BA80014F00900F5CF15F02C50166E176AD8907E
:100BB80016361736FE0E1624186EFF0E1720196EFD
:100BC800B50E1824F66E7D0E1920F76E0900F5CFC4
:100BD8001AF00900F5CF1BF014501A5C286E155056
:100BE8001B58296E2A6AD8A02A062A502B6E2C5028
:100BF800146E156AD89014361536FE0E1424166E27
:100C0800FF0E1520176EB50E1624F66E7D0E1720F2
:100C1800F76E0900F5CF18F00900F5CF19F012505A
:100C2800185C046E13501958056E066AD8A006069B
:100C38000650076E1CC008F01DC009F01EC00AF05F
:100C48001FC00BF04CEC10F004C020F005C021F0E0
:100C580006C022F007C023F0020E086E000E096ECF
:100C6800000E0A6E000E0B6E28C004F029C005F0B5
:100C78002AC006F02BC007F07AEC0AF020500424B2
:100C8800246E21500520256E22500620266E235002
:100C98000720276E2C50146E156AD8901436153616
:100CA800FE0E1424166EFF0E1520176E070E16245E
:100CB800F66E7E0E1720F76E0900F5CF18F00900C2
:100CC800F5CF19F024C004F025C005F026C006F0C1
:100CD80027C007F028C008F029C009F02AC00AF088
:100CE8002BC00BF07AEC0AF018500424126E19503D
:100CF8000520136E12000F50D96EDA6ADECFF6FFA8
:100D0800DDCFF7FF0800F550250AD8A48EEF06F0CE
:100D180090EF06F05EEF07F00F50D96EDA6ADE2A20
:100D2800000EDD22000E0001A76F000EA66FA6C000
:100D3800C2F0A869A9690F50D96EDA6ADECF14F03B
:100D4800DDCF15F014C0F6FF15C0F7FF0800F55009
:100D5800640AD8B4B2EF06F0B4EF06F0C2EF06F0BA
:100D680014C0F6FF15C0F7FF0800F550690AD8A4AB
:100D7800C0EF06F0C2EF06F056EF07F01050D96E3C
:100D8800DA6A020EDF26DF5CD96EDA6ADECF16F089
:100D9800DECF17F0010E1424116E000E1520126E0E
:100DA8000F50D96EDA6A11C0DEFF12C0DDFF200EC7
:100DB8001A6E17BEE2EF06F0E5EF06F0010EE6EF59
:100DC80006F0000E136E1A06000E1A24D96EDA6A9F
:100DD800010EDA2216C004F017C005F0000E076EE7
:100DE8000A0E066E19EC0EF004C00AF005C00BF0EE
:100DF8005FEC11F00A50300FDF6E16C004F017C018
:100E080005F0000E076E0A0E066EFFEC0CF004C02B
:100E180016F005C017F016501710D8B416EF07F0E3
:100E280018EF07F020EF07F01A50D8A41EEF07F0CC
:100E380020EF07F0E7EF06F01A50D8B426EF07F0D6
:100E480028EF07F04BEF07F01350D8B42EEF07F058
:100E580030EF07F04BEF07F01A06000E1A24D96E90
:100E6800DA6A010EDA222D0EDF6E4BEF07F0000E64
:100E78001A24D96EDA6A010EDA22DF50116E115087
:100E8800046E056A0EC006F0C6EC0EF01A2A200E93
:100E98001A18D8A452EF07F054EF07F03BEF07F009
:100EA8006FEF07F00F50D96EDA6ADE2A000EDD22E6
:100EB8006FEF07F00F50D96EDA6ADECFF6FFDDCF9D
:100EC800F7FF0800F550046E056A0EC006F0C6EC80
:100ED8000EF056EF07F01200000E8ABA010E456EAA
:100EE800000E8AB8010E466E000E8AB6010E476ED5
:100EF800000E8AB4010E486E000E8AB2010E496EC9
:100F0800000E8AB0010E4A6E000E8CBE010E4B6EAA
:100F1800000E8CBC010E4C6E000E8CBA010E4D6E8C
:100F2800000E8CB8010E4E6E8A8C1A0E446EF80EA6
:100F3800E82EFED7442EFCD700D0850E056E7E0E17
:100F4800066E81EC10F0000E506E000E4F6ECF0E44
:100F5800216E820E226E7F0E236E4F50920FD96E35
:100F6800DA6ADF50446E4450246E256A43EC11F06F
:100F7800CF0E056E066A81EC10F004004F4A502A25
:100F880050BED0EF07F0505009E10A0E4F5CD8A0D0
:100F9800D0EF07F0D2EF07F0ABEF07F0FC0E056ECD
:100FA8007F0E066E81EC10F0CF0E216EBE0E226E03
:100FB8007E0E236E45C024F0256A46C026F0276AB7
:100FC80047C028F0296A48C02AF02B6A49C02CF08B
:100FD8002D6A4AC02EF02F6A4BC030F0316A4CC0DF
:100FE80032F0336A4DC034F0356A4EC036F0376A95
:100FF80043EC11F0CF0E056E066A81EC10F0FC0E82
:10100800056E7F0E066E81EC10F0CF0E216E760E07
:10101800226E7F0E236EC0C024F0C1C025F0000EE2
:10102800276E000E266EBCC028F0BDC029F0BAC0DD
:101038002AF0BBC02BF0000E2D6E000E2C6E43EC78
:1010480011F0CF0E056E066A81EC10F0FC0E056EED
:101058007F0E066E81EC10F0CF0E216E760E226E9A
:101068007F0E236E55C024F0256AACC026F0ADC0B3
:1010780027F053C028F054C029F0AAC02AF0ABC00A
:101088002BF0C6C02CF02D6A43EC11F0F70E056E5C
:101098007F0E066E81EC10F004001A0E446EF80EF6
:1010A800E82EFED7442EFCD700D08A9C12000C6E86
:1010B8000C50D8B462EF08F064EF08F086EF08F03F
:1010C80007BE6BEF08F069EF08F086EF08F004C080
:1010D80008F005C009F006C00AF007C00BF0081EAA
:1010E800091E0A1E0B1E082A000E09220A220B22BC
:1010F80008C00EF009C00FF00AC010F00BC011F0C4
:101108008EEF08F004C00EF005C00FF006C010F016
:1011180007C011F00450051006100710D8A497EF67
:1011280008F099EF08F0A3EF08F0000E046E000E27
:10113800056E000E066E000E076E34EF09F0960E6F
:101148000D6EADEF08F00D2AD890113210320F3223
:101158000E32000E0E14086E000E0F14096E000EEB
:1011680010140A6EFE0E11140B6E085009100A10A6
:101178000B10D8A4C2EF08F0C4EF08F0A7EF08F0EE
:10118800D2EF08F00D2A010E0E26000E0F221022B3
:101198001122D890113210320F320E32000E0E1476
:1011A800086E000E0F14096E000E10140A6EFF0E62
:1011B80011140B6E085009100A100B10D8A4E7EF91
:1011C80008F0E9EF08F0C6EF08F0F1EF08F00D06B7
:1011D800D8900E360F361036113610BEF6EF08F0DE
:1011E800F8EF08F000EF09F0020E0D60FEEF08F0CE
:1011F80000EF09F0EBEF08F00DB005EF09F007EF8D
:1012080009F008EF09F0109ED8900D320DC008F0D3
:10121800096A0A6A0B6A08C00BF00A6A096A086A4E
:1012280008500E1209500F120A5010120B501112CA
:101238000C50D8B422EF09F024EF09F02CEF09F094
:1012480007BE2BEF09F029EF09F02CEF09F0118EFA
:101258000EC004F00FC005F010C006F011C007F072
:10126800120008C004F009C005F0B0EC10F004C08A
:1012780013F005C014F00AC004F00BC005F0B0EC80
:1012880010F004C015F005C016F01550135C14508A
:10129800800A0C6E1650800A0C58D8A056EF09F038
:1012A80058EF09F0DBEF09F0000E1A6E000E196E08
:1012B800C6EF09F019500824D96E1A500920DA6EC1
:1012C800DF500C6E0AC0F6FF0BC0F7FF0800F550A0
:1012D8000C18D8A472EF09F074EF09F0C4EF09F004
:1012E800000E126E010E116E000E186E000E176EB3
:1012F800A6EF09F0175008240C6E185009200D6E3F
:1013080019500C24D96E1A500D20DA6EDF500E6E6B
:1013180017500A240F6E18500B20106E0FC0F6FFDE
:1013280010C0F7FF0800F5500E18D8B49EEF09F06A
:10133800A0EF09F0A4EF09F0000E126E000E116E76
:10134800174A182A1550175C1850800A0C6E165048
:10135800800A0C58D8A0B3EF09F0B5EF09F07EEF7A
:1013680009F011041210D8A4BCEF09F0BEEF09F07F
:10137800C4EF09F019C008F01AC009F0DDEF09F050
:10138800194A1A2A1550135C0C6E165014580D6E13
:1013980019500C5C0D50800A0E6E1A50800A0E58B7
:1013A800D8B0D9EF09F0DBEF09F05EEF09F0086873
:1013B80009681200000E096E000E086E08509C0F96
:1013C800D96EDA6ADE04D8A4ECEF09F0EEEF09F082
:1013D80069EF0AF00850020DF350600FD96EDA6A0F
:1013E800DE2A000EDD220850020DF350740FD96E6C
:1013F800DA6A0850020DF350600FE16EE26ADE50BF
:10140800E65CDE50E658D8A00CEF0AF00EEF0AF0C2
:1014180069EF0AF02EEF0AF08A8A64EF0AF08A88E8
:1014280064EF0AF08A8664EF0AF08A8464EF0AF0AF
:101438008A8264EF0AF08A8064EF0AF08C8E64EF87
:101448000AF08C8C64EF0AF08C8A64EF0AF08C88BE
:1014580064EF0AF008C004F009C005F00550000A5E
:10146800D8B439EF0AF064EF0AF00450000AD8B48F
:1014780010EF0AF0010AD8B413EF0AF0030AD8B43F
:1014880016EF0AF0010AD8B419EF0AF0070AD8B41F
:101498001CEF0AF0010AD8B41FEF0AF0030AD8B407
:1014A80022EF0AF0010AD8B425EF0AF00F0AD8B4DF
:1014B80028EF0AF0010AD8B42BEF0AF064EF0AF01B
:1014C80008509C0FD96EDA6ADF6A084A092A09BEF1
:1014D80077EF0AF0095009E10A0E085CD8A077EF07
:1014E8000AF079EF0AF0E2EF09F012000D6A0BBE7C
:1014F80082EF0AF080EF0AF08CEF0AF00B1E0A1E4A
:10150800091E086C000E09220A220B22010E0D6E1C
:1015180007BE93EF0AF091EF0AF09DEF0AF0071E5D
:10152800061E051E046C000E052206220722010E67
:101538000D1A000E0E6E000E0F6E000E106E000ECD
:10154800116E085009100A100B10D8B4AEEF0AF04B
:10155800B0EF0AF0E6EF0AF0010E0C6EBAEF0AF0EF
:10156800D890083609360A360B360C2A0BAEBFEF70
:101578000AF0C1EF0AF0B4EF0AF0D8900E360F3631
:10158800103611360850045C095005580A500658A0
:101598000B500758D8A0D3EF0AF0D5EF0AF0DEEFCA
:1015A8000AF00850045E0950055A0A50065A0B50B2
:1015B800075A0E80D8900B320A32093208320C2EA4
:1015C800C1EF0AF00D50D8B4ECEF0AF0EEEF0AF0D4
:1015D800F6EF0AF0111E101E0F1E0E6C000E0F22E1
:1015E800102211220EC004F00FC005F010C006F042
:1015F80011C007F01200000E166E000E176EC00E16
:10160800186E3F0E196EACC004F0ADC005F0066A46
:10161800076A000E5BEC08F004C012F005C013F076
:1016280006C014F007C015F01CEC03F012C02BF034
:1016380013C02CF014C02DF015C02EF084EC0BF064
:101648002BC035F02CC036F0050E07EC0CF0000E60
:10165800166E000E176EC00E186E3F0E196EAAC0D9
:1016680004F0ABC005F0066A076A000E5BEC08F0F0
:1016780004C012F005C013F006C014F007C015F03E
:101688001CEC03F012C02BF013C02CF014C02DF08A
:1016980015C02EF084EC0BF02BC035F02CC036F0C2
:1016A800060E07EC0CF0000E166E000E176EC00E3C
:1016B800186E3F0E196E53C004F054C005F0066A48
:1016C800076A000E5BEC08F004C012F005C013F0C6
:1016D80006C014F007C015F01CEC03F012C02BF084
:1016E80013C02CF014C02DF015C02EF084EC0BF0B4
:1016F8002BC035F02CC036F0080E07EC0CF01200A9
:101708002D342E34346E3450D8A48DEF0BF08FEF77
:101718000BF099EF0BF0000E2B6E000E2C6E000EE6
:101728002D6E000E2E6E06EF0CF02BC02FF02CC085
:1017380030F02DC031F02EC032F0200EA9EF0BF0A2
:10174800D8903232313230322F32E82EA4EF0BF0FB
:101758002F50336E2D8EFF0E2B16FF0E2C16FF0EFC
:101768002D16000E2E16960E345E34BEC0EF0BF00A
:10177800BEEF0BF0D6EF0BF03450800A970FD8B0BD
:10178800C8EF0BF0CAEF0BF0CCEF0BF08FEF0BF0BC
:10179800D8902E322D322C322B32343ECCEF0BF037
:1017A800EEEF0BF01F0E3464DCEF0BF0DEEF0BF006
:1017B800E6EF0BF08FEF0BF0D8902B362C362D364A
:1017C8002E3634063450D8A4ECEF0BF0EEEF0BF0C5
:1017D800E0EF0BF03350D8B4F4EF0BF0F6EF0BF06A
:1017E800FEEF0BF02E1E2D1E2C1E2B6C000E2C2235
:1017F8002D222E222BC02BF02CC02CF02DC02DF02A
:101808002EC02EF01200376E35C004F036C005F039
:10181800000E076E0A0E066E6EEC0FF004C035F06F
:1018280005C036F03750D8B41CEF0CF01EEF0CF0A2
:1018380089EF0CF00B0E376024EF0CF026EF0CF05C
:1018480089EF0CF03750020DF350600FD96EDA6A49
:10185800DE6ADD6A3750020DF350740FD96EDA6A0A
:1018680035C0DEFF36C0DDFF37509C0FD96EDA6A0F
:10187800010EDF6E5EEF0CF08A9A89EF0CF08A9801
:1018880089EF0CF08A9689EF0CF08A9489EF0CF0B6
:101898008A9289EF0CF08A9089EF0CF08C9E89EF80
:1018A8000CF08C9C89EF0CF08C9A89EF0CF08C98DA
:1018B80089EF0CF03750000AD8B440EF0CF0010A59
:1018C800D8B443EF0CF0030AD8B446EF0CF0010A81
:1018D800D8B449EF0CF0070AD8B44CEF0CF0010A61
:1018E800D8B44FEF0CF0030AD8B452EF0CF0010A49
:1018F800D8B455EF0CF00F0AD8B458EF0CF0010A21
:10190800D8B45BEF0CF089EF0CF01200056ED3EF42
:101918000CF004B002D08A9A01D08A8AFEEF0CF04B
:1019280004B002D08A9801D08A88FEEF0CF004B087
:1019380002D08A9601D08A86FEEF0CF004B002D05D
:101948008A9401D08A84FEEF0CF004B002D08A9207
:1019580001D08A82FEEF0CF004B002D08A9001D048
:101968008A80FEEF0CF004B002D08C9E01D08C8EE1
:10197800FEEF0CF004B002D08C9C01D08C8CFEEFF2
:101988000CF004B002D08C9A01D08C8AFEEF0CF0D7
:1019980004B002D08C9801D08C88FEEF0CF0055072
:1019A800000AD8B48DEF0CF0010AD8B494EF0CF00B
:1019B800030AD8B49BEF0CF0010AD8B4A2EF0CF0DC
:1019C800070AD8B4A9EF0CF0010AD8B4B0EF0CF0AC
:1019D800030AD8B4B7EF0CF0010AD8B4BEEF0CF084
:1019E8000F0AD8B4C5EF0CF0010AD8B4CCEF0CF04C
:1019F800FEEF0CF01200096A07BE07EF0DF005EFC5
:101A08000DF00DEF0DF0066C071ED8B0072A010E79
:101A1800096E05BE14EF0DF012EF0DF01AEF0DF080
:101A2800046C051ED8B0052A010E091A000E0B6EAB
:101A3800000E0A6E06500710D8B425EF0DF027EFF8
:101A48000DF04FEF0DF0010E086E2FEF0DF0D8904E
:101A580006360736082A07AE34EF0DF036EF0DF0DC
:101A68002BEF0DF0D8900A360B360650045C075061
:101A78000558D8A042EF0DF044EF0DF049EF0DF0F6
:101A88000650045E0750055A0A80D890073206327D
:101A9800082E36EF0DF00950D8B455EF0DF057EF7A
:101AA8000DF05BEF0DF00A6C0B1ED8B00B2A0AC0C4
:101AB80004F00BC005F012002FEC12F0C0EC11F08E
:101AC800D5EC11F076EC12F06BEC12F0D09EF28CA3
:101AD800F28EBDEC0DF0010E566E000E7FEC12F08A
:101AE800750E0001AD6F300EAC6F070EAB6FD00EE8
:101AF800AA6F040E546EB00E536E000EB36F320E02
:101B0800B26F5950D8B48BEF0DF08DEF0DF0A7EFF1
:101B18000DF0200E516E010E526E4DEC00F00001DA
:101B2800FA6B200EFA25D96EDA6A010EDA22DF6A1C
:101B3800FA2BC70EFA65A3EF0DF0A5EF0DF095EFA0
:101B48000DF05A6A596A5B50D8B4ADEF0DF0AFEF9B
:101B58000DF0B8EF0DF0BDEC0DF01BEC0FF0DEEC66
:101B680009F092EC11F05B6A040085EF0DF04BEF81
:101B780000F0000E84B0010E0001926F000E84B2D6
:101B8800010E936F000E84B4010E946F000E82B0A4
:101B9800010E956F000E82B2010E966F000E82B490
:101BA800010E976F000E83B0010E986F000E83B27E
:101BB800010E996F000E83B4010E9A6F000E83B662
:101BC800010E9B6F000E076E000E066E0650880F02
:101BD800D96EDA6A0650920FE16EE26ADE50E618B4
:101BE800D8B4F9EF0DF0FBEF0DF008EF0EF006504A
:101BF800920FD96EDA6A0650880FE16EE26ADFCF7B
:101C0800E7FF010E0001CE6F064A072A07BE16EF4E
:101C18000EF0075009E10A0E065CD8A016EF0EF088
:101C280018EF0EF0EAEF0DF01200096A05BE21EF79
:101C38000EF01FEF0EF027EF0EF0046C051ED8B063
:101C4800052A010E096E07BE2EEF0EF02CEF0EF0DE
:101C580032EF0EF0066C071ED8B0072A06500710A0
:101C6800D8B439EF0EF03BEF0EF05FEF0EF0010E37
:101C7800086E43EF0EF0D89006360736082A07AEEE
:101C880048EF0EF04AEF0EF03FEF0EF00650045CFE
:101C980007500558D8A053EF0EF055EF0EF059EF46
:101CA8000EF00650045E0750055AD89007320632E7
:101CB800082E4AEF0EF00950D8B465EF0EF067EF22
:101CC8000EF06BEF0EF0046C051ED8B0052A04C0A8
:101CD80004F005C005F0120053C035F054C036F0CA
:101CE800080E07EC0CF0000E3A6E000E396E88EF05
:101CF8000EF0060E386E300EE82EFED7382EFCD7C2
:101D080000D00400394A3A2A5350395C54503A58A2
:101D1800D8A091EF0EF093EF0EF07DEF0EF0000ECD
:101D2800166E000E176EC00E186E3F0E196E53C059
:101D380004F054C005F0066A076A000E5BEC08F070
:101D480004C012F005C013F006C014F007C015F067
:101D58001CEC03F012C02BF013C02CF014C02DF0B3
:101D680015C02EF084EC0BF02BC035F02CC036F0EB
:101D7800090E07EC0CF0A90E076E7E0E086EFDEC3E
:101D880010F012000650D8B4CCEF0EF0CEEF0EF0E3
:101D9800D6EF0EF00650D8A4D4EF0EF0D6EF0EF022
:101DA800DBEF0EF0045090EC12F01AEF0FF0065033
:101DB800D96EDA6A090ED926DE50DE10D8B4E7EFFC
:101DC8000EF0E9EF0EF002EF0FF00650D96EDA6A66
:101DD800090ED9260650E16EE26A020EE126DE50AF
:101DE800E65CE650800A0B6EDE50800A0B58D8B0CD
:101DF80000EF0FF002EF0FF01AEF0FF00650D96E58
:101E0800DA6A020ED926DF50076E0650D96EDA6AF2
:101E1800DF500724D96EDA6A04C0DFFF0650D96E96
:101E2800DA6A020ED926DE2A000EDD221200572AAF
:101E3800050E576422EF0FF024EF0FF06DEF0FF04F
:101E48005850D8A42AEF0FF02CEF0FF033EF0FF013
:101E5800000ED8EC10F004C0C0F005C0C1F0580462
:101E6800D8A439EF0FF03BEF0FF042EF0FF0010E5F
:101E7800D8EC10F004C0C0F005C0C1F0020E58182C
:101E8800D8A449EF0FF04BEF0FF052EF0FF0020E0E
:101E980017EC10F02DC0BCF02EC0BDF0030E581882
:101EA800D8A459EF0FF05BEF0FF062EF0FF0030EBD
:101EB80017EC10F02DC0BAF02EC0BBF0582A030E54
:101EC800586469EF0FF06BEF0FF06CEF0FF0586A82
:101ED800576A1200000E0A6E000E096E06500710AF
:101EE800D8B479EF0FF07BEF0FF0A3EF0FF0010EEE
:101EF800086E83EF0FF0D89006360736082A07AE2B
:101F080088EF0FF08AEF0FF07FEF0FF0D8900936C7
:101F18000A360650045C07500558D8A096EF0FF013
:101F280098EF0FF09DEF0FF00650045E0750055A2A
:101F38000980D89007320632082E8AEF0FF009C0C0
:101F480004F00AC005F01200070E366ED00E356E8A
:101F5800070E07EC0CF0070E366ED00E356E060E27
:101F680007EC0CF0000E3A6E000E396EC7EF0FF05A
:101F7800060E386E300EE82EFED7382EFCD700D06D
:101F88000400394A3A2A0001AA51395CAB513A583F
:101F9800D8A0D1EF0FF0D3EF0FF0BCEF0FF00B0E7E
:101FA800366EB80E356E070E07EC0CF0190E076E7C
:101FB8007F0E086EFDEC10F01200076E0750E7EC7C
:101FC80011F00518D8A4EBEF0FF0EDEF0FF0EFEFDD
:101FD8000FF016EF10F007C0A9FF05C0A8FFA69ED6
:101FE800A69CA696A684000EF2BE010E066EF29E70
:101FF800550EA76EAA0EA76EA6820650D8B407EF94
:1020080010F009EF10F00DEF10F0F28E0DEF10F058
:102018000400A6B212EF10F014EF10F00CEF10F05D
:10202800A694A19812002F6E000E316E000E306E2D
:10203800346A2F50D8EC10F004C032F005C033F0E9
:10204800322806E13328D8A42CEF10F02EEF10F038
:1020580034EF10F0D80E2E6EFA0E2D6E4BEF10F0F6
:102068003250302633503122342A0F0E34643FEF79
:1020780010F041EF10F01DEF10F030C012F031C039
:1020880013F02FEC05F012C02DF013C02EF0120043
:10209800000E0C6E000E0D6E000E0E6E000E0F6E12
:1020A80004A059EF10F05BEF10F063EF10F0085048
:1020B8000C2609500D220A500E220B500F22D890E0
:1020C800083609360A360B36D890073206320532FA
:1020D80004320450051006100710D8A476EF10F04B
:1020E80078EF10F054EF10F00CC004F00DC005F0BC
:1020F8000EC006F00FC007F0120097EF10F005C0F1
:10210800F6FF06C0F7FFF86A070EF76403D0080069
:10211800F55005D0F6CFE9FFF7CFEAFFEF5021ECF5
:1021280012F0054A062A05C0F6FF06C0F7FFF86A4E
:10213800070EF76403D00800F55005D0F6CFE9FF85
:10214800F7CFEAFFEF500009D8A4ADEF10F0AFEFDA
:1021580010F083EF10F01200000E076E000E066EEE
:10216800BBEF10F00400064A072A044A052A04C0F7
:10217800F6FF05C0F7FFF86A070EF76403D00800FA
:10218800F55005D0F6CFE9FFF7CFEAFFEF50000989
:10219800D8A4D1EF10F0D3EF10F0B6EF10F006C0CE
:1021A80004F007C005F01200086E050E0864DFEFA2
:1021B80010F0E1EF10F0E5EF10F004680568FCEFAF
:1021C80010F008C006F006460646C2500618830BF3
:1021D8000618C26EC282C2B2F4EF10F0F6EF10F029
:1021E800EFEF10F0C450066EC350046E06C005F041
:1021F80012008A8C1A0E096EF80EE82EFED7092EE8
:10220800FCD700D05E0E056E7E0E066E81EC10F0D7
:1022180007C005F008C006F081EC10F0F70E056E57
:102228007F0E066E81EC10F01A0E096EF80EE82E7D
:10223800FED7092EFCD700D08A9C12001CC01FF0C4
:102248001DC020F030EF11F01BC00EF01F0E0F6EF6
:102258001EC010F07FEC06F01FC0F6FF20C0F7FF8D
:102268000800F5500009D8A43CEF11F03EEF11F03A
:1022780028EF11F0000E1C6E000E1B6E1200240ECB
:10228800386E21C039F0000E3C6E000E3B6E000E19
:10229800436E000E426E390E1B6E22C01CF023C026
:1022A8001DF0380E1E6E22EC11F021503B24D96E21
:1022B800DA6ADF6A12000BBE64EF11F066EF11F004
:1022C8006CEF11F00AC00AF00BC00BF078EF11F0B8
:1022D8000AC00CF00BC00DF00C1E0D1E0C4A0D2A86
:1022E8000CC00AF00DC00BF0120001EE00F0E80E71
:1022F800EE6AE806FDE100EE60F0830EEE6AE8069D
:10230800FDE100EE53F0090EEE6AE806FDE15C908F
:102318005C92000EF86E000160EF0DF05650D8A4E4
:1023280098EF11F09AEF11F0A8EF11F00001C72B08
:10233800C70EC765A2EF11F0A4EF11F0A8EF11F0D6
:10234800FFEC0AF0010E566E12009280928292847F
:102358009286928A96800F015B815B835B855B879F
:102368005B8B5F81C16A950EC06EC26AC2800D0E1A
:10237800E82EFED7000012000F015B6B5C6B5D6BF3
:102388005E6B5F6B800E936E0F0E966E0F0E956EE2
:1023980094688A688D688C68939C8A9CA9EC11F073
:1023A80012000F015D9D5D9F949C948EB886AC844D
:1023B800AC98010EB06EA00EAF6EAB8EAB88AC8A37
:1023C8009E9A9D8A1200046EA6B2EDEF11F0EFEF0F
:1023D80011F0E8EF11F004C0A9FFA69EA69CA68004
:1023E800A8501200FFEC0AF0010E046E000E8AECF1
:1023F8000CF0010E046E010E8AEC0CF00001C66BA5
:102408001200750E366E300E356E050E07EC0CF0A8
:102418002A0E076E7F0E086EFDEC10F01200750E86
:10242800366E300E356E040E07EC0CF03A0E076E61
:102438007F0E086EFDEC10F01200046E25EF12F00E
:102448000400ACA22AEF12F02CEF12F024EF12F0E5
:1024580004C0ADFF1200700ED312FC0ED316D3A425
:1024680038EF12F03AEF12F033EF12F01200000ECC
:10247800046E010E8AEC0CF0F70E076E7E0E086EE5
:10248800FDEC10F01200010E046E010E8AEC0CF047
:10249800D30E076E7E0E086EFDEC10F01200000ED3
:1024A800046E000E8AEC0CF0080E076E7F0E086EA4
:1024B800FDEC10F01200010E046E000E8AEC0CF018
:1024C800E50E076E7E0E086EFDEC10F01200CC6A69
:1024D800020ECD6E630ECF6EC00ECE6E9E909D80A6
:1024E800CD801200010ED56E3C0ED76EB00ED66EA2
:1024F800F294F28A1200086E08C005F0100EE1ECA2
:102508000FF008C055F01200D59E3C0ED76EB00EE5
:0A251800D66EF294D58E1200120068
:107DB40000123D333C1E3BCE393E386236233540FB
:107DC400345133583254314630302F112EE92CBC03
:107DD4002B4A2A50291528D626952555241423D60E
:107DE4002197205C1F271EF81CCE1BA81A89197521
:107DF4001865175E165F15E214961280109F0EF236
:107E04000C740B70FEA2FED4FE06FF38FF6AFF88D6
:107E1400FF9CFFB0FFC4FFD8FFECFF000014002854
:107E2400003C005000640078008C00A000B400C83E
:107E340000DC00F000040118012C01400154016829
:107E4400017C019001A401B801C201F40126025889
:107E5400028A02BC0201200039C07B2269223A2234
:107E64004147524F4C4154494E415F473031222CD7
:107E7400227273223A225265737075657374613A83
:107E8400007B2269223A224147524F4C4154494EC9
:107E9400415F473031222C227273223A22535441DB
:107EA4005455533A00494E59454343494F4E5F4C4C
:107EB40049515549444F5F4F4B002564256425645F
:107EC4002564256425642564256425642564005699
:107ED400454E54494C41444F525F4F46465F4F4BC9
:107EE40000455641504F5241444F525F4F46465F02
:107EF4004F4B0056454E54494C41444F525F4F4EF0
:107F04005F4F4B00455641504F5241444F525F4FD3
:107F14004E5F4F4B00494E59454343494F4E5F47CF
:107F240041535F4F4B0044414D5045525F434C4FCA
:107F340053455F4F4B0044414D5045525F4F5045B0
:107F44004E5F4F4B004147524F4C4154494E415FA5
:107F54004730310056454E54494C41444F525F4FCF
:107F6400464600455641504F5241444F525F4F469A
:107F7400460025642C25642C25642C25642C25645A
:107F84000056454E54494C41444F525F4F4E0045B4
:107F94005641504F5241444F525F4F4E0044414D61
:107FA4005045525F434C4F53450044414D50455258
:107FB4005F4F50454E00494E595F4C495155494415
:107FC4004F0053544F505F504C414E540052554E45
:107FD4005F504C414E5400494E595F474153005342
:107FE40054415455530043423031005250280052FA
:0B7FF400542800227D0029002C000012
:020000040030CA
:0E00000001284E1FFFD185FF0FC00FE00F40FB
:00000001FF
