:040000004BEF00F0D2
:100008005C82D9CF01F0DACF02F09EAA0EEF00F0A1
:1000180010EF00F025EF00F0AECF03F0960E5A6017
:1000280018EF00F01AEF00F023EF00F0200E5A242A
:10003800D96EDA6A010EDA2203C0DFFF5A2AC2EC4F
:100048000FF0F2A42AEF00F02CEF00F030EF00F0F0
:10005800D59EF294010E596E9DA035EF00F037EF52
:1000680000F045EF00F09EA03CEF00F03EEF00F0FE
:1000780045EF00F0630ECF6EC00ECE6E9E90010E5F
:100088005B6E02C0DAFF01C0D9FF5C92110029EF54
:100098000FF00750800B146E075007241B6E06AE36
:1000A80058EF00F05AEF00F05BEF00F01B801B5098
:1000B800D8B461EF00F063EF00F077EF00F01B2891
:1000C800D8A469EF00F06BEF00F073EF00F0000EBA
:1000D800046E000E056E000E066E000E076E068E8C
:1000E800076A7FEF00F0000E046E000E056E000E2A
:1000F800066E000E076E0B50800B141A0B500B2463
:100108001C6E0AAE8AEF00F08CEF00F08DEF00F065
:100118001C801C50D8B493EF00F095EF00F0A9EFC5
:1001280000F01C28D8A49BEF00F09DEF00F0A5EF8D
:1001380000F0000E086E000E096E000E0A6E000E2A
:100148000B6E0A8E0B6AB1EF00F0000E086E000EFF
:10015800096E000E0A6E000E0B6E085009100A1088
:100168000B10D8A4BAEF00F0BCEF00F0D4EF00F009
:10017800000E046E000E056E000E066E000E076E71
:10018800800E06127F0E07121450071204C004F0E6
:1001980005C005F006C006F007C007F014EF02F02E
:1001A8001B50D8A4DAEF00F0DCEF00F0E6EF00F027
:1001B800000E046E000E056E000E066E000E076E31
:1001C80014EF02F01C501BC00CF00D6A0C5E000E00
:1001D8000D5A7F0E0C24156E000E0D20166E04C0ED
:1001E80010F005C011F006C012F007C013F0000EA1
:1001F800046E000E056E000E066E000E076E000EF1
:10020800176E000E186E000E196E000E1A6E1C6A1C
:1002180046EF01F01C50D8B414EF01F016EF01F0CE
:100228002DEF01F0D8901036113612361336D890CB
:1002380004360536063607361AAE25EF01F027EFE5
:1002480001F028EF01F00480D890173618361936D7
:100258001A360850105C095011580A5012580B50A1
:100268001358D8A03AEF01F03CEF01F045EF01F048
:100278001A8C0850105E0950115A0A50125A0B5025
:10028800135A1C2A190E1C644CEF01F04EEF01F0B2
:100298000EEF01F01050111012101310D8B457EFD0
:1002A80001F059EF01F071EF01F0178071EF01F0E3
:1002B800D89004360536063607361AAE66EF01F0D2
:1002C80068EF01F069EF01F00480D890173618360E
:1002D80019361A361506D8A0160606AE76EF01F0BE
:1002E80078EF01F05CEF01F01C6A1AAE7EEF01F0C6
:1002F80080EF01F0A4EF01F0FF0E17140C6EFF0E53
:1003080018140D6EFF0E19140E6E7F0E1A140F6E50
:100318000C500D100E100F10D8B495EF01F097EF98
:1003280001F09BEF01F0010E1C6EA4EF01F004A098
:10033800A0EF01F0A2EF01F0A4EF01F097EF01F0B8
:100348001C50D8B4AAEF01F0ACEF01F0D0EF01F0E7
:10035800010E0426000E05220622072207A0B7EF89
:1003680001F0B9EF01F0D0EF01F004C00CF005C0C6
:100378000DF006C00EF007C00FF00F340F320E322A
:100388000D320C320CC004F00DC005F00EC006F0A2
:100398000FC007F0154A162A16BEDBEF01F01650FB
:1003A80008E11528D8A0DBEF01F0DDEF01F0E8EF58
:1003B80001F0000E166E1568000E046E000E056E34
:1003C800000E066E000E076E16BEF5EF01F0165011
:1003D80006E11504D8B0F3EF01F0F5EF01F002EFF4
:1003E80002F0000E166E000E156E000E046E000E62
:1003F800056E000E066E000E076E146A15C01BF01F
:100408001BA009EF02F00BEF02F00EEF02F0068ED0
:100418000FEF02F0069ED8901B30076EC8EF00F071
:100428001200E1C008F0E2C009F0C50E0A6E7F0EA6
:100438000B6E55EC07F009BE24EF02F026EF02F030
:1004480070EF03F0E1C008F0E2C009F0EA0E0A6EAE
:100458007F0E0B6E55EC07F009BE35EF02F037EF53
:1004680002F070EF03F0E1C008F0E2C009F0F30E0B
:100478000A6E7F0E0B6E55EC07F008C0F7F009C046
:10048800F8F00001F8BF4BEF02F04DEF02F0CBEFB0
:1004980002F0E1C008F0E2C009F0FA0E0A6E7F0E21
:1004A8000B6E55EC07F008C0E5F009C0E6F0000E49
:1004B8000001ED6F000EEC6FF26BF36BF7C0EEF01E
:1004C800F8C0EFF0B5EF02F0EE51E125D96EEF512B
:1004D800E221DA6EDF50F56F2C0EF519D8A477EF0C
:1004E80002F079EF02F07AEF02F0F32B2F0EF565A8
:1004F80080EF02F082EF02F0B3EF02F03A0EF561FE
:1005080088EF02F08AEF02F0B3EF02F0F351D8A4BB
:1005180090EF02F092EF02F098EF02F0F2510A0D1C
:10052800F350F525D00FF26FF305D8A49EEF02F033
:10053800A0EF02F0B3EF02F00A0EEC03F3CFE3F002
:10054800F4CFE4F0ED03F350E427F551E327000E70
:10055800E423D00EE325EC6FFF0EE421ED6FEE4BA4
:10056800EF2BE551EE5DEF51800AE36FE651800A0B
:10057800E359D8A0C2EF02F0C4EF02F068EF02F02E
:10058800ECC00BF0EDC00CF0F25145EC0AF0E1C004
:1005980008F0E2C009F0EF0E0A6E7F0E0B6E55EC04
:1005A80007F008C0F7F009C0F8F00001F8BFDFEF66
:1005B80002F0E1EF02F058EF03F0E1C008F0E2C00A
:1005C80009F0FA0E0A6E7F0E0B6E55EC07F008C0A4
:1005D800E7F009C0E8F0000E0001EA6F000EE96FCD
:1005E800EB6BF46BF7C0F0F0F8C0F1F049EF03F0F3
:1005F800F051E125D96EF151E221DA6EDF50F66F44
:100608002C0EF619D8A40BEF03F00DEF03F00EEF44
:1006180003F0F42B2F0EF66514EF03F016EF03F03A
:1006280047EF03F03A0EF6611CEF03F01EEF03F0FC
:1006380047EF03F0F451D8A424EF03F026EF03F0BA
:100648002CEF03F0EB510A0DF350F625D00FEB6FAA
:10065800F405D8A432EF03F034EF03F047EF03F0CA
:100668000A0EE903F3CFE3F0F4CFE4F0EA03F35022
:10067800E427F651E327000EE423D00EE325E96FC3
:10068800FF0EE421EA6FF04BF12BE751F05DF151D9
:10069800800AE36FE851800AE359D8A056EF03F0C7
:1006A80058EF03F0FCEF02F0E1C008F0E2C009F0F7
:1006B800E30E0A6E7F0E0B6E55EC07F008C0F7F0DC
:1006C80009C0F8F00001F8BF6CEF03F06EEF03F01B
:1006D80070EF03F08CEC06F01200200E125C3F0E57
:1006E8001358D8A07AEF03F07CEF03F082EF03F001
:1006F800D80E136EFA0E126EC0EF04F0410E125CA3
:10070800010E1358D8B08BEF03F08DEF03F093EF81
:1007180003F0270E136E060E126EC0EF04F0E30E00
:10072800F66E7E0EF76E12500900F55C1350090044
:10073800F558D8B0A2EF03F0A4EF03F0AAEF03F046
:10074800D90E136E040E126EC0EF04F0330EF66E5F
:100758007F0EF76E0900F550125C0900F55013582A
:10076800D8B0B9EF03F0BBEF03F0C1EF03F0260EEA
:10077800136EFC0E126EC0EF04F0010E2C6EC6EF65
:1007880003F02C2A2C50020DE30EF324F66E7E0E95
:10079800F420F76E0900F550125C0900F550135863
:1007A800D8A0D9EF03F0DBEF03F0C5EF03F02C502E
:1007B800146E156AD89014361536FE0E1424166E6B
:1007C800FF0E1520176E350E1624F66E7F0E1720B5
:1007D800F76E0900F5CF18F00900F5CF19F02C5085
:1007E800020D350EF324F66E7F0EF420F76E1850C6
:1007F8000900F55C1A6E19500900F5581B6E1AC0ED
:100808001CF01BC01DF0000E1DBEFF0E1E6E1F6EDD
:100818002C50020DE30EF324F66E7E0EF420F76ED4
:100828000900F5CF14F00900F5CF15F02C50166E1D
:10083800176AD89016361736FE0E1624186EFF0E55
:100848001720196EE30E1824F66E7E0E1920F76E27
:100858000900F5CF1AF00900F5CF1BF014501A5C07
:10086800286E15501B58296E2A6AD8A02A062A50C5
:100878002B6E2C50146E156AD89014361536FE0E51
:100888001424166EFF0E1520176EE30E1624F66E4E
:100898007E0E1720F76E0900F5CF18F00900F5CF86
:1008A80019F01250185C046E13501958056E066A38
:1008B800D8A006060650076E1CC008F01DC009F037
:1008C8001EC00AF01FC00BF0F3EC0DF004C020F0BE
:1008D80005C021F006C022F007C023F0020E086E02
:1008E800000E096E000E0A6E000E0B6E28C004F092
:1008F80029C005F02AC006F02BC007F0C0EC09F0AB
:1009080020500424246E21500520256E22500620F4
:10091800266E23500720276E2C50146E156AD89027
:1009280014361536FE0E1424166EFF0E1520176E9B
:10093800350E1624F66E7F0E1720F76E0900F5CFD8
:1009480018F00900F5CF19F024C004F025C005F00F
:1009580026C006F027C007F028C008F029C009F013
:100968002AC00AF02BC00BF0C0EC09F01850042480
:10097800126E19500520136E12000F50D96EDA6AE4
:10098800DECFF6FFDDCFF7FF0800F550250AD8A423
:10099800D0EF04F0D2EF04F0A0EF05F00F50D96EBD
:1009A800DA6ADE2A000EDD22000E0001A76F000EB3
:1009B800A66FA6C0C4F0A869A9690F50D96EDA6AF3
:1009C800DECF14F0DDCF15F014C0F6FF15C0F7FF29
:1009D8000800F550640AD8B4F4EF04F0F6EF04F018
:1009E80004EF05F014C0F6FF15C0F7FF0800F55036
:1009F800690AD8A402EF05F004EF05F098EF05F0B6
:100A08001050D96EDA6A020EDF26DF5CD96EDA6A18
:100A1800DECF16F0DECF17F0010E1424116E000E93
:100A28001520126E0F50D96EDA6A11C0DEFF12C09F
:100A3800DDFF200E1A6E17BE24EF05F027EF05F034
:100A4800010E28EF05F0000E136E1A06000E1A2488
:100A5800D96EDA6A010EDA2216C004F017C005F062
:100A6800000E076E0A0E066E09EC0CF004C00AF0C0
:100A780005C00BF00FEC0FF00A50300FDF6E16C0F8
:100A880004F017C005F0000E076E0A0E066E4CEC57
:100A98000BF004C016F005C017F016501710D8B4A4
:100AA80058EF05F05AEF05F062EF05F01A50D8A498
:100AB80060EF05F062EF05F029EF05F01A50D8B4A1
:100AC80068EF05F06AEF05F08DEF05F01350D8B424
:100AD80070EF05F072EF05F08DEF05F01A06000EC5
:100AE8001A24D96EDA6A010EDA222D0EDF6E8DEF26
:100AF80005F0000E1A24D96EDA6A010EDA22DF50E8
:100B0800116E1150046E056A0EC006F060EC0CF010
:100B18001A2A200E1A18D8A494EF05F096EF05F0BB
:100B28007DEF05F0B1EF05F00F50D96EDA6ADE2AD5
:100B3800000EDD22B1EF05F00F50D96EDA6ADECF74
:100B4800F6FFDDCFF7FF0800F550046E056A0EC00A
:100B580006F060EC0CF098EF05F012000C6E0C50EB
:100B6800D8B4B9EF05F0BBEF05F0DDEF05F007BE2F
:100B7800C2EF05F0C0EF05F0DDEF05F004C008F0A6
:100B880005C009F006C00AF007C00BF0081E091ED0
:100B98000A1E0B1E082A000E09220A220B2208C070
:100BA8000EF009C00FF00AC010F00BC011F0E5EF0D
:100BB80005F004C00EF005C00FF006C010F007C025
:100BC80011F00450051006100710D8A4EEEF05F038
:100BD800F0EF05F0FAEF05F0000E046E000E056E5A
:100BE800000E066E000E076E8BEF06F0960E0D6E69
:100BF80004EF06F00D2AD890113210320F320E325F
:100C0800000E0E14086E000E0F14096E000E10145C
:100C18000A6EFE0E11140B6E085009100A100B1004
:100C2800D8A419EF06F01BEF06F0FEEF05F029EF48
:100C380006F00D2A010E0E26000E0F221022112298
:100C4800D890113210320F320E32000E0E14086E88
:100C5800000E0F14096E000E10140A6EFF0E111408
:100C68000B6E085009100A100B10D8A43EEF06F0BE
:100C780040EF06F01DEF06F048EF06F00D06D8909D
:100C88000E360F361036113610BE4DEF06F04FEF08
:100C980006F057EF06F0020E0D6055EF06F057EF1D
:100CA80006F042EF06F00DB05CEF06F05EEF06F0DE
:100CB8005FEF06F0109ED8900D320DC008F0096A5B
:100CC8000A6A0B6A08C00BF00A6A096A086A0850BF
:100CD8000E1209500F120A5010120B5011120C501C
:100CE800D8B479EF06F07BEF06F083EF06F007BE85
:100CF80082EF06F080EF06F083EF06F0118E0EC04B
:100D080004F00FC005F010C006F011C007F0120083
:100D1800000E8ABA010E456E000E8AB8010E466EA4
:100D2800000E8AB6010E476E000E8AB4010E486E98
:100D3800000E8AB2010E496E000E8AB0010E4A6E8C
:100D4800000E8CBE010E4B6E000E8CBC010E4C6E5C
:100D5800000E8CBA010E4D6E000E8CB8010E4E6E50
:100D68008A8C1A0E446EF80EE82EFED7442EFCD755
:100D780000D08C0E056E7F0E066E28EC0EF0000E6D
:100D8800506E000E4F6ECD0E216EE00E226E7F0E5D
:100D9800236E4F50920FD96EDA6ADF50446E44507A
:100DA800246E256AF3EC0EF0CD0E056E066A28EC6B
:100DB8000EF04F4A502A50BEEBEF06F0505009E1B2
:100DC8000A0E4F5CD8A0EBEF06F0EDEF06F0C7EF88
:100DD80006F0FC0E056E7F0E066E28EC0EF0CD0EAA
:100DE800216EB00E226E7F0E236E45C024F0256A58
:100DF80046C026F0276A47C028F0296A48C02AF06A
:100E08002B6A49C02CF02D6A4AC02EF02F6A4BC0BD
:100E180030F0316A4CC032F0336A4DC034F0356A74
:100E28004EC036F0376AF3EC0EF0CD0E056E066A4A
:100E380028EC0EF0FC0E056E7F0E066E28EC0EF008
:100E4800CD0E216ED40E226E7F0E236EC2C024F00A
:100E5800C3C025F0000E276E000E266EBEC028F017
:100E6800BFC029F0BCC02AF0BDC02BF0B6C02CF022
:100E7800B7C02DF0F3EC0EF0CD0E056E066A28EC27
:100E88000EF0F70E056E7F0E066E28EC0EF01A0EA9
:100E9800446EF80EE82EFED7442EFCD700D08A9C6C
:100EA800120008C004F009C005F085EC0EF004C07B
:100EB80013F005C014F00AC004F00BC005F085EC6F
:100EC8000EF004C015F005C016F01550135C145050
:100ED800800A0C6E1650800A0C58D8A076EF07F0DE
:100EE80078EF07F0FBEF07F0000E1A6E000E196E90
:100EF800E6EF07F019500824D96E1A500920DA6E67
:100F0800DF500C6E0AC0F6FF0BC0F7FF0800F55063
:100F18000C18D8A492EF07F094EF07F0E4EF07F06D
:100F2800000E126E010E116E000E186E000E176E76
:100F3800C6EF07F0175008240C6E185009200D6EE4
:100F480019500C24D96E1A500D20DA6EDF500E6E2F
:100F580017500A240F6E18500B20106E0FC0F6FFA2
:100F680010C0F7FF0800F5500E18D8B4BEEF07F010
:100F7800C0EF07F0C4EF07F0000E126E000E116EFE
:100F8800174A182A1550175C1850800A0C6E16500C
:100F9800800A0C58D8A0D3EF07F0D5EF07F09EEFE2
:100FA80007F011041210D8A4DCEF07F0DEEF07F009
:100FB800E4EF07F019C008F01AC009F0FDEF07F0D8
:100FC800194A1A2A1550135C0C6E165014580D6ED7
:100FD80019500C5C0D50800A0E6E1A50800A0E587B
:100FE800D8B0F9EF07F0FBEF07F07EEF07F00868DD
:100FF80009681200000E3A6E000E3B6E000E3C6E41
:10100800000E3D6E000E396E000E386E406A000EFE
:10101800426E000E416E42EF08F0200E4124D96E58
:10102800010E4220DA6E200EDE18D8A41EEF08F05A
:1010380020EF08F022EF08F0010E406E4004D8A41B
:1010480028EF08F02AEF08F03FEF08F0200E4124BF
:10105800D96E010E4220DA6EDF50216E226A3850B6
:10106800020DF350240FD96EDA6A21C0DEFF22C0C8
:10107800DDFF384A392A0400414A422A5A50216E73
:10108800226A2150415C4250800A236E2250800A15
:101098002358D8A052EF08F054EF08F011EF08F0E9
:1010A8004004D8A45AEF08F05CEF08F095EF08F078
:1010B8002AC03EF02BC03FF03E503F6E3E6A20EE05
:1010C80028F0DE503E12DD503F123EC004F03FC013
:1010D80005F0066A076A000EB2EC05F004C03AF0A3
:1010E80005C03BF006C03CF007C03DF03AC004F034
:1010F8003BC005F03CC006F03DC007F0000E086E8E
:10110800000E096E200E0A6E410E0B6E4DEC00F0BB
:1011180004C03AF005C03BF006C03CF007C03DF003
:1011280004003AC01DF03BC01EF03CC01FF03DC09B
:1011380020F01200000E096E000E086E08509C0F79
:10114800D96EDA6ADE04D8A4ACEF08F0AEEF08F086
:1011580029EF09F00850020DF350600FD96EDA6AD2
:10116800DE2A000EDD220850020DF350740FD96EEE
:10117800DA6A0850020DF350600FE16EE26ADE5041
:10118800E65CDE50E658D8A0CCEF08F0CEEF08F0C9
:1011980029EF09F0EEEF08F08A8A24EF09F08A882F
:1011A80024EF09F08A8624EF09F08A8424EF09F0F5
:1011B8008A8224EF09F08A8024EF09F08C8E24EFCC
:1011C80009F08C8C24EF09F08C8A24EF09F08C88C4
:1011D80024EF09F008C004F009C005F00550000A22
:1011E800D8B4F9EF08F024EF09F00450000AD8B495
:1011F800D0EF08F0010AD8B4D3EF08F0030AD8B446
:10120800D6EF08F0010AD8B4D9EF08F0070AD8B425
:10121800DCEF08F0010AD8B4DFEF08F0030AD8B40D
:10122800E2EF08F0010AD8B4E5EF08F00F0AD8B4E5
:10123800E8EF08F0010AD8B4EBEF08F024EF09F062
:1012480008509C0FD96EDA6ADF6A084A092A09BE73
:1012580037EF09F0095009E10A0E085CD8A037EF0A
:1012680009F039EF09F0A2EF08F0120097EC0FF03F
:1012780071EC0FF085EC0FF0B9EC0FF0A3EC0FF068
:10128800D09EF28CF28EADEC0BF05950D8B44FEFE3
:1012980009F051EF09F0A8EF09F05450D8A457EF1E
:1012A80009F059EF09F062EF09F0200E0001E16F33
:1012B800010EE26F15EC02F095EF09F0FEEC07F075
:1012C8001DC043F01EC044F01FC045F020C046F0CA
:1012D800C9EC0AF043C0BAF044C0BBF00001B851F1
:1012E800BA5DB951BB59D8B07CEF09F07EEF09F06F
:1012F80082EF09F0BAC0B8F0BBC0B9F0532A040EA7
:10130800536489EF09F08BEF09F094EF09F0B8C046
:10131800B6F0B9C0B7F0030EB96FE80EB86F536AEC
:10132800546A516A200E5124D96EDA6A010EDA2203
:10133800DF6A512A950E5164A4EF09F0A6EF09F06F
:1013480096EF09F05A6A596A5B50D8B4AEEF09F0C3
:10135800B0EF09F0BBEF09F0ADEC0BF0B5EC0CF019
:101368009EEC08F008EC0DF042EC0FF05B6A04000C
:1013780049EF09F04BEF00F00D6A0BBEC8EF09F01A
:10138800C6EF09F0D2EF09F00B1E0A1E091E086C01
:10139800000E09220A220B22010E0D6E07BED9EF9C
:1013A80009F0D7EF09F0E3EF09F0071E061E051E46
:1013B800046C000E052206220722010E0D1A000EEB
:1013C8000E6E000E0F6E000E106E000E116E08509D
:1013D80009100A100B10D8B4F4EF09F0F6EF09F071
:1013E8002CEF0AF0010E0C6E00EF0AF0D8900836C8
:1013F80009360A360B360C2A0BAE05EF0AF007EF52
:101408000AF0FAEF09F0D8900E360F36103611367A
:101418000850045C095005580A5006580B500758E4
:10142800D8A019EF0AF01BEF0AF024EF0AF00850D1
:10143800045E0950055A0A50065A0B50075A0E8086
:10144800D8900B320A32093208320C2E07EF0AF014
:101458000D50D8B432EF0AF034EF0AF03CEF0AF03E
:10146800111E101E0F1E0E6C000E0F2210221122CC
:101478000EC004F00FC005F010C006F011C007F050
:1014880012000D6E0BC004F00CC005F0000E076EC4
:101498000A0E066E4CEC0DF004C00BF005C00CF003
:1014A8000D50D8B45AEF0AF05CEF0AF0C8EF0AF012
:1014B8000B0E0D6062EF0AF064EF0AF0C8EF0AF055
:1014C8000D060D50020DF350600FD96EDA6ADE6A10
:1014D800DD6A0D50020DF350740FD96EDA6A0BC035
:1014E800DEFF0CC0DDFF0D509C0FD96EDA6A010ECD
:1014F800DF6E9DEF0AF08A9AC8EF0AF08A98C8EF63
:101508000AF08A96C8EF0AF08A94C8EF0AF08A921D
:10151800C8EF0AF08A90C8EF0AF08C9EC8EF0AF06C
:101528008C9CC8EF0AF08C9AC8EF0AF08C98C8EF28
:101538000AF00D50000AD8B47FEF0AF0010AD8B4B7
:1015480082EF0AF0030AD8B485EF0AF0010AD8B48A
:1015580088EF0AF0070AD8B48BEF0AF0010AD8B46A
:101568008EEF0AF0030AD8B491EF0AF0010AD8B452
:1015780094EF0AF00F0AD8B497EF0AF0010AD8B42A
:101588009AEF0AF0C8EF0AF01200453446344C6E60
:101598004C50D8A4D2EF0AF0D4EF0AF0DEEF0AF0EC
:1015A800000E436E000E446E000E456E000E466E31
:1015B8004BEF0BF043C047F044C048F045C049F03A
:1015C80046C04AF0200EEEEF0AF0D8904A3249326F
:1015D80048324732E82EE9EF0AF047504B6E458E05
:1015E800FF0E4316FF0E4416FF0E4516000E461654
:1015F800960E4C5E4CBE05EF0BF003EF0BF01BEFA5
:101608000BF04C50800A970FD8B00DEF0BF00FEF8E
:101618000BF011EF0BF0D4EF0AF0D89046324532B8
:10162800443243324C3E11EF0BF033EF0BF01F0EF8
:101638004C6421EF0BF023EF0BF02BEF0BF0D4EF02
:101648000AF0D89043364436453646364C064C5058
:10165800D8A431EF0BF033EF0BF025EF0BF04B5024
:10166800D8B439EF0BF03BEF0BF043EF0BF0461E0D
:10167800451E441E436C000E44224522462243C0A8
:1016880043F044C044F045C045F046C046F012005F
:10169800096A07BE54EF0BF052EF0BF05AEF0BF04C
:1016A800066C071ED8B0072A010E096E05BE61EF49
:1016B8000BF05FEF0BF067EF0BF0046C051ED8B072
:1016C800052A010E091A000E0B6E000E0A6E06504E
:1016D8000710D8B472EF0BF074EF0BF09CEF0BF01F
:1016E800010E086E7CEF0BF0D89006360736082AF4
:1016F80007AE81EF0BF083EF0BF078EF0BF0D8908B
:101708000A360B360650045C07500558D8A08FEFF0
:101718000BF091EF0BF096EF0BF00650045E0750BC
:10172800055A0A80D89007320632082E83EF0BF04C
:101738000950D8B4A2EF0BF0A4EF0BF0A8EF0BF010
:101748000A6C0B1ED8B00B2A0AC004F00BC005F0B7
:101758001200000E84B0010E0001926F000E84B2D8
:10176800010E936F000E84B4010E946F000E82B0C8
:10177800010E956F000E82B2010E966F000E82B4B4
:10178800010E976F000E83B0010E986F000E83B2A2
:10179800010E996F000E83B4010E9A6F000E83B686
:1017A800010E9B6F000E076E000E066E0650880F26
:1017B800D96EDA6A0650920FE16EE26ADE50E618D8
:1017C800D8B4E9EF0BF0EBEF0BF0F8EF0BF00650A5
:1017D800920FD96EDA6A0650880FE16EE26ADFCF9F
:1017E800E7FF010E0001CC6F064A072A07BE06EF85
:1017F8000CF0075009E10A0E065CD8A006EF0CF0C1
:1018080008EF0CF0DAEF0BF01200096A05BE11EFD1
:101818000CF00FEF0CF017EF0CF0046C051ED8B0AD
:10182800052A010E096E07BE1EEF0CF01CEF0CF026
:1018380022EF0CF0066C071ED8B0072A06500710D6
:10184800D8B429EF0CF02BEF0CF04FEF0CF0010E91
:10185800086E33EF0CF0D89006360736082A07AE24
:1018680038EF0CF03AEF0CF02FEF0CF00650045C58
:1018780007500558D8A043EF0CF045EF0CF049EF9E
:101888000CF00650045E0750055AD890073206320D
:10189800082E3AEF0CF00950D8B455EF0CF057EF7A
:1018A8000CF05BEF0CF0046C051ED8B0052A04C0E0
:1018B80004F005C005F012000650D8B466EF0CF02D
:1018C80068EF0CF070EF0CF00650D8A46EEF0CF037
:1018D80070EF0CF075EF0CF00450CAEC0FF0B4EF99
:1018E8000CF00650D96EDA6A090ED926DE50DE10E1
:1018F800D8B481EF0CF083EF0CF09CEF0CF006509D
:10190800D96EDA6A090ED9260650E16EE26A020E2D
:10191800E126DE50E65CE650800A0B6EDE50800A57
:101928000B58D8B09AEF0CF09CEF0CF0B4EF0CF019
:101938000650D96EDA6A020ED926DF50076E0650B5
:10194800D96EDA6ADF500724D96EDA6A04C0DFFF7D
:101958000650D96EDA6A020ED926DE2A000EDD227A
:101968001200572A050E5764BCEF0CF0BEEF0CF0BE
:1019780007EF0DF05850D8A4C4EF0CF0C6EF0CF0E8
:10198800CDEF0CF0000EADEC0EF004C0C2F005C0B7
:10199800C3F05804D8A4D3EF0CF0D5EF0CF0DCEF6B
:1019A8000CF0010EADEC0EF004C0C2F005C0C3F09F
:1019B800020E5818D8A4E3EF0CF0E5EF0CF0ECEFAA
:1019C8000CF0020EBEEC0DF02DC0BEF02EC0BFF024
:1019D800030E5818D8A4F3EF0CF0F5EF0CF0FCEF59
:1019E8000CF0030EBEEC0DF02DC0BCF02EC0BDF007
:1019F800582A030E586403EF0DF005EF0DF006EFBB
:101A08000DF0586A576A1200562AC70E56640FEF2F
:101A18000DF011EF0DF031EF0DF05550D8A417EF80
:101A28000DF019EF0DF01CEF0DF0526A86EC0DF079
:101A38005504D8A422EF0DF024EF0DF026EF0DF099
:101A48008CEC06F0552A010E55642DEF0DF02FEFA2
:101A58000DF030EF0DF0556A566A5404D8A437EFEC
:101A68000DF039EF0DF04BEF0DF0522A320E5264A3
:101A780040EF0DF042EF0DF04BEF0DF0030E0001BB
:101A8800B96FE80EB86FB669B769526A546A12003E
:101A9800000E096E000E086E06500710D8B457EFF6
:101AA8000DF059EF0DF081EF0DF0010E0A6E61EFA8
:101AB8000DF0D890063607360A2A07AE66EF0DF005
:101AC80068EF0DF05DEF0DF0D89008360936065036
:101AD800045C07500558D8A074EF0DF076EF0DF0B0
:101AE8007BEF0DF00650045E0750055A0880D89029
:101AF800073206320A2E68EF0DF008C004F009C05C
:101B080005F012008A8C1A0E056EF80EE82EFED724
:101B1800052EFCD700D0000E076E000E066E870E4D
:101B28000624F66E7F0E0720F76E0800F550AEEC1F
:101B38000FF0040E06180710D8A4A5EF0DF0A7EFB4
:101B48000DF0A8EF0DF08A9C280EE82EFED70400B1
:101B5800064A072A07BEBAEF0DF0075009E1050E3D
:101B6800065CD8A0BAEF0DF0BCEF0DF093EF0DF0C6
:101B78008A9C12002F6E000E316E000E306E346A91
:101B88002F50ADEC0EF004C032F005C033F032280F
:101B980006E13328D8A4D3EF0DF0D5EF0DF0DBEF35
:101BA8000DF0D80E2E6EFA0E2D6EF2EF0DF03250AB
:101BB800302633503122342A0F0E3464E6EF0DF00C
:101BC800E8EF0DF0C4EF0DF030C012F031C013F0A3
:101BD80071EC03F012C02DF013C02EF01200000EAD
:101BE8000C6E000E0D6E000E0E6E000E0F6E04A031
:101BF80000EF0EF002EF0EF00AEF0EF008500C2680
:101C080009500D220A500E220B500F22D890083688
:101C180009360A360B36D8900732063205320432B6
:101C28000450051006100710D8A41DEF0EF01FEF82
:101C38000EF0FBEF0DF00CC004F00DC005F00EC067
:101C480006F00FC007F012003EEF0EF005C0F6FFD9
:101C580006C0F7FFF86A070EF76403D00800F550CE
:101C680005D0F6CFE1FFF7CFE2FFE750AEEC0FF07B
:101C7800054A062A05C0F6FF06C0F7FFF86A070EF0
:101C8800F76403D00800F55005D0F6CFE1FFF7CF91
:101C9800E2FFE7500009D8A454EF0EF056EF0EF01B
:101CA8002AEF0EF01200750E0C6E300E0B6E8AB015
:101CB80060EF0EF063EF0EF0010E64EF0EF0000E11
:101CC80045EC0AF04E0E0C6E200E0B6E8CBC6FEFBE
:101CD8000EF072EF0EF0010E73EF0EF0000E45ECF1
:101CE8000AF04E0E0C6E200E0B6E8CB87EEF0EF0C6
:101CF80081EF0EF0010E82EF0EF0000E45EC0AF0B7
:101D08001200000E076E000E066E90EF0EF0040033
:101D1800064A072A044A052A04C0F6FF05C0F7FF49
:101D2800F86A070EF76403D00800F55005D0F6CF1F
:101D3800E1FFF7CFE2FFE7500009D8A4A6EF0EF0C5
:101D4800A8EF0EF08BEF0EF006C004F007C005F008
:101D58001200086E050E0864B4EF0EF0B6EF0EF030
:101D6800BAEF0EF004680568D1EF0EF008C006F06F
:101D780006460646C2500618830B0618C26EC28273
:101D8800C2B2C9EF0EF0CBEF0EF0C4EF0EF0C450A4
:101D9800066EC350046E06C005F012001CC01FF08A
:101DA8001DC020F0E0EF0EF01BC00EF01F0E0F6EEE
:101DB8001EC010F0C1EC04F01FC0F6FF20C0F7FFF2
:101DC8000800F5500009D8A4ECEF0EF0EEEF0EF085
:101DD800D8EF0EF0000E1C6E000E1B6E1200240EC3
:101DE800386E21C039F0000E3C6E000E3B6E000EBE
:101DF800436E000E426E390E1B6E22C01CF023C0CB
:101E08001DF0380E1E6ED2EC0EF021503B24D96E18
:101E1800DA6ADF6A12000BBE14EF0FF016EF0FF04C
:101E28001CEF0FF00AC00AF00BC00BF028EF0FF000
:101E38000AC00CF00BC00DF00C1E0D1E0C4A0D2A2A
:101E48000CC00AF00DC00BF0120001EE00F0B60E47
:101E5800EE6AE806FDE100EE60F0810EEE6AE80643
:101E6800FDE100EE52F00A0EEE6AE806FDE15C9034
:101E78005C92000EF86E00013AEF09F00001C951BA
:101E8800D8A449EF0FF04BEF0FF059EF0FF0CA2B22
:101E9800C70ECA6552EF0FF054EF0FF059EF0FF06D
:101EA80057EC0EF0010E0001C96F12009280928269
:101EB80092849286928A96800F015B815B835B8510
:101EC8005B875B8B5F81C16A950EC06EC26AC280F8
:101ED8000D0EE82EFED7000012000F015B6B5C6B45
:101EE8005D6B5E6B5F6B800E936E0F0E966E0F0EC2
:101EF800956E94688A688D688C688A9C5AEC0FF095
:101F080012000F015D9D5D9F948C948EB886AC8401
:101F1800AC98010EB06EA00EAF6EAB8EAB88AC8ADB
:101F28009E9A9D8A1200700ED312FC0ED316D3A46B
:101F3800A0EF0FF0A2EF0FF09BEF0FF01200CC6AAA
:101F4800020ECD6E630ECF6EC00ECE6E9E909D803B
:101F5800CD801200046EACA2B4EF0FF0B6EF0FF014
:101F6800AFEF0FF004C0ADFF1200010ED56E3C0EAE
:101F7800D76EB00ED66EF294F28A1200D59E3C0E41
:0E1F8800D76EB00ED66EF294D58E12001200F7
:107EE20000123D333C1E3BCE393E386236233540CC
:107EF200345133583254314630302F112EE92CBCD4
:107F02002B4A2A50291528D626952555241423D6DE
:107F12002197205C1F271EF81CCE1BA81A891975F1
:107F22001865175E165F15E214961280109F0EF206
:107F32000C740B70FEA2FED4FE06FF38FF6AFF88A7
:107F4200FF9CFFB0FFC4FFD8FFECFF000014002825
:107F5200003C005000640078008C00A000B400C80F
:107F620000DC00F000040118012C014001540168FA
:107F7200017C019001A401B801C201F4012602585A
:107F8200028A02BC0201200039C07B2269223A2205
:107F92004147524F4C4154494E415F473031222CA8
:107FA200227273223A225354415455533A002564A3
:107FB2002564256425642564256425642564256477
:107FC2002564004147524F4C4154494E415F47306E
:107FD200310025642C25642C25642C25642C256411
:107FE20000535441545553004342303100525028FB
:0D7FF2000052542800227D0029002C0000C0
:020000040030CA
:0E00000001284E1FFFD185FF0FC00FE00F40FB
:00000001FF
