:040000004BEF00F0D2
:100008005C82D9CF01F0DACF02F09EAA0EEF00F0A1
:1000180010EF00F025EF00F0AECF03F0960E5A6017
:1000280018EF00F01AEF00F023EF00F0200E5A242A
:10003800D96EDA6A010EDA2203C0DFFF5A2A4DECC4
:100048000DF0F2A42AEF00F02CEF00F030EF00F0F2
:10005800D59EF294010E596E9DA035EF00F037EF52
:1000680000F045EF00F09EA03CEF00F03EEF00F0FE
:1000780045EF00F0630ECF6EC00ECE6E9E90010E5F
:100088005B6E02C0DAFF01C0D9FF5C9211007AEF03
:100098000CF0E2C008F0E3C009F07B0E0A6E7F0E98
:1000A8000B6EE2EC05F009BE5CEF00F05EEF00F0CD
:1000B800B9EF02F0E2C008F0E3C009F0EA0E0A6EF8
:1000C8007F0E0B6EE2EC05F009BE6DEF00F06FEFEE
:1000D80000F0B9EF02F0E2C008F0E3C009F0F30E57
:1000E8000A6E7F0E0B6EE2EC05F008C0F9F009C04D
:1000F800FAF00001FABF83EF00F085EF00F003EF9C
:1001080001F0E2C008F0E3C009F0FA0E0A6E7F0EB3
:100118000B6EE2EC05F008C0E6F009C0E7F0000E4F
:100128000001EB6F000EEA6FF26BF36BF9C0ECF0B5
:10013800FAC0EDF0EDEF00F0EC51E225D96EED518B
:10014800E321DA6EDF50F66F2C0EF619D8A4AFEF64
:1001580000F0B1EF00F0B2EF00F0F32B2F0EF665D0
:10016800B8EF00F0BAEF00F0EBEF00F03A0EF661EE
:10017800C0EF00F0C2EF00F0EBEF00F0F351D8A4AD
:10018800C8EF00F0CAEF00F0D0EF00F0F2510A0D0E
:10019800F350F625D00FF26FF305D8A4D6EF00F090
:1001A800D8EF00F0EBEF00F00A0EEA03F3CFE4F02B
:1001B800F4CFE5F0EB03F350E527F651E427000E02
:1001C800E523D00EE425EA6FFF0EE521EB6FEC4B3B
:1001D800ED2BE651EC5DED51800AE46FE751800AA2
:1001E800E459D8A0FAEF00F0FCEF00F0A0EF00F01F
:1001F800EAC00BF0EBC00CF0F251ACEC07F0E2C037
:1002080008F0E3C009F0EF0E0A6E7F0E0B6EE2EC09
:1002180005F008C0F9F009C0FAF00001FABF17EFBD
:1002280001F019EF01F011EF02F0E2C008F0E3C0AD
:1002380009F0FA0E0A6E7F0E0B6EE2EC05F008C0AC
:10024800E8F009C0E9F0000E0001EF6F000EEE6F54
:10025800F46BF56BF9C0F0F0FAC0F1F081EF01F042
:10026800F051E225D96EF151E321DA6EDF50F76FD4
:100278002C0EF719D8A443EF01F045EF01F046EF33
:1002880001F0F52B2F0EF7654CEF01F04EEF01F062
:100298007FEF01F03A0EF76154EF01F056EF01F0ED
:1002A8007FEF01F0F551D8A45CEF01F05EEF01F0AB
:1002B80064EF01F0F4510A0DF350F725D00FF46FF5
:1002C800F505D8A46AEF01F06CEF01F07FEF01F0BB
:1002D8000A0EEE03F3CFE4F0F4CFE5F0EF03F350AA
:1002E800E527F751E427000EE523D00EE425EE6F4D
:1002F800FF0EE521EF6FF04BF12BE851F05DF15166
:10030800800AE46FE951800AE459D8A08EEF01F021
:1003180090EF01F034EF01F0EE51EF11D8A497EF10
:1003280001F099EF01F09DEF01F0010EF86FE6EF93
:1003380001F0F86BE6EF01F0F8B102D08A9A01D02B
:100348008A8A11EF02F0F8B102D08A9801D08A881F
:1003580011EF02F0F8B102D08A9601D08A8611EF27
:1003680002F0F8B102D08A9401D08A8411EF02F029
:10037800F8B102D08A9201D08A8211EF02F0F8B166
:1003880002D08A9001D08A8011EF02F0F8B102D031
:100398008C9E01D08C8E11EF02F0F8B102D08C9CAB
:1003A80001D08C8C11EF02F0F8B102D08C9A01D0F8
:1003B8008C8A11EF02F0F8B102D08C9801D08C88A9
:1003C80011EF02F0F451000AD8B4A0EF01F0010ACD
:1003D800D8B4A7EF01F0030AD8B4AEEF01F0010AD0
:1003E800D8B4B5EF01F0070AD8B4BCEF01F0010AA0
:1003F800D8B4C3EF01F0030AD8B4CAEF01F0010A78
:10040800D8B4D1EF01F00F0AD8B4D8EF01F0010A3F
:10041800D8B4DFEF01F011EF02F0E2C008F0E3C05A
:1004280009F0E30E0A6E7F0E0B6EE2EC05F008C0D1
:10043800F9F009C0FAF00001FABF25EF02F027EF42
:1004480002F029EF02F0FBEC04F0E2C008F0E3C090
:1004580009F0CF0E0A6E7F0E0B6EE2EC05F008C0B5
:10046800F9F009C0FAF00001FABF3DEF02F03FEFE2
:1004780002F041EF02F0B4EC0BF0E2C008F0E3C088
:1004880009F0DB0E0A6E7F0E0B6EE2EC05F008C079
:10049800F9F009C0FAF00001FABF55EF02F057EF82
:1004A80002F059EF02F0D9EC0BF0E2C008F0E3C01B
:1004B80009F0C30E0A6E7F0E0B6EE2EC05F008C061
:1004C800F9F009C0FAF00001FABF6DEF02F06FEF22
:1004D80002F071EF02F0D6EC0CF0E2C008F0E3C0D5
:1004E80009F0B60E0A6E7F0E0B6EE2EC05F008C03E
:1004F800F9F009C0FAF00001FABF85EF02F087EFC2
:1005080002F089EF02F0C0EC0CF0E2C008F0E3C0A2
:1005180009F0A80E0A6E7F0E0B6EE2EC05F008C01B
:10052800F9F009C0FAF00001FABF9DEF02F09FEF61
:1005380002F0A1EF02F03DEC0DF0E2C008F0E3C0DC
:1005480009F08A0E0A6E7F0E0B6EE2EC05F008C009
:10055800F9F009C0FAF00001FABFB5EF02F0B7EF01
:1005680002F0B9EF02F045EC0DF01200200E125C1B
:100578003F0E1358D8A0C3EF02F0C5EF02F0CBEF3F
:1005880002F0D80E136EFA0E126E09EF04F0410E47
:10059800125C010E1358D8B0D4EF02F0D6EF02F077
:1005A800DCEF02F0270E136E060E126E09EF04F050
:1005B800E70EF66E7D0EF76E12500900F55C1350CB
:1005C8000900F558D8B0EBEF02F0EDEF02F0F3EFC9
:1005D80002F0D90E136E040E126E09EF04F0370EF6
:1005E800F66E7E0EF76E0900F550125C0900F550A4
:1005F8001358D8B002EF03F004EF03F00AEF03F04A
:10060800260E136EFC0E126E09EF04F0010E2C6E0E
:100618000FEF03F02C2A2C50020DE70EF324F66E90
:100628007D0EF420F76E0900F550125C0900F550B4
:100638001358D8A022EF03F024EF03F00EEF03F0D5
:100648002C50146E156AD89014361536FE0E1424E4
:10065800166EFF0E1520176E390E1624F66E7E0ED6
:100668001720F76E0900F5CF18F00900F5CF19F03B
:100678002C50020D390EF324F66E7E0EF420F76E20
:1006880018500900F55C1A6E19500900F5581B6ED0
:100698001AC01CF01BC01DF0000E1DBEFF0E1E6E02
:1006A8001F6E2C50020DE70EF324F66E7D0EF4201B
:1006B800F76E0900F5CF14F00900F5CF15F02C50AE
:1006C800166E176AD89016361736FE0E1624186E50
:1006D800FF0E1720196EE70E1824F66E7D0E1920EE
:1006E800F76E0900F5CF1AF00900F5CF1BF014508A
:1006F8001A5C286E15501B58296E2A6AD8A02A063B
:100708002A502B6E2C50146E156AD8901436153654
:10071800FE0E1424166EFF0E1520176EE70E162413
:10072800F66E7D0E1720F76E0900F5CF18F0090058
:10073800F5CF19F01250185C046E13501958056E55
:10074800066AD8A006060650076E1CC008F01DC031
:1007580009F01EC00AF01FC00BF0A4EC0AF004C098
:1007680020F005C021F006C022F007C023F0020ED9
:10077800086E000E096E000E0A6E000E0B6E28C081
:1007880004F029C005F02AC006F02BC007F027ECBA
:1007980007F020500424246E21500520256E225095
:1007A8000620266E23500720276E2C50146E156ADB
:1007B800D89014361536FE0E1424166EFF0E15202A
:1007C800176E390E1624F66E7E0E1720F76E090086
:1007D800F5CF18F00900F5CF19F024C004F025C0B2
:1007E80005F026C006F027C007F028C008F029C089
:1007F80009F02AC00AF02BC00BF027EC07F01850BC
:100808000424126E19500520136E12000F50D96E71
:10081800DA6ADECFF6FFDDCFF7FF0800F550250ACC
:10082800D8A419EF04F01BEF04F0E9EF04F00F501F
:10083800D96EDA6ADE2A000EDD22000E0001A76FEB
:10084800000EA66FA6C0C2F0A869A9690F50D96E9C
:10085800DA6ADECF14F0DDCF15F014C0F6FF15C04C
:10086800F7FF0800F550640AD8B43DEF04F03FEFF5
:1008780004F04DEF04F014C0F6FF15C0F7FF0800B0
:10088800F550690AD8A44BEF04F04DEF04F0E1EFFE
:1008980004F01050D96EDA6A020EDF26DF5CD96EDA
:1008A800DA6ADECF16F0DECF17F0010E1424116ECF
:1008B800000E1520126E0F50D96EDA6A11C0DEFFD5
:1008C80012C0DDFF200E1A6E17BE6DEF04F070EF38
:1008D80004F0010E71EF04F0000E136E1A06000EFC
:1008E8001A24D96EDA6A010EDA2216C004F017C08B
:1008F80005F0000E076E0A0E066EEDEC08F004C057
:100908000AF005C00BF060EC0CF00A50300FDF6EF7
:1009180016C004F017C005F0000E076E0A0E066E2A
:1009280030EC08F004C016F005C017F01650171088
:10093800D8B4A1EF04F0A3EF04F0ABEF04F01A5021
:10094800D8A4A9EF04F0ABEF04F072EF04F01A504A
:10095800D8B4B1EF04F0B3EF04F0D6EF04F01350BD
:10096800D8B4B9EF04F0BBEF04F0D6EF04F01A06E0
:10097800000E1A24D96EDA6A010EDA222D0EDF6E05
:10098800D6EF04F0000E1A24D96EDA6A010EDA22C4
:10099800DF50116E1150046E056A0EC006F044EC6B
:1009A80009F01A2A200E1A18D8A4DDEF04F0DFEF98
:1009B80004F0C6EF04F0FAEF04F00F50D96EDA6ACB
:1009C800DE2A000EDD22FAEF04F00F50D96EDA6A43
:1009D800DECFF6FFDDCFF7FF0800F550046E056A9D
:1009E8000EC006F044EC09F0E1EF04F01200000E2E
:1009F8008ABA010E456E000E8AB8010E466E000EC8
:100A08008AB6010E476E000E8AB4010E486E000EBB
:100A18008AB2010E496E000E8AB0010E4A6E000EAF
:100A28008CBE010E4B6E000E8CBC010E4C6E000E7F
:100A38008CBA010E4D6E000E8CB8010E4E6E8A8C6B
:100A48001A0E446EF80EE82EFED7442EFCD700D0BE
:100A5800B70E056E7E0E066E0AEC0BF0000E506E99
:100A6800000E4F6ECE0E216EA50E226E7F0E236EE7
:100A78004F50920FD96EDA6ADF50446E4450246E9C
:100A8800256A44EC0CF0CE0E056E066A0AEC0BF0F3
:100A98004F4A502A50BE5AEF05F0505009E10A0E4D
:100AA8004F5CD8A05AEF05F05CEF05F036EF05F083
:100AB800FC0E056E7F0E066E0AEC0BF0CE0E216E54
:100AC800F00E226E7E0E236E45C024F0256A46C0C5
:100AD80026F0276A47C028F0296A48C02AF02B6AFE
:100AE80049C02CF02D6A4AC02EF02F6A4BC030F056
:100AF800316A4CC032F0336A4DC034F0356A4EC0AA
:100B080036F0376A44EC0CF0CE0E056E066A0AEC35
:100B18000BF0FC0E056E7F0E066E0AEC0BF0CE0E87
:100B2800216E990E226E7F0E236EC0C024F0C1C0C4
:100B380025F0000E276E000E266E52C028F053C016
:100B480029F0BCC02AF0BDC02BF0000E2D6E000E9F
:100B58002C6E44EC0CF0CE0E056E066A0AEC0BF017
:100B6800FC0E056E7F0E066E0AEC0BF0CE0E216EA3
:100B78009C0E226E7F0E236E000E256E000E246ED4
:100B8800000E276E000E266E000E296E000E286ECF
:100B9800000E2B6E000E2A6E44EC0CF0F70E056E5C
:100BA8007F0E066E0AEC0BF01A0E446EF80EE82E55
:100BB800FED7442EFCD700D08A9C120008C004F04F
:100BC80009C005F067EC0BF004C013F005C014F081
:100BD8000AC004F00BC005F067EC0BF004C015F078
:100BE80005C016F01550135C1450800A0C6E165090
:100BF800800A0C58D8A003EF06F005EF06F088EF3E
:100C080006F0000E1A6E000E196E73EF06F01950FA
:100C18000824D96E1A500920DA6EDF500C6E0AC00B
:100C2800F6FF0BC0F7FF0800F5500C18D8A41FEF0B
:100C380006F021EF06F071EF06F0000E126E010EBD
:100C4800116E000E186E000E176E53EF06F0175057
:100C580008240C6E185009200D6E19500C24D96EFA
:100C68001A500D20DA6EDF500E6E17500A240F6EE0
:100C780018500B20106E0FC0F6FF10C0F7FF0800C9
:100C8800F5500E18D8B44BEF06F04DEF06F051EFC3
:100C980006F0000E126E000E116E174A182A155033
:100CA800175C1850800A0C6E1650800A0C58D8A091
:100CB80060EF06F062EF06F02BEF06F01104121059
:100CC800D8A469EF06F06BEF06F071EF06F019C0D3
:100CD80008F01AC009F08AEF06F0194A1A2A1550C6
:100CE800135C0C6E165014580D6E19500C5C0D5098
:100CF800800A0E6E1A50800A0E58D8B086EF06F099
:100D080088EF06F00BEF06F0086809681200000E7D
:100D1800096E000E086E08509C0FD96EDA6ADE0460
:100D2800D8A499EF06F09BEF06F016EF07F00850ED
:100D3800020DF350600FD96EDA6ADE2A000EDD224A
:100D48000850020DF350740FD96EDA6A0850020D7C
:100D5800F350600FE16EE26ADE50E65CDE50E65862
:100D6800D8A0B9EF06F0BBEF06F016EF07F0DBEFFF
:100D780006F08A8A11EF07F08A8811EF07F08A8651
:100D880011EF07F08A8411EF07F08A8211EF07F05C
:100D98008A8011EF07F08C8E11EF07F08C8C11EF21
:100DA80007F08C8A11EF07F08C8811EF07F008C064
:100DB80004F009C005F00550000AD8B4E6EF06F0C3
:100DC80011EF07F00450000AD8B4BDEF06F0010A8D
:100DD800D8B4C0EF06F0030AD8B4C3EF06F0010A8E
:100DE800D8B4C6EF06F0070AD8B4C9EF06F0010A6E
:100DF800D8B4CCEF06F0030AD8B4CFEF06F0010A56
:100E0800D8B4D2EF06F00F0AD8B4D5EF06F0010A2D
:100E1800D8B4D8EF06F011EF07F008509C0FD96E40
:100E2800DA6ADF6A084A092A09BE24EF07F009507E
:100E380009E10A0E085CD8A024EF07F026EF07F0B6
:100E48008FEF06F012000D6A0BBE2FEF07F02DEFA3
:100E580007F039EF07F00B1E0A1E091E086C000E7A
:100E680009220A220B22010E0D6E07BE40EF07F081
:100E78003EEF07F04AEF07F0071E061E051E046C3A
:100E8800000E052206220722010E0D1A000E0E6E14
:100E9800000E0F6E000E106E000E116E0850091035
:100EA8000A100B10D8B45BEF07F05DEF07F093EF73
:100EB80007F0010E0C6E67EF07F0D8900836093678
:100EC8000A360B360C2A0BAE6CEF07F06EEF07F004
:100ED80061EF07F0D8900E360F36103611360850ED
:100EE800045C095005580A5006580B500758D8A0FA
:100EF80080EF07F082EF07F08BEF07F00850045EF1
:100F08000950055A0A50065A0B50075A0E80D890B5
:100F18000B320A32093208320C2E6EEF07F00D50F0
:100F2800D8B499EF07F09BEF07F0A3EF07F0111E75
:100F3800101E0F1E0E6C000E0F22102211220EC062
:100F480004F00FC005F010C006F011C007F0120041
:100F58000D6E0BC004F00CC005F0000E076E0A0EF3
:100F6800066E35EC0AF004C00BF005C00CF00D500D
:100F7800D8B4C1EF07F0C3EF07F02FEF08F00B0E5E
:100F88000D60C9EF07F0CBEF07F02FEF08F00D0663
:100F98000D50020DF350600FD96EDA6ADE6ADD6A11
:100FA8000D50020DF350740FD96EDA6A0BC0DEFFD4
:100FB8000CC0DDFF0D509C0FD96EDA6A010EDF6E92
:100FC80004EF08F08A9A2FEF08F08A982FEF08F0BC
:100FD8008A962FEF08F08A942FEF08F08A922FEF65
:100FE80008F08A902FEF08F08C9E2FEF08F08C9C69
:100FF8002FEF08F08C9A2FEF08F08C982FEF08F05D
:101008000D50000AD8B4E6EF07F0010AD8B4E9EFAA
:1010180007F0030AD8B4ECEF07F0010AD8B4EFEFF1
:1010280007F0070AD8B4F2EF07F0010AD8B4F5EFD1
:1010380007F0030AD8B4F8EF07F0010AD8B4FBEFB9
:1010480007F00F0AD8B4FEEF07F0010AD8B401EF91
:1010580008F02FEF08F01200096A07BE38EF08F011
:1010680036EF08F03EEF08F0066C071ED8B0072AE6
:10107800010E096E05BE45EF08F043EF08F04BEF8F
:1010880008F0046C051ED8B0052A010E091A000ED6
:101098000B6E000E0A6E06500710D8B456EF08F013
:1010A80058EF08F080EF08F0010E086E60EF08F0C6
:1010B800D89006360736082A07AE65EF08F067EFBE
:1010C80008F05CEF08F0D8900A360B360650045C3E
:1010D80007500558D8A073EF08F075EF08F07AEFBD
:1010E80008F00650045E0750055A0A80D890073267
:1010F8000632082E67EF08F00950D8B486EF08F0DA
:1011080088EF08F08CEF08F00A6C0B1ED8B00B2A99
:101118000AC004F00BC005F01200000E84B0010EE6
:101128000001926F000E84B2010E936F000E84B41A
:10113800010E946F000E82B0010E956F000E82B200
:10114800010E966F000E82B4010E976F000E83B0E9
:10115800010E986F000E83B2010E996F000E83B4D2
:10116800010E9A6F000E83B6010E9B6F000E076E7C
:10117800000E066E0650880FD96EDA6A0650920F76
:10118800E16EE26ADE50E618D8B4CDEF08F0CFEF92
:1011980008F0DCEF08F00650920FD96EDA6A0650B4
:1011A800880FE16EE26ADFCFE7FF010E0001CD6F25
:1011B800064A072A07BEEAEF08F0075009E10A0EB7
:1011C800065CD8A0EAEF08F0ECEF08F0BEEF08F0F4
:1011D8001200096A05BEF5EF08F0F3EF08F0FBEF1F
:1011E80008F0046C051ED8B0052A010E096E07BE6A
:1011F80002EF09F000EF09F006EF09F0066C071E90
:10120800D8B0072A06500710D8B40DEF09F00FEF31
:1012180009F033EF09F0010E086E17EF09F0D890C6
:1012280006360736082A07AE1CEF09F01EEF09F04C
:1012380013EF09F00650045C07500558D8A027EFB3
:1012480009F029EF09F02DEF09F00650045E075068
:10125800055AD89007320632082E1EEF09F00950B9
:10126800D8B439EF09F03BEF09F03FEF09F0046C0F
:10127800051ED8B0052A04C004F005C005F0120008
:101288000650D8B44AEF09F04CEF09F054EF09F0D2
:101298000650D8A452EF09F054EF09F059EF09F0BD
:1012A800045055EC0DF098EF09F00650D96EDA6A43
:1012B800090ED926DE50DE10D8B465EF09F067EFC5
:1012C80009F080EF09F00650D96EDA6A090ED926BE
:1012D8000650E16EE26A020EE126DE50E65CE65058
:1012E800800A0B6EDE50800A0B58D8B07EEF09F0EA
:1012F80080EF09F098EF09F00650D96EDA6A020E0D
:10130800D926DF50076E0650D96EDA6ADF500724F7
:10131800D96EDA6A04C0DFFF0650D96EDA6A020EA7
:10132800D926DE2A000EDD221200572A050E576440
:10133800A0EF09F0A2EF09F0EBEF09F05850D8A49C
:10134800A8EF09F0AAEF09F0B1EF09F0000E8FEC51
:101358000BF004C0C0F005C0C1F05804D8A4B7EF22
:1013680009F0B9EF09F0C0EF09F0010E8FEC0BF0AE
:1013780004C0C0F005C0C1F0020E5818D8A4C7EFC9
:1013880009F0C9EF09F0D0EF09F0020E6FEC0AF08E
:101398002DC052F02EC053F0030E5818D8A4D7EF22
:1013A80009F0D9EF09F0E0EF09F0030E6FEC0AF04D
:1013B8002DC0BCF02EC0BDF0582A030E5864E7EFCC
:1013C80009F0E9EF09F0EAEF09F0586A576A1200E4
:1013D80012EC0DF0ECEC0CF000EC0DF034EC0DF030
:1013E8001EEC0DF0D09EF28CF28E91EC08F0595064
:1013F800D8B401EF0AF003EF0AF01DEF0AF0200E4F
:101408000001E26F010EE36F4DEC00F0516A200E0F
:101418005124D96EDA6A010EDA22DF6A512A950E52
:10142800516419EF0AF01BEF0AF00BEF0AF05A6A41
:10143800596A5B50D8B423EF0AF025EF0AF030EF71
:101448000AF091EC08F099EC09F08BEC06F0AAECA4
:101458000CF0D9EC0AF05B6A0400FBEF09F04BEFE3
:1014680000F0000E096E000E086E06500710D8B482
:1014780040EF0AF042EF0AF06AEF0AF0010E0A6E36
:101488004AEF0AF0D890063607360A2A07AE4FEF19
:101498000AF051EF0AF046EF0AF0D89008360936FC
:1014A8000650045C07500558D8A05DEF0AF05FEFBE
:1014B8000AF064EF0AF00650045E0750055A0880E7
:1014C800D890073206320A2E51EF0AF008C004F00D
:1014D80009C005F012002F6E000E316E000E306E3E
:1014E800346A2F508FEC0BF004C032F005C033F093
:1014F800322806E13328D8A484EF0AF086EF0AF0F0
:101508008CEF0AF0D80E2E6EFA0E2D6EA3EF0AF0AD
:101518003250302633503122342A0F0E346497EF7C
:101528000AF099EF0AF075EF0AF030C012F031C0F6
:1015380013F0BAEC02F012C02DF013C02EF0120016
:10154800000E0C6E000E0D6E000E0E6E000E0F6E6D
:1015580004A0B1EF0AF0B3EF0AF0BBEF0AF00850AD
:101568000C2609500D220A500E220B500F22D8903B
:10157800083609360A360B36D89007320632053255
:1015880004320450051006100710D8A4CEEF0AF054
:10159800D0EF0AF0ACEF0AF00CC004F00DC005F073
:1015A8000EC006F00FC007F012005504D8A4DFEFF4
:1015B8000AF0E1EF0AF009EF0BF0542AC70E546461
:1015C800E8EF0AF0EAEF0AF009EF0BF053BEF6EF86
:1015D8000AF0535009E10B0E525CD8A0F6EF0AF05E
:1015E800F8EF0AF0F9EF0AF08A8653AE05EF0BF030
:1015F800F60E525CFF0E5358D8B005EF0BF007EF0C
:101608000BF008EF0BF08A96546A120020EF0BF0EB
:1016180005C0F6FF06C0F7FFF86A070EF76403D0A7
:101628000800F55005D0F6CFE9FFF7CFEAFFEF50F5
:1016380029EC0DF0054A062A05C0F6FF06C0F7FF9B
:10164800F86A070EF76403D00800F55005D0F6CF06
:10165800E9FFF7CFEAFFEF500009D8A436EF0BF007
:1016680038EF0BF00CEF0BF01200750E0C6E300E0D
:101678000B6E8AB042EF0BF045EF0BF0010E46EF10
:101688000BF0000EACEC07F04E0E0C6E200E0B6E3D
:101698008CBE51EF0BF054EF0BF0010E55EF0BF031
:1016A800000EACEC07F04E0E0C6E200E0B6E8CBAD2
:1016B80060EF0BF063EF0BF0010E64EF0BF0000E20
:1016C800ACEC07F01200000E076E000E066E72EF0B
:1016D8000BF00400064A072A044A052A04C0F6FF4C
:1016E80005C0F7FFF86A070EF76403D00800F55045
:1016F80005D0F6CFE9FFF7CFEAFFEF500009D8A4ED
:1017080088EF0BF08AEF0BF06DEF0BF006C004F0DA
:1017180007C005F01200086E050E086496EF0BF07E
:1017280098EF0BF09CEF0BF004680568B3EF0BF033
:1017380008C006F006460646C2500618830B06186F
:10174800C26EC282C2B2ABEF0BF0ADEF0BF0A6EFE8
:101758000BF0C450066EC350046E06C005F01200AC
:10176800000E0C6E000E0B6E8CB8BDEF0BF0C0EFC8
:101778000BF0010EC1EF0BF0000EACEC07F0000E01
:101788000C6E000E0B6E8CBACCEF0BF0CFEF0BF09B
:10179800010ED0EF0BF0000EACEC07F0DB0E076E7D
:1017A8007E0E086EFEEC0BF01200000E0C6E000EA2
:1017B8000B6E8CBCE2EF0BF0E5EF0BF0010EE6EFE1
:1017C8000BF0000EACEC07F0000E0C6E000E0B6E6A
:1017D8008CBCF1EF0BF0F4EF0BF0010EF5EF0BF012
:1017E800000EACEC07F04B0E076E7F0E086EFEEC99
:1017F8000BF012008A8C1A0E096EF80EE82EFED72E
:10180800092EFCD700D0900E056E7E0E066E0AECEF
:101818000BF007C005F008C006F00AEC0BF0F70E55
:10182800056E7F0E066E0AEC0BF01A0E096EF80EA6
:10183800E82EFED7092EFCD700D08A9C12001CC0C7
:101848001FF01DC020F031EF0CF01BC00EF01F0E72
:101858000F6E1EC010F00AEC04F01FC0F6FF20C087
:10186800F7FF0800F5500009D8A43DEF0CF03FEF52
:101878000CF029EF0CF0000E1C6E000E1B6E12000F
:10188800240E386E21C039F0000E3C6E000E3B6EFF
:10189800000E436E000E426E390E1B6E22C01CF005
:1018A80023C01DF0380E1E6E23EC0CF021503B2493
:1018B800D96EDA6ADF6A12000BBE65EF0CF067EFCB
:1018C8000CF06DEF0CF00AC00AF00BC00BF079EFCA
:1018D8000CF00AC00CF00BC00DF00C1E0D1E0C4ACB
:1018E8000D2A0CC00AF00DC00BF0120001EE00F03A
:1018F800B60EEE6AE806FDE100EE60F0820EEE6AD2
:10190800E806FDE100EE52F00A0EEE6AE806FDE197
:101918005C905C92000EF86E0001ECEF09F092808A
:10192800928292849286928A96800F015B815B8371
:101938005B855B875B8B5F81C16A950EC06EC26AEF
:10194800C2800D0EE82EFED7000012005550D8A414
:10195800B0EF0CF0B2EF0CF0BFEF0CF0562AC70E48
:101968005664B9EF0CF0BBEF0CF0BFEF0CF039EC9C
:101978000BF0010E556E1200000E0C6E000E0B6E71
:101988008AB0C9EF0CF0CCEF0CF0010ECDEF0CF0E3
:10199800000EACEC07F05C0E076E7F0E086EFEECD6
:1019A8000BF01200000E0C6E000E0B6E8AB2DFEF09
:1019B8000CF0E2EF0CF0010EE3EF0CF0000EACECD3
:1019C80007F06C0E076E7F0E086EFEEC0BF012002F
:1019D8000F015B6B5C6B5D6B5E6B5F6B800E936E78
:1019E8000F0E966E0F0E956E94688A688D688C68D7
:1019F8008A9C93EC0CF012000F015D9D5D9F948C06
:101A0800948EB886AC84AC98010EB06EA00EAF6E02
:101A1800AB8EAB88AC8A9E9A9D8A1200700ED31248
:101A2800FC0ED316D3A41BEF0DF01DEF0DF016EF2F
:101A38000DF01200CC6A020ECD6E630ECF6EC00E92
:101A4800CE6E9E909D80CD801200046EACA22FEFCA
:101A58000DF031EF0DF02AEF0DF004C0ADFF1200CC
:101A6800010ED56E3C0ED76EB00ED66EF294F28A89
:101A780012008A9A3A0E076E7F0E086EFEEC0BF083
:101A880012008A8A170E076E7F0E086EFEEC0BF0A6
:101A98001200D59E3C0ED76EB00ED66EF294D58E3F
:041AA8001200120016
:107DE60000123D333C1E3BCE393E386236233540C9
:107DF600345133583254314630302F112EE92CBCD1
:107E06002B4A2A50291528D626952555241423D6DB
:107E16002197205C1F271EF81CCE1BA81A891975EE
:107E26001865175E165F15E214961280109F0EF203
:107E36000C740B70FEA2FED4FE06FF38FF6AFF88A4
:107E4600FF9CFFB0FFC4FFD8FFECFF000014002822
:107E5600003C005000640078008C00A000B400C80C
:107E660000DC00F000040118012C014001540168F7
:107E7600017C019001A401B801C201F40126025857
:107E8600028A02BC0201200039C07B2269223A2202
:107E96004147524F4C4154494E415F473031222CA5
:107EA600227273223A225265737075657374613A51
:107EB600007B2269223A224147524F4C4154494E97
:107EC600415F473031222C227273223A22535441A9
:107ED6005455533A00494E59454343494F4E5F4C1A
:107EE60049515549444F5F4F4B002564256425642D
:107EF6002564256425642564256425642564005667
:107F0600454E54494C41444F525F4F46465F4F4B96
:107F160000455641504F5241444F525F4F46465FCF
:107F26004F4B0056454E54494C41444F525F4F4EBD
:107F36005F4F4B00455641504F5241444F525F4FA1
:107F46004E5F4F4B00494E59454343494F4E5F479D
:107F560041535F4F4B0044414D5045525F434C4F98
:107F660053455F4F4B0044414D5045525F4F50457E
:107F76004E5F4F4B004147524F4C4154494E415F73
:107F860047303100455641504F5241444F525F4FA2
:107F960046460025642C25642C25642C25642C2556
:107FA6006400455641504F5241444F525F4F4E0078
:107FB60044414D5045525F434C4F53450044414D5B
:107FC6005045525F4F50454E00494E595F4C4951FE
:107FD6005549444F00494E595F4741530053544158
:107FE6005455530043423031005250280052542811
:097FF60000227D0029002C00008E
:020000040030CA
:0E00000001284E1FFFD185FF0FC00FE00F40FB
:00000001FF
