:040000004CEF00F0D1
:100008005C82D9CF01F0DACF02F09EAA0EEF00F0A1
:1000180010EF00F025EF00F0AECF03F0C80E5B60E4
:1000280018EF00F01AEF00F023EF00F0200E5B2429
:10003800D96EDA6A010EDA2203C0DFFF5B2ACEEC42
:1000480013F0F2A42AEF00F02CEF00F030EF00F0EC
:10005800D59EF294010E5A6E9DA035EF00F037EF51
:1000680000F046EF00F09EA03CEF00F03EEF00F0FD
:1000780046EF00F0630ECF6EC00ECE6E9E90010E5E
:100088000001CF6F02C0DAFF01C0D9FF5C921100F6
:1000980075EF12F051C008F052C009F03F0E0A6E19
:1000A8007F0E0B6E36EC09F009BE5DEF00F05FEFD6
:1000B80000F01CEF03F051C008F052C009F0EB0E3D
:1000C8000A6E7F0E0B6E36EC09F009BE6EEF00F07B
:1000D80070EF00F01CEF03F051C008F052C009F0B7
:1000E800F40E0A6E7F0E0B6E36EC09F008C0F9F0BC
:1000F80009C0FAF00001FABF84EF00F086EF00F0C3
:1001080004EF01F051C008F052C009F0FB0E0A6E6E
:100118007F0E0B6E36EC09F008C0E6F009C0E7F078
:10012800000E0001EB6F000EEA6FF26BF36BF9C083
:10013800ECF0FAC0EDF0EEEF00F0EC515124D96E7E
:10014800ED515220DA6EDF50F66F2C0EF619D8A456
:10015800B0EF00F0B2EF00F0B3EF00F0F32B2F0E8A
:10016800F665B9EF00F0BBEF00F0ECEF00F03A0EE7
:10017800F661C1EF00F0C3EF00F0ECEF00F0F351CF
:10018800D8A4C9EF00F0CBEF00F0D1EF00F0F251A6
:100198000A0DF350F625D00FF26FF305D8A4D7EF68
:1001A80000F0D9EF00F0ECEF00F00A0EEA03F3CF0D
:1001B800E4F0F4CFE5F0EB03F350E527F651E4273C
:1001C800000EE523D00EE425EA6FFF0EE521EB6F64
:1001D800EC4BED2BE651EC5DED51800AE46FE751F5
:1001E800800AE459D8A0FBEF00F0FDEF00F0A1EF82
:1001F80000F0EAC035F0EBC036F0F25185EC0BF0B8
:1002080051C008F052C009F0F00E0A6E7F0E0B6E56
:1002180036EC09F008C0F9F009C0FAF00001FABF9D
:1002280018EF01F01AEF01F014EF02F051C008F0D6
:1002380052C009F0FB0E0A6E7F0E0B6E36EC09F009
:1002480008C0E8F009C0E9F0000E0001EF6F000EE9
:10025800EE6FF56BF46BF9C0F0F0FAC0F1F082EFD5
:1002680001F0F0515124D96EF1515220DA6EDF506D
:10027800F76F2C0EF719D8A444EF01F046EF01F000
:1002880047EF01F0F42B2F0EF7654DEF01F04FEF1C
:1002980001F080EF01F03A0EF76155EF01F057EFEA
:1002A80001F080EF01F0F451D8A45DEF01F05FEFA9
:1002B80001F065EF01F0F5510A0DF350F725D00F65
:1002C800F56FF405D8A46BEF01F06DEF01F080EF46
:1002D80001F00A0EEE03F3CFE4F0F4CFE5F0EF03FC
:1002E800F350E527F751E427000EE523D00EE42567
:1002F800EE6FFF0EE521EF6FF04BF12BE851F05D4B
:10030800F151800AE46FE951800AE459D8A08FEFCF
:1003180001F091EF01F035EF01F0F86BEE51EF11BC
:10032800D8A499EF01F09BEF01F09FEF01F0010EC7
:10033800F86FA0EF01F0F86BF507E9EF01F0F8B1FD
:1003480002D08A9A01D08A8A14EF02F0F8B102D05A
:100358008A9801D08A8814EF02F0F8B102D08A9600
:1003680001D08A8614EF02F0F8B102D08A9401D045
:100378008A8414EF02F0F8B102D08A9201D08A82FE
:1003880014EF02F0F8B102D08A9001D08A8014EFFD
:1003980002F0F8B102D08C9E01D08C8E14EF02F0DE
:1003A800F8B102D08C9C01D08C8C14EF02F0F8B11B
:1003B80002D08C9A01D08C8A14EF02F0F8B102D0E6
:1003C8008C9801D08C8814EF02F0F551000AD8B44B
:1003D800A3EF01F0010AD8B4AAEF01F0030AD8B4D8
:1003E800B1EF01F0010AD8B4B8EF01F0070AD8B4A8
:1003F800BFEF01F0010AD8B4C6EF01F0030AD8B480
:10040800CDEF01F0010AD8B4D4EF01F00F0AD8B447
:10041800DBEF01F0010AD8B4E2EF01F014EF02F0CB
:1004280051C008F052C009F0E40E0A6E7F0E0B6E40
:1004380036EC09F008C0F9F009C0FAF00001FABF7B
:1004480028EF02F02AEF02F02CEF02F071EC07F02F
:1004580051C008F052C009F0B00E0A6E7F0E0B6E44
:1004680036EC09F008C0F9F009C0FAF00001FABF4B
:1004780040EF02F042EF02F044EF02F076EC0EF0AB
:1004880051C008F052C009F0DC0E0A6E7F0E0B6EE8
:1004980036EC09F008C0F9F009C0FAF00001FABF1B
:1004A80058EF02F05AEF02F05CEF02F0CCEC0EF0DD
:1004B80051C008F052C009F0A40E0A6E7F0E0B6EF0
:1004C80036EC09F008C0F9F009C0FAF00001FABFEB
:1004D80070EF02F072EF02F074EF02F059EC13F0D3
:1004E80051C008F052C009F0970E0A6E7F0E0B6ECD
:1004F80036EC09F008C0F9F009C0FAF00001FABFBB
:1005080088EF02F08AEF02F08CEF02F04AEC11F06B
:1005180051C008F052C009F0890E0A6E7F0E0B6EAA
:1005280036EC09F008C0F9F009C0FAF00001FABF8A
:10053800A0EF02F0A2EF02F0A4EF02F099EC13F0A2
:1005480051C008F052C009F05D0E0A6E7F0E0B6EA6
:1005580036EC09F008C0F9F009C0FAF00001FABF5A
:10056800B8EF02F0BAEF02F0BCEF02F0A5EC13F01E
:1005780051C008F052C009F07B0E0A6E7F0E0B6E58
:1005880036EC09F008C0F9F009C0FAF00001FABF2A
:10059800D0EF02F0D2EF02F0D4EF02F081EC13F0CA
:1005A80051C008F052C009F04E0E0A6E7F0E0B6E55
:1005B80036EC09F008C0F9F009C0FAF00001FABFFA
:1005C800E8EF02F0EAEF02F0ECEF02F08DEC13F046
:1005D80051C008F052C009F0BC0E0A6E7F0E0B6EB7
:1005E80036EC09F008C0F9F009C0FAF00001FABFCA
:1005F80000EF03F002EF03F004EF03F04AEC13F00E
:1006080051C008F052C009F0D20E0A6E7F0E0B6E70
:1006180036EC09F008C0F9F009C0FAF00001FABF99
:1006280018EF03F01AEF03F01CEF03F0010EC56F8B
:1006380012001550800B1E6E15501524246E14AE32
:1006480028EF03F02AEF03F02BEF03F02480245067
:10065800D8B431EF03F033EF03F046EF03F024286A
:10066800D8A439EF03F03BEF03F043EF03F0000E9B
:10067800126E000E136E000E146E000E156E148EA0
:100688004EEF03F0000E126E000E136E000E146E85
:10069800000E156E1950800B1E1A195019241F6E62
:1006A80018AE59EF03F05BEF03F05CEF03F01F8027
:1006B8001F50D8B462EF03F064EF03F077EF03F054
:1006C8001F28D8A46AEF03F06CEF03F074EF03F06F
:1006D800000E166E000E176E000E186E000E196EC4
:1006E800188E7FEF03F0000E166E000E176E000EC8
:1006F800186E000E196E1F50D8B485EF03F087EFFF
:1007080003F08FEF03F02450D8A48DEF03F08FEFA0
:1007180003F099EF03F0000E126E000E136E000E38
:10072800146E000E156E2FEF05F018501202F3CF5D
:1007380029F0F4CF2AF02950206E216A226A236A10
:100748002A50256E266A276A286A17501302F3CFA3
:1007580029F0F4CF2AF029502026000E2122222247
:1007680023222A502526000E262227222822165028
:100778001402F3CF29F0F4CF2AF029502026000ED6
:100788002122222223222A502526000E2622272231
:10079800282222C023F021C022F020C021F0206AA4
:1007A80016501302F3CF29F0F4CF2AF0295020264F
:1007B8002A502122000E2222000E23221750120254
:1007C800F3CF29F0F4CF2AF0295020262A502122ED
:1007D800000E2222000E232222C023F021C022F084
:1007E80020C021F0206A16501202F3CF29F0F4CF6E
:1007F8002AF0295020262A502122000E2222000EFB
:10080800232218501302F3CF29F0F4CF2AF02950ED
:1008180025262A502622000E2722000E28221750AD
:100828001402F3CF29F0F4CF2AF0295025262A50B4
:100838002622000E2722000E282218501402F3CF79
:1008480029F0F4CF2AF029501A6E2A501B6E1C6A20
:100858001D6A1CC01DF01BC01CF01AC01BF01A6AD0
:100868001A5025261B5026221C5027221D502822AC
:1008780020C01AF021C01BF022C01CF023C01DF0BC
:10088800190E4CEF04F0D8901D321C321B321A326C
:10089800E82E47EF04F01A5025261B5026221C503C
:1008A80027221D50282222C023F021C022F020C078
:1008B80021F0206A1F5024C01AF01B6A1A26000E65
:1008C8001B22820E1A24296EFF0E1B202A6E82EF2D
:1008D80004F0D890253626362736283623AE77EF0B
:1008E80004F079EF04F07AEF04F02580D8902036F0
:1008F8002136223623362906D8A02A0627AE87EFC6
:1009080004F089EF04F06DEF04F01F6A23AE8FEF57
:1009180004F091EF04F0B5EF04F0FF0E20141A6E06
:10092800FF0E21141B6EFF0E22141C6E7F0E231463
:100938001D6E1A501B101C101D10D8B4A6EF04F021
:10094800A8EF04F0ACEF04F0010E1F6EB5EF04F051
:1009580025A0B1EF04F0B3EF04F0B5EF04F0A8EF71
:1009680004F01F50D8B4BBEF04F0BDEF04F0E1EF82
:1009780004F0010E2526000E26222722282228A070
:10098800C8EF04F0CAEF04F0E1EF04F025C01AF054
:1009980026C01BF027C01CF028C01DF01D341D32D6
:1009A8001C321B321A321AC025F01BC026F01CC09C
:1009B80027F01DC028F0294A2A2A2ABEECEF04F0A5
:1009C8002A5008E12928D8A0ECEF04F0EEEF04F053
:1009D800F8EF04F0000E256E000E266E800E276ECE
:1009E8007F0E286E25EF05F02ABE05EF05F02A5088
:1009F80006E12904D8B003EF05F005EF05F010EF84
:100A080005F0000E256E000E266E000E276E000EF5
:100A1800286E1E6A25EF05F029C024F0FF0E251662
:100A2800FF0E26167F0E2716000E281624A01FEF8D
:100A380005F021EF05F022EF05F0278ED89024303D
:100A4800286E1E50281225C012F026C013F027C0A9
:100A580014F028C015F01200200E125C3F0E135837
:100A6800D8A039EF05F03BEF05F041EF05F0D80EBF
:100A7800136EFA0E126E7FEF06F0410E125C010E35
:100A88001358D8B04AEF05F04CEF05F052EF05F0D7
:100A9800270E136E060E126E7FEF06F0AB0EF66E83
:100AA8007D0EF76E12500900F55C13500900F558D9
:100AB800D8B061EF05F063EF05F069EF05F0D90EE6
:100AC800136E040E126E7FEF06F0FB0EF66E7D0EAF
:100AD800F76E0900F550125C0900F5501358D8B0AC
:100AE80078EF05F07AEF05F080EF05F0260E136E2B
:100AF800FC0E126E7FEF06F0010E2C6E85EF05F0EE
:100B08002C2A2C50020DAB0EF324F66E7D0EF42029
:100B1800F76E0900F550125C0900F5501358D8A07B
:100B280098EF05F09AEF05F084EF05F02C50146E5D
:100B3800156AD89014361536FE0E1424166EFF0E5C
:100B48001520176EFD0E1624F66E7D0E1720F76E13
:100B58000900F5CF18F00900F5CF19F02C50020D57
:100B6800FD0EF324F66E7D0EF420F76E1850090082
:100B7800F55C1A6E19500900F5581B6E1AC01CF066
:100B88001BC01DF0000E1DBEFF0E1E6E1F6E2C50EA
:100B9800020DAB0EF324F66E7D0EF420F76E0900FD
:100BA800F5CF14F00900F5CF15F02C50166E176A22
:100BB800D89016361736FE0E1624186EFF0E17201C
:100BC800196EAB0E1824F66E7D0E1920F76E09000B
:100BD800F5CF1AF00900F5CF1BF014501A5C286EF7
:100BE80015501B58296E2A6AD8A02A062A502B6E3F
:100BF8002C50146E156AD89014361536FE0E14242F
:100C0800166EFF0E1520176EAB0E1624F66E7D0EAF
:100C18001720F76E0900F5CF18F00900F5CF19F085
:100C28001250185C046E13501958056E066AD8A045
:100C380006060650076E1CC008F01DC009F01EC04D
:100C48000AF01FC00BF015EC11F004C020F005C02D
:100C580021F006C022F007C023F0020E086E000E35
:100C6800096E000E0A6E000E0B6E28C004F029C033
:100C780005F02AC006F02BC007F07BEC0AF02050E4
:100C88000424246E21500520256E22500620266E4D
:100C980023500720276E2C50146E156AD8901436EE
:100CA8001536FE0E1424166EFF0E1520176EFD0E57
:100CB8001624F66E7D0E1720F76E0900F5CF18F092
:100CC8000900F5CF19F024C004F025C005F026C0AE
:100CD80006F027C007F028C008F029C009F02AC08C
:100CE8000AF02BC00BF07BEC0AF018500424126EAB
:100CF80019500520136E12000F50D96EDA6ADECF34
:100D0800F6FFDDCFF7FF0800F550250AD8A48FEFCE
:100D180006F091EF06F05FEF07F00F50D96EDA6A30
:100D2800DE2A000EDD22000E0001A76F000EA66F5E
:100D3800A6C0C0F0A869A9690F50D96EDA6ADECFDB
:100D480014F0DDCF15F014C0F6FF15C0F7FF08004A
:100D5800F550640AD8B4B3EF06F0B5EF06F0C3EF68
:100D680006F014C0F6FF15C0F7FF0800F550690A31
:100D7800D8A4C1EF06F0C3EF06F057EF07F0105004
:100D8800D96EDA6A020EDF26DF5CD96EDA6ADECF48
:100D980016F0DECF17F0010E1424116E000E152088
:100DA800126E0F50D96EDA6A11C0DEFF12C0DDFF75
:100DB800200E1A6E17BEE3EF06F0E6EF06F0010EFE
:100DC800E7EF06F0000E136E1A06000E1A24D96E0D
:100DD800DA6A010EDA2216C004F017C005F0000E18
:100DE800076E0A0E066E1FEC0EF004C00AF005C06E
:100DF8000BF05BEC12F00A50300FDF6E16C004F0F7
:100E080017C005F0000E076E0A0E066E62EC0DF0B4
:100E180004C016F005C017F016501710D8B417EF15
:100E280007F019EF07F021EF07F01A50D8A41FEFC9
:100E380007F021EF07F0E8EF06F01A50D8B427EFD3
:100E480007F029EF07F04CEF07F01350D8B42FEF55
:100E580007F031EF07F04CEF07F01A06000E1A24DE
:100E6800D96EDA6A010EDA222D0EDF6E4CEF07F02A
:100E7800000E1A24D96EDA6A010EDA22DF50116EDA
:100E88001150046E056A0EC006F077EC0FF01A2AAE
:100E9800200E1A18D8A453EF07F055EF07F03CEFCF
:100EA80007F070EF07F00F50D96EDA6ADE2A000EED
:100EB800DD2270EF07F00F50D96EDA6ADECFF6FF49
:100EC800DDCFF7FF0800F550046E056A0EC006F086
:100ED80077EC0FF057EF07F01200000E8ABA010EF8
:100EE800456E000E8AB8010E466E000E8AB6010ED7
:100EF800476E000E8AB4010E486E000E8AB2010ECB
:100F0800496E000E8AB0010E4A6E000E8CBE010EAC
:100F18004B6E000E8CBC010E4C6E000E8CBA010E8E
:100F28004D6E000E8CB8010E4E6E8A8C1A0E446EF1
:100F3800F80EE82EFED7442EFCD700D07B0E056EA7
:100F48007E0E066E7DEC11F0000E506E000E4F6E98
:100F5800D00E216E780E226E7F0E236E4F50920FA8
:100F6800D96EDA6ADF50446E4450246E256A3FEC2D
:100F780012F0D00E056E066A7DEC11F004004F4A9F
:100F8800502A50BED1EF07F0505009E10A0E4F5CCD
:100F9800D8A0D1EF07F0D3EF07F0ACEF07F0FD0EC4
:100FA800056E7F0E066E7DEC11F0D00E216EB40E2C
:100FB800226E7E0E236E45C024F0256A46C026F0B8
:100FC800276A47C028F0296A48C02AF02B6A49C016
:100FD8002CF02D6A4AC02EF02F6A4BC030F0316ACF
:100FE8004CC032F0336A4DC034F0356A4EC036F02A
:100FF800376A3FEC12F0D00E056E066A7DEC11F0F0
:10100800FD0E056E7F0E066E7DEC11F0D00E216E82
:101018006C0E226E7F0E236EBEC024F0BFC025F07A
:10102800000E276E000E266EBAC028F0BBC029F04D
:10103800B8C02AF0B9C02BF0000E2D6E000E2C6E31
:101048003FEC12F0D00E056E066A7DEC11F0FD0E35
:10105800056E7F0E066E7DEC11F0D00E216E6C0EC3
:10106800226E7F0E236EC2C024F0256AAAC026F025
:10107800ABC027F056C028F057C029F054C02AF05A
:1010880055C02BF0C5C02CF02D6A3FEC12F0F80EBD
:10109800056E7F0E066E7DEC11F004001A0E446E8C
:1010A800F80EE82EFED7442EFCD700D08A9C1200FA
:1010B8000C6E0C50D8B463EF08F065EF08F087EFBA
:1010C80008F007BE6CEF08F06AEF08F087EF08F049
:1010D80004C008F005C009F006C00AF007C00BF00C
:1010E800081E091E0A1E0B1E082A000E09220A22C3
:1010F8000B2208C00EF009C00FF00AC010F00BC098
:1011080011F08FEF08F004C00EF005C00FF006C014
:1011180010F007C011F00450051006100710D8A4ED
:1011280098EF08F09AEF08F0A4EF08F0000E046EAC
:10113800000E056E000E066E000E076E35EF09F004
:10114800960E0D6EAEEF08F00D2AD89011321032BF
:101158000F320E32000E0E14086E000E0F14096EB8
:10116800000E10140A6EFE0E11140B6E08500910B2
:101178000A100B10D8A4C3EF08F0C5EF08F0A8EFC9
:1011880008F0D3EF08F00D2A010E0E26000E0F22EC
:1011980010221122D890113210320F320E32000E66
:1011A8000E14086E000E0F14096E000E10140A6E4D
:1011B800FF0E11140B6E085009100A100B10D8A45A
:1011C800E8EF08F0EAEF08F0C7EF08F0F2EF08F0F0
:1011D8000D06D8900E360F361036113610BEF7EFC2
:1011E80008F0F9EF08F001EF09F0020E0D60FFEFCB
:1011F80008F001EF09F0ECEF08F00DB006EF09F088
:1012080008EF09F009EF09F0109ED8900D320DC0D3
:1012180008F0096A0A6A0B6A08C00BF00A6A096AC8
:10122800086A08500E1209500F120A5010120B507B
:1012380011120C50D8B423EF09F025EF09F02DEF67
:1012480009F007BE2CEF09F02AEF09F02DEF09F09D
:10125800118E0EC004F00FC005F010C006F011C0CA
:1012680007F0120008C004F009C005F0ACEC11F05A
:1012780004C013F005C014F00AC004F00BC005F058
:10128800ACEC11F004C015F005C016F01550135C55
:101298001450800A0C6E1650800A0C58D8A057EFCC
:1012A80009F059EF09F0DCEF09F0000E1A6E000E94
:1012B800196EC7EF09F019500824D96E1A50092081
:1012C800DA6EDF500C6E0AC0F6FF0BC0F7FF08009D
:1012D800F5500C18D8A473EF09F075EF09F0C5EFB5
:1012E80009F0000E126E010E116E000E186E000E3F
:1012F800176EA7EF09F0175008240C6E1850092034
:101308000D6E19500C24D96E1A500D20DA6EDF506C
:101318000E6E17500A240F6E18500B20106E0FC057
:10132800F6FF10C0F7FF0800F5500E18D8B49FEF6D
:1013380009F0A1EF09F0A5EF09F0000E126E000EFA
:10134800116E174A182A1550175C1850800A0C6E2F
:101358001650800A0C58D8A0B4EF09F0B6EF09F07F
:101368007FEF09F011041210D8A4BDEF09F0BFEF08
:1013780009F0C5EF09F019C008F01AC009F0DEEF4E
:1013880009F0194A1A2A1550135C0C6E1650145895
:101398000D6E19500C5C0D50800A0E6E1A50800AA2
:1013A8000E58D8B0DAEF09F0DCEF09F05FEF09F07A
:1013B800086809681200000E096E000E086E0850D1
:1013C8009C0FD96EDA6ADE04D8A4EDEF09F0EFEFCE
:1013D80009F06AEF0AF00850020DF350600FD96E59
:1013E800DA6ADE2A000EDD220850020DF350740F6F
:1013F800D96EDA6A0850020DF350600FE16EE26AA6
:10140800DE50E65CDE50E658D8A00DEF0AF00FEF8C
:101418000AF06AEF0AF02FEF0AF08A8A65EF0AF0FD
:101428008A8865EF0AF08A8665EF0AF08A8465EF94
:101438000AF08A8265EF0AF08A8065EF0AF08C8EDE
:1014480065EF0AF08C8C65EF0AF08C8A65EF0AF07C
:101458008C8865EF0AF008C004F009C005F0055053
:10146800000AD8B43AEF0AF065EF0AF00450000A0F
:10147800D8B411EF0AF0010AD8B414EF0AF0030A3D
:10148800D8B417EF0AF0010AD8B41AEF0AF0070A1D
:10149800D8B41DEF0AF0010AD8B420EF0AF0030A05
:1014A800D8B423EF0AF0010AD8B426EF0AF00F0ADD
:1014B800D8B429EF0AF0010AD8B42CEF0AF065EF86
:1014C8000AF008509C0FD96EDA6ADF6A084A092ABE
:1014D80009BE78EF0AF0095009E10A0E085CD8A0A5
:1014E80078EF0AF07AEF0AF0E3EF09F012000D6ADC
:1014F8000BBE83EF0AF081EF0AF08DEF0AF00B1EA6
:101508000A1E091E086C000E09220A220B22010E6F
:101518000D6E07BE94EF0AF092EF0AF09EEF0AF004
:10152800071E061E051E046C000E05220622072251
:10153800010E0D1A000E0E6E000E0F6E000E106ECC
:10154800000E116E085009100A100B10D8B4AFEF36
:101558000AF0B1EF0AF0E7EF0AF0010E0C6EBBEFEC
:101568000AF0D890083609360A360B360C2A0BAE24
:10157800C0EF0AF0C2EF0AF0B5EF0AF0D8900E36C5
:101588000F36103611360850045C095005580A50B9
:1015980006580B500758D8A0D4EF0AF0D6EF0AF037
:1015A800DFEF0AF00850045E0950055A0A50065A3F
:1015B8000B50075A0E80D8900B320A320932083283
:1015C8000C2EC2EF0AF00D50D8B4EDEF0AF0EFEF91
:1015D8000AF0F7EF0AF0111E101E0F1E0E6C000E17
:1015E8000F22102211220EC004F00FC005F010C007
:1015F80006F011C007F01200000E166E000E176EEE
:10160800C00E186E3F0E196EAAC004F0ABC005F0EC
:10161800066A076A000E5CEC08F004C012F005C008
:1016280013F006C014F007C015F01DEC03F012C04B
:101638002BF013C02CF014C02DF015C02EF009ECBF
:101648000CF02BC035F02CC036F0050E85EC0BF0F5
:10165800000E166E000E176EC00E186E3F0E196E35
:1016680054C004F055C005F0066A076A000E5CEC29
:1016780008F004C012F005C013F006C014F007C04B
:1016880015F01DEC03F012C02BF013C02CF014C0A1
:101698002DF015C02EF009EC0CF02BC035F02CC045
:1016A80036F0060E85EC0BF0000E166E000E176E67
:1016B800C00E186E3F0E196E56C004F057C005F0E4
:1016C800066A076A000E5CEC08F004C012F005C058
:1016D80013F006C014F007C015F01DEC03F012C09B
:1016E8002BF013C02CF014C02DF015C02EF009EC0F
:1016F8000CF02BC035F02CC036F0080E85EC0BF042
:101708001200376E35C004F036C005F0000E076EC3
:101718000A0E066E70EC10F004C035F005C036F005
:101728003750D8B49AEF0BF09CEF0BF008EF0CF0A1
:101738000B0E3760A2EF0BF0A4EF0BF008EF0CF0E4
:1017480037063750020DF350600FD96EDA6ADE6A39
:10175800DD6A3750020DF350740FD96EDA6A35C05E
:10176800DEFF36C0DDFF37509C0FD96EDA6A010EF6
:10177800DF6EDDEF0BF08A9A08EF0CF08A9808EF1D
:101788000CF08A9608EF0CF08A9408EF0CF08A9215
:1017980008EF0CF08A9008EF0CF08C9E08EF0CF024
:1017A8008C9C08EF0CF08C9A08EF0CF08C9808EFE2
:1017B8000CF03750000AD8B4BFEF0BF0010AD8B4C8
:1017C800C2EF0BF0030AD8B4C5EF0BF0010AD8B486
:1017D800C8EF0BF0070AD8B4CBEF0BF0010AD8B466
:1017E800CEEF0BF0030AD8B4D1EF0BF0010AD8B44E
:1017F800D4EF0BF00F0AD8B4D7EF0BF0010AD8B426
:10180800DAEF0BF008EF0CF012002D342E34346EA2
:101818003450D8A412EF0CF014EF0CF01EEF0CF0BB
:10182800000E2B6E000E2C6E000E2D6E000E2E6E0E
:101838008BEF0CF02BC02FF02CC030F02DC031F006
:101848002EC032F0200E2EEF0CF0D890323231320A
:1018580030322F32E82E29EF0CF02F50336E2D8EB8
:10186800FF0E2B16FF0E2C16FF0E2D16000E2E1631
:10187800960E345E34BE45EF0CF043EF0CF05BEF90
:101888000CF03450800A970FD8B04DEF0CF04FEFA2
:101898000CF051EF0CF014EF0CF0D8902E322D32E2
:1018A8002C322B32343E51EF0CF073EF0CF01F0E3C
:1018B800346461EF0CF063EF0CF06BEF0CF014EF95
:1018C8000CF0D8902B362C362D362E363406345064
:1018D800D8A471EF0CF073EF0CF065EF0CF03350F7
:1018E800D8B479EF0CF07BEF0CF083EF0CF02E1EE0
:1018F8002D1E2C1E2B6C000E2C222D222E222BC0CE
:101908002BF02CC02CF02DC02DF02EC02EF0120084
:10191800056ED5EF0CF004B002D08A9A01D08A8AFD
:1019280000EF0DF004B002D08A9801D08A8800EF49
:101938000DF004B002D08A9601D08A8600EF0DF02F
:1019480004B002D08A9401D08A8400EF0DF004B06C
:1019580002D08A9201D08A8200EF0DF004B002D042
:101968008A9001D08A8000EF0DF004B002D08C9EDE
:1019780001D08C8E00EF0DF004B002D08C9C01D009
:101988008C8C00EF0DF004B002D08C9A01D08C8AB8
:1019980000EF0DF004B002D08C9801D08C8800EFD5
:1019A8000DF00550000AD8B48FEF0CF0010AD8B436
:1019B80096EF0CF0030AD8B49DEF0CF0010AD8B4E6
:1019C800A4EF0CF0070AD8B4ABEF0CF0010AD8B4B6
:1019D800B2EF0CF0030AD8B4B9EF0CF0010AD8B48E
:1019E800C0EF0CF00F0AD8B4C7EF0CF0010AD8B456
:1019F800CEEF0CF000EF0DF0120075EC13F0E7ECF1
:101A080012F0FCEC12F0BCEC13F0B1EC13F0D09E29
:101A1800F28CF28EC3EC0DF08A8C340E536EF20EFB
:101A2800E82EFED7532EFCD7C70E056E7F0E066E26
:101A38007DEC11F0340E536EF20EE82EFED7532EC5
:101A4800FCD78A9C5A50D8B42CEF0DF02EEF0DF02D
:101A580048EF0DF0200E516E010E526E4EEC00F064
:101A68000001FB6B200EFB25D96EDA6A010EDA2223
:101A7800DF6AFB2BC70EFB6544EF0DF046EF0DF058
:101A880036EF0DF05B6A5A6A0001CF51D8B44FEFB8
:101A98000DF051EF0DF05DEF0DF0C3EC0DF022EC01
:101AA8000FF0DFEC09F0CCEC0FF020EC10F00001A7
:101AB800CF6B040026EF0DF04CEF00F0096A07BE6B
:101AC8006AEF0DF068EF0DF070EF0DF0066C071E71
:101AD800D8B0072A010E096E05BE77EF0DF075EF35
:101AE8000DF07DEF0DF0046C051ED8B0052A010E2F
:101AF800091A000E0B6E000E0A6E06500710D8B4B5
:101B080088EF0DF08AEF0DF0B2EF0DF0010E086EC0
:101B180092EF0DF0D89006360736082A07AE97EFF1
:101B28000DF099EF0DF08EEF0DF0D8900A360B36C8
:101B38000650045C07500558D8A0A5EF0DF0A7EF94
:101B48000DF0ACEF0DF00650045E0750055A0A8000
:101B5800D89007320632082E99EF0DF00950D8B404
:101B6800B8EF0DF0BAEF0DF0BEEF0DF00A6C0B1EDA
:101B7800D8B00B2A0AC004F00BC005F01200000E02
:101B880084B0010E0001926F000E84B2010E936FB3
:101B9800000E84B4010E946F000E82B0010E956F92
:101BA800000E82B2010E966F000E82B4010E976F7E
:101BB800000E83B0010E986F000E83B2010E996F6C
:101BC800000E83B4010E9A6F000E83B6010E9B6F50
:101BD800000E076E000E066E0650880FD96EDA6A80
:101BE8000650920FE16EE26ADE50E618D8B4FFEFB5
:101BF8000DF001EF0EF00EEF0EF00650920FD96EB9
:101C0800DA6A0650880FE16EE26ADFCFE7FF010E5D
:101C18000001CE6F064A072A07BE1CEF0EF00750D8
:101C280009E10A0E065CD8A01CEF0EF01EEF0EF0BC
:101C3800F0EF0DF01200096A05BE27EF0EF025EF50
:101C48000EF02DEF0EF0046C051ED8B0052A010E1B
:101C5800096E07BE34EF0EF032EF0EF038EF0EF0DB
:101C6800066C071ED8B0072A06500710D8B43FEFF5
:101C78000EF041EF0EF065EF0EF0010E086E49EF21
:101C88000EF0D89006360736082A07AE4EEF0EF04B
:101C980050EF0EF045EF0EF00650045C0750055863
:101CA800D8A059EF0EF05BEF0EF05FEF0EF0065084
:101CB800045E0750055AD89007320632082E50EFB6
:101CC8000EF00950D8B46BEF0EF06DEF0EF071EF17
:101CD8000EF0046C051ED8B0052A04C004F005C037
:101CE80005F0120056C035F057C036F00A0E85ECE4
:101CF8000BF0000E3A6E000E396E8EEF0EF0060EE7
:101D0800386E300EE82EFED7382EFCD700D00400EF
:101D1800394A3A2A5650395C57503A58D8A097EF62
:101D28000EF099EF0EF083EF0EF0000E166E000E17
:101D3800176EC00E186E3F0E196E56C004F057C0CD
:101D480005F0066A076A000E5CEC08F004C012F0A1
:101D580005C013F006C014F007C015F01DEC03F021
:101D680012C02BF013C02CF014C02DF015C02EF0AB
:101D780009EC0CF02BC035F02CC036F0080E85ECC1
:101D88000BF09F0E076E7E0E086EF9EC11F0120034
:101D980054C035F055C036F0070E85EC0BF0000E38
:101DA8003A6E000E396EE4EF0EF0060E386E300E05
:101DB800E82EFED7382EFCD700D00400394A3A2A3C
:101DC8005450395C55503A58D8A0EDEF0EF0EFEF6B
:101DD8000EF0D9EF0EF0000E166E000E176EC00E44
:101DE800186E3F0E196E54C004F055C005F0066A0F
:101DF800076A000E5CEC08F004C012F005C013F08E
:101E080006C014F007C015F01DEC03F012C02BF04B
:101E180013C02CF014C02DF015C02EF009EC0CF0F6
:101E28002BC035F02CC036F0070E85EC0BF00F0EEA
:101E3800076E7F0E086EF9EC11F012000001CC2B32
:101E4800050ECC652AEF0FF02CEF0FF076EF0FF0B0
:101E58005950D8A432EF0FF034EF0FF03BEF0FF0EA
:101E6800000ED4EC11F004C0BEF005C0BFF0590458
:101E7800D8A441EF0FF043EF0FF04AEF0FF0010E37
:101E8800D4EC11F004C0BEF005C0BFF0020E591822
:101E9800D8A451EF0FF053EF0FF05AEF0FF0020EE6
:101EA800E0EC10F02DC0BAF02EC0BBF0030E5918AC
:101EB800D8A461EF0FF063EF0FF06AEF0FF0030E95
:101EC800E0EC10F02DC0B8F02EC0B9F0592A030E7E
:101ED800596471EF0FF073EF0FF074EF0FF0596A58
:101EE8000001CC6B12000650D8B47DEF0FF07FEFE5
:101EF8000FF087EF0FF00650D8A485EF0FF087EFAB
:101F08000FF08CEF0FF00450DCEC13F0CBEF0FF078
:101F18000650D96EDA6A090ED926DE50DE10D8B41A
:101F280098EF0FF09AEF0FF0B3EF0FF00650D96E5D
:101F3800DA6A090ED9260650E16EE26A020EE12637
:101F4800DE50E65CE650800A0B6EDE50800A0B58C5
:101F5800D8B0B1EF0FF0B3EF0FF0CBEF0FF00650A2
:101F6800D96EDA6A020ED926DF50076E0650D96E8E
:101F7800DA6ADF500724D96EDA6A04C0DFFF065038
:101F8800D96EDA6A020ED926DE2A000EDD22120088
:101F98005850D8A4D2EF0FF0D4EF0FF01FEF10F085
:101FA8000001C62BC70EC665DCEF0FF0DEEF0FF0A1
:101FB8001FEF10F0010E3BEC13F0100AD8A4E7EF66
:101FC8000FF0E9EF0FF000EF10F0000EC5EC13F082
:101FD800750E096E300E086E2CEC13F0070E096EA4
:101FE800D00E086E1DEC13F0040E096EB00E086ECC
:101FF8000EEC13F01BEF10F0D6EC13F00001C26FDB
:10200800D1EC12F005C0AAF006C0ABF0A5EC12F0B6
:1020180005C056F006C057F0BBEC12F005C054F0EE
:1020280006C055F0100E056E010EAAEC10F000EC7B
:102038000BF0010E586E12005804D8A426EF10F0C9
:1020480028EF10F06FEF10F00001C12BC70EC1652B
:1020580030EF10F032EF10F06FEF10F0BBBF3EEF33
:1020680010F0BB5109E10B0EBA5DD8A03EEF10F09D
:1020780040EF10F04AEF10F0010E046E020E8CECE7
:102088000CF0010E046E030E8CEC0CF00001BBAFDB
:1020980057EF10F0F60EBA5DFF0EBB59D8B057EFE8
:1020A80010F059EF10F06DEF10F0C251D8A45FEFA7
:1020B80010F061EF10F068EF10F0000E046E020EE1
:1020C8008CEC0CF06DEF10F0000E046E030E8CEC2F
:1020D8000CF00001C16B1200000E0A6E000E096EB2
:1020E80006500710D8B47BEF10F07DEF10F0A5EF85
:1020F80010F0010E086E85EF10F0D89006360736FE
:10210800082A07AE8AEF10F08CEF10F081EF10F07C
:10211800D89009360A360650045C07500558D8A0EE
:1021280098EF10F09AEF10F09FEF10F00650045E51
:102138000750055A0980D89007320632082E8CEFCE
:1021480010F009C004F00AC005F01200076E07502D
:102158003BEC13F00518D8A4B4EF10F0B6EF10F06C
:10216800B8EF10F0DFEF10F007C0A9FF05C0A8FF17
:10217800A69EA69CA696A684000EF2BE010E066E2A
:10218800F29E550EA76EAA0EA76EA6820650D8B468
:10219800D0EF10F0D2EF10F0D6EF10F0F28ED6EFAD
:1021A80010F00400A6B2DBEF10F0DDEF10F0D5EF71
:1021B80010F0A694A19812002F6E000E316E000E3A
:1021C800306E346A2F50D4EC11F004C032F005C0E0
:1021D80033F0322806E13328D8A4F5EF10F0F7EFF2
:1021E80010F0FDEF10F0D80E2E6EFA0E2D6E14EFD3
:1021F80011F03250302633503122342A0F0E346415
:1022080008EF11F00AEF11F0E6EF10F030C012F00D
:1022180031C013F030EC05F012C02DF013C02EF0D1
:102228001200000E0C6E000E0D6E000E0E6E000EEB
:102238000F6E04A022EF11F024EF11F02CEF11F033
:1022480008500C2609500D220A500E220B500F225E
:10225800D890083609360A360B36D8900732063237
:10226800053204320450051006100710D8A43FEFB9
:1022780011F041EF11F01DEF11F00CC004F00DC08A
:1022880005F00EC006F00FC007F01200000E166E23
:10229800000E176EC00E186E3F0E196EAAC004F01D
:1022A800ABC005F0066A076A000E5CEC08F004C0D3
:1022B80012F005C013F006C014F007C015F01DECAD
:1022C80003F012C02BF013C02CF014C02DF015C071
:1022D8002EF009EC0CF02BC035F02CC036F0050EB2
:1022E80085EC0BF0200E076E7F0E086EF9EC11F0EE
:1022F800120093EF11F005C0F6FF06C0F7FFF86A69
:10230800070EF76403D00800F55005D0F6CFE9FFB3
:10231800F7CFEAFFEF5067EC13F0054A062A05C02D
:10232800F6FF06C0F7FFF86A070EF76403D0080047
:10233800F55005D0F6CFE9FFF7CFEAFFEF500009D7
:10234800D8A4A9EF11F0ABEF11F07FEF11F0120054
:10235800000E076E000E066EB7EF11F00400064A75
:10236800072A044A052A04C0F6FF05C0F7FFF86AE1
:10237800070EF76403D00800F55005D0F6CFE9FF43
:10238800F7CFEAFFEF500009D8A4CDEF11F0CFEF57
:1023980011F0B2EF11F006C004F007C005F012000A
:1023A800086E050E0864DBEF11F0DDEF11F0E1EFC8
:1023B80011F004680568F8EF11F008C006F0064649
:1023C8000646C2500618830B0618C26EC282C2B2F5
:1023D800F0EF11F0F2EF11F0EBEF11F0C450066ED0
:1023E800C350046E06C005F012008A8C1A0E096EDE
:1023F800F80EE82EFED7092EFCD700D0540E056E35
:102408007E0E066E7DEC11F007C005F008C006F0E0
:102418007DEC11F0F80E056E7F0E066E7DEC11F066
:102428001A0E096EF80EE82EFED7092EFCD700D03A
:102438008A9C12001CC01FF01DC020F02CEF12F067
:102448001BC00EF01F0E0F6E1EC010F080EC06F0C1
:102458001FC0F6FF20C0F7FF0800F5500009D8A4F8
:1024680038EF12F03AEF12F024EF12F0000E1C6E63
:10247800000E1B6E1200240E386E21C039F0000EBB
:102488003C6E000E3B6E000E436E000E426E390E1F
:102498001B6E22C01CF023C01DF0380E1E6E1EECF1
:1024A80012F021503B24D96EDA6ADF6A12000BBEA3
:1024B80060EF12F062EF12F068EF12F00AC00AF053
:1024C8000BC00BF074EF12F00AC00CF00BC00DF04B
:1024D8000C1E0D1E0C4A0D2A0CC00AF00DC00BF084
:1024E800120001EE00F0E80EEE6AE806FDE100EEEB
:1024F80060F0840EEE6AE806FDE100EE54F0080E86
:10250800EE6AE806FDE15C905C92000EF86E000150
:1025180001EF0DF09280928292849286928A968040
:102528000F015B815B835B855B875B8B5F81C16A26
:10253800950EC06EC26AC2800D0EE82EFED700004E
:102548001200130E3BEC13F0076E07500A6E0B6A6D
:10255800140E3BEC13F0076E0A50086E07500A6E13
:1025680008C00BF00AC005F00BC006F01200150EEB
:102578003BEC13F0076E07500A6E0B6A160E3BEC25
:1025880013F0076E0A50086E07500A6E08C00BF069
:102598000AC005F00BC006F01200110E3BEC13F058
:1025A800076E07500A6E0B6A120E3BEC13F0076EAB
:1025B8000A50086E07500A6E08C00BF00AC005F0F2
:1025C8000BC006F012000F015B6B5C6B5D6B5E6B02
:1025D8005F6B800E936E0F0E966E0F0E956E94685D
:1025E8008A688D688C68939C8A9C8EEC12F0120025
:1025F8000F015D9D5D9F949C948EB886AC84AC98C9
:10260800010EB06EA00EAF6EAB8EAB88AC8A9E9AF0
:102618009D8A12000950056E130EAAEC10F008C02E
:1026280005F0140EAAEC10F008C056F009C057F0D7
:1026380012000950056E150EAAEC10F008C005F03E
:10264800160EAAEC10F008C054F009C055F012009C
:102658000950056E110EAAEC10F008C005F0120E14
:10266800AAEC10F008C0AAF009C0ABF01200046E82
:10267800A6B241EF13F043EF13F03CEF13F004C0A0
:10268800A9FFA69EA69CA680A850120000EC0BF0FD
:10269800010E046E000E8CEC0CF0010E046E010E9F
:1026A8008CEC0CF00001C56B1200AAC035F0ABC071
:1026B80036F0040E85EC0BF0300E076E7F0E086EB8
:1026C800F9EC11F01200046E6BEF13F00400ACA2E9
:1026D80070EF13F072EF13F06AEF13F004C0ADFF60
:1026E8001200700ED312FC0ED316D3A47EEF13F093
:1026F80080EF13F079EF13F01200000E046E010E54
:102708008CEC0CF0ED0E076E7E0E086EF9EC11F0F5
:102718001200010E046E010E8CEC0CF0C90E076E4F
:102728007E0E086EF9EC11F01200000E046E000E19
:102738008CEC0CF0FE0E076E7E0E086EF9EC11F0B4
:102748001200010E046E000E8CEC0CF0DB0E076E0E
:102758007E0E086EF9EC11F01200CC6A020ECD6EF6
:10276800630ECF6EC00ECE6E9E909D80CD801200FF
:10277800010ED56E3C0ED76EB00ED66EF294F28A6C
:102788001200086E08C005F0100EAAEC10F008C080
:10279800C2F01200D59E3C0ED76EB00ED66EF294E3
:1027A800D58E1200100E3BEC13F0056E055012008A
:0227B80012000D
:107DAA0000123D333C1E3BCE393E38623623354005
:107DBA00345133583254314630302F112EE92CBC0D
:107DCA002B4A2A50291528D626952555241423D618
:107DDA002197205C1F271EF81CCE1BA81A8919752B
:107DEA001865175E165F15E214961280109F0EF240
:107DFA000C740B70FEA2FED4FE06FF38FF6AFF88E1
:107E0A00FF9CFFB0FFC4FFD8FFECFF00001400285E
:107E1A00003C005000640078008C00A000B400C848
:107E2A0000DC00F000040118012C01400154016833
:107E3A00017C019001A401B801C201F40126025893
:107E4A00028A02BC0201200039C07B2269223A223E
:107E5A004147524F4C4154494E415F473031222CE1
:107E6A00227273223A225265737075657374613A8D
:107E7A00007B2269223A224147524F4C4154494ED3
:107E8A00415F473031222C227273223A22535441E5
:107E9A005455533A00494E59454343494F4E5F4C56
:107EAA0049515549444F5F4F4B0025642564256469
:107EBA0025642564256425642564256425640056A3
:107ECA00454E54494C41444F525F4F46465F4F4BD3
:107EDA0000455641504F5241444F525F4F46465F0C
:107EEA004F4B0056454E54494C41444F525F4F4EFA
:107EFA005F4F4B00455641504F5241444F525F4FDE
:107F0A004E5F4F4B00494E59454343494F4E5F47D9
:107F1A0041535F4F4B0044414D5045525F434C4FD4
:107F2A0053455F4F4B0044414D5045525F4F5045BA
:107F3A004E5F4F4B004147524F4C4154494E415FAF
:107F4A004730310056454E54494C41444F525F4FD9
:107F5A00464600455641504F5241444F525F4F46A4
:107F6A00460025642C25642C25642C25642C256464
:107F7A000056454E54494C41444F525F4F4E0045BE
:107F8A005641504F5241444F525F4F4E0044414D6B
:107F9A005045525F434C4F53450044414D50455262
:107FAA005F4F50454E00494E595F4C49515549441F
:107FBA004F0053544F505F504C414E5400484F4C61
:107FCA004120454457494E0052554E5F504C414E50
:107FDA005400494E595F4741530053544154555335
:107FEA000043423031005250280052542800227D6A
:067FFA000029002C00002C
:020000040030CA
:0E00000001284E1FFFD185FF0FC00FE00F40FB
:00000001FF
