:040000004BEF00F0D2
:100008005C82D9CF01F0DACF02F09EAA0EEF00F0A1
:1000180010EF00F025EF00F0AECF03F0960E5A6017
:1000280018EF00F01AEF00F023EF00F0200E5A242A
:10003800D96EDA6A010EDA2203C0DFFF5A2A4EECC3
:1000480013F0F2A42AEF00F02CEF00F030EF00F0EC
:10005800D59EF294010E596E9DA035EF00F037EF52
:1000680000F045EF00F09EA03CEF00F03EEF00F0FE
:1000780045EF00F0630ECF6EC00ECE6E9E90010E5F
:100088005B6E02C0DAFF01C0D9FF5C92110010EF6D
:1000980012F0E2C008F0E3C009F0490E0A6E7F0EC4
:1000A8000B6E32EC09F009BE5CEF00F05EEF00F079
:1000B8001AEF03F0E2C008F0E3C009F0EA0E0A6E96
:1000C8007F0E0B6E32EC09F009BE6DEF00F06FEF9A
:1000D80000F01AEF03F0E2C008F0E3C009F0F30EF5
:1000E8000A6E7F0E0B6E32EC09F008C0F9F009C0F9
:1000F800FAF00001FABF83EF00F085EF00F003EF9C
:1001080001F0E2C008F0E3C009F0FA0E0A6E7F0EB3
:100118000B6E32EC09F008C0E6F009C0E7F0000EFB
:100128000001EB6F000EEA6FF26BF36BF9C0ECF0B5
:10013800FAC0EDF0EDEF00F0EC51E225D96EED518B
:10014800E321DA6EDF50F66F2C0EF619D8A4AFEF64
:1001580000F0B1EF00F0B2EF00F0F32B2F0EF665D0
:10016800B8EF00F0BAEF00F0EBEF00F03A0EF661EE
:10017800C0EF00F0C2EF00F0EBEF00F0F351D8A4AD
:10018800C8EF00F0CAEF00F0D0EF00F0F2510A0D0E
:10019800F350F625D00FF26FF305D8A4D6EF00F090
:1001A800D8EF00F0EBEF00F00A0EEA03F3CFE4F02B
:1001B800F4CFE5F0EB03F350E527F651E427000E02
:1001C800E523D00EE425EA6FFF0EE521EB6FEC4B3B
:1001D800ED2BE651EC5DED51800AE46FE751800AA2
:1001E800E459D8A0FAEF00F0FCEF00F0A0EF00F01F
:1001F800EAC035F0EBC036F0F25199EC0BF0E2C0F2
:1002080008F0E3C009F0EF0E0A6E7F0E0B6E32ECB9
:1002180009F008C0F9F009C0FAF00001FABF17EFB9
:1002280001F019EF01F012EF02F0E2C008F0E3C0AC
:1002380009F0FA0E0A6E7F0E0B6E32EC09F008C058
:10024800E8F009C0E9F0000E0001EF6F000EEE6F54
:10025800F46BF56BF9C0F0F0FAC0F1F081EF01F042
:10026800F051E225D96EF151E321DA6EDF50F76FD4
:100278002C0EF719D8A443EF01F045EF01F046EF33
:1002880001F0F52B2F0EF7654CEF01F04EEF01F062
:100298007FEF01F03A0EF76154EF01F056EF01F0ED
:1002A8007FEF01F0F551D8A45CEF01F05EEF01F0AB
:1002B80064EF01F0F4510A0DF350F725D00FF46FF5
:1002C800F505D8A46AEF01F06CEF01F07FEF01F0BB
:1002D8000A0EEE03F3CFE4F0F4CFE5F0EF03F350AA
:1002E800E527F751E427000EE523D00EE425EE6F4D
:1002F800FF0EE521EF6FF04BF12BE851F05DF15166
:10030800800AE46FE951800AE459D8A08EEF01F021
:1003180090EF01F034EF01F0F86BEE51EF11D8A433
:1003280098EF01F09AEF01F09EEF01F0010EF86FDF
:10033800E7EF01F0F86BE7EF01F0F8B102D08A9A25
:1003480001D08A8A12EF02F0F8B102D08A9801D05F
:100358008A8812EF02F0F8B102D08A9601D08A8614
:1003680012EF02F0F8B102D08A9401D08A8412EF19
:1003780002F0F8B102D08A9201D08A8212EF02F01C
:10038800F8B102D08A9001D08A8012EF02F0F8B159
:1003980002D08C9E01D08C8E12EF02F0F8B102D000
:1003A8008C9C01D08C8C12EF02F0F8B102D08C9AA0
:1003B80001D08C8A12EF02F0F8B102D08C9801D0EB
:1003C8008C8812EF02F0F451000AD8B4A1EF01F0C2
:1003D800010AD8B4A8EF01F0030AD8B4AFEF01F0CE
:1003E800010AD8B4B6EF01F0070AD8B4BDEF01F09E
:1003F800010AD8B4C4EF01F0030AD8B4CBEF01F076
:10040800010AD8B4D2EF01F00F0AD8B4D9EF01F03D
:10041800010AD8B4E0EF01F012EF02F0E2C008F0F0
:10042800E3C009F0E30E0A6E7F0E0B6E32EC09F0A2
:1004380008C0F9F009C0FAF00001FABF26EF02F08F
:1004480028EF02F02AEF02F06FEC07F0E2C008F0A4
:10045800E3C009F0BA0E0A6E7F0E0B6E32EC09F09B
:1004680008C0F9F009C0FAF00001FABF3EEF02F047
:1004780040EF02F042EF02F0A0EC0CF0E2C008F00E
:10048800E3C009F0DB0E0A6E7F0E0B6E32EC09F04A
:1004980008C0F9F009C0FAF00001FABF56EF02F0FF
:1004A80058EF02F05AEF02F006EC0DF0E2C008F047
:1004B800E3C009F0AE0E0A6E7F0E0B6E32EC09F047
:1004C80008C0F9F009C0FAF00001FABF6EEF02F0B7
:1004D80070EF02F072EF02F082EC12F0E2C008F066
:1004E800E3C009F0A10E0A6E7F0E0B6E32EC09F024
:1004F80008C0F9F009C0FAF00001FABF86EF02F06F
:1005080088EF02F08AEF02F003EC10F0E2C008F086
:10051800E3C009F0930E0A6E7F0E0B6E32EC09F001
:1005280008C0F9F009C0FAF00001FABF9EEF02F026
:10053800A0EF02F0A2EF02F03EEC13F0E2C008F0E8
:10054800E3C009F0670E0A6E7F0E0B6E32EC09F0FD
:1005580008C0F9F009C0FAF00001FABFB6EF02F0DE
:10056800B8EF02F0BAEF02F046EC13F0E2C008F080
:10057800E3C009F0850E0A6E7F0E0B6E32EC09F0AF
:1005880008C0F9F009C0FAF00001FABFCEEF02F096
:10059800D0EF02F0D2EF02F02EEC13F0E2C008F038
:1005A800E3C009F0580E0A6E7F0E0B6E32EC09F0AC
:1005B80008C0F9F009C0FAF00001FABFE6EF02F04E
:1005C800E8EF02F0EAEF02F036EC13F0E2C008F0D0
:1005D800E3C009F0C60E0A6E7F0E0B6E32EC09F00E
:1005E80008C0F9F009C0FAF00001FABFFEEF02F006
:1005F80000EF03F002EF03F056EC13F0E2C008F04E
:10060800E3C009F0D10E0A6E7F0E0B6E32EC09F0D2
:1006180008C0F9F009C0FAF00001FABF16EF03F0BC
:1006280018EF03F01AEF03F0010EC46F1200155013
:10063800800B1E6E15501524246E14AE26EF03F0A1
:1006480028EF03F029EF03F024802450D8B42FEFCB
:1006580003F031EF03F044EF03F02428D8A437EF78
:1006680003F039EF03F041EF03F0000E126E000EB5
:10067800136E000E146E000E156E148E4CEF03F000
:10068800000E126E000E136E000E146E000E156E24
:100698001950800B1E1A19501924236E18AE57EFE3
:1006A80003F059EF03F05AEF03F023802350D8B436
:1006B80060EF03F062EF03F075EF03F02328D8A48E
:1006C80068EF03F06AEF03F072EF03F0000E166EA6
:1006D800000E176E000E186E000E196E188E7DEF44
:1006E80003F0000E166E000E176E000E186E000E48
:1006F800196E2350D8B483EF03F085EF03F08DEF24
:1007080003F02450D8A48BEF03F08DEF03F097EF9C
:1007180003F0000E126E000E136E000E146E000E23
:10072800156E2DEF05F018501202F3CF29F0F4CF13
:100738002AF029501F6E206A216A226A2A50256EE3
:10074800266A276A286A17501302F3CF29F0F4CFD4
:100758002AF029501F26000E2022212222222A5068
:100768002526000E26222722282216501402F3CF0F
:1007780029F0F4CF2AF029501F26000E202221222A
:1007880022222A502526000E26222722282221C08E
:1007980022F020C021F01FC020F01F6A165013025B
:1007A800F3CF29F0F4CF2AF029501F262A5020220F
:1007B800000E2122000E222217501202F3CF29F038
:1007C800F4CF2AF029501F262A502022000E212279
:1007D800000E222221C022F020C021F01FC020F0EC
:1007E8001F6A16501202F3CF29F0F4CF2AF02950CD
:1007F8001F262A502022000E2122000E22221850E5
:100808001302F3CF29F0F4CF2AF0295025262A50D5
:100818002622000E2722000E282217501402F3CF9A
:1008280029F0F4CF2AF0295025262A502622000E36
:100838002722000E282218501402F3CF29F0F4CFF3
:100848002AF029501A6E2A501B6E1C6A1D6A1CC099
:100858001DF01BC01CF01AC01BF01A6A1A5025267E
:100868001B5026221C5027221D5028221FC01AF078
:1008780020C01BF021C01CF022C01DF0190E4AEF49
:1008880004F0D8901D321C321B321A32E82E45EF84
:1008980004F01A5025261B5026221C5027221D50D2
:1008A800282221C022F020C021F01FC020F01F6A9A
:1008B800235024C01AF01B6A1A26000E1B22820E2F
:1008C8001A24296EFF0E1B202A6E80EF04F0D890A0
:1008D800253626362736283622AE75EF04F077EF10
:1008E80004F078EF04F02580D8901F3620362136A2
:1008F80022362906D8A02A0627AE85EF04F087EF0E
:1009080004F06BEF04F0236A22AE8DEF04F08FEF52
:1009180004F0B3EF04F0FF0E1F141A6EFF0E20143C
:100928001B6EFF0E21141C6E7F0E22141D6E1A50B2
:100938001B101C101D10D8B4A4EF04F0A6EF04F08F
:10094800AAEF04F0010E236EB3EF04F025A0AFEF79
:1009580004F0B1EF04F0B3EF04F0A6EF04F0235075
:10096800D8B4B9EF04F0BBEF04F0DFEF04F0010EE8
:100978002526000E26222722282228A0C6EF04F0CA
:10098800C8EF04F0DFEF04F025C01AF026C01BF012
:1009980027C01CF028C01DF01D341D321C321B322C
:1009A8001A321AC025F01BC026F01CC027F01DC043
:1009B80028F0294A2A2A2ABEEAEF04F02A5008E138
:1009C8002928D8A0EAEF04F0ECEF04F0F6EF04F0E1
:1009D800000E256E000E266E800E276E7F0E286E86
:1009E80023EF05F02ABE03EF05F02A5006E129049B
:1009F800D8B001EF05F003EF05F00EEF05F0000E9B
:100A0800256E000E266E000E276E000E286E1E6ADA
:100A180023EF05F029C024F0FF0E2516FF0E261639
:100A28007F0E2716000E281624A01DEF05F01FEFD5
:100A380005F020EF05F0278ED8902430286E1E5040
:100A4800281225C012F026C013F027C014F028C0C1
:100A580015F01200200E125C3F0E1358D8A037EF85
:100A680005F039EF05F03FEF05F0D80E136EFA0EDA
:100A7800126E7DEF06F0410E125C010E1358D8B0CD
:100A880048EF05F04AEF05F050EF05F0270E136E1A
:100A9800060E126E7DEF06F0B50EF66E7D0EF76E41
:100AA80012500900F55C13500900F558D8B05FEFF3
:100AB80005F061EF05F067EF05F0D90E136E040E2F
:100AC800126E7DEF06F0050EF66E7E0EF76E0900CB
:100AD800F550125C0900F5501358D8B076EF05F0C0
:100AE80078EF05F07EEF05F0260E136EFC0E126E01
:100AF8007DEF06F0010E2C6E83EF05F02C2A2C50AA
:100B0800020DB50EF324F66E7D0EF420F76E090083
:100B1800F550125C0900F5501358D8A096EF05F06F
:100B280098EF05F082EF05F02C50146E156AD890F6
:100B380014361536FE0E1424166EFF0E1520176E89
:100B4800070E1624F66E7E0E1720F76E0900F5CFF5
:100B580018F00900F5CF19F02C50020D070EF324F8
:100B6800F66E7E0EF420F76E18500900F55C1A6ECA
:100B780019500900F5581B6E1AC01CF01BC01DF057
:100B8800000E1DBEFF0E1E6E1F6E2C50020DB50E00
:100B9800F324F66E7D0EF420F76E0900F5CF14F0FD
:100BA8000900F5CF15F02C50166E176AD890163636
:100BB8001736FE0E1624186EFF0E1720196EB50E86
:100BC8001824F66E7D0E1920F76E0900F5CF1AF07D
:100BD8000900F5CF1BF014501A5C286E15501B58ED
:100BE800296E2A6AD8A02A062A502B6E2C50146E19
:100BF800156AD89014361536FE0E1424166EFF0E9C
:100C08001520176EB50E1624F66E7D0E1720F76E9A
:100C18000900F5CF18F00900F5CF19F01250185C4B
:100C2800046E13501958056E066AD8A006060650B9
:100C3800076E1CC008F01DC009F01EC00AF01FC0D6
:100C48000BF0E3EC10F004C020F005C021F006C062
:100C580022F007C023F0020E086E000E096E000E87
:100C68000A6E000E0B6E28C004F029C005F02AC0D9
:100C780006F02BC007F014EC0BF020500424246E6F
:100C880021500520256E22500620266E235007206D
:100C9800276E2C50146E156AD89014361536FE0E31
:100CA8001424166EFF0E1520176E070E1624F66E06
:100CB8007E0E1720F76E0900F5CF18F00900F5CF62
:100CC80019F024C004F025C005F026C006F027C09E
:100CD80007F028C008F029C009F02AC00AF02BC084
:100CE8000BF014EC0BF018500424126E1950052068
:100CF800136E12000F50D96EDA6ADECFF6FFDDCF21
:100D0800F7FF0800F550250AD8A48DEF06F08FEFFD
:100D180006F05DEF07F00F50D96EDA6ADE2A000E92
:100D2800DD22000E0001A76F000EA66FA6C0C0F05E
:100D3800A869A9690F50D96EDA6ADECF14F0DDCF41
:100D480015F014C0F6FF15C0F7FF0800F550640A47
:100D5800D8B4B1EF06F0B3EF06F0C1EF06F014C057
:100D6800F6FF15C0F7FF0800F550690AD8A4BFEFD1
:100D780006F0C1EF06F055EF07F01050D96EDA6AA9
:100D8800020EDF26DF5CD96EDA6ADECF16F0DECF20
:100D980017F0010E1424116E000E1520126E0F505C
:100DA800D96EDA6A11C0DEFF12C0DDFF200E1A6E9E
:100DB80017BEE1EF06F0E4EF06F0010EE5EF06F0EE
:100DC800000E136E1A06000E1A24D96EDA6A010E86
:100DD800DA2216C004F017C005F0000E076E0A0EDE
:100DE800066E29EC0EF004C00AF005C00BF0F6EC14
:100DF80011F00A50300FDF6E16C004F017C005F06E
:100E0800000E076E0A0E066E6CEC0DF004C016F0AC
:100E180005C017F016501710D8B415EF07F017EFE4
:100E280007F01FEF07F01A50D8A41DEF07F01FEFC7
:100E380007F0E6EF06F01A50D8B425EF07F027EFD1
:100E480007F04AEF07F01350D8B42DEF07F02FEF53
:100E580007F04AEF07F01A06000E1A24D96EDA6A6C
:100E6800010EDA222D0EDF6E4AEF07F0000E1A246B
:100E7800D96EDA6A010EDA22DF50116E1150046E53
:100E8800056A0EC006F0D5EC0EF01A2A200E1A18C4
:100E9800D8A451EF07F053EF07F03AEF07F06EEFE1
:100EA80007F00F50D96EDA6ADE2A000EDD226EEFE7
:100EB80007F00F50D96EDA6ADECFF6FFDDCFF7FF05
:100EC8000800F550046E056A0EC006F0D5EC0EF069
:100ED80055EF07F01200000E8ABA010E456E000E9B
:100EE8008AB8010E466E000E8AB6010E476E000ED5
:100EF8008AB4010E486E000E8AB2010E496E000EC9
:100F08008AB0010E4A6E000E8CBE010E4B6E000EAA
:100F18008CBC010E4C6E000E8CBA010E4D6E000E8C
:100F28008CB8010E4E6E8A8C1A0E446EF80EE82E9E
:100F3800FED7442EFCD700D0850E056E7E0E066EB9
:100F480018EC11F0000E506E000E4F6ECE0E216E92
:100F5800820E226E7F0E236E4F50920FD96EDA6A80
:100F6800DF50446E4450246E256ADAEC11F0CE0E40
:100F7800056E066A18EC11F04F4A502A50BECEEFA3
:100F880007F0505009E10A0E4F5CD8A0CEEF07F0E9
:100F9800D0EF07F0AAEF07F0FC0E056E7F0E066E85
:100FA80018EC11F0CE0E216EBE0E226E7E0E236E50
:100FB80045C024F0256A46C026F0276A47C028F0B5
:100FC800296A48C02AF02B6A49C02CF02D6A4AC009
:100FD8002EF02F6A4BC030F0316A4CC032F0336AC1
:100FE8004DC034F0356A4EC036F0376ADAEC11F08D
:100FF800CE0E056E066A18EC11F0FC0E056E7F0E1B
:10100800066E18EC11F0CE0E216E760E226E7F0E53
:10101800236EBEC024F0BFC025F0000E276E000E60
:10102800266EBAC028F0BBC029F0B8C02AF0B9C0F3
:101038002BF0000E2D6E000E2C6EDAEC11F0CE0E99
:10104800056E066A18EC11F0FC0E056E7F0E066E32
:1010580018EC11F0CE0E216E760E226E7F0E236EE6
:1010680056C024F0256AAAC026F0ABC027F054C0A9
:1010780028F055C029F052C02AF053C02BF0C4C044
:101088002CF02D6ADAEC11F0F70E056E7F0E066E65
:1010980018EC11F01A0E446EF80EE82EFED7442E06
:1010A800FCD700D08A9C12000C6E0C50D8B45FEFAD
:1010B80008F061EF08F083EF08F007BE68EF08F06A
:1010C80066EF08F083EF08F004C008F005C009F0E7
:1010D80006C00AF007C00BF0081E091E0A1E0B1EE8
:1010E800082A000E09220A220B2208C00EF009C0A5
:1010F8000FF00AC010F00BC011F08BEF08F004C01D
:101108000EF005C00FF006C010F007C011F0045033
:10111800051006100710D8A494EF08F096EF08F011
:10112800A0EF08F0000E046E000E056E000E066EAD
:10113800000E076E31EF09F0960E0D6EAAEF08F05B
:101148000D2AD890113210320F320E32000E0E14C2
:10115800086E000E0F14096E000E10140A6EFE0EB3
:1011680011140B6E085009100A100B10D8A4BFEF09
:1011780008F0C1EF08F0A4EF08F0CFEF08F00D2A4F
:10118800010E0E26000E0F2210221122D8901132C5
:1011980010320F320E32000E0E14086E000E0F14AD
:1011A800096E000E10140A6EFF0E11140B6E085013
:1011B80009100A100B10D8A4E4EF08F0E6EF08F0C5
:1011C800C3EF08F0EEEF08F00D06D8900E360F3694
:1011D8001036113610BEF3EF08F0F5EF08F0FDEF0A
:1011E80008F0020E0D60FBEF08F0FDEF08F0E8EFE5
:1011F80008F00DB002EF09F004EF09F005EF09F06F
:10120800109ED8900D320DC008F0096A0A6A0B6A60
:1012180008C00BF00A6A096A086A08500E120950D9
:101228000F120A5010120B5011120C50D8B41FEFA5
:1012380009F021EF09F029EF09F007BE28EF09F0BE
:1012480026EF09F029EF09F0118E0EC004F00FC047
:1012580005F010C006F011C007F0120008C004F035
:1012680009C005F047EC11F004C013F005C014F0F4
:101278000AC004F00BC005F047EC11F004C015F0EB
:1012880005C016F01550135C1450800A0C6E1650E9
:10129800800A0C58D8A053EF09F055EF09F0D8EFA1
:1012A80009F0000E1A6E000E196EC3EF09F01950FE
:1012B8000824D96E1A500920DA6EDF500C6E0AC065
:1012C800F6FF0BC0F7FF0800F5500C18D8A46FEF15
:1012D80009F071EF09F0C1EF09F0000E126E010E6E
:1012E800116E000E186E000E176EA3EF09F017505E
:1012F80008240C6E185009200D6E19500C24D96E54
:101308001A500D20DA6EDF500E6E17500A240F6E39
:1013180018500B20106E0FC0F6FF10C0F7FF080022
:10132800F5500E18D8B49BEF09F09DEF09F0A1EF26
:1013380009F0000E126E000E116E174A182A155089
:10134800175C1850800A0C6E1650800A0C58D8A0EA
:10135800B0EF09F0B2EF09F07BEF09F011041210B9
:10136800D8A4B9EF09F0BBEF09F0C1EF09F019C033
:1013780008F01AC009F0DAEF09F0194A1A2A1550CC
:10138800135C0C6E165014580D6E19500C5C0D50F1
:10139800800A0E6E1A50800A0E58D8B0D6EF09F09F
:1013A800D8EF09F05BEF09F0086809681200000E31
:1013B800166E000E176EC00E186E3F0E196EAAC07C
:1013C80004F0ABC005F0066A076A000E58EC08F096
:1013D80004C012F005C013F006C014F007C015F0E1
:1013E8001BEC03F012C02BF013C02CF014C02DF02E
:1013F80015C02EF01DEC0CF02BC035F02CC036F0CB
:101408008AB009EF0AF00CEF0AF0010E0DEF0AF0AE
:10141800000E99EC0BF0000E166E000E176EC00E43
:10142800186E3F0E196E52C004F053C005F0066ADC
:10143800076A000E58EC08F004C012F005C013F05B
:1014480006C014F007C015F01BEC03F012C02BF017
:1014580013C02CF014C02DF015C02EF01DEC0CF0AC
:101468002BC035F02CC036F08CBE3DEF0AF040EFB3
:101478000AF0010E41EF0AF0000E99EC0BF0000E95
:10148800166E000E176EC00E186E3F0E196E54C001
:1014980004F055C005F0066A076A000E58EC08F01B
:1014A80004C012F005C013F006C014F007C015F010
:1014B8001BEC03F012C02BF013C02CF014C02DF05D
:1014C80015C02EF01DEC0CF02BC035F02CC036F0FA
:1014D8008CBA71EF0AF074EF0AF0010E75EF0AF09A
:1014E800000E99EC0BF01200000E096E000E086E4B
:1014F80008509C0FD96EDA6ADE04D8A486EF0AF089
:1015080088EF0AF003EF0BF00850020DF350600F5C
:10151800D96EDA6ADE2A000EDD220850020DF35079
:10152800740FD96EDA6A0850020DF350600FE16E3D
:10153800E26ADE50E65CDE50E658D8A0A6EF0AF074
:10154800A8EF0AF003EF0BF0C8EF0AF08A8AFEEF63
:101558000AF08A88FEEF0AF08A86FEEF0AF08A848B
:10156800FEEF0AF08A82FEEF0AF08A80FEEF0AF0A8
:101578008C8EFEEF0AF08C8CFEEF0AF08C8AFEEF60
:101588000AF08C88FEEF0AF008C004F009C005F0E4
:101598000550000AD8B4D3EF0AF0FEEF0AF0045061
:1015A800000AD8B4AAEF0AF0010AD8B4ADEF0AF0DD
:1015B800030AD8B4B0EF0AF0010AD8B4B3EF0AF0BE
:1015C800070AD8B4B6EF0AF0010AD8B4B9EF0AF09E
:1015D800030AD8B4BCEF0AF0010AD8B4BFEF0AF086
:1015E8000F0AD8B4C2EF0AF0010AD8B4C5EF0AF05E
:1015F800FEEF0AF008509C0FD96EDA6ADF6A084AD3
:10160800092A09BE11EF0BF0095009E10A0E085C1E
:10161800D8A011EF0BF013EF0BF07CEF0AF01200DB
:101628000D6A0BBE1CEF0BF01AEF0BF026EF0BF058
:101638000B1E0A1E091E086C000E09220A220B2224
:10164800010E0D6E07BE2DEF0BF02BEF0BF037EFF1
:101658000BF0071E061E051E046C000E052206224E
:101668000722010E0D1A000E0E6E000E0F6E000EF0
:10167800106E000E116E085009100A100B10D8B425
:1016880048EF0BF04AEF0BF080EF0BF0010E0C6EF9
:1016980054EF0BF0D890083609360A360B360C2A68
:1016A8000BAE59EF0BF05BEF0BF04EEF0BF0D89051
:1016B8000E360F36103611360850045C095005589E
:1016C8000A5006580B500758D8A06DEF0BF06FEF73
:1016D8000BF078EF0BF00850045E0950055A0A50D9
:1016E800065A0B50075A0E80D8900B320A3209322C
:1016F80008320C2E5BEF0BF00D50D8B486EF0BF0D0
:1017080088EF0BF090EF0BF0111E101E0F1E0E6CE1
:10171800000E0F22102211220EC004F00FC005F097
:1017280010C006F011C007F01200376E35C004F083
:1017380036C005F0000E076E0A0E066E3EEC10F07D
:1017480004C035F005C036F03750D8B4AEEF0BF012
:10175800B0EF0BF01CEF0CF00B0E3760B6EF0BF090
:10176800B8EF0BF01CEF0CF037063750020DF350B2
:10177800600FD96EDA6ADE6ADD6A3750020DF350FF
:10178800740FD96EDA6A35C0DEFF36C0DDFF375018
:101798009C0FD96EDA6A010EDF6EF1EF0BF08A9AB0
:1017A8001CEF0CF08A981CEF0CF08A961CEF0CF0DA
:1017B8008A941CEF0CF08A921CEF0CF08A901CEFB4
:1017C8000CF08C9E1CEF0CF08C9C1CEF0CF08C9A8F
:1017D8001CEF0CF08C981CEF0CF03750000AD8B4B2
:1017E800D3EF0BF0010AD8B4D6EF0BF0030AD8B444
:1017F800D9EF0BF0010AD8B4DCEF0BF0070AD8B424
:10180800DFEF0BF0010AD8B4E2EF0BF0030AD8B40B
:10181800E5EF0BF0010AD8B4E8EF0BF00F0AD8B4E3
:10182800EBEF0BF0010AD8B4EEEF0BF01CEF0CF065
:1018380012002D342E34346E3450D8A426EF0CF018
:1018480028EF0CF032EF0CF0000E2B6E000E2C6E11
:10185800000E2D6E000E2E6E9FEF0CF02BC02FF099
:101868002CC030F02DC031F02EC032F0200E42EFE7
:101878000CF0D8903232313230322F32E82E3DEF30
:101888000CF02F50336E2D8EFF0E2B16FF0E2C16DC
:10189800FF0E2D16000E2E16960E345E34BE59EF2E
:1018A8000CF057EF0CF06FEF0CF03450800A970FE4
:1018B800D8B061EF0CF063EF0CF065EF0CF028EF97
:1018C8000CF0D8902E322D322C322B32343E65EF6C
:1018D8000CF087EF0CF01F0E346475EF0CF077EF07
:1018E8000CF07FEF0CF028EF0CF0D8902B362C364C
:1018F8002D362E3634063450D8A485EF0CF087EFF9
:101908000CF079EF0CF03350D8B48DEF0CF08FEF6A
:101918000CF097EF0CF02E1E2D1E2C1E2B6C000EBB
:101928002C222D222E222BC02BF02CC02CF02DC0C7
:101938002DF02EC02EF0120054C035F055C036F0F0
:101948008CB8A9EF0CF0ACEF0CF0010EADEF0CF079
:10195800000E99EC0BF0000E3A6E000E396EC0EFD7
:101968000CF0060E386E300EE82EFED7382EFCD757
:1019780000D00400394A3A2A5450395C55503A5834
:10198800D8A0C9EF0CF0CBEF0CF0B5EF0CF0000EBF
:10199800166E000E176EC00E186E3F0E196E54C0EC
:1019A80004F055C005F0066A076A000E58EC08F006
:1019B80004C012F005C013F006C014F007C015F0FB
:1019C8001BEC03F012C02BF013C02CF014C02DF048
:1019D80015C02EF01DEC0CF02BC035F02CC036F0E5
:1019E8008CBAF9EF0CF0FCEF0CF0010EFDEF0CF0E7
:1019F800000E99EC0BF0A90E076E7E0E086E94ECA3
:101A080011F0120052C035F053C036F08CBC0FEF05
:101A18000DF012EF0DF0010E13EF0DF0000E99EC22
:101A28000BF0000E3A6E000E396E26EF0DF0060E22
:101A3800386E300EE82EFED7382EFCD700D00400C2
:101A4800394A3A2A5250395C53503A58D8A02FEFA5
:101A58000DF031EF0DF01BEF0DF0000E166E000EBD
:101A6800176EC00E186E3F0E196E52C004F053C0A8
:101A780005F0066A076A000E58EC08F004C012F078
:101A880005C013F006C014F007C015F01BEC03F0F6
:101A980012C02BF013C02CF014C02DF015C02EF07E
:101AA8001DEC0CF02BC035F02CC036F08CBC5FEF71
:101AB8000DF062EF0DF0010E63EF0DF0000E99ECE2
:101AC8000BF0190E076E7F0E086E94EC11F01200E1
:101AD800096A07BE74EF0DF072EF0DF07AEF0DF0A2
:101AE800066C071ED8B0072A010E096E05BE81EFE5
:101AF8000DF07FEF0DF087EF0DF0046C051ED8B0E8
:101B0800052A010E091A000E0B6E000E0A6E065009
:101B18000710D8B492EF0DF094EF0DF0BCEF0DF074
:101B2800010E086E9CEF0DF0D89006360736082A8D
:101B380007AEA1EF0DF0A3EF0DF098EF0DF0D890E0
:101B48000A360B360650045C07500558D8A0AFEF8C
:101B58000DF0B1EF0DF0B6EF0DF00650045E075032
:101B6800055A0A80D89007320632082EA3EF0DF0E6
:101B78000950D8B4C2EF0DF0C4EF0DF0C8EF0DF066
:101B88000A6C0B1ED8B00B2A0AC004F00BC005F073
:101B98001200000E84B0010E0001926F000E84B294
:101BA800010E936F000E84B4010E946F000E82B084
:101BB800010E956F000E82B2010E966F000E82B470
:101BC800010E976F000E83B0010E986F000E83B25E
:101BD800010E996F000E83B4010E9A6F000E83B642
:101BE800010E9B6F000E076E000E066E0650880FE2
:101BF800D96EDA6A0650920FE16EE26ADE50E61894
:101C0800D8B409EF0EF00BEF0EF018EF0EF00650F7
:101C1800920FD96EDA6A0650880FE16EE26ADFCF5A
:101C2800E7FF010E0001CD6F064A072A07BE26EF1F
:101C38000EF0075009E10A0E065CD8A026EF0EF058
:101C480028EF0EF0FAEF0DF01200096A05BE31EF29
:101C58000EF02FEF0EF037EF0EF0046C051ED8B023
:101C6800052A010E096E07BE3EEF0EF03CEF0EF09E
:101C780042EF0EF0066C071ED8B0072A0650071070
:101C8800D8B449EF0EF04BEF0EF06FEF0EF0010EE7
:101C9800086E53EF0EF0D89006360736082A07AEBE
:101CA80058EF0EF05AEF0EF04FEF0EF00650045CAE
:101CB80007500558D8A063EF0EF065EF0EF069EFF6
:101CC8000EF00650045E0750055AD89007320632C7
:101CD800082E5AEF0EF00950D8B475EF0EF077EFD2
:101CE8000EF07BEF0EF0046C051ED8B0052A04C078
:101CF80004F005C005F012000001CB2B050ECB65E2
:101D080088EF0EF08AEF0EF0D4EF0EF05850D8A4FA
:101D180090EF0EF092EF0EF099EF0EF0000E6FECD0
:101D280011F004C0BEF005C0BFF05804D8A49FEF5E
:101D38000EF0A1EF0EF0A8EF0EF0010E6FEC11F00F
:101D480004C0BEF005C0BFF0020E5818D8A4AFEF0B
:101D58000EF0B1EF0EF0B8EF0EF0020EAEEC10F090
:101D68002DC0BAF02EC0BBF0030E5818D8A4BFEF90
:101D78000EF0C1EF0EF0C8EF0EF0030EAEEC10F04F
:101D88002DC0B8F02EC0B9F0582A030E5864CFEF12
:101D98000EF0D1EF0EF0D2EF0EF0586A0001CB6BC7
:101DA80012000650D8B4DBEF0EF0DDEF0EF0E5EFD1
:101DB8000EF00650D8A4E3EF0EF0E5EF0EF0EAEFD0
:101DC8000EF0045063EC13F029EF0FF00650D96EB3
:101DD800DA6A090ED926DE50DE10D8B4F6EF0EF016
:101DE800F8EF0EF011EF0FF00650D96EDA6A090E0F
:101DF800D9260650E16EE26A020EE126DE50E65C64
:101E0800E650800A0B6EDE50800A0B58D8B00FEFF0
:101E18000FF011EF0FF029EF0FF00650D96EDA6AC4
:101E2800020ED926DF50076E0650D96EDA6ADF50E7
:101E38000724D96EDA6A04C0DFFF0650D96EDA6A61
:101E4800020ED926DE2A000EDD2212005750D8A431
:101E580030EF0FF032EF0FF07CEF0FF00001C52BE1
:101E6800C70EC5653AEF0FF03CEF0FF07CEF0FF0AF
:101E7800010EEBEC12F0100AD8A445EF0FF047EF73
:101E88000FF05EEF0FF0000E25EC13F0750E096EE3
:101E9800300E086EDCEC12F0070E096ED00E086EDC
:101EA800CDEC12F0040E096EB00E086EBEEC12F006
:101EB80078EF0FF05DEC13F0566E6CEC12F005C085
:101EC800AAF006C0ABF040EC12F005C054F006C012
:101ED80055F056EC12F005C052F006C053F0100E43
:101EE800056E010E78EC10F0DBEC09F0010E576E70
:101EF8001200FAEC12F098EC12F0ACEC12F01CECB8
:101F080013F006EC13F0D09EF28CF28ECDEC0DF0AF
:101F18005950D8B492EF0FF094EF0FF0AEEF0FF0E6
:101F2800200E0001E26F010EE36F4DEC00F0516AE4
:101F3800200E5124D96EDA6A010EDA22DF6A512A9C
:101F4800950E5164AAEF0FF0ACEF0FF09CEF0FF075
:101F58005A6A596A5B50D8B4B4EF0FF0B6EF0FF075
:101F6800C1EF0FF0CDEC0DF080EC0EF078EC0AF03C
:101F78002AEC0FF0C6EC0FF05B6A04008CEF0FF050
:101F88004BEF00F05704D8A4CCEF0FF0CEEF0FF0D2
:101F980002EF10F00001C12BC70EC165D6EF0FF09C
:101FA800D8EF0FF002EF10F0BBBFE4EF0FF0BB511A
:101FB80009E10B0EBA5DD8A0E4EF0FF0E6EF0FF0E1
:101FC800E7EF0FF08A86BBAFF3EF0FF0F60EBA5DBE
:101FD800FF0EBB59D8B0F3EF0FF0F5EF0FF001EF9C
:101FE80010F05650D8A4FBEF0FF0FDEF0FF000EF04
:101FF80010F08A9601EF10F08A94C16B1200000E5F
:10200800166E000E176EC00E186E3F0E196EAAC01F
:1020180004F0ABC005F0066A076A000E58EC08F039
:1020280004C012F005C013F006C014F007C015F084
:102038001BEC03F012C02BF013C02CF014C02DF0D1
:1020480015C02EF01DEC0CF02BC035F02CC036F06E
:102058008AB031EF10F034EF10F0010E35EF10F0C8
:10206800000E99EC0BF02A0E076E7F0E086E94ECAA
:1020780011F01200000E096E000E086E06500710CF
:10208800D8B449EF10F04BEF10F073EF10F0010ED9
:102098000A6E53EF10F0D890063607360A2A07AEB4
:1020A80058EF10F05AEF10F04FEF10F0D8900836B4
:1020B80009360650045C07500558D8A066EF10F0A2
:1020C80068EF10F06DEF10F00650045E0750055AE7
:1020D8000880D890073206320A2E5AEF10F008C04E
:1020E80004F009C005F01200076E0750EBEC12F07F
:1020F8000518D8A482EF10F084EF10F086EF10F0E6
:10210800ADEF10F007C0A9FF05C0A8FFA69EA69CCA
:10211800A696A684000EF2BE010E066EF29E550E1D
:10212800A76EAA0EA76EA6820650D8B49EEF10F02E
:10213800A0EF10F0A4EF10F0F28EA4EF10F004005E
:10214800A6B2A9EF10F0ABEF10F0A3EF10F0A69431
:10215800A19812002F6E000E316E000E306E346A98
:102168002F506FEC11F004C032F005C033F0322864
:1021780006E13328D8A4C3EF10F0C5EF10F0CBEF79
:1021880010F0D80E2E6EFA0E2D6EE2EF10F03250CF
:10219800302633503122342A0F0E3464D6EF10F033
:1021A800D8EF10F0B4EF10F030C012F031C013F0D7
:1021B8002EEC05F012C02DF013C02EF01200000E08
:1021C8000C6E000E0D6E000E0E6E000E0F6E04A04B
:1021D800F0EF10F0F2EF10F0FAEF10F008500C26C4
:1021E80009500D220A500E220B500F22D8900836A3
:1021F80009360A360B36D8900732063205320432D1
:102208000450051006100710D8A40DEF11F00FEFB9
:1022180011F0EBEF10F00CC004F00DC005F00EC08B
:1022280006F00FC007F012002EEF11F005C0F6FF00
:1022380006C0F7FFF86A070EF76403D00800F550E8
:1022480005D0F6CFE9FFF7CFEAFFEF5011EC13F016
:10225800054A062A05C0F6FF06C0F7FFF86A070E0A
:10226800F76403D00800F55005D0F6CFE9FFF7CFA3
:10227800EAFFEF500009D8A444EF11F046EF11F03F
:102288001AEF11F01200000E076E000E066E52EFE4
:1022980011F00400064A072A044A052A04C0F6FF7A
:1022A80005C0F7FFF86A070EF76403D00800F55079
:1022B80005D0F6CFE9FFF7CFEAFFEF500009D8A421
:1022C80068EF11F06AEF11F04DEF11F006C004F05D
:1022D80007C005F01200086E050E086476EF11F0CD
:1022E80078EF11F07CEF11F00468056893EF11F0B6
:1022F80008C006F006460646C2500618830B0618A4
:10230800C26EC282C2B28BEF11F08DEF11F086EF70
:1023180011F0C450066EC350046E06C005F01200DA
:102328008A8C1A0E096EF80EE82EFED7092EFCD7F5
:1023380000D05E0E056E7E0E066E18EC11F007C01A
:1023480005F008C006F018EC11F0F70E056E7F0EC8
:10235800066E18EC11F01A0E096EF80EE82EFED76C
:10236800092EFCD700D08A9C12001CC01FF01DC08B
:1023780020F0C7EF11F01BC00EF01F0E0F6E1EC02D
:1023880010F07EEC06F01FC0F6FF20C0F7FF080033
:10239800F5500009D8A4D3EF11F0D5EF11F0BFEF35
:1023A80011F0000E1C6E000E1B6E1200240E386E0B
:1023B80021C039F0000E3C6E000E3B6E000E436EDD
:1023C800000E426E390E1B6E22C01CF023C01DF099
:1023D800380E1E6EB9EC11F021503B24D96EDA6A22
:1023E800DF6A12000BBEFBEF11F0FDEF11F003EFF7
:1023F80012F00AC00AF00BC00BF00FEF12F00AC07F
:102408000CF00BC00DF00C1E0D1E0C4A0D2A0CC052
:102418000AF00DC00BF0120001EE00F0B60EEE6AE5
:10242800E806FDE100EE60F0820EEE6AE806FDE1E6
:1024380000EE52F00A0EEE6AE806FDE15C905C924E
:10244800000EF86E00017DEF0FF092809282928468
:102458009286928A96800F015B815B835B855B879E
:102468005B8B5F81C16A950EC06EC26AC2800D0E19
:10247800E82EFED700001200130EEBEC12F0076EE8
:1024880007500A6E0B6A140EEBEC12F0076E0A5036
:10249800086E07500A6E08C00BF00AC005F00BC0A2
:1024A80006F01200150EEBEC12F0076E07500A6EDC
:1024B8000B6A160EEBEC12F0076E0A50086E075006
:1024C8000A6E08C00BF00AC005F00BC006F0120037
:1024D800110EEBEC12F0076E07500A6E0B6A120E23
:1024E800EBEC12F0076E0A50086E07500A6E08C02F
:1024F8000BF00AC005F00BC006F01200AAC035F0B8
:10250800ABC036F08AB28BEF12F08EEF12F0010EEC
:102518008FEF12F0000E99EC0BF03A0E076E7F0E5B
:10252800086E94EC11F012000F015B6B5C6B5D6B35
:102538005E6B5F6B800E936E0F0E966E0F0E956E30
:1025480094688A688D688C688A9C29EC12F012005D
:102558000F015D9D5D9F948C948EB886AC84AC9879
:10256800010EB06EA00EAF6EAB8EAB88AC8A9E9A91
:102578009D8A12000950056E130E78EC10F008C001
:1025880005F0140E78EC10F008C054F009C055F0AE
:1025980012000950056E150E78EC10F008C005F011
:1025A800160E78EC10F008C052F009C053F0120073
:1025B8000950056E110E78EC10F008C005F0120EE7
:1025C80078EC10F008C0AAF009C0ABF01200046E55
:1025D800A6B2F1EF12F0F3EF12F0ECEF12F004C034
:1025E800A9FFA69EA69CA680A8501200700ED31222
:1025F800FC0ED316D3A403EF13F005EF13F0FEEF90
:1026080012F01200CC6A020ECD6E630ECF6EC00EB1
:10261800CE6E9E909D80CD801200046EACA217EF06
:1026280013F019EF13F012EF13F004C0ADFF12000E
:10263800010ED56E3C0ED76EB00ED66EF294F28AAD
:102648001200086E08C005F0100E78EC10F008C0F3
:1026580056F012008A98F70E076E7E0E086E94ECFC
:1026680011F012008A88D30E076E7E0E086E94EC65
:1026780011F012008A9A080E076E7F0E086E94EC0D
:1026880011F012008A8AE50E076E7E0E086E94EC31
:1026980011F01200D59E3C0ED76EB00ED66EF29495
:1026A800D58E1200DBEC09F08A8A8A880001C46B97
:1026B8001200100EEBEC12F0056E0550120012001D
:107DB40000123D333C1E3BCE393E386236233540FB
:107DC400345133583254314630302F112EE92CBC03
:107DD4002B4A2A50291528D626952555241423D60E
:107DE4002197205C1F271EF81CCE1BA81A89197521
:107DF4001865175E165F15E214961280109F0EF236
:107E04000C740B70FEA2FED4FE06FF38FF6AFF88D6
:107E1400FF9CFFB0FFC4FFD8FFECFF000014002854
:107E2400003C005000640078008C00A000B400C83E
:107E340000DC00F000040118012C01400154016829
:107E4400017C019001A401B801C201F40126025889
:107E5400028A02BC0201200039C07B2269223A2234
:107E64004147524F4C4154494E415F473031222CD7
:107E7400227273223A225265737075657374613A83
:107E8400007B2269223A224147524F4C4154494EC9
:107E9400415F473031222C227273223A22535441DB
:107EA4005455533A00494E59454343494F4E5F4C4C
:107EB40049515549444F5F4F4B002564256425645F
:107EC4002564256425642564256425642564005699
:107ED400454E54494C41444F525F4F46465F4F4BC9
:107EE40000455641504F5241444F525F4F46465F02
:107EF4004F4B0056454E54494C41444F525F4F4EF0
:107F04005F4F4B00455641504F5241444F525F4FD3
:107F14004E5F4F4B00494E59454343494F4E5F47CF
:107F240041535F4F4B0044414D5045525F434C4FCA
:107F340053455F4F4B0044414D5045525F4F5045B0
:107F44004E5F4F4B004147524F4C4154494E415FA5
:107F54004730310056454E54494C41444F525F4FCF
:107F6400464600455641504F5241444F525F4F469A
:107F7400460025642C25642C25642C25642C25645A
:107F84000056454E54494C41444F525F4F4E0045B4
:107F94005641504F5241444F525F4F4E0044414D61
:107FA4005045525F434C4F53450044414D50455258
:107FB4005F4F50454E00494E595F4C495155494415
:107FC4004F0053544F505F504C414E540052554E45
:107FD4005F504C414E5400494E595F474153005342
:107FE40054415455530043423031005250280052FA
:0B7FF400542800227D0029002C000012
:020000040030CA
:0E00000001284E1FFFD185FF0FC00FE00F40FB
:00000001FF
