:0400000013EF00F00A
:100008005A82D9CF03F0DACF04F06BEC14F026EC67
:1000180015F004C0DAFF03C0D9FF5A9211002DEF82
:0200280016F0D0
:10100000007B2269223A22474153494649434144E1
:101010004F3031222C227273223A225354415455BC
:10102000533A007B2269223A2247415349464943B9
:1010300041444F3031222C227273223A224F4B2DE1
:101040003E003A2530325830312530325825303282
:1010500058253032580D0A003A25303258303325A1
:10106000303258004D4F445F535441545553004D56
:101070004F445F52454C453A002564227D0A0D00DD
:10108000253034580000C5C008F0C6C009F0770EFE
:101090000A6ED9EC0EF00001D06FD16BD0BFD10732
:1010A000D02906E1D129D8A458EF08F05AEF08F06A
:1010B0005CEF08F0E9EF0AF0566A876B000E856F67
:1010C000000E846F000E836F000E826F866B000E21
:1010D000CB6F000ECA6FD051C525C76FD151C62145
:1010E000C86F010EC725D96E000EC821DA6EDF5019
:1010F000AEEC14F00001C96FC951CC6FCD6BD0516B
:10110000C525C76FD151C621C86F020EC725D96E3C
:10111000000EC821DA6EDF50AEEC14F00001C96F8A
:10112000C951CE6FCF6BCC39F00BCE11566ECCC0FF
:10113000C7F0CDC0C8F0C73BC83BF00EC817C751B9
:101140000F0BC813F00EC717CE51C713CF51C813DA
:10115000C751CA27C851CB23FF0ECA17000ECB17A1
:10116000D051C525C76FD151C621C86F030EC72501
:10117000D96E000EC821DA6EDF50AEEC14F000011B
:10118000C96FC951CC6FCD6BD051C525C76FD15137
:10119000C621C86F040EC725D96E000EC821DA6EAD
:1011A000DF50AEEC14F00001C96FC951CE6FCF6BA8
:1011B000CC39F00BCE11876FCCC0C7F0CDC0C8F0D2
:1011C000C73BC83BF00EC817C7510F0BC813F00E32
:1011D000C717CE51C713CF51C813C751CA27C8511B
:1011E000CB23FF0ECA17000ECB17D051C525C76FF2
:1011F000D151C621C86F050EC725D96E000EC82172
:10120000DA6EDF50AEEC14F00001C96FC951CC6F3B
:10121000CD6BD051C525C76FD151C621C86F060E01
:10122000C725D96E000EC821DA6EDF50AEEC14F07F
:101230000001C96FC951CE6FCF6BCCC0C7F0CDC014
:10124000C8F0C73BC83BF00EC817C7510F0BC813F7
:10125000F00EC717CE51C713CF51C813C751CA27B5
:10126000C851CB23FF0ECA17000ECB17CCC0C7F056
:10127000CDC0C8F0C73BC83BF00EC817C7510F0B15
:10128000C813F00EC717CE51C713CF51C813C7C02C
:10129000C8F0C76BC7C084F0C8C085F0D051C52561
:1012A000C76FD151C621C86F070EC725D96E000E72
:1012B000C821DA6EDF50AEEC14F00001C96FC951DD
:1012C000CC6FCD6BD051C525C76FD151C621C86F2A
:1012D000080EC725D96E000EC821DA6EDF50AEECBD
:1012E00014F00001C96FC951CE6FCF6BCCC0C7F0ED
:1012F000CDC0C8F0C73BC83BF00EC817C7510F0B95
:10130000C813F00EC717CE51C713CF51C813C7511A
:10131000CA27C851CB23FF0ECA17000ECB17CCC06B
:10132000C7F0CDC0C8F0C73BC83BF00EC817C751C7
:101330000F0BC813F00EC717CE51C713CF51C813E8
:10134000C7518413C8518513D051C525C76FD151DA
:10135000C621C86F090EC725D96E000EC821DA6EE6
:10136000DF50AEEC14F00001C96FC951CC6FCD6BEA
:10137000D051C525C76FD151C621C86F0A0EC725E8
:10138000D96E000EC821DA6EDF50AEEC14F0000109
:10139000C96FC951CE6FCF6BCCC0C7F0CDC0C8F0FC
:1013A000C73BC83BF00EC817C7510F0BC813F00E50
:1013B000C717CE51C713CF51C813C751CA27C85139
:1013C000CB23FF0ECA17000ECB17CCC0C7F0CDC081
:1013D000C8F0C73BC83BF00EC817C7510F0BC81366
:1013E000F00EC717CE51C713CF51C813C7C0C8F0EE
:1013F000C76BC7C082F0C8C083F0D051C525C76F86
:10140000D151C621C86F0B0EC725D96E000EC82159
:10141000DA6EDF50AEEC14F00001C96FC951CC6F29
:10142000CD6BD051C525C76FD151C621C86F0C0EE9
:10143000C725D96E000EC821DA6EDF50AEEC14F06D
:101440000001C96FC951CE6FCF6BCCC0C7F0CDC002
:10145000C8F0C73BC83BF00EC817C7510F0BC813E5
:10146000F00EC717CE51C713CF51C813C751CA27A3
:10147000C851CB23FF0ECA17000ECB17CCC0C7F044
:10148000CDC0C8F0C73BC83BF00EC817C7510F0B03
:10149000C813F00EC717CE51C713CF51C813C75189
:1014A0008213C8518313D051C525C76FD151C621AE
:1014B000C86F0D0EC725D96E000EC821DA6EDF5039
:1014C000AEEC14F00001C96FC951CC6FCD6BD05197
:1014D000C525C76FD151C621C86F0E0EC725D96E5D
:1014E000000EC821DA6EDF50AEEC14F00001C96FB7
:1014F000C951CE6FCF6BCC39F00BCE11866FCA516C
:101500000008C76FC751CA6FCB6B5604D8A48BEFC6
:101510000AF08DEF0AF0E9EF0AF08651C76FC86B49
:10152000CA51C71907E1CB51C819D8A49AEF0AF0DC
:101530009CEF0AF0E9EF0AF0D6EF0AF0010E8425DD
:10154000486E000E8521496E82C04AF083C04BF080
:10155000F6EC10F0E9EF0AF0010E8425486E000E5B
:101560008521496E82C04AF083C04BF0D1EC0FF068
:10157000E9EF0AF0010E8425086E000E8521096E40
:1015800082C00AF083C00BF0DAEC13F0E9EF0AF046
:10159000010E8425086E000E8521096E82C00AF0B6
:1015A00083C00BF0EDEC14F0E9EF0AF08751010A6B
:1015B000D8B49EEF0AF0020AD8B4ACEF0AF0060ADB
:1015C000D8B4BAEF0AF0030AD8B4C8EF0AF0E9EFCA
:1015D0000AF0120048C005F049C006F085EC16F08C
:1015E0004D6E48C008F049C009F06F0E0A6ED9EC84
:1015F0000EF0506E516A50BE510651BE02EF0BF014
:1016000004EF0BF022EF0CF0000E546E000E536E40
:1016100050C04EF051C04FF03BEF0BF04E504824FD
:10162000D96E4F504920DA6EDF50526E2F0E526441
:101630001CEF0BF01EEF0BF039EF0BF03A0E52607F
:1016400024EF0BF026EF0BF039EF0BF00A0E5302EC
:10165000F3CF4AF0F4CF4BF05402F3504B265250E4
:101660004A26000E4B22D00E4A24536EFF0E4B200A
:10167000546E4E4A4F2A4D504A6E4B6A4A504E5C49
:101680004F50800A4C6E4B50800A4C58D8A04BEFFC
:101690000BF04DEF0BF00EEF0BF05404D8A053EF0E
:1016A0000BF055EF0BF058EF0BF0000E546E536833
:1016B0008C8A340E4A6EF20EE82EFED74A2EFCD7E4
:1016C000230E086E0850D8A4100E096E91EC15F088
:1016D000B10E326E790E336E53C034F054C035F013
:1016E000A1EC16F0B10E086E096A91EC15F053C02A
:1016F0004AF0010E4A168A504A18FE0B4A188A6EA2
:10170000D89054304B6E53304A6E010E4A164A46FA
:101710008A504A18FD0B4A188A6E53C04AF054C0CA
:101720004BF0D8904B324A32D8904B324A32010EAD
:101730004A164A464A468A504A18FB0B4A188A6E8D
:1017400053C04AF054C04BF0D8904B324A32D89034
:101750004B324A32D8904B324A32010E4A164A4630
:101760004A464A468A504A18F70B4A188A6E53C0AE
:101770004AF054C04BF0040E4C6ED8904B324A32B3
:101780004C2EBDEF0BF0010E4A164A464A464A4619
:101790008C504A18F70B4A188C6E53C04AF054C04C
:1017A0004BF0050E4C6ED8904B324A324C2ED3EF94
:1017B0000BF0010E4A164A464A468C504A18FB0B5B
:1017C0004A188C6E53C04AF054C04BF0060E4C6E53
:1017D000D8904B324A324C2EE8EF0BF0010E4A16ED
:1017E0004A468C504A18FD0B4A188C6E53C04AF07A
:1017F00054C04BF0070E4C6ED8904B324A324C2EF0
:10180000FCEF0BF0010E4A168C504A18FE0B4A18DA
:101810008C6E1A0E4A6EF80EE82EFED74A2EFCD7B2
:1018200000D08C9A53C057F05850D8A41AEF0CF03F
:101830001CEF0CF01EEF0CF01CEC17F0010E586EB4
:1018400000018A6B48C008F049C009F0640E0A6EB6
:10185000D9EC0EF0506E516A50BE510651BE33EFB6
:101860000CF035EF0CF06BEF0CF08C8A1A0E4A6E10
:10187000F80EE82EFED74A2EFCD700D0010E086ED7
:101880000850D8A4100E096E91EC15F0B10E326E0E
:10189000790E336E57C034F0356AA1EC16F0B10EF4
:1018A000086E096A91EC15F01A0E4A6EF80EE82ED1
:1018B000FED74A2EFCD700D08C9A5850D8A463EF9C
:1018C0000CF065EF0CF067EF0CF01CEC17F0010E5C
:1018D000586E00018A6B12002650D96EDA6ADFCF8B
:1018E000F6FF100EF76E0800F550250AD8A47BEF1E
:1018F0000CF07DEF0CF03FEF0DF02650D96EDA6A58
:10190000DF2A000E00017F6F000E7E6F7EC055F053
:1019100080698169286AA7EF0CF055822650D96E3C
:10192000DA6ADF2AA7EF0CF0010E286EA7EF0CF0A1
:101930002650D96EDA6ADFCFF6FF100EF76E080078
:10194000F550300AD8B48DEF0CF094EF0CF028501D
:10195000D8B4ADEF0CF0AFEF0CF098EF0CF026C060
:1019600005F027C006F0FEEC11F005C07EF006C0C1
:101970007FF000017FBFC1EF0CF0BFEF0CF0C6EFAE
:101980000CF055807E6D7F1FD8B07F2B2650D96E0E
:10199000DA6ADF502D6E2DC0F6FF100EF76E0800CC
:1019A000F550640AD8B4D7EF0CF0D9EF0CF0E7EF9C
:1019B0000CF02DC0F6FF100EF76E0800F550690A06
:1019C000D8A4E5EF0CF0E7EF0CF002EF0DF0275094
:1019D000D96EDA6A020EDF26DF5CD96EDA6ADECFF4
:1019E00029F0DECF2AF02650D96EDA6A2D28DF6E74
:1019F00025C019F029C01AF02AC01BF027EC0EF000
:101A000050EF0DF02DC0F6FF100EF76E0800F550E8
:101A1000580AD8A40EEF0DF010EF0DF039EF0DF0CD
:101A20002750D96EDA6A020EDF26DF5CD96EDA6AD9
:101A3000DECF29F0DECF2AF02650D96EDA6A2D28C3
:101A4000DF6E2DEF0DF025C019F029C01AF02AC065
:101A50001BF056EC0FF050EF0DF02DC0F6FF100EFE
:101A6000F76E0800F550580AD8B423EF0DF039EF9F
:101A70000DF02650D96EDA6ADF2A50EF0DF02650AD
:101A8000D96EDA6ADFCFF6FF100EF76E0800F55058
:101A9000056E066A25C007F0A9EC11F039EF0DF0CC
:101AA0001200130E00018A6558EF0DF05AEF0DF089
:101AB00067EF0DF05804D8A460EF0DF062EF0DF061
:101AC00064EF0DF024EC17F0576A00018A6B58049C
:101AD000D8A46DEF0DF06FEF0DF0FDEF0DF0895113
:101AE000595CD8A076EF0DF078EF0DF0FDEF0DF01A
:101AF0008851D8A47EEF0DF080EF0DF0BCEF0DF013
:101B000057C005F0010E0516053A8B500518EF0B6E
:101B100005188B6E57C005F0D8900532010E0516DA
:101B20000546054605468B500518F70B05188B6EC4
:101B300057C005F0D8900532D8900532010E051631
:101B4000054605468B500518FB0B05188B6E57C0D4
:101B500005F0D8900532D8900532D8900532010EA4
:101B6000051605468B500518FD0B05188B6E8B90DE
:101B7000010E886FFCEF0DF057C005F0053A0F0E0F
:101B80000516010E0516053A8B500518EF0B0518C2
:101B90008B6E57C005F0050E066ED8900532062EE6
:101BA000CDEF0DF0010E05160546054605468B5096
:101BB0000518F70B05188B6E57C005F0060E066E5C
:101BC000D8900532062EE0EF0DF0010E0516054601
:101BD00005468B500518FB0B05188B6E056A57AE32
:101BE00001D0052A010E051605468B500518FD0B80
:101BF00005188B6E8B80886B596A5850D8A403EFF8
:101C00000EF005EF0EF026EF0EF08951595CD8A0CA
:101C10000CEF0EF00EEF0EF026EF0EF08851D8A468
:101C200014EF0EF016EF0EF01FEF0EF08B808B828C
:101C30008B848B868B88010E886F25EF0EF08B903E
:101C40008B928B948B968B98886B596A1200010E3D
:101C50001E6E1BBE2EEF0EF031EF0EF0010E32EFB6
:101C60000EF0000E216E7EC01FF07FC020F02150CC
:101C7000D8B43DEF0EF03FEF0EF056EF0EF01F061A
:101C8000D8A020062150D8A448EF0EF04AEF0EF05D
:101C900050EF0EF0000E1D6E2B0E1C6E54EF0EF06A
:101CA000000E1D6E2D0E1C6E1CC021F0000E236E4A
:101CB0001F0E226E0001B06B8AEF0EF02206D8A034
:101CC00023062250910FD96EDA6A1AC005F01BC0A4
:101CD00006F0000E086E0A0E076E52EC11F005C0F9
:101CE0000BF006C00CF0BBEC16F00B50300FDF6EA3
:101CF0001E6A1F06D8A020061AC005F01BC006F0F9
:101D0000000E086E0A0E076E37EC10F005C01AF0D0
:101D100006C01BF023BE95EF0EF0235008E122040D
:101D2000D8A095EF0EF097EF0EF0BCEF0EF01A5022
:101D30001B10D8A49EEF0EF0A0EF0EF05EEF0EF099
:101D40001E50D8A4A6EF0EF0A8EF0EF05EEF0EF036
:101D500020BEB3EF0EF0205008E11F04D8A0B3EF6F
:101D60000EF0B5EF0EF0BCEF0EF055B2BAEF0EF07C
:101D7000BCEF0EF05EEF0EF02150D8B4C2EF0EF0C3
:101D8000C4EF0EF0CDEF0EF02206D8A023062250AD
:101D9000910FD96EDA6A21C0DFFF19C012F022500C
:101DA000910F136E1FC014F020C015F026EC14F034
:101DB0001200126A08C005F009C006F085EC16F0A2
:101DC0000F6EE4EF0EF0122A0A5012240B6E0BC0B5
:101DD000F6FF100EF76E0800F5500009D8A4F3EFD7
:101DE0000EF0F5EF0EF0E3EF0EF01250D8B4FBEF6B
:101DF0000EF0FDEF0EF006EF0FF012500F5CD8B0B2
:101E000004EF0FF006EF0FF009EF0FF0FF0E55EFA4
:101E10000FF0106A47EF0FF0116A31EF0FF010501A
:101E200008240B6E000E09200C6E11500B24D96E85
:101E3000000E0C20DA6EDF500D6E0A5011240E6E6B
:101E40000EC0F6FF100EF76E0800F5500D18D8B44E
:101E50002CEF0FF02EEF0FF030EF0FF03AEF0FF006
:101E6000112A1250115CD8A038EF0FF03AEF0FF0A2
:101E70000FEF0FF012501118D8A441EF0FF043EFFD
:101E80000FF046EF0FF0105055EF0FF0102A1250E0
:101E90000F5C0B6E10500B5CD8B051EF0FF053EF8E
:101EA0000FF00CEF0FF006EF0FF01200010E1F6E97
:101EB0007EC020F07FC021F0000E246E1F0E236E26
:101EC0000001B06B92EF0FF02306D8A024061A5041
:101ED0000F0B226E0A0E226070EF0FF072EF0FF000
:101EE00076EF0FF0300E222678EF0FF0370E222615
:101EF0002350910FD96EDA6A22C0DFFF1F6A2006D5
:101F0000D8A021061AC01CF01BC01DF0040E1E6EC6
:101F1000D8901D321C321E2E88EF0FF01CC01AF014
:101F20001DC01BF024BE9EEF0FF0245009E1020EED
:101F3000235CD8A09EEF0FF0A0EF0FF0C5EF0FF0DD
:101F40001A501B10D8A4A7EF0FF0A9EF0FF064EF01
:101F50000FF01F50D8A4AFEF0FF0B1EF0FF064EF08
:101F60000FF021BEBCEF0FF0215008E12004D8A0F3
:101F7000BCEF0FF0BEEF0FF0C5EF0FF055B2C3EF9F
:101F80000FF0C5EF0FF064EF0FF019C012F02350FF
:101F9000910F136E20C014F021C015F026EC14F040
:101FA00012004A504A24516E546A56505426030E69
:101FB0005426515054261A0E4C6EF80EE82EFED7B9
:101FC0004C2EFCD700D0B10E326E580E336E56C078
:101FD00034F0356A51C036F0376AA1EC16F0B10E14
:101FE000086ED5EC16F0000E506E000E4F6E1DEF11
:101FF00010F04F504824056E50504920066E69EC91
:1020000016F005C052F006C053F053504D6E52C04A
:102010004EF04D5054264E505426B10E326E800E66
:10202000336E52C034F053C035F0A1EC16F0B10E4F
:10203000086ED5EC16F04F4A502A4A504F5C4B5070
:102040005058D8A026EF10F028EF10F0F9EF0FF05D
:10205000546CB10E326E510E336E54C034F0356A8A
:10206000A1EC16F0B10E086ED5EC16F012000A6A5B
:1020700008BE3FEF10F03DEF10F045EF10F0076C99
:10208000081ED8B0082A010E0A6E06BE4CEF10F0EA
:102090004AEF10F052EF10F0056C061ED8B0062A79
:1020A000010E0A1A000E0C6E000E0B6E075008107F
:1020B000D8B45DEF10F05FEF10F087EF10F0010E75
:1020C000096E67EF10F0D89007360836092A08AE77
:1020D0006CEF10F06EEF10F063EF10F0D8900B364D
:1020E0000C360750055C08500658D8A07AEF10F05F
:1020F0007CEF10F081EF10F00750055E0850065A93
:102100000B80D89008320732092E6EEF10F00A507B
:10211000D8B48DEF10F08FEF10F093EF10F00B6C40
:102120000C1ED8B00C2A0BC005F00CC006F0120033
:1021300000018F05D8A49FEF10F0A1EF10F0C7EFBA
:1021400010F0000E486E010E496EEAEC0AF0000E27
:102150000001D36F000ED26F000ED225D96E010E92
:10216000D321DA6EDF6A04000001D24BD32BD3BF38
:10217000C3EF10F0D35109E1640ED25DD8A0C3EFD4
:1021800010F0C5EF10F0ACEF10F0906B8F6B8D0579
:10219000D8A4CDEF10F0CFEF10F0F5EF10F0000E57
:1021A000C56F020EC66F43EC08F0000E0001D56F3C
:1021B000000ED46F000ED425D96E020ED521DA6E32
:1021C000DF6A04000001D44BD52BD5BFF1EF10F02E
:1021D000D55109E1C80ED45DD8A0F1EF10F0F3EFAE
:1021E00010F0DAEF10F08E6B8D6B1200506A000E5B
:1021F000526E000E516E16EF11F051504824056ECC
:1022000052504920066EEAEC16F04E6E51C04CF06A
:102210004EC04DF04C2A0FEF11F0D8904D364C2E99
:102220000DEF11F04D505012514A522A4A50515C54
:102230004B505258D8A01FEF11F021EF11F0FDEFD5
:1022400010F0070E4A244C6E000E4B204D6ED890B5
:102250004D324C32D8904D324C32D8904D324C32B7
:102260004C504F6E536A56505326532A4F505326A4
:1022700050505326536CB10E326E420E336E56C020
:1022800034F0356A4FC036F0376A50C038F0396ADA
:1022900053C03AF03B6AA1EC16F0B10E086ED5ECD3
:1022A00016F012000A6A06BE5AEF11F058EF11F04C
:1022B00060EF11F0056C061ED8B0062A010E0A6EFA
:1022C00008BE67EF11F065EF11F06BEF11F0076CCE
:1022D000081ED8B0082A07500810D8B472EF11F0C1
:1022E00074EF11F098EF11F0010E096E7CEF11F010
:1022F000D89007360836092A08AE81EF11F083EF2F
:1023000011F078EF11F00750055C08500658D8A07E
:102310008CEF11F08EEF11F092EF11F00750055E87
:102320000850065AD89008320732092E83EF11F070
:102330000A50D8B49EEF11F0A0EF11F0A4EF11F005
:10234000056C061ED8B0062A05C005F006C006F0CA
:1023500012000750D8B4AFEF11F0B1EF11F0B9EFA0
:1023600011F00750D8A4B7EF11F0B9EF11F0BEEF9C
:1023700011F005502BEC17F0FDEF11F00750D96E5E
:10238000DA6A090ED926DE50DE10D8B4CAEF11F091
:10239000CCEF11F0E5EF11F00750D96EDA6A090EB3
:1023A000D9260750E16EE26A020EE126DE50E65CB5
:1023B000E650800A0C6EDE50800A0C58D8B0E3EF6D
:1023C00011F0E5EF11F0FDEF11F00750D96EDA6A68
:1023D000020ED926DF50086E0750D96EDA6ADF5038
:1023E0000824D96EDA6A05C0DFFF0750D96EDA6AB1
:1023F000020ED926DE2A000EDD221200000E0B6E20
:10240000000E0A6E0550D96EDA6ADFCFF6FF100EA5
:10241000F76E0800F5502A0AD8A411EF12F013EF56
:1024200012F038EF12F00550D96EDA6ADF2A065042
:10243000D96EDA6A020EDF26DF5CD96EDA6ADECF89
:102440000AF0DECF0BF04BEF12F00A0E0A02F3CFC8
:1024500007F0F4CF08F00B02F350082609500724C8
:102460000A6E000E08200B6E0550D96EDA6ADF2A5C
:102470000550D96EDA6ADFCFF6FF100EF76E08004E
:10248000F550D00F096E090E096449EF12F04BEFB9
:1024900012F025EF12F00AC005F00BC006F0120092
:1024A000000E0D6E000E0E6E000E0F6E000E106E02
:1024B00009500A100B100C10D8B461EF12F063EF42
:1024C00012F099EF12F0010E116E6DEF12F0D8902C
:1024D00009360A360B360C36112A0CAE72EF12F0A2
:1024E00074EF12F067EF12F0D8900D360E360F36FB
:1024F00010360950055C0A5006580B5007580C500E
:102500000858D8A086EF12F088EF12F091EF12F081
:102510000950055E0A50065A0B50075A0C50085ACB
:102520000D80D8900C320B320A320932112E74EF22
:1025300012F00DC005F00EC006F00FC007F010C07D
:1025400008F01200056E000E076E000E066EAAEF70
:1025500012F00400A4B8AFEF12F0B1EF12F0BCEF2C
:1025600012F0064A072A06500710D8A4BAEF12F054
:10257000BCEF12F0A9EF12F005C073FF000E076E5A
:10258000000E066EC5EF12F00400A4B8CAEF12F0F8
:10259000CCEF12F0D7EF12F0064A072A06500710C8
:1025A000D8A4D5EF12F0D7EF12F0C4EF12F0000E5E
:1025B000076E000E066EDEEF12F0040072B2E3EF5B
:1025C00012F0E5EF12F0F0EF12F0064A072A06507B
:1025D0000710D8A4EEEF12F0F0EF12F0DDEF12F0DA
:1025E0001200056E000E076E000E066EF9EF12F077
:1025F00004009EB8FEEF12F000EF13F00BEF13F0A3
:10260000064A072A06500710D8A409EF13F00BEF6B
:1026100013F0F8EF12F005C0ADFF000E076E000ECC
:10262000066E14EF13F004009EB819EF13F01BEFC1
:1026300013F026EF13F0064A072A06500710D8A415
:1026400024EF13F026EF13F013EF13F0000E076ED4
:10265000000E066E2DEF13F00400ACB232EF13F053
:1026600034EF13F03FEF13F0064A072A0650071025
:10267000D8A43DEF13F03FEF13F02CEF13F012004E
:102680001250131014101510D8A449EF13F04BEF8B
:1026900013F04DEF13F08CEF13F012C016F013C0CF
:1026A00017F014C018F015C019F0D890193218326C
:1026B00017321632000E1624056E090E1720066E0C
:1026C0003D0E1820076E000E1920086E12C009F08A
:1026D00013C00AF014C00BF015C00CF050EC12F04F
:1026E000FF0E05241A6EFF0E06201B6E0F013B9D88
:1026F0003B9F959C958E716A726A706A708672842F
:102700001B50766E1AC075FF7298729C719C718E08
:10271000728A7188A38AA49A12001250131014109E
:102720001510D8A496EF13F098EF13F09AEF13F06A
:10273000D9EF13F012C016F013C017F014C018F040
:1027400015C019F0D8901932183217321632000E0F
:102750001624056E090E1720066E3D0E1820076E12
:10276000000E1920086E12C009F013C00AF014C040
:102770000BF015C00CF050EC12F0FF0E05241A6E91
:10278000FF0E06201B6E0F013A9D3A9F949C948E7B
:10279000AB6AAC6AB86AB886AC841B50B06E1AC01B
:1027A000AFFFAC98AC9CAB9CAB8EAC8AAB889D8ADF
:1027B0009E9A1200095007E10C0E085CD8B0E3EFB6
:1027C00013F0E5EF13F002EF14F00B280A10D8A471
:1027D000ECEF13F0EEEF13F0F4EF13F00850600F8E
:1027E000D96EDA6A010EDF6E0A500B10D8A4FBEF27
:1027F00013F0FDEF13F002EF14F00850600FD96EE4
:10280000DA6ADF6A000E0D6E000E0C6E000E0C24EC
:10281000D96E020E0D20DA6EDF50A2EC12F00C4AD7
:102820000D2A0DBE1DEF14F00D5009E10F0E0C5CCA
:10283000D8A01DEF14F01FEF14F006EF14F00D0EEA
:10284000A2EC12F00A0EA2EC12F0120055A02BEF2F
:1028500014F02DEF14F033EF14F013C00DF012C08C
:102860000EF04BEC16F015BE3AEF14F038EF14F002
:102870003EEF14F0000E156E000E146E000E186E72
:10288000000E176E4EEF14F0000E066E200E056E51
:1028900012C007F0A9EC11F0174A182A1450175C5F
:1028A0001850800A166E1550800A1658D8A05BEF93
:1028B00014F05DEF14F044EF14F055B062EF14F033
:1028C00064EF14F06AEF14F013C00DF012C00EF0B4
:1028D0004BEC16F012009EAA70EF14F072EF14F099
:1028E0008CEF14F0AECF01F0640E000190617BEF2D
:1028F00014F07DEF14F086EF14F0000E9025D96EE1
:10290000DA6A010EDA2201C0DFFF902BD58ECF0EDE
:10291000D76E2C0ED66E9E9AA4AA91EF14F093EF68
:1029200014F0ADEF14F074CF02F0C80E00018E6108
:102930009CEF14F09EEF14F0A7EF14F0000E8E251C
:10294000D96EDA6A020EDA2202C0DFFF8E2BCD804A
:102950009E0ECF6E580ECE6EA49A1200056E2F0EEC
:102960000564B5EF14F0B7EF14F0C3EF14F03A0EAE
:102970000560BDEF14F0BFEF14F0C3EF14F0055085
:10298000D00FECEF14F0400E0564C9EF14F0CBEF5C
:1029900014F0D7EF14F0470E0560D1EF14F0D3EF29
:1029A00014F0D7EF14F00550C90FECEF14F0600EDF
:1029B0000564DDEF14F0DFEF14F0EBEF14F0670EB9
:1029C0000560E5EF14F0E7EF14F0EBEF14F00550BD
:1029D000A90FECEF14F0000E1200095007E1090EE8
:1029E000085CD8B0F6EF14F0F8EF14F002EF15F031
:1029F0000850020DF3506C0FD96EDA6A0AC0DEFF80
:102A00000BC0DDFF000E0D6E000E0C6E000E0C24D0
:102A1000D96E020E0D20DA6EDF50A2EC12F00C4AD5
:102A20000D2A0DBE1DEF15F00D5009E10F0E0C5CC7
:102A3000D8A01DEF15F01FEF15F006EF15F00D0EE5
:102A4000A2EC12F00A0EA2EC12F01200F2A42BEF8C
:102A500015F02DEF15F032EF15F0010E00018F6F1C
:102A6000D59EF2949EA037EF15F039EF15F03EEFAA
:102A700015F0010E00018D6FCD909E909EA243EF48
:102A800015F045EF15F05DEF15F000018B2B090EE9
:102A90008B654DEF15F04FEF15F051EF15F0592AFA
:102AA0008B6B8C2B630E8C6558EF15F05AEF15F07D
:102AB0005CEF15F08A2B8C6B9E9212008D6A8C6AEB
:102AC000896A8A6A8B6A966892689368946895683E
:102AD0000F013B6B3A6B396B3C6B386B616AF18E63
:102AE000546B556B566B93909392939493969590E9
:102AF0009592959495968A808A928A848A968C86F5
:102B00008C948C828C9094909492949494969498B3
:102B10008B908B928B948B968B983885959A8C9A08
:102B20001200A8EF15F008C0F6FF09C0F7FF000E6D
:102B3000F86E0F0EF76403D00800F55005D0F6CFFD
:102B4000E1FFF7CFE2FFE750F1EC12F0084A092A63
:102B500008C0F6FF09C0F7FF000EF86E0F0EF7640D
:102B600003D00800F55005D0F6CFE1FFF7CFE2FF24
:102B7000E7500009D8A4BFEF15F0C1EF15F093EFAF
:102B800015F01200EDEC15F05EEC15F009EC17F005
:102B9000FEEC16F013EC17F0800E126E250E136E7D
:102BA000000E146E000E156E8DEC13F0800E126E7A
:102BB000250E136E000E146E000E156E40EC13F011
:102BC000F28CF28E1CEC17F098EC10F051EC0DF03A
:102BD0000400E4EF15F013EF00F0720ED36E040E54
:102BE000D26E9B6A000E066E000E056EF9EF15F0B0
:102BF0000400D3B4FEEF15F000EF16F00DEF16F061
:102C0000054A062A100E055C270E0658D8A00BEFC1
:102C100016F00DEF16F0F8EF15F012002FC031F09E
:102C20001AEF16F02EC025F0310E266E30C027F0B8
:102C30006CEC0CF031C0F6FF100EF76E0800F5508A
:102C40000009D8A426EF16F028EF16F012EF16F0C0
:102C5000000E2F6E000E2E6E120002EE00F0C90E56
:102C6000EE6AE806FDE101EE00F0650EEE6AE806A8
:102C7000FDE100EE60F0650EEE6AE806FDE1596ADE
:102C8000586A576A566A556A5A905A92000EF86EF8
:102C90000001C2EF15F0000E116E000E106E5AEF1B
:102CA00016F00FC005F0066A0EC007F0A9EC11F08F
:102CB000104A112A0D501024D96EDA6ADF500F6EB7
:102CC0000F50D8A466EF16F068EF16F051EF16F02B
:102CD0001200065007E1090E055CD8B072EF16F03D
:102CE00074EF16F080EF16F00550020DF3506C0FE4
:102CF000D96EDA6ADECF05F0DDCF06F084EF16F08C
:102D0000000E066E000E056E1200076A89EF16F0BF
:102D1000072AC80E07608FEF16F091EF16F09FEFAD
:102D200016F005C0D9FF06C0DAFF054A062ADF50B3
:102D3000D8A49DEF16F09FEF16F088EF16F007501D
:102D40001200340E3C6E32C03DF0000E406E000E9C
:102D50003F6E000E476E000E466E3D0E2E6E33C067
:102D60002FF03C0E306E0EEC16F032503F24D96E30
:102D7000DA6ADF6A12000CBEC0EF16F0C2EF16F07E
:102D8000C8EF16F00BC00BF00CC00CF0D4EF16F02F
:102D90000BC00DF00CC00EF00D1E0E1E0D4A0E2ABB
:102DA0000DC00BF00EC00CF01200DEEF16F0085054
:102DB000D96EDA6ADF50A2EC12F0082A0850D96EF8
:102DC000DA6ADF50D8A4E7EF16F0E9EF16F0D7EF94
:102DD00016F01200065007E10C0E055CD8B0F3EFB8
:102DE00016F0F5EF16F0FCEF16F00550600FD96EF7
:102DF000DA6ADF50FDEF16F0000E1200320ECD6ED3
:102E0000CC6A9E0ECF6E580ECE6E9E909D80CD9059
:102E10001200030ED56ECF0ED76E2C0ED66ED59E39
:102E2000F28AF2941200BA6AF90EBB6EBC6A9E92E4
:102E30009D824E0EBA6E12000001886B596A140E04
:102E4000896F010E586E12000001886B596A010EDD
:082E5000896F586A120012009C
:020000040030CA
:0E000000FF381F1FFFBF85FF0FC00FE00F402E
:00000001FF
