:0400000013EF00F00A
:100008005A82D9CF03F0DACF04F06CEC17F067EC22
:1000180018F004C0DAFF03C0D9FF5A92110067EF45
:0200280019F0CD
:101000000001200039C04147524F4C4154494E41E4
:101010005F4730315F434230315F53544154555341
:101020005F003A2530325830312530325825303281
:1010300058253032580D0A003A25303258303325C1
:10104000303258004D4F445F52454C453A005050A5
:101050004D3A00253034580025640000CDC008F01A
:10106000CEC009F04C0E0A6E32EC11F00001D86FC0
:10107000D96BD8BFD907D82906E1D929D8A443EF1D
:1010800008F045EF08F047EF08F0D4EF0AF0566A91
:101090008D6B000E856F000E846F000E836F000E47
:1010A000826F8C6B000ED36F000ED26FD851CD259E
:1010B000CF6FD951CE21D06F010ECF25D96E000E42
:1010C000D021DA6EDF50EFEC17F00001D16FD15173
:1010D000D46FD56BD851CD25CF6FD951CE21D06FDC
:1010E000020ECF25D96E000ED021DA6EDF50EFEC64
:1010F00017F00001D16FD151D66FD76BD439F00BF7
:10110000D611566ED4C0CFF0D5C0D0F0CF3BD03B77
:10111000F00ED017CF510F0BD013F00ECF17D651C2
:10112000CF13D751D013CF51D227D051D323FF0E95
:10113000D217000ED317D851CD25CF6FD951CE215C
:10114000D06F030ECF25D96E000ED021DA6EDF509E
:10115000EFEC17F00001D16FD151D46FD56BD8519E
:10116000CD25CF6FD951CE21D06F040ECF25D96EAA
:10117000000ED021DA6EDF50EFEC17F00001D16FD6
:10118000D151D66FD76BD439F00BD6118D6FD4C037
:10119000CFF0D5C0D0F0CF3BD03BF00ED017CF5121
:1011A0000F0BD013F00ECF17D651CF13D751D0134A
:1011B000CF51D227D051D323FF0ED217000ED31711
:1011C000D851CD25CF6FD951CE21D06F050ECF2567
:1011D000D96E000ED021DA6EDF50EFEC17F000016F
:1011E000D16FD151D46FD56BD851CD25CF6FD95197
:1011F000CE21D06F060ECF25D96E000ED021DA6E2B
:10120000DF50EFEC17F00001D16FD151D66FD76BE3
:10121000D4C0CFF0D5C0D0F0CF3BD03BF00ED0172C
:10122000CF510F0BD013F00ECF17D651CF13D7518C
:10123000D013CF51D227D051D323FF0ED217000E97
:10124000D317D4C0CFF0D5C0D0F0CF3BD03BF00EF9
:10125000D017CF510F0BD013F00ECF17D651CF139D
:10126000D751D013CFC0D0F0CF6BCFC084F0D0C057
:1012700085F0D851CD25CF6FD951CE21D06F070E33
:10128000CF25D96E000ED021DA6EDF50EFEC17F0CB
:101290000001D16FD151D46FD56BD851CD25CF6F0F
:1012A000D951CE21D06F080ECF25D96E000ED02196
:1012B000DA6EDF50EFEC17F00001D16FD151D66F2D
:1012C000D76BD4C0CFF0D5C0D0F0CF3BD03BF00E21
:1012D000D017CF510F0BD013F00ECF17D651CF131D
:1012E000D751D013CF51D227D051D323FF0ED217CD
:1012F000000ED317D4C0CFF0D5C0D0F0CF3BD03B39
:10130000F00ED017CF510F0BD013F00ECF17D651D0
:10131000CF13D751D013CF518413D0518513D85147
:10132000CD25CF6FD951CE21D06F090ECF25D96EE3
:10133000000ED021DA6EDF50EFEC17F00001D16F14
:10134000D151D46FD56BD851CD25CF6FD951CE2186
:10135000D06F0A0ECF25D96E000ED021DA6EDF5085
:10136000EFEC17F00001D16FD151D66FD76BD4C01D
:10137000CFF0D5C0D0F0CF3BD03BF00ED017CF513F
:101380000F0BD013F00ECF17D651CF13D751D01368
:10139000CF51D227D051D323FF0ED217000ED3172F
:1013A000D4C0CFF0D5C0D0F0CF3BD03BF00ED0179B
:1013B000CF510F0BD013F00ECF17D651CF13D751FB
:1013C000D013CFC0D0F0CF6BCFC082F0D0C083F0AD
:1013D000D851CD25CF6FD951CE21D06F0B0ECF254F
:1013E000D96E000ED021DA6EDF50EFEC17F000015D
:1013F000D16FD151D46FD56BD851CD25CF6FD95185
:10140000CE21D06F0C0ECF25D96E000ED021DA6E12
:10141000DF50EFEC17F00001D16FD151D66FD76BD1
:10142000D4C0CFF0D5C0D0F0CF3BD03BF00ED0171A
:10143000CF510F0BD013F00ECF17D651CF13D7517A
:10144000D013CF51D227D051D323FF0ED217000E85
:10145000D317D4C0CFF0D5C0D0F0CF3BD03BF00EE7
:10146000D017CF510F0BD013F00ECF17D651CF138B
:10147000D751D013CF518213D0518313D851CD25DA
:10148000CF6FD951CE21D06F0D0ECF25D96E000E62
:10149000D021DA6EDF50EFEC17F00001D16FD1519F
:1014A000D46FD56BD851CD25CF6FD951CE21D06F08
:1014B0000E0ECF25D96E000ED021DA6EDF50EFEC84
:1014C00017F00001D16FD151D66FD76BD439F00B23
:1014D000D6118C6FD2510008CF6FCF51D26FD36B22
:1014E0005604D8A476EF0AF078EF0AF0D4EF0AF0A9
:1014F0008C51CF6FD06BD251CF1907E1D351D01996
:10150000D8A485EF0AF087EF0AF0D4EF0AF0C1EF14
:101510000AF0010E8425486E000E8521496E82C0B6
:101520004AF083C04BF0AEEC13F0D4EF0AF0010E9A
:101530008425486E000E8521496E82C04AF083C022
:101540004BF02AEC12F0D4EF0AF0010E8425086E5D
:10155000000E8521096E82C00AF083C00BF092EC68
:1015600016F0D4EF0AF0010E8425086E000E8521D6
:10157000096E82C00AF083C00BF02EEC18F0D4EF95
:101580000AF08D51010AD8B489EF0AF0020AD8B4E2
:1015900097EF0AF0060AD8B4A5EF0AF0030AD8B408
:1015A000B3EF0AF0D4EF0AF012000850800B156E6A
:1015B000085008241C6E07AEE0EF0AF0E2EF0AF0D4
:1015C000E3EF0AF01C801C50D8B4E9EF0AF0EBEF0F
:1015D0000AF0FFEF0AF01C28D8A4F1EF0AF0F3EFAD
:1015E0000AF0FBEF0AF0000E056E000E066E000E0C
:1015F000076E000E086E078E086A07EF0BF0000EEC
:10160000056E000E066E000E076E000E086E0C5082
:10161000800B151A0C500C241D6E0BAE12EF0BF044
:1016200014EF0BF015EF0BF01D801D50D8B41BEF1D
:101630000BF01DEF0BF031EF0BF01D28D8A423EFBA
:101640000BF025EF0BF02DEF0BF0000E096E000EE6
:101650000A6E000E0B6E000E0C6E0B8E0C6A39EFCC
:101660000BF0000E096E000E0A6E000E0B6E000EDF
:101670000C6E09500A100B100C10D8A442EF0BF09E
:1016800044EF0BF05CEF0BF0000E056E000E066EE3
:10169000000E076E000E086E800E07127F0E0812F5
:1016A0001550081205C005F006C006F007C007F087
:1016B00008C008F09CEF0CF01C50D8A462EF0BF0AF
:1016C00064EF0BF06EEF0BF0000E056E000E066E71
:1016D000000E076E000E086E9CEF0CF01D501CC033
:1016E0000DF00E6A0D5E000E0E5A7F0E0D24166E62
:1016F000000E0E20176E05C011F006C012F007C0D4
:1017000013F008C014F0000E056E000E066E000EF9
:10171000076E000E086E000E186E000E196E000E99
:101720001A6E000E1B6E1D6ACEEF0BF01D50D8B462
:101730009CEF0BF09EEF0BF0B5EF0BF0D89011364D
:10174000123613361436D890053606360736083664
:101750001BAEADEF0BF0AFEF0BF0B0EF0BF0058071
:10176000D890183619361A361B360950115C0A50B3
:1017700012580B5013580C501458D8A0C2EF0BF04D
:10178000C4EF0BF0CDEF0BF01B8C0950115E0A502B
:10179000125A0B50135A0C50145A1D2A190E1D645C
:1017A000D4EF0BF0D6EF0BF096EF0BF011501210B8
:1017B00013101410D8B4DFEF0BF0E1EF0BF0F9EFDA
:1017C0000BF01880F9EF0BF0D89005360636073687
:1017D00008361BAEEEEF0BF0F0EF0BF0F1EF0BF075
:1017E0000580D890183619361A361B361606D8A03A
:1017F000170607AEFEEF0BF000EF0CF0E4EF0BF076
:101800001D6A1BAE06EF0CF008EF0CF02CEF0CF08D
:10181000FF0E18140D6EFF0E19140E6EFF0E1A1423
:101820000F6E7F0E1B14106E0D500E100F10101047
:10183000D8B41DEF0CF01FEF0CF023EF0CF0010EED
:101840001D6E2CEF0CF005A028EF0CF02AEF0CF029
:101850002CEF0CF01FEF0CF01D50D8B432EF0CF051
:1018600034EF0CF058EF0CF0010E0526000E0622A6
:101870000722082208A03FEF0CF041EF0CF058EFD0
:101880000CF005C00DF006C00EF007C00FF008C048
:1018900010F0103410320F320E320D320DC005F040
:1018A0000EC006F00FC007F010C008F0164A172A45
:1018B00017BE63EF0CF0175008E11628D8A063EFAD
:1018C0000CF065EF0CF070EF0CF0000E176E166860
:1018D000000E056E000E066E000E076E000E086EFE
:1018E00017BE7DEF0CF0175006E11604D8B07BEF61
:1018F0000CF07DEF0CF08AEF0CF0000E176E000E6E
:10190000166E000E056E000E066E000E076E000EBF
:10191000086E156A16C01CF01CA091EF0CF093EF36
:101920000CF096EF0CF0078E97EF0CF0079ED89016
:101930001C30086E50EF0BF012002650D96EDA6A98
:10194000DFCFF6FF100EF76E0800F550250AD8A479
:10195000ACEF0CF0AEEF0CF070EF0DF02650D96E3E
:10196000DA6ADF2A000E00017F6F000E7E6F7EC0F4
:1019700055F080698169286AD8EF0CF055822650AD
:10198000D96EDA6ADF2AD8EF0CF0010E286ED8EF94
:101990000CF02650D96EDA6ADFCFF6FF100EF76E24
:1019A0000800F550300AD8B4BEEF0CF0C5EF0CF0CB
:1019B0002850D8B4DEEF0CF0E0EF0CF0C9EF0CF0DB
:1019C00026C005F027C006F008EC15F005C07EF033
:1019D00006C07FF000017FBFF2EF0CF0F0EF0CF0DB
:1019E000F7EF0CF055807E6D7F1FD8B07F2B26500F
:1019F000D96EDA6ADF502D6E2DC0F6FF100EF76E2D
:101A00000800F550640AD8B408EF0DF00AEF0DF0A5
:101A100018EF0DF02DC0F6FF100EF76E0800F55010
:101A2000690AD8A416EF0DF018EF0DF033EF0DF0A2
:101A30002750D96EDA6A020EDF26DF5CD96EDA6AC9
:101A4000DECF29F0DECF2AF02650D96EDA6A2D28B3
:101A5000DF6E25C019F029C01AF02AC01BF0FDEC7A
:101A60000FF081EF0DF02DC0F6FF100EF76E08009D
:101A7000F550580AD8A43FEF0DF041EF0DF06AEF92
:101A80000DF02750D96EDA6A020EDF26DF5CD96EC0
:101A9000DA6ADECF29F0DECF2AF02650D96EDA6A74
:101AA0002D28DF6E5EEF0DF025C019F029C01AF069
:101AB0002AC01BF0AFEC11F081EF0DF02DC0F6FF46
:101AC000100EF76E0800F550580AD8B454EF0DF018
:101AD0006AEF0DF02650D96EDA6ADF2A81EF0DF039
:101AE0002650D96EDA6ADFCFF6FF100EF76E0800C7
:101AF000F550056E066A25C007F061EC14F06AEF38
:101B00000DF012000D6E0D50D8B489EF0DF08BEF73
:101B10000DF0ADEF0DF008BE92EF0DF090EF0DF06F
:101B2000ADEF0DF005C009F006C00AF007C00BF0DC
:101B300008C00CF0091E0A1E0B1E0C1E092A000EFE
:101B40000A220B220C2209C00FF00AC010F00BC0B1
:101B500011F00CC012F0B5EF0DF005C00FF006C08B
:101B600010F007C011F008C012F005500610071061
:101B70000810D8A4BEEF0DF0C0EF0DF0CAEF0DF0C5
:101B8000000E056E000E066E000E076E000E086E4B
:101B90005BEF0EF0960E0E6ED4EF0DF00E2AD8907D
:101BA0001232113210320F32000E0F14096E000E75
:101BB00010140A6E000E11140B6EFE0E12140C6E31
:101BC00009500A100B100C10D8A4E9EF0DF0EBEF40
:101BD0000DF0CEEF0DF0F9EF0DF00E2A010E0F26ED
:101BE000000E102211221222D8901232113210321D
:101BF0000F32000E0F14096E000E10140A6E000E44
:101C000011140B6EFF0E12140C6E09500A100B10FB
:101C10000C10D8A40EEF0EF010EF0EF0EDEF0DF05B
:101C200018EF0EF00E06D8900F3610361136123619
:101C300011BE1DEF0EF01FEF0EF027EF0EF0020E9B
:101C40000E6025EF0EF027EF0EF012EF0EF00EB043
:101C50002CEF0EF02EEF0EF02FEF0EF0119ED8901D
:101C60000E320EC009F00A6A0B6A0C6A09C00CF049
:101C70000B6A0A6A096A09500F120A5010120B50B7
:101C800011120C5012120D50D8B449EF0EF04BEF58
:101C90000EF053EF0EF008BE52EF0EF050EF0EF0C4
:101CA00053EF0EF0128E0FC005F010C006F011C0F9
:101CB00007F012C008F01200130E0001926563EFE6
:101CC0000EF065EF0EF072EF0EF05904D8A46BEF32
:101CD0000EF06DEF0EF06FEF0EF05EEC1AF0586A3A
:101CE0000001926B5904D8A478EF0EF07AEF0EF051
:101CF00008EF0FF09051915DD8A081EF0EF083EFC7
:101D00000EF008EF0FF08F51D8A489EF0EF08BEF93
:101D10000EF0C7EF0EF058C005F0010E0516053A9B
:101D20008B500518EF0B05188B6E58C005F0D89036
:101D30000532010E05160546054605468B50051869
:101D4000F70B05188B6E58C005F0D8900532D89067
:101D50000532010E0516054605468B500518FB0B8E
:101D600005188B6E58C005F0D8900532D890053212
:101D7000D8900532010E051605468B500518FD0B4F
:101D800005188B6E8B90010E8F6F07EF0FF058C008
:101D900005F0053A0F0E0516010E0516053A8B5093
:101DA0000518EF0B05188B6E58C005F0050E066E72
:101DB000D8900532062ED8EF0EF0010E0516054616
:101DC000054605468B500518F70B05188B6E58C055
:101DD00005F0060E066ED8900532062EEBEF0EF0DB
:101DE000010E0516054605468B500518FB0B051818
:101DF0008B6E056A58AE01D0052A010E0516054600
:101E00008B500518FD0B05188B6E8B808F6B916BBB
:101E10005950D8A40EEF0FF010EF0FF031EF0FF084
:101E20009051915DD8A017EF0FF019EF0FF031EF3F
:101E30000FF08F51D8A41FEF0FF021EF0FF02AEF12
:101E40000FF08B808B828B848B868B88010E8F6F3B
:101E500030EF0FF08B908B928B948B968B988F6BCF
:101E6000916B1200000E3A6E000E396E416A000E40
:101E7000436E000E426E6EEF0FF0000E4224D96EDC
:101E8000020E4320DA6E200EDE18D8A44AEF0FF0BF
:101E90004CEF0FF04EEF0FF0010E416E4104D8A44D
:101EA00054EF0FF056EF0FF06BEF0FF0000E4224DF
:101EB000D96E020E4320DA6EDF50206E216A39504F
:101EC000020DF350230FD96EDA6A20C0DEFF21C065
:101ED000DDFF394A3A2A0400424A432A0001985158
:101EE000206E216A2050425C4350800A226E2150AD
:101EF000800A2258D8A07FEF0FF081EF0FF03DEF5E
:101F00000FF04104D8A487EF0FF089EF0FF0D3EF63
:101F10000FF029C03FF02AC040F03F50406E3F6AAA
:101F200020EE27F0DE503F12DD5040123FC005F09A
:101F300040C006F0076A086A000E82EC0DF005C08A
:101F40003BF006C03CF007C03DF008C03EF03BC08F
:101F500005F03CC006F03DC007F03EC008F0000EA2
:101F6000096E000E0A6E200E0B6E410E0C6ED5EC43
:101F70000AF005C03BF006C03CF007C03DF008C0C9
:101F80003EF03BC005F03CC006F03DC007F03EC04F
:101F900008F0AFEC10F0010E05240001866F000E72
:101FA0000620876F04001EC005F01FC006F0BFECBE
:101FB00019F01EC008F01FC009F0440E0A6E32EC82
:101FC00011F0376E386A37BE380638BEEAEF0FF0C8
:101FD000ECEF0FF0FCEF0FF01EC058F05950D8A4F2
:101FE000F4EF0FF0F6EF0FF0F8EF0FF056EC1AF0F9
:101FF000010E596E0001926B1200010E1E6E1BBE87
:1020000004EF10F007EF10F0010E08EF10F0000ED3
:10201000216E7EC01FF07FC020F02150D8B413EF96
:1020200010F015EF10F02CEF10F01F06D8A02006CE
:102030002150D8A41EEF10F020EF10F026EF10F082
:10204000000E1D6E2B0E1C6E2AEF10F0000E1D6E82
:102050002D0E1C6E1CC021F0000E236E1F0E226E72
:102060000001B86B60EF10F02206D8A023062250C2
:10207000990FD96EDA6A1AC005F01BC006F0000E7F
:10208000086E0A0E076E0AEC14F005C00BF006C0CD
:102090000CF0F5EC19F00B50300FDF6E1E6A1F06C6
:1020A000D8A020061AC005F01BC006F0000E086E6E
:1020B0000A0E076E90EC12F005C01AF006C01BF075
:1020C00023BE6BEF10F0235008E12204D8A06BEF81
:1020D00010F06DEF10F092EF10F01A501B10D8A412
:1020E00074EF10F076EF10F034EF10F01E50D8A41B
:1020F0007CEF10F07EEF10F034EF10F020BE89EF8F
:1021000010F0205008E11F04D8A089EF10F08BEFE9
:1021100010F092EF10F055B290EF10F092EF10F037
:1021200034EF10F02150D8B498EF10F09AEF10F07F
:10213000A3EF10F02206D8A023062250990FD96EE3
:10214000DA6A21C0DFFF19C012F02250990F136E16
:102150001FC014F020C015F027EC17F01200073450
:1021600008340E6E0E50D8A4B8EF10F0BAEF10F08D
:10217000C4EF10F0000E056E000E066E000E076E26
:10218000000E086E31EF11F005C009F006C00AF02C
:1021900007C00BF008C00CF0200ED4EF10F0D89060
:1021A0000C320B320A320932E82ECFEF10F0095010
:1021B0000D6E078EFF0E0516FF0E0616FF0E071694
:1021C000000E0816960E0E5E0EBEEBEF10F0E9EF55
:1021D00010F001EF11F00E50800A970FD8B0F3EF16
:1021E00010F0F5EF10F0F7EF10F0BAEF10F0D89014
:1021F00008320732063205320E3EF7EF10F019EFC3
:1022000011F01F0E0E6407EF11F009EF11F011EF3E
:1022100011F0BAEF10F0D8900536063607360836BA
:102220000E060E50D8A417EF11F019EF11F00BEFB6
:1022300011F00D50D8B41FEF11F021EF11F029EF7C
:1022400011F0081E071E061E056C000E062207224E
:10225000082205C005F006C006F007C007F008C058
:1022600008F01200126A08C005F009C006F0BFECC1
:1022700019F00F6E3DEF11F0122A0A5012240B6E66
:102280000BC0F6FF100EF76E0800F5500009D8A439
:102290004CEF11F04EEF11F03CEF11F01250D8B4AA
:1022A00054EF11F056EF11F05FEF11F012500F5C88
:1022B000D8B05DEF11F05FEF11F062EF11F0FF0E9B
:1022C000AEEF11F0106AA0EF11F0116A8AEF11F071
:1022D000105008240B6E000E09200C6E11500B24B8
:1022E000D96E000E0C20DA6EDF500D6E0A501124EC
:1022F0000E6E0EC0F6FF100EF76E0800F5500D18AA
:10230000D8B485EF11F087EF11F089EF11F093EF5A
:1023100011F0112A1250115CD8A091EF11F093EF37
:1023200011F068EF11F012501118D8A49AEF11F0C3
:102330009CEF11F09FEF11F01050AEEF11F0102A4A
:1023400012500F5C0B6E10500B5CD8B0AAEF11F05E
:10235000ACEF11F065EF11F05FEF11F01200010E1C
:102360001F6E7EC020F07FC021F0000E246E1F0E75
:10237000236E0001B86BEBEF11F02306D8A0240602
:102380001A500F0B226E0A0E2260C9EF11F0CBEF2C
:1023900011F0CFEF11F0300E2226D1EF11F0370EF1
:1023A00022262350990FD96EDA6A22C0DFFF1F6AF6
:1023B0002006D8A021061AC01CF01BC01DF0040E78
:1023C0001E6ED8901D321C321E2EE1EF11F01CC083
:1023D0001AF01DC01BF024BEF7EF11F0245009E1E4
:1023E000020E235CD8A0F7EF11F0F9EF11F01EEF09
:1023F00012F01A501B10D8A400EF12F002EF12F0E6
:10240000BDEF11F01F50D8A408EF12F00AEF12F040
:10241000BDEF11F021BE15EF12F0215008E12004AC
:10242000D8A015EF12F017EF12F01EEF12F055B210
:102430001CEF12F01EEF12F0BDEF11F019C012F0F8
:102440002350990F136E20C014F021C015F027EC13
:1024500017F012004A504A24516E546A56505426BE
:10246000030E5426515054261A0E4C6EF80EE82EC8
:10247000FED74C2EFCD700D0B90E326E380E336E1C
:1024800056C034F0356A51C036F0376ADBEC19F0CB
:10249000B90E086E0FEC1AF0000E506E000E4F6E63
:1024A00076EF12F04F504824056E50504920066ECA
:1024B000A3EC19F005C052F006C053F053504D6E16
:1024C00052C04EF04D5054264E505426B90E326E26
:1024D000530E336E52C034F053C035F0DBEC19F0BC
:1024E000B90E086E0FEC1AF04F4A502A4A504F5C52
:1024F0004B505058D8A07FEF12F081EF12F052EFFE
:1025000012F0546CB90E326E310E336E54C034F08A
:10251000356ADBEC19F0B90E086E0FEC1AF01200F8
:102520000A6A08BE98EF12F096EF12F09EEF12F0D2
:10253000076C081ED8B0082A010E0A6E06BEA5EF69
:1025400012F0A3EF12F0ABEF12F0056C061ED8B03C
:10255000062A010E0A1A000E0C6E000E0B6E0750B2
:102560000810D8B4B6EF12F0B8EF12F0E0EF12F0A6
:10257000010E096EC0EF12F0D89007360836092A0E
:1025800008AEC5EF12F0C7EF12F0BCEF12F0D89012
:102590000B360C360750055C08500658D8A0D3EF10
:1025A00012F0D5EF12F0DAEF12F00750055E085086
:1025B000065A0B80D89008320732092EC7EF12F066
:1025C0000A50D8B4E6EF12F0E8EF12F0ECEF12F098
:1025D0000B6C0C1ED8B00C2A0BC005F00CC006F01A
:1025E000120027EC19F0A0EC18F043EC1AF038ECCC
:1025F0001AF04DEC1AF0800E126E250E136E000EBE
:10260000146E000E156E45EC16F0800E126E250E3F
:10261000136E000E146E000E156EF8EC15F0F28CB1
:10262000F28E56EC1AF050EC13F05CEC0EF0030E48
:1026300000018E651EEF13F020EF13F04BEF13F047
:102640005750D8A426EF13F028EF13F02AEF13F019
:1026500004EC19F05704D8A430EF13F032EF13F064
:1026600034EF13F0DEEC16F0020E5718D8A43BEF4F
:1026700013F03DEF13F03FEF13F0AFEC17F0572AD4
:10268000020E576446EF13F048EF13F049EF13F0D2
:10269000576A00018E6B040013EF13F013EF00F084
:1026A00000019705D8A457EF13F059EF13F07FEF0F
:1026B00013F0000E1E6E010E1F6E32EC0FF0000EB6
:1026C0000001DB6F000EDA6F000EDA25D96E010E05
:1026D000DB21DA6EDF6A04000001DA4BDB2BDBBFA3
:1026E0007BEF13F0DB5109E1640EDA5DD8A07BEFDC
:1026F00013F07DEF13F064EF13F0986B976B950573
:10270000D8A485EF13F087EF13F0ADEF13F0000EB0
:10271000CD6F020ECE6F2EEC08F0000E0001DD6FC3
:10272000000EDC6F000EDC25D96E020EDD21DA6EA4
:10273000DF6A04000001DC4BDD2BDDBFA9EF13F0E5
:10274000DD5109E1C80EDC5DD8A0A9EF13F0ABEFB5
:1027500013F092EF13F0966B956B1200506A000E17
:10276000526E000E516ECEEF13F051504824056E9C
:1027700052504920066E24EC1AF04E6E51C04CF0B7
:102780004EC04DF04C2AC7EF13F0D8904D364C2E6A
:10279000C5EF13F04D505012514A522A4A50515C25
:1027A0004B505258D8A0D7EF13F0D9EF13F0B5EF34
:1027B00013F0070E4A244C6E000E4B204D6ED8903D
:1027C0004D324C32D8904D324C32D8904D324C3242
:1027D0004C504F6E536A56505326532A4F5053262F
:1027E00050505326536CB90E326E220E336E56C0C3
:1027F00034F0356A4FC036F0376A50C038F0396A65
:1028000053C03AF03B6ADBEC19F0B90E086E0FECDE
:102810001AF012000A6A06BE12EF14F010EF14F05C
:1028200018EF14F0056C061ED8B0062A010E0A6EC9
:1028300008BE1FEF14F01DEF14F023EF14F0076C27
:10284000081ED8B0082A07500810D8B42AEF14F090
:102850002CEF14F050EF14F0010E096E34EF14F069
:10286000D89007360836092A08AE39EF14F03BEF46
:1028700014F030EF14F00750055C08500658D8A04B
:1028800044EF14F046EF14F04AEF14F00750055EE1
:102890000850065AD89008320732092E3BEF14F040
:1028A0000A50D8B456EF14F058EF14F05CEF14F05F
:1028B000056C061ED8B0062A05C005F006C006F055
:1028C00012000750D8B467EF14F069EF14F071EFFD
:1028D00014F00750D8A46FEF14F071EF14F076EFF6
:1028E00014F0055065EC1AF0B5EF14F00750D96EEE
:1028F000DA6A090ED926DE50DE10D8B482EF14F061
:1029000084EF14F09DEF14F00750D96EDA6A090EC7
:10291000D9260750E16EE26A020EE126DE50E65C3F
:10292000E650800A0C6EDE50800A0C58D8B09BEF3F
:1029300014F09DEF14F0B5EF14F00750D96EDA6A79
:10294000020ED926DF50086E0750D96EDA6ADF50C2
:102950000824D96EDA6A05C0DFFF0750D96EDA6A3B
:10296000020ED926DE2A000EDD221200000E0D6EA8
:10297000000E0E6E000E0F6E000E106E09500A1043
:102980000B100C10D8B4C7EF14F0C9EF14F0FFEF20
:1029900014F0010E116ED3EF14F0D89009360A36F8
:1029A0000B360C36112A0CAED8EF14F0DAEF14F017
:1029B000CDEF14F0D8900D360E360F361036095084
:1029C000055C0A5006580B5007580C500858D8A000
:1029D000ECEF14F0EEEF14F0F7EF14F00950055E91
:1029E0000A50065A0B50075A0C50085A0D80D890BE
:1029F0000C320B320A320932112EDAEF14F00DC00C
:102A000005F00EC006F00FC007F010C008F012006D
:102A1000000E0B6E000E0A6E0550D96EDA6ADFCF1B
:102A2000F6FF100EF76E0800F5502A0AD8A41BEF27
:102A300015F01DEF15F042EF15F00550D96EDA6A6A
:102A4000DF2A0650D96EDA6A020EDF26DF5CD96E05
:102A5000DA6ADECF0AF0DECF0BF055EF15F00A0E82
:102A60000A02F3CF07F0F4CF08F00B02F350082668
:102A7000095007240A6E000E08200B6E0550D96E0F
:102A8000DA6ADF2A0550D96EDA6ADFCFF6FF100E58
:102A9000F76E0800F550D00F096E090E096453EF68
:102AA00015F055EF15F02FEF15F00AC005F00BC02B
:102AB00006F01200056E000E076E000E066E62EF45
:102AC00015F00400A4B867EF15F069EF15F074EF86
:102AD00015F0064A072A06500710D8A472EF15F021
:102AE00074EF15F061EF15F005C073FF000E076E6F
:102AF000000E066E7DEF15F00400A4B882EF15F00D
:102B000084EF15F08FEF15F0064A072A06500710DC
:102B1000D8A48DEF15F08FEF15F07CEF15F0000EB7
:102B2000076E000E066E96EF15F0040072B29BEF72
:102B300015F09DEF15F0A8EF15F0064A072A06508C
:102B40000710D8A4A6EF15F0A8EF15F095EF15F033
:102B50001200056E000E076E000E066EB1EF15F046
:102B600004009EB8B6EF15F0B8EF15F0C3EF15F0FE
:102B7000064A072A06500710D8A4C1EF15F0C3EF84
:102B800015F0B0EF15F005C0ADFF000E076E000E9A
:102B9000066ECCEF15F004009EB8D1EF15F0D3EF20
:102BA00015F0DEEF15F0064A072A06500710D8A4E4
:102BB000DCEF15F0DEEF15F0CBEF15F0000E076E31
:102BC000000E066EE5EF15F00400ACB2EAEF15F06A
:102BD000ECEF15F0F7EF15F0064A072A065007103C
:102BE000D8A4F5EF15F0F7EF15F0E4EF15F01200AB
:102BF0001250131014101510D8A401EF16F003EFA3
:102C000016F005EF16F044EF16F012C016F013C0E0
:102C100017F014C018F015C019F0D89019321832F6
:102C200017321632000E1624056E090E1720066E96
:102C30003D0E1820076E000E1920086E12C009F014
:102C400013C00AF014C00BF015C00CF0B6EC14F071
:102C5000FF0E05241A6EFF0E06201B6E0F013B9D12
:102C60003B9F959C958E716A726A706A70867284B9
:102C70001B50766E1AC075FF7298729C719C718E93
:102C8000728A7188A38AA49A120012501310141029
:102C90001510D8A44EEF16F050EF16F052EF16F0C4
:102CA00091EF16F012C016F013C017F014C018F010
:102CB00015C019F0D8901932183217321632000E9A
:102CC0001624056E090E1720066E3D0E1820076E9D
:102CD000000E1920086E12C009F013C00AF014C0CB
:102CE0000BF015C00CF0B6EC14F0FF0E05241A6EB4
:102CF000FF0E06201B6E0F013A9D3A9F949C948E06
:102D0000AB6AAC6AB86AB886AC841B50B06E1AC0A5
:102D1000AFFFAC98AC9CAB9CAB8EAC8AAB889D8A69
:102D20009E9A1200095007E10C0E085CD8B09BEF88
:102D300016F09DEF16F0BAEF16F00B280A10D8A483
:102D4000A4EF16F0A6EF16F0ACEF16F00850600FE7
:102D5000D96EDA6A010EDF6E0A500B10D8A4B3EFF9
:102D600016F0B5EF16F0BAEF16F00850600FD96EF6
:102D7000DA6ADF6A000E0D6E000E0C6E000E0C2477
:102D8000D96E020E0D20DA6EDF505AEC15F00C4AA7
:102D90000D2A0DBED5EF16F00D5009E10F0E0C5C9B
:102DA000D8A0D5EF16F0D7EF16F0BEEF16F00D0E47
:102DB0005AEC15F00A0E5AEC15F012008C8A1A0E15
:102DC000086EF80EE82EFED7082EFCD700D01A0E9B
:102DD000086EF80EE82EFED7082EFCD700D0000EA5
:102DE0000A6E000E096E0950010F086E08C0F6FF4A
:102DF000100EF76E0800F550A9EC15F0040E091836
:102E00000A10D8A406EF17F008EF17F009EF17F033
:102E10008C9A280EE82EFED70400094A0A2A0ABE18
:102E20001BEF17F00A5009E1050E095CD8A01BEF53
:102E300017F01DEF17F0F3EF16F01A0E086EF80EEC
:102E4000E82EFED7082EFCD700D08C9A120055A091
:102E50002CEF17F02EEF17F034EF17F013C00DF032
:102E600012C00EF085EC19F015BE3BEF17F039EFEC
:102E700017F03FEF17F0000E156E000E146E000EE7
:102E8000186E000E176E4FEF17F0000E066E200E34
:102E9000056E12C007F061EC14F0174A182A14509E
:102EA000175C1850800A166E1550800A1658D8A064
:102EB0005CEF17F05EEF17F045EF17F055B063EFDA
:102EC00017F065EF17F06BEF17F013C00DF012C09D
:102ED0000EF085EC19F012009EAA71EF17F073EF57
:102EE00017F08DEF17F0AECF01F0640E000198617E
:102EF0007CEF17F07EEF17F087EF17F0000E9825A4
:102F0000D96EDA6A010EDA2201C0DFFF982BD58E66
:102F1000CF0ED76E2C0ED66E9E9AA4AA92EF17F003
:102F200094EF17F0AEEF17F074CF02F0C80E000167
:102F300096619DEF17F09FEF17F0A8EF17F0000EC6
:102F40009625D96EDA6A020EDA2202C0DFFF962BCE
:102F5000CD809E0ECF6E580ECE6EA49A12008C8A33
:102F60001A0E486EF80EE82EFED7482EFCD700D079
:102F70001A0E486EF80EE82EFED7482EFCD700D069
:102F80000A0E00018603F3CF48F0F4CF49F087031F
:102F9000F350492648C070F049C071F04E0E086EDB
:102FA0000850D8A4100E096ED3EC18F0B90E326E8A
:102FB000580E336E86C034F087C035F0DBEC19F064
:102FC000B90E086E096AD3EC18F01A0E486EF80EA6
:102FD000E82EFED7482EFCD700D08C9A1200056E42
:102FE0002F0E0564F6EF17F0F8EF17F004EF18F066
:102FF0003A0E0560FEEF17F000EF18F004EF18F03E
:103000000550D00F2DEF18F0400E05640AEF18F0B0
:103010000CEF18F018EF18F0470E056012EF18F0DB
:1030200014EF18F018EF18F00550C90F2DEF18F035
:10303000600E05641EEF18F020EF18F02CEF18F06A
:10304000670E056026EF18F028EF18F02CEF18F047
:103050000550A90F2DEF18F0000E1200095007E1DE
:10306000090E085CD8B037EF18F039EF18F043EFCD
:1030700018F00850020DF3506C0FD96EDA6A0AC0CE
:10308000DEFF0BC0DDFF000E0D6E000E0C6E000E9D
:103090000C24D96E020E0D20DA6EDF505AEC15F0BA
:1030A0000C4A0D2A0DBE5EEF18F00D5009E10F0E0F
:1030B0000C5CD8A05EEF18F060EF18F047EF18F046
:1030C0000D0E5AEC15F00A0E5AEC15F01200F2A48F
:1030D0006CEF18F06EEF18F073EF18F0010E0001AE
:1030E000976FD59EF2949EA078EF18F07AEF18F0C3
:1030F0007FEF18F0010E0001956FCD909E909EA27B
:1031000084EF18F086EF18F09FEF18F00001932B72
:10311000090E93658EEF18F090EF18F092EF18F00B
:10312000912B936B942B630E946599EF18F09BEFA2
:1031300018F09EEF18F0922B8E2B946B9E9212003B
:103140008D6A8C6A896A8A6A8B6A966892689368C3
:10315000946895680F013B6B3A6B396B3C6B386B2D
:10316000616AF18E546B556B566B93909392939466
:10317000939695909592959495968A808A928A8452
:103180008A968C868C948C828C9094909492949451
:10319000949694988B908B928B948B968B98388581
:1031A000959A8C9A1200EAEF18F008C0F6FF09C051
:1031B000F7FF000EF86E0F0EF76403D00800F5500D
:1031C00005D0F6CFE1FFF7CFE2FFE750A9EC15F00D
:1031D000084A092A08C0F6FF09C0F7FF000EF86E7A
:1031E0000F0EF76403D00800F55005D0F6CFE1FFCD
:1031F000F7CFE2FFE7500009D8A401EF19F003EF81
:1032000019F0D5EF18F012008C8A1A0E0A6EF80E1B
:10321000E82EFED70A2EFCD700D01A0E0A6EF80E42
:10322000E82EFED70A2EFCD700D0060E086E0850F6
:10323000D8A4100E096ED3EC18F01A0E0A6EF80E10
:10324000E82EFED70A2EFCD700D08C9A1200720E00
:10325000D36E040ED26E9B6A000E066E000E056ED3
:1032600033EF19F00400D3B438EF19F03AEF19F046
:1032700047EF19F0054A062A100E055C270E06587E
:10328000D8A045EF19F047EF19F032EF19F012000E
:103290002FC031F054EF19F02EC025F0310E266EFC
:1032A00030C027F09DEC0CF031C0F6FF100EF76E29
:1032B0000800F5500009D8A460EF19F062EF19F08A
:1032C0004CEF19F0000E2F6E000E2E6E120002EE63
:1032D00000F0C90EEE6AE806FDE101EE00F0650EB1
:1032E000EE6AE806FDE100EE60F06D0EEE6AE806BB
:1032F000FDE1596A586A576A566A556A5A905A9255
:10330000000EF86E0001F1EF12F0000E116E000ECB
:10331000106E94EF19F00FC005F0066A0EC007F0AA
:1033200061EC14F0104A112A0D501024D96EDA6A9B
:10333000DF500F6E0F50D8A4A0EF19F0A2EF19F0D4
:103340008BEF19F01200065007E1090E055CD8B0AA
:10335000ACEF19F0AEEF19F0BAEF19F00550020D0D
:10336000F3506C0FD96EDA6ADECF05F0DDCF06F0D0
:10337000BEEF19F0000E066E000E056E1200076A11
:10338000C3EF19F0072AC80E0760C9EF19F0CBEF99
:1033900019F0D9EF19F005C0D9FF06C0DAFF054AC8
:1033A000062ADF50D8A4D7EF19F0D9EF19F0C2EFF1
:1033B00019F007501200340E3C6E32C03DF0000E82
:1033C000406E000E3F6E000E476E000E466E3D0EC4
:1033D0002E6E33C02FF03C0E306E48EC19F0325098
:1033E0003F24D96EDA6ADF6A12000CBEFAEF19F0D8
:1033F000FCEF19F002EF1AF00BC00BF00CC00CF050
:103400000EEF1AF00BC00DF00CC00EF00D1E0E1ECC
:103410000D4A0E2A0DC00BF00EC00CF0120018EF72
:103420001AF00850D96EDA6ADF505AEC15F0082A03
:103430000850D96EDA6ADF50D8A421EF1AF023EFD2
:103440001AF011EF1AF01200065007E10C0E055C9D
:10345000D8B02DEF1AF02FEF1AF036EF1AF0055012
:10346000600FD96EDA6ADF5037EF1AF0000E1200E3
:10347000320ECD6ECC6A9E0ECF6E580ECE6E9E90E2
:103480009D80CD901200030ED56ECF0ED76E2C0E00
:10349000D66ED59EF28AF2941200BA6AF90EBB6E0D
:1034A000BC6A9E929D824E0EBA6E120000018F6B16
:1034B000916B140E906F010E596E120000018F6B0C
:0C34C000916B010E906F596A120012000F
:020000040030CA
:0E000000FF381F1FFFBF85FF0FC00FE00F402E
:00000001FF
