:0400000013EF00F00A
:100008005A82D9CF03F0DACF04F00CEC17F0C6EC23
:1000180017F004C0DAFF03C0D9FF5A92110030EF7D
:0200280019F0CD
:101000000001200039C04147524F4C4154494E41E4
:101010005F4730315F434230315F53544154555341
:101020005F003A2530325830312530325825303281
:1010300058253032580D0A003A25303258303325C1
:10104000303258004D4F445F52454C453A005050A5
:101050004D3A00253034580025640000C9C008F01E
:10106000CAC009F04C0E0A6E31EC11F00001D46FC9
:10107000D56BD4BFD507D42906E1D529D8A443EF31
:1010800008F045EF08F047EF08F0D4EF0AF0566A91
:10109000896B000E856F000E846F000E836F000E4B
:1010A000826F886B000ECF6F000ECE6FD451C925B2
:1010B000CB6FD551CA21CC6F010ECB25D96E000E56
:1010C000CC21DA6EDF504EEC17F00001CD6FCD5120
:1010D000D06FD16BD451C925CB6FD551CA21CC6FFC
:1010E000020ECB25D96E000ECC21DA6EDF504EEC0D
:1010F00017F00001CD6FCD51D26FD36BD039F00B0B
:10110000D211566ED0C0CBF0D1C0CCF0CB3BCC3B93
:10111000F00ECC17CB510F0BCC13F00ECB17D251D6
:10112000CB13D351CC13CB51CE27CC51CF23FF0EB1
:10113000CE17000ECF17D451C925CB6FD551CA2178
:10114000CC6F030ECB25D96E000ECC21DA6EDF50AA
:101150004EEC17F00001CD6FCD51D06FD16BD45153
:10116000C925CB6FD551CA21CC6F040ECB25D96EC2
:10117000000ECC21DA6EDF504EEC17F00001CD6F7F
:10118000CD51D26FD36BD039F00BD211896FD0C053
:10119000CBF0D1C0CCF0CB3BCC3BF00ECC17CB513D
:1011A0000F0BCC13F00ECB17D251CB13D351CC1362
:1011B000CB51CE27CC51CF23FF0ECE17000ECF1729
:1011C000D451C925CB6FD551CA21CC6F050ECB2583
:1011D000D96E000ECC21DA6EDF504EEC17F0000114
:1011E000CD6FCD51D06FD16BD451C925CB6FD551B7
:1011F000CA21CC6F060ECB25D96E000ECC21DA6E3B
:10120000DF504EEC17F00001CD6FCD51D26FD36B94
:10121000D0C0CBF0D1C0CCF0CB3BCC3BF00ECC1748
:10122000CB510F0BCC13F00ECB17D251CB13D351A4
:10123000CC13CB51CE27CC51CF23FF0ECE17000EAF
:10124000CF17D0C0CBF0D1C0CCF0CB3BCC3BF00E15
:10125000CC17CB510F0BCC13F00ECB17D251CB13B5
:10126000D351CC13CBC0CCF0CB6BCBC084F0CCC073
:1012700085F0D451C925CB6FD551CA21CC6F070E4B
:10128000CB25D96E000ECC21DA6EDF504EEC17F074
:101290000001CD6FCD51D06FD16BD451C925CB6F2B
:1012A000D551CA21CC6F080ECB25D96E000ECC21AA
:1012B000DA6EDF504EEC17F00001CD6FCD51D26FDA
:1012C000D36BD0C0CBF0D1C0CCF0CB3BCC3BF00E3D
:1012D000CC17CB510F0BCC13F00ECB17D251CB1335
:1012E000D351CC13CB51CE27CC51CF23FF0ECE17E9
:1012F000000ECF17D0C0CBF0D1C0CCF0CB3BCC3B55
:10130000F00ECC17CB510F0BCC13F00ECB17D251E4
:10131000CB13D351CC13CB518413CC518513D4515F
:10132000C925CB6FD551CA21CC6F090ECB25D96EFB
:10133000000ECC21DA6EDF504EEC17F00001CD6FBD
:10134000CD51D06FD16BD451C925CB6FD551CA21A6
:10135000CC6F0A0ECB25D96E000ECC21DA6EDF5091
:101360004EEC17F00001CD6FCD51D26FD36BD0C0D2
:10137000CBF0D1C0CCF0CB3BCC3BF00ECC17CB515B
:101380000F0BCC13F00ECB17D251CB13D351CC1380
:10139000CB51CE27CC51CF23FF0ECE17000ECF1747
:1013A000D0C0CBF0D1C0CCF0CB3BCC3BF00ECC17B7
:1013B000CB510F0BCC13F00ECB17D251CB13D35113
:1013C000CC13CBC0CCF0CB6BCBC082F0CCC083F0C5
:1013D000D451C925CB6FD551CA21CC6F0B0ECB256B
:1013E000D96E000ECC21DA6EDF504EEC17F0000102
:1013F000CD6FCD51D06FD16BD451C925CB6FD551A5
:10140000CA21CC6F0C0ECB25D96E000ECC21DA6E22
:10141000DF504EEC17F00001CD6FCD51D26FD36B82
:10142000D0C0CBF0D1C0CCF0CB3BCC3BF00ECC1736
:10143000CB510F0BCC13F00ECB17D251CB13D35192
:10144000CC13CB51CE27CC51CF23FF0ECE17000E9D
:10145000CF17D0C0CBF0D1C0CCF0CB3BCC3BF00E03
:10146000CC17CB510F0BCC13F00ECB17D251CB13A3
:10147000D351CC13CB518213CC518313D451C925F2
:10148000CB6FD551CA21CC6F0D0ECB25D96E000E76
:10149000CC21DA6EDF504EEC17F00001CD6FCD514C
:1014A000D06FD16BD451C925CB6FD551CA21CC6F28
:1014B0000E0ECB25D96E000ECC21DA6EDF504EEC2D
:1014C00017F00001CD6FCD51D26FD36BD039F00B37
:1014D000D211886FCE510008CB6FCB51CE6FCF6B3E
:1014E0005604D8A476EF0AF078EF0AF0D4EF0AF0A9
:1014F0008851CB6FCC6BCE51CB1907E1CF51CC19B2
:10150000D8A485EF0AF087EF0AF0D4EF0AF0C1EF14
:101510000AF0010E8425486E000E8521496E82C0B6
:101520004AF083C04BF04EEC13F0D4EF0AF0010EFA
:101530008425486E000E8521496E82C04AF083C022
:101540004BF029EC12F0D4EF0AF0010E8425086E5E
:10155000000E8521096E82C00AF083C00BF032ECC8
:1015600016F0D4EF0AF0010E8425086E000E8521D6
:10157000096E82C00AF083C00BF08DEC17F0D4EF37
:101580000AF08951010AD8B489EF0AF0020AD8B4E6
:1015900097EF0AF0060AD8B4A5EF0AF0030AD8B408
:1015A000B3EF0AF0D4EF0AF012000850800B156E6A
:1015B000085008241C6E07AEE0EF0AF0E2EF0AF0D4
:1015C000E3EF0AF01C801C50D8B4E9EF0AF0EBEF0F
:1015D0000AF0FFEF0AF01C28D8A4F1EF0AF0F3EFAD
:1015E0000AF0FBEF0AF0000E056E000E066E000E0C
:1015F000076E000E086E078E086A07EF0BF0000EEC
:10160000056E000E066E000E076E000E086E0C5082
:10161000800B151A0C500C241D6E0BAE12EF0BF044
:1016200014EF0BF015EF0BF01D801D50D8B41BEF1D
:101630000BF01DEF0BF031EF0BF01D28D8A423EFBA
:101640000BF025EF0BF02DEF0BF0000E096E000EE6
:101650000A6E000E0B6E000E0C6E0B8E0C6A39EFCC
:101660000BF0000E096E000E0A6E000E0B6E000EDF
:101670000C6E09500A100B100C10D8A442EF0BF09E
:1016800044EF0BF05CEF0BF0000E056E000E066EE3
:10169000000E076E000E086E800E07127F0E0812F5
:1016A0001550081205C005F006C006F007C007F087
:1016B00008C008F09CEF0CF01C50D8A462EF0BF0AF
:1016C00064EF0BF06EEF0BF0000E056E000E066E71
:1016D000000E076E000E086E9CEF0CF01D501CC033
:1016E0000DF00E6A0D5E000E0E5A7F0E0D24166E62
:1016F000000E0E20176E05C011F006C012F007C0D4
:1017000013F008C014F0000E056E000E066E000EF9
:10171000076E000E086E000E186E000E196E000E99
:101720001A6E000E1B6E1D6ACEEF0BF01D50D8B462
:101730009CEF0BF09EEF0BF0B5EF0BF0D89011364D
:10174000123613361436D890053606360736083664
:101750001BAEADEF0BF0AFEF0BF0B0EF0BF0058071
:10176000D890183619361A361B360950115C0A50B3
:1017700012580B5013580C501458D8A0C2EF0BF04D
:10178000C4EF0BF0CDEF0BF01B8C0950115E0A502B
:10179000125A0B50135A0C50145A1D2A190E1D645C
:1017A000D4EF0BF0D6EF0BF096EF0BF011501210B8
:1017B00013101410D8B4DFEF0BF0E1EF0BF0F9EFDA
:1017C0000BF01880F9EF0BF0D89005360636073687
:1017D00008361BAEEEEF0BF0F0EF0BF0F1EF0BF075
:1017E0000580D890183619361A361B361606D8A03A
:1017F000170607AEFEEF0BF000EF0CF0E4EF0BF076
:101800001D6A1BAE06EF0CF008EF0CF02CEF0CF08D
:10181000FF0E18140D6EFF0E19140E6EFF0E1A1423
:101820000F6E7F0E1B14106E0D500E100F10101047
:10183000D8B41DEF0CF01FEF0CF023EF0CF0010EED
:101840001D6E2CEF0CF005A028EF0CF02AEF0CF029
:101850002CEF0CF01FEF0CF01D50D8B432EF0CF051
:1018600034EF0CF058EF0CF0010E0526000E0622A6
:101870000722082208A03FEF0CF041EF0CF058EFD0
:101880000CF005C00DF006C00EF007C00FF008C048
:1018900010F0103410320F320E320D320DC005F040
:1018A0000EC006F00FC007F010C008F0164A172A45
:1018B00017BE63EF0CF0175008E11628D8A063EFAD
:1018C0000CF065EF0CF070EF0CF0000E176E166860
:1018D000000E056E000E066E000E076E000E086EFE
:1018E00017BE7DEF0CF0175006E11604D8B07BEF61
:1018F0000CF07DEF0CF08AEF0CF0000E176E000E6E
:10190000166E000E056E000E066E000E076E000EBF
:10191000086E156A16C01CF01CA091EF0CF093EF36
:101920000CF096EF0CF0078E97EF0CF0079ED89016
:101930001C30086E50EF0BF012002650D96EDA6A98
:10194000DFCFF6FF100EF76E0800F550250AD8A479
:10195000ACEF0CF0AEEF0CF070EF0DF02650D96E3E
:10196000DA6ADF2A000E00017F6F000E7E6F7EC0F4
:1019700055F080698169286AD8EF0CF055822650AD
:10198000D96EDA6ADF2AD8EF0CF0010E286ED8EF94
:101990000CF02650D96EDA6ADFCFF6FF100EF76E24
:1019A0000800F550300AD8B4BEEF0CF0C5EF0CF0CB
:1019B0002850D8B4DEEF0CF0E0EF0CF0C9EF0CF0DB
:1019C00026C005F027C006F0A8EC14F005C07EF094
:1019D00006C07FF000017FBFF2EF0CF0F0EF0CF0DB
:1019E000F7EF0CF055807E6D7F1FD8B07F2B26500F
:1019F000D96EDA6ADF502D6E2DC0F6FF100EF76E2D
:101A00000800F550640AD8B408EF0DF00AEF0DF0A5
:101A100018EF0DF02DC0F6FF100EF76E0800F55010
:101A2000690AD8A416EF0DF018EF0DF033EF0DF0A2
:101A30002750D96EDA6A020EDF26DF5CD96EDA6AC9
:101A4000DECF29F0DECF2AF02650D96EDA6A2D28B3
:101A5000DF6E25C019F029C01AF02AC01BF0FCEC7B
:101A60000FF081EF0DF02DC0F6FF100EF76E08009D
:101A7000F550580AD8A43FEF0DF041EF0DF06AEF92
:101A80000DF02750D96EDA6A020EDF26DF5CD96EC0
:101A9000DA6ADECF29F0DECF2AF02650D96EDA6A74
:101AA0002D28DF6E5EEF0DF025C019F029C01AF069
:101AB0002AC01BF0AEEC11F081EF0DF02DC0F6FF47
:101AC000100EF76E0800F550580AD8B454EF0DF018
:101AD0006AEF0DF02650D96EDA6ADF2A81EF0DF039
:101AE0002650D96EDA6ADFCFF6FF100EF76E0800C7
:101AF000F550056E066A25C007F001EC14F06AEF98
:101B00000DF012000D6E0D50D8B489EF0DF08BEF73
:101B10000DF0ADEF0DF008BE92EF0DF090EF0DF06F
:101B2000ADEF0DF005C009F006C00AF007C00BF0DC
:101B300008C00CF0091E0A1E0B1E0C1E092A000EFE
:101B40000A220B220C2209C00FF00AC010F00BC0B1
:101B500011F00CC012F0B5EF0DF005C00FF006C08B
:101B600010F007C011F008C012F005500610071061
:101B70000810D8A4BEEF0DF0C0EF0DF0CAEF0DF0C5
:101B8000000E056E000E066E000E076E000E086E4B
:101B90005BEF0EF0960E0E6ED4EF0DF00E2AD8907D
:101BA0001232113210320F32000E0F14096E000E75
:101BB00010140A6E000E11140B6EFE0E12140C6E31
:101BC00009500A100B100C10D8A4E9EF0DF0EBEF40
:101BD0000DF0CEEF0DF0F9EF0DF00E2A010E0F26ED
:101BE000000E102211221222D8901232113210321D
:101BF0000F32000E0F14096E000E10140A6E000E44
:101C000011140B6EFF0E12140C6E09500A100B10FB
:101C10000C10D8A40EEF0EF010EF0EF0EDEF0DF05B
:101C200018EF0EF00E06D8900F3610361136123619
:101C300011BE1DEF0EF01FEF0EF027EF0EF0020E9B
:101C40000E6025EF0EF027EF0EF012EF0EF00EB043
:101C50002CEF0EF02EEF0EF02FEF0EF0119ED8901D
:101C60000E320EC009F00A6A0B6A0C6A09C00CF049
:101C70000B6A0A6A096A09500F120A5010120B50B7
:101C800011120C5012120D50D8B449EF0EF04BEF58
:101C90000EF053EF0EF008BE52EF0EF050EF0EF0C4
:101CA00053EF0EF0128E0FC005F010C006F011C0F9
:101CB00007F012C008F01200130E00018F6563EFE9
:101CC0000EF065EF0EF072EF0EF05804D8A46BEF33
:101CD0000EF06DEF0EF06FEF0EF027EC1AF0576A72
:101CE00000018F6B5804D8A478EF0EF07AEF0EF055
:101CF00008EF0FF08D518E5DD8A081EF0EF083EFCD
:101D00000EF008EF0FF08C51D8A489EF0EF08BEF96
:101D10000EF0C7EF0EF057C005F0010E0516053A9C
:101D20008B500518EF0B05188B6E57C005F0D89037
:101D30000532010E05160546054605468B50051869
:101D4000F70B05188B6E57C005F0D8900532D89068
:101D50000532010E0516054605468B500518FB0B8E
:101D600005188B6E57C005F0D8900532D890053213
:101D7000D8900532010E051605468B500518FD0B4F
:101D800005188B6E8B90010E8C6F07EF0FF057C00C
:101D900005F0053A0F0E0516010E0516053A8B5093
:101DA0000518EF0B05188B6E57C005F0050E066E73
:101DB000D8900532062ED8EF0EF0010E0516054616
:101DC000054605468B500518F70B05188B6E57C056
:101DD00005F0060E066ED8900532062EEBEF0EF0DB
:101DE000010E0516054605468B500518FB0B051818
:101DF0008B6E056A57AE01D0052A010E0516054601
:101E00008B500518FD0B05188B6E8B808C6B8E6BC1
:101E10005850D8A40EEF0FF010EF0FF031EF0FF085
:101E20008D518E5DD8A017EF0FF019EF0FF031EF45
:101E30000FF08C51D8A41FEF0FF021EF0FF02AEF15
:101E40000FF08B808B828B848B868B88010E8C6F3E
:101E500030EF0FF08B908B928B948B968B988C6BD2
:101E60008E6B1200000E3A6E000E396E416A000E43
:101E7000436E000E426E6EEF0FF0000E4224D96EDC
:101E8000020E4320DA6E200EDE18D8A44AEF0FF0BF
:101E90004CEF0FF04EEF0FF0010E416E4104D8A44D
:101EA00054EF0FF056EF0FF06BEF0FF0000E4224DF
:101EB000D96E020E4320DA6EDF50206E216A39504F
:101EC000020DF350230FD96EDA6A20C0DEFF21C065
:101ED000DDFF394A3A2A0400424A432A5950206E0B
:101EE000216A2050425C4350800A226E2150800AB1
:101EF0002258D8A07EEF0FF080EF0FF03DEF0FF0EB
:101F00004104D8A486EF0FF088EF0FF0D2EF0FF066
:101F100029C03FF02AC040F03F50406E3F6A20EE9B
:101F200027F0DE503F12DD5040123FC005F040C0A8
:101F300006F0076A086A000E82EC0DF005C03BF05F
:101F400006C03CF007C03DF008C03EF03BC005F0C5
:101F50003CC006F03DC007F03EC008F0000E096E20
:101F6000000E0A6E200E0B6E410E0C6ED5EC0AF0C0
:101F700005C03BF006C03CF007C03DF008C03EF095
:101F80003BC005F03CC006F03DC007F03EC008F085
:101F9000AEEC10F0010E05240001866F000E062045
:101FA000876F04001EC005F01FC006F088EC19F012
:101FB0001EC008F01FC009F0440E0A6E31EC11F08B
:101FC000376E386A37BE380638BEE9EF0FF0EBEFF0
:101FD0000FF0FBEF0FF01EC057F05850D8A4F3EFEE
:101FE0000FF0F5EF0FF0F7EF0FF01FEC1AF0010E06
:101FF000586E00018F6B1200010E1E6E1BBE03EFA8
:1020000010F006EF10F0010E07EF10F0000E216E39
:102010007EC01FF07FC020F02150D8B412EF10F026
:1020200014EF10F02BEF10F01F06D8A0200621505F
:10203000D8A41DEF10F01FEF10F025EF10F0000EE8
:102040001D6E2B0E1C6E29EF10F0000E1D6E2D0E56
:102050001C6E1CC021F0000E236E1F0E226E0001AC
:10206000B46B5FEF10F02206D8A023062250950F24
:10207000D96EDA6A1AC005F01BC006F0000E086EB1
:102080000A0E076EAAEC13F005C00BF006C00CF0A8
:10209000BEEC19F00B50300FDF6E1E6A1F06D8A081
:1020A00020061AC005F01BC006F0000E086E0A0ECE
:1020B000076E8FEC12F005C01AF006C01BF023BEAD
:1020C0006AEF10F0235008E12204D8A06AEF10F064
:1020D0006CEF10F091EF10F01A501B10D8A473EFB2
:1020E00010F075EF10F033EF10F01E50D8A47BEF16
:1020F00010F07DEF10F033EF10F020BE88EF10F0FD
:10210000205008E11F04D8A088EF10F08AEF10F0EB
:1021100091EF10F055B28FEF10F091EF10F033EF18
:1021200010F02150D8B497EF10F099EF10F0A2EF13
:1021300010F02206D8A023062250950FD96EDA6A35
:1021400021C0DFFF19C012F02250950F136E1FC07F
:1021500014F020C015F0C7EC16F012000734083454
:102160000E6E0E50D8A4B7EF10F0B9EF10F0C3EF19
:1021700010F0000E056E000E066E000E076E000ECB
:10218000086E30EF11F005C009F006C00AF007C074
:102190000BF008C00CF0200ED3EF10F0D8900C32EA
:1021A0000B320A320932E82ECEEF10F009500D6ED4
:1021B000078EFF0E0516FF0E0616FF0E0716000E01
:1021C0000816960E0E5E0EBEEAEF10F0E8EF10F065
:1021D00000EF11F00E50800A970FD8B0F2EF10F018
:1021E000F4EF10F0F6EF10F0B9EF10F0D8900832DD
:1021F0000732063205320E3EF6EF10F018EF11F0FE
:102200001F0E0E6406EF11F008EF11F010EF11F041
:10221000B9EF10F0D89005360636073608360E06A8
:102220000E50D8A416EF11F018EF11F00AEF11F0CC
:102230000D50D8B41EEF11F020EF11F028EF11F07F
:10224000081E071E061E056C000E06220722082225
:1022500005C005F006C006F007C007F008C008F08A
:102260001200126A08C005F009C006F088EC19F0E7
:102270000F6E3CEF11F0122A0A5012240B6E0BC0A5
:10228000F6FF100EF76E0800F5500009D8A44BEFCA
:1022900011F04DEF11F03BEF11F01250D8B453EFA5
:1022A00011F055EF11F05EEF11F012500F5CD8B045
:1022B0005CEF11F05EEF11F061EF11F0FF0EADEF8A
:1022C00011F0106A9FEF11F0116A89EF11F01050B0
:1022D00008240B6E000E09200C6E11500B24D96ED1
:1022E000000E0C20DA6EDF500D6E0A5011240E6EB7
:1022F0000EC0F6FF100EF76E0800F5500D18D8B49A
:1023000084EF11F086EF11F088EF11F092EF11F0E9
:10231000112A1250115CD8A090EF11F092EF11F039
:1023200067EF11F012501118D8A499EF11F09BEF3C
:1023300011F09EEF11F01050ADEF11F0102A125075
:102340000F5C0B6E10500B5CD8B0A9EF11F0ABEF27
:1023500011F064EF11F05EEF11F01200010E1F6E2C
:102360007EC020F07FC021F0000E246E1F0E236E71
:102370000001B46BEAEF11F02306D8A024061A502E
:102380000F0B226E0A0E2260C8EF11F0CAEF11F097
:10239000CEEF11F0300E2226D0EF11F0370E2226AC
:1023A0002350950FD96EDA6A22C0DFFF1F6A20061C
:1023B000D8A021061AC01CF01BC01DF0040E1E6E12
:1023C000D8901D321C321E2EE0EF11F01CC01AF006
:1023D0001DC01BF024BEF6EF11F0245009E1020EDF
:1023E000235CD8A0F6EF11F0F8EF11F01DEF12F01A
:1023F0001A501B10D8A4FFEF11F001EF12F0BCEF40
:1024000011F01F50D8A407EF12F009EF12F0BCEF43
:1024100011F021BE14EF12F0215008E12004D8A0E1
:1024200014EF12F016EF12F01DEF12F055B21BEF81
:1024300012F01DEF12F0BCEF11F019C012F0235092
:10244000950F136E20C014F021C015F0C7EC16F0E4
:1024500012004A504A24516E546A56505426030EB4
:102460005426515054261A0E4C6EF80EE82EFED704
:102470004C2EFCD700D0B50E326E380E336E56C0DF
:1024800034F0356A51C036F0376AA4EC19F0B50E55
:10249000086ED8EC19F0000E506E000E4F6E75EFFE
:1024A00012F04F504824056E50504920066E6CECD7
:1024B00019F005C052F006C053F053504D6E52C093
:1024C0004EF04D5054264E505426B50E326E530EDB
:1024D000336E52C034F053C035F0A4EC19F0B50E91
:1024E000086ED8EC19F04F4A502A4A504F5C4B50B6
:1024F0005058D8A07EEF12F080EF12F051EF12F09A
:10250000546CB50E326E310E336E54C034F0356AF1
:10251000A4EC19F0B50E086ED8EC19F012000A6A96
:1025200008BE97EF12F095EF12F09DEF12F0076CD6
:10253000081ED8B0082A010E0A6E06BEA4EF12F0DB
:10254000A2EF12F0AAEF12F0056C061ED8B0062A10
:10255000010E0A1A000E0C6E000E0B6E07500810CA
:10256000D8B4B5EF12F0B7EF12F0DFEF12F0010EB2
:10257000096EBFEF12F0D89007360836092A08AE68
:10258000C4EF12F0C6EF12F0BBEF12F0D8900B368A
:102590000C360750055C08500658D8A0D2EF12F050
:1025A000D4EF12F0D9EF12F00750055E0850065A2A
:1025B0000B80D89008320732092EC6EF12F00A506D
:1025C000D8B4E5EF12F0E7EF12F0EBEF12F00B6C7E
:1025D0000C1ED8B00C2A0BC005F00CC006F012007F
:1025E00000019405D8A4F7EF12F0F9EF12F01FEFF5
:1025F00013F0000E1E6E010E1F6E32EC0FF0000E77
:102600000001D76F000ED66F000ED625D96E010ED1
:10261000D721DA6EDF6A04000001D64BD72BD7BF73
:102620001BEF13F0D75109E1640ED65DD8A01BEF64
:1026300013F01DEF13F004EF13F0596A946B920539
:10264000D8A425EF13F027EF13F04DEF13F0000E91
:10265000C96F020ECA6F2EEC08F0000E0001D96F90
:10266000000ED86F000ED825D96E020ED921DA6E71
:10267000DF6A04000001D84BD92BD9BF49EF13F012
:10268000D95109E1C80ED85DD8A049EF13F04BEF3E
:1026900013F032EF13F0936B926B1200506A000E3E
:1026A000526E000E516E6EEF13F051504824056EBD
:1026B00052504920066EEDEC19F04E6E51C04CF0B0
:1026C0004EC04DF04C2A67EF13F0D8904D364C2E8B
:1026D00065EF13F04D505012514A522A4A50515C46
:1026E0004B505258D8A077EF13F079EF13F055EF15
:1026F00013F0070E4A244C6E000E4B204D6ED890FE
:102700004D324C32D8904D324C32D8904D324C3202
:102710004C504F6E536A56505326532A4F505326EF
:1027200050505326536CB50E326E220E336E56C087
:1027300034F0356A4FC036F0376A50C038F0396A25
:1027400053C03AF03B6AA4EC19F0B50E086ED8EC11
:1027500019F012000A6A06BEB2EF13F0B0EF13F0E0
:10276000B8EF13F0056C061ED8B0062A010E0A6EEB
:1027700008BEBFEF13F0BDEF13F0C3EF13F0076C0B
:10278000081ED8B0082A07500810D8B4CAEF13F0B2
:10279000CCEF13F0F0EF13F0010E096ED4EF13F04D
:1027A000D89007360836092A08AED9EF13F0DBEFC8
:1027B00013F0D0EF13F00750055C08500658D8A06E
:1027C000E4EF13F0E6EF13F0EAEF13F00750055EC5
:1027D0000850065AD89008320732092EDBEF13F062
:1027E0000A50D8B4F6EF13F0F8EF13F0FCEF13F043
:1027F000056C061ED8B0062A05C005F006C006F016
:1028000012000750D8B407EF14F009EF14F011EFDD
:1028100014F00750D8A40FEF14F011EF14F016EFD6
:1028200014F005502EEC1AF055EF14F00750D96E45
:10283000DA6A090ED926DE50DE10D8B422EF14F081
:1028400024EF14F03DEF14F00750D96EDA6A090E48
:10285000D9260750E16EE26A020EE126DE50E65C00
:10286000E650800A0C6EDE50800A0C58D8B03BEF60
:1028700014F03DEF14F055EF14F00750D96EDA6AFA
:10288000020ED926DF50086E0750D96EDA6ADF5083
:102890000824D96EDA6A05C0DFFF0750D96EDA6AFC
:1028A000020ED926DE2A000EDD221200000E0D6E69
:1028B000000E0E6E000E0F6E000E106E09500A1004
:1028C0000B100C10D8B467EF14F069EF14F09FEF01
:1028D00014F0010E116E73EF14F0D89009360A3619
:1028E0000B360C36112A0CAE78EF14F07AEF14F098
:1028F0006DEF14F0D8900D360E360F3610360950A5
:10290000055C0A5006580B5007580C500858D8A0C0
:102910008CEF14F08EEF14F097EF14F00950055E71
:102920000A50065A0B50075A0C50085A0D80D8907E
:102930000C320B320A320932112E7AEF14F00DC02C
:1029400005F00EC006F00FC007F010C008F012002E
:10295000000E0B6E000E0A6E0550D96EDA6ADFCFDC
:10296000F6FF100EF76E0800F5502A0AD8A4BBEF48
:1029700014F0BDEF14F0E2EF14F00550D96EDA6AEE
:10298000DF2A0650D96EDA6A020EDF26DF5CD96EC6
:10299000DA6ADECF0AF0DECF0BF0F5EF14F00A0EA4
:1029A0000A02F3CF07F0F4CF08F00B02F350082629
:1029B000095007240A6E000E08200B6E0550D96ED0
:1029C000DA6ADF2A0550D96EDA6ADFCFF6FF100E19
:1029D000F76E0800F550D00F096E090E0964F3EF89
:1029E00014F0F5EF14F0CFEF14F00AC005F00BC0AF
:1029F00006F01200056E000E076E000E066E02EF66
:102A000015F00400A4B807EF15F009EF15F014EF66
:102A100015F0064A072A06500710D8A412EF15F041
:102A200014EF15F001EF15F005C073FF000E076EEF
:102A3000000E066E1DEF15F00400A4B822EF15F08D
:102A400024EF15F02FEF15F0064A072A065007105D
:102A5000D8A42DEF15F02FEF15F01CEF15F0000E98
:102A6000076E000E066E36EF15F0040072B23BEFF3
:102A700015F03DEF15F048EF15F0064A072A06500D
:102A80000710D8A446EF15F048EF15F035EF15F014
:102A90001200056E000E076E000E066E51EF15F067
:102AA00004009EB856EF15F058EF15F063EF15F0DF
:102AB000064A072A06500710D8A461EF15F063EF05
:102AC00015F050EF15F005C0ADFF000E076E000EBB
:102AD000066E6CEF15F004009EB871EF15F073EF01
:102AE00015F07EEF15F0064A072A06500710D8A405
:102AF0007CEF15F07EEF15F06BEF15F0000E076E12
:102B0000000E066E85EF15F00400ACB28AEF15F0EA
:102B10008CEF15F097EF15F0064A072A06500710BC
:102B2000D8A495EF15F097EF15F084EF15F012008B
:102B30001250131014101510D8A4A1EF15F0A3EF24
:102B400015F0A5EF15F0E4EF15F012C016F013C064
:102B500017F014C018F015C019F0D89019321832B7
:102B600017321632000E1624056E090E1720066E57
:102B70003D0E1820076E000E1920086E12C009F0D5
:102B800013C00AF014C00BF015C00CF056EC14F092
:102B9000FF0E05241A6EFF0E06201B6E0F013B9DD3
:102BA0003B9F959C958E716A726A706A708672847A
:102BB0001B50766E1AC075FF7298729C719C718E54
:102BC000728A7188A38AA49A1200125013101410EA
:102BD0001510D8A4EEEF15F0F0EF15F0F2EF15F0A8
:102BE00031EF16F012C016F013C017F014C018F031
:102BF00015C019F0D8901932183217321632000E5B
:102C00001624056E090E1720066E3D0E1820076E5D
:102C1000000E1920086E12C009F013C00AF014C08B
:102C20000BF015C00CF056EC14F0FF0E05241A6ED4
:102C3000FF0E06201B6E0F013A9D3A9F949C948EC6
:102C4000AB6AAC6AB86AB886AC841B50B06E1AC066
:102C5000AFFFAC98AC9CAB9CAB8EAC8AAB889D8A2A
:102C60009E9A1200095007E10C0E085CD8B03BEFA9
:102C700016F03DEF16F05AEF16F00B280A10D8A404
:102C800044EF16F046EF16F04CEF16F00850600FC8
:102C9000D96EDA6A010EDF6E0A500B10D8A453EF1A
:102CA00016F055EF16F05AEF16F00850600FD96E77
:102CB000DA6ADF6A000E0D6E000E0C6E000E0C2438
:102CC000D96E020E0D20DA6EDF50FAEC14F00C4AC9
:102CD0000D2A0DBE75EF16F00D5009E10F0E0C5CBC
:102CE000D8A075EF16F077EF16F05EEF16F00D0E28
:102CF000FAEC14F00A0EFAEC14F012008C8A1A0E98
:102D0000086EF80EE82EFED7082EFCD700D01A0E5B
:102D1000086EF80EE82EFED7082EFCD700D0000E65
:102D20000A6E000E096E0950010F086E08C0F6FF0A
:102D3000100EF76E0800F55049EC15F0040E091856
:102D40000A10D8A4A6EF16F0A8EF16F0A9EF16F017
:102D50008C9A280EE82EFED70400094A0A2A0ABED9
:102D6000BBEF16F00A5009E1050E095CD8A0BBEFD5
:102D700016F0BDEF16F093EF16F01A0E086EF80E6F
:102D8000E82EFED7082EFCD700D08C9A120055A052
:102D9000CCEF16F0CEEF16F0D4EF16F013C00DF016
:102DA00012C00EF04EEC19F015BEDBEF16F0D9EFA5
:102DB00016F0DFEF16F0000E156E000E146E000E0A
:102DC000186E000E176EEFEF16F0000E066E200E56
:102DD000056E12C007F001EC14F0174A182A1450BF
:102DE000175C1850800A166E1550800A1658D8A025
:102DF000FCEF16F0FEEF16F0E5EF16F055B003EF1E
:102E000017F005EF17F00BEF17F013C00DF012C01D
:102E10000EF04EEC19F012009EAA11EF17F013EF0E
:102E200017F02CEF17F0AECF01F0640E59601BEFD6
:102E300017F01DEF17F026EF17F0000E5924D96E8A
:102E4000DA6A010EDA2201C0DFFF592AD58ECF0ED1
:102E5000D76E2C0ED66E9E9AA4AA31EF17F033EFE0
:102E600017F04DEF17F074CF02F0C80E0001936118
:102E70003CEF17F03EEF17F047EF17F0000E9325E9
:102E8000D96EDA6A020EDA2202C0DFFF932BCD8000
:102E90009E0ECF6E580ECE6EA49A1200056E2F0EA7
:102EA000056455EF17F057EF17F063EF17F03A0E80
:102EB00005605DEF17F05FEF17F063EF17F0055057
:102EC000D00F8CEF17F0400E056469EF17F06BEF31
:102ED00017F077EF17F0470E056071EF17F073EFFB
:102EE00017F077EF17F00550C90F8CEF17F0600E51
:102EF00005647DEF17F07FEF17F08BEF17F0670E8B
:102F0000056085EF17F087EF17F08BEF17F005508E
:102F1000A90F8CEF17F0000E1200095007E1090EFF
:102F2000085CD8B096EF17F098EF17F0A2EF17F003
:102F30000850020DF3506C0FD96EDA6A0AC0DEFF3A
:102F40000BC0DDFF000E0D6E000E0C6E000E0C248B
:102F5000D96E020E0D20DA6EDF50FAEC14F00C4A36
:102F60000D2A0DBEBDEF17F00D5009E10F0E0C5CE0
:102F7000D8A0BDEF17F0BFEF17F0A6EF17F00D0EBA
:102F8000FAEC14F00A0EFAEC14F01200F2A4CBEFF3
:102F900017F0CDEF17F0D2EF17F0010E0001946F8C
:102FA000D59EF2949EA0D7EF17F0D9EF17F0DEEF81
:102FB00017F0010E0001926FCD909E909EA2E3EF5C
:102FC00017F0E5EF17F0FEEF17F00001902B090E58
:102FD0009065EDEF17F0EFEF17F0F1EF17F08E2B94
:102FE000906B912B630E9165F8EF17F0FAEF17F0E5
:102FF000FDEF17F08F2B8A2B916B9E921200F0EC55
:1030000018F037EC18F00CEC1AF001EC1AF016EC92
:103010001AF0800E126E250E136E000E146E000E46
:10302000156EE5EC15F0800E126E250E136E000E77
:10303000146E000E156E98EC15F0F28CF28E1FECEB
:103040001AF0F0EC12F05CEC0EF0030E00018A6551
:103050002CEF18F02EEF18F032EF18F0CDEC18F03E
:1030600000018A6B040021EF18F013EF00F08D6A65
:103070008C6A896A8A6A8B6A96689268936894688F
:1030800095680F013B6B3A6B396B3C6B386B616A2F
:10309000F18E546B556B566B9390939293949396D9
:1030A00095909592959495968A808A928A848A962C
:1030B0008C868C948C828C90949094929494949618
:1030C00094988B908B928B948B968B983885959A4D
:1030D0008C9A12008C8A1A0E486EF80EE82EFED7D3
:1030E000482EFCD700D01A0E486EF80EE82EFED7F8
:1030F000482EFCD700D04E0E086E0850D8A4100EF3
:10310000096E9CEC18F0B50E326E580E336E86C008
:1031100034F087C035F0A4EC19F0B50E086E096ADA
:103120009CEC18F01A0E486EF80EE82EFED7482ECA
:10313000FCD700D08C9A1200B3EF18F008C0F6FF4D
:1031400009C0F7FF000EF86E0F0EF76403D00800F9
:10315000F55005D0F6CFE1FFF7CFE2FFE75049EC9D
:1031600015F0084A092A08C0F6FF09C0F7FF000E4B
:10317000F86E0F0EF76403D00800F55005D0F6CFB7
:10318000E1FFF7CFE2FFE7500009D8A4CAEF18F03B
:10319000CCEF18F09EEF18F012008C8A1A0E0A6E0F
:1031A000F80EE82EFED70A2EFCD700D01A0E0A6EB3
:1031B000F80EE82EFED70A2EFCD700D0060E086EB9
:1031C0000850D8A4100E096E9CEC18F01A0E0A6E66
:1031D000F80EE82EFED70A2EFCD700D08C9A1200EB
:1031E000720ED36E040ED26E9B6A000E066E000E37
:1031F000056EFCEF18F00400D3B401EF19F003EFF3
:1032000019F010EF19F0054A062A100E055C270E7A
:103210000658D8A00EEF19F010EF19F0FBEF18F0D8
:1032200012002FC031F01DEF19F02EC025F0310E25
:10323000266E30C027F09DEC0CF031C0F6FF100E6A
:10324000F76E0800F5500009D8A429EF19F02BEF0C
:1032500019F015EF19F0000E2F6E000E2E6E1200F1
:1032600002EE00F0C90EEE6AE806FDE101EE00F0A4
:10327000650EEE6AE806FDE100EE60F0690EEE6AAA
:10328000E806FDE1596A586A576A566A556A5A90C3
:103290005A92000EF86E0001FFEF17F0000E116E4B
:1032A000000E106E5DEF19F00FC005F0066A0EC03B
:1032B00007F001EC14F0104A112A0D501024D96EB9
:1032C000DA6ADF500F6E0F50D8A469EF19F06BEF78
:1032D00019F054EF19F01200065007E1090E055CD1
:1032E000D8B075EF19F077EF19F083EF19F00550AA
:1032F000020DF3506C0FD96EDA6ADECF05F0DDCF28
:1033000006F087EF19F0000E066E000E056E120033
:10331000076A8CEF19F0072AC80E076092EF19F0C0
:1033200094EF19F0A2EF19F005C0D9FF06C0DAFF3B
:10333000054A062ADF50D8A4A0EF19F0A2EF19F031
:103340008BEF19F007501200340E3C6E32C03DF086
:10335000000E406E000E3F6E000E476E000E466E71
:103360003D0E2E6E33C02FF03C0E306E11EC19F076
:1033700032503F24D96EDA6ADF6A12000CBEC3EF06
:1033800019F0C5EF19F0CBEF19F00BC00BF00CC022
:103390000CF0D7EF19F00BC00DF00CC00EF00D1EA5
:1033A0000E1E0D4A0E2A0DC00BF00EC00CF01200BE
:1033B000E1EF19F00850D96EDA6ADF50FAEC14F038
:1033C000082A0850D96EDA6ADF50D8A4EAEF19F05B
:1033D000ECEF19F0DAEF19F01200065007E10C0ECD
:1033E000055CD8B0F6EF19F0F8EF19F0FFEF19F01F
:1033F0000550600FD96EDA6ADF5000EF1AF0000E48
:103400001200320ECD6ECC6A9E0ECF6E580ECE6E6E
:103410009E909D80CD901200030ED56ECF0ED76E7C
:103420002C0ED66ED59EF28AF2941200BA6AF90E6C
:10343000BB6EBC6A9E929D824E0EBA6E1200000157
:103440008C6B8E6B140E8D6F010E586E1200000186
:0E3450008C6B8E6B010E8D6F586A120012008D
:020000040030CA
:0E000000FF381F1FFFBF85FF0FC00FE00F402E
:00000001FF
